{
	"contracts/dao1.sol": {
		"ProposalDAO": {
			"abi": [
				{
					"inputs": [],
					"stateMutability": "nonpayable",
					"type": "constructor"
				},
				{
					"anonymous": false,
					"inputs": [
						{
							"indexed": false,
							"internalType": "address",
							"name": "member",
							"type": "address"
						}
					],
					"name": "MemberAdded",
					"type": "event"
				},
				{
					"anonymous": false,
					"inputs": [
						{
							"indexed": false,
							"internalType": "uint256",
							"name": "proposalId",
							"type": "uint256"
						},
						{
							"indexed": false,
							"internalType": "address",
							"name": "proposer",
							"type": "address"
						},
						{
							"indexed": false,
							"internalType": "string",
							"name": "title",
							"type": "string"
						},
						{
							"indexed": false,
							"internalType": "string",
							"name": "ipfsLink",
							"type": "string"
						},
						{
							"indexed": false,
							"internalType": "uint256",
							"name": "startTime",
							"type": "uint256"
						},
						{
							"indexed": false,
							"internalType": "uint256",
							"name": "endTime",
							"type": "uint256"
						}
					],
					"name": "ProposalCreated",
					"type": "event"
				},
				{
					"anonymous": false,
					"inputs": [
						{
							"indexed": false,
							"internalType": "uint256",
							"name": "proposalId",
							"type": "uint256"
						},
						{
							"indexed": false,
							"internalType": "address",
							"name": "voter",
							"type": "address"
						},
						{
							"indexed": false,
							"internalType": "enum ProposalDAO.VoteChoice",
							"name": "voteChoice",
							"type": "uint8"
						},
						{
							"indexed": false,
							"internalType": "uint256",
							"name": "votes",
							"type": "uint256"
						}
					],
					"name": "Voted",
					"type": "event"
				},
				{
					"inputs": [
						{
							"internalType": "address",
							"name": "_member",
							"type": "address"
						}
					],
					"name": "addMember",
					"outputs": [],
					"stateMutability": "nonpayable",
					"type": "function"
				},
				{
					"inputs": [
						{
							"internalType": "string",
							"name": "_title",
							"type": "string"
						},
						{
							"internalType": "string",
							"name": "_ipfsLink",
							"type": "string"
						},
						{
							"internalType": "uint256",
							"name": "_votingStartTime",
							"type": "uint256"
						},
						{
							"internalType": "uint256",
							"name": "_votingEndTime",
							"type": "uint256"
						}
					],
					"name": "createProposal",
					"outputs": [],
					"stateMutability": "nonpayable",
					"type": "function"
				},
				{
					"inputs": [],
					"name": "getAllProposals",
					"outputs": [
						{
							"internalType": "uint256[]",
							"name": "",
							"type": "uint256[]"
						}
					],
					"stateMutability": "view",
					"type": "function"
				},
				{
					"inputs": [],
					"name": "getAllProposalsInfo",
					"outputs": [
						{
							"components": [
								{
									"internalType": "uint256",
									"name": "proposalId",
									"type": "uint256"
								},
								{
									"internalType": "string",
									"name": "title",
									"type": "string"
								},
								{
									"internalType": "string",
									"name": "ipfsLink",
									"type": "string"
								},
								{
									"internalType": "uint256",
									"name": "yesVotes",
									"type": "uint256"
								},
								{
									"internalType": "uint256",
									"name": "noVotes",
									"type": "uint256"
								},
								{
									"internalType": "uint256",
									"name": "endResults",
									"type": "uint256"
								},
								{
									"internalType": "uint256",
									"name": "votingStartTime",
									"type": "uint256"
								},
								{
									"internalType": "uint256",
									"name": "votingEndTime",
									"type": "uint256"
								}
							],
							"internalType": "struct ProposalDAO.ProposalInfo[]",
							"name": "",
							"type": "tuple[]"
						}
					],
					"stateMutability": "view",
					"type": "function"
				},
				{
					"inputs": [
						{
							"internalType": "uint256",
							"name": "_proposalId",
							"type": "uint256"
						}
					],
					"name": "getProposalInfo",
					"outputs": [
						{
							"internalType": "uint256",
							"name": "",
							"type": "uint256"
						},
						{
							"internalType": "string",
							"name": "",
							"type": "string"
						},
						{
							"internalType": "string",
							"name": "",
							"type": "string"
						},
						{
							"internalType": "uint256",
							"name": "",
							"type": "uint256"
						},
						{
							"internalType": "uint256",
							"name": "",
							"type": "uint256"
						},
						{
							"internalType": "uint256",
							"name": "",
							"type": "uint256"
						},
						{
							"internalType": "uint256",
							"name": "",
							"type": "uint256"
						},
						{
							"internalType": "uint256",
							"name": "",
							"type": "uint256"
						}
					],
					"stateMutability": "view",
					"type": "function"
				},
				{
					"inputs": [
						{
							"internalType": "address",
							"name": "",
							"type": "address"
						}
					],
					"name": "members",
					"outputs": [
						{
							"internalType": "bool",
							"name": "",
							"type": "bool"
						}
					],
					"stateMutability": "view",
					"type": "function"
				},
				{
					"inputs": [],
					"name": "nextProposalId",
					"outputs": [
						{
							"internalType": "uint256",
							"name": "",
							"type": "uint256"
						}
					],
					"stateMutability": "view",
					"type": "function"
				},
				{
					"inputs": [],
					"name": "owner",
					"outputs": [
						{
							"internalType": "address",
							"name": "",
							"type": "address"
						}
					],
					"stateMutability": "view",
					"type": "function"
				},
				{
					"inputs": [
						{
							"internalType": "uint256",
							"name": "",
							"type": "uint256"
						}
					],
					"name": "proposals",
					"outputs": [
						{
							"internalType": "uint256",
							"name": "id",
							"type": "uint256"
						},
						{
							"internalType": "address",
							"name": "proposer",
							"type": "address"
						},
						{
							"internalType": "string",
							"name": "title",
							"type": "string"
						},
						{
							"internalType": "string",
							"name": "ipfsLink",
							"type": "string"
						},
						{
							"internalType": "uint256",
							"name": "votingStartTime",
							"type": "uint256"
						},
						{
							"internalType": "uint256",
							"name": "votingEndTime",
							"type": "uint256"
						},
						{
							"internalType": "uint256",
							"name": "yesVotes",
							"type": "uint256"
						},
						{
							"internalType": "uint256",
							"name": "noVotes",
							"type": "uint256"
						}
					],
					"stateMutability": "view",
					"type": "function"
				},
				{
					"inputs": [
						{
							"internalType": "uint256",
							"name": "_proposalId",
							"type": "uint256"
						},
						{
							"internalType": "enum ProposalDAO.VoteChoice",
							"name": "_voteChoice",
							"type": "uint8"
						}
					],
					"name": "vote",
					"outputs": [],
					"stateMutability": "nonpayable",
					"type": "function"
				}
			],
			"devdoc": {
				"kind": "dev",
				"methods": {},
				"version": 1
			},
			"evm": {
				"assembly": "    /* \"contracts/dao1.sol\":60:6186  contract ProposalDAO {... */\n  mstore(0x40, 0x80)\n    /* \"contracts/dao1.sol\":1641:1692  constructor() {... */\n  callvalue\n  dup1\n  iszero\n  tag_1\n  jumpi\n  0x00\n  dup1\n  revert\ntag_1:\n  pop\n    /* \"contracts/dao1.sol\":1666:1671  owner */\n  0x00\n    /* \"contracts/dao1.sol\":1666:1684  owner = msg.sender */\n  dup1\n  sload\n  not(sub(shl(0xa0, 0x01), 0x01))\n  and\n    /* \"contracts/dao1.sol\":1674:1684  msg.sender */\n  caller\n    /* \"contracts/dao1.sol\":1666:1684  owner = msg.sender */\n  or\n  swap1\n  sstore\n    /* \"contracts/dao1.sol\":60:6186  contract ProposalDAO {... */\n  dataSize(sub_0)\n  dup1\n  dataOffset(sub_0)\n  0x00\n  codecopy\n  0x00\n  return\nstop\n\nsub_0: assembly {\n        /* \"contracts/dao1.sol\":60:6186  contract ProposalDAO {... */\n      mstore(0x40, 0x80)\n      callvalue\n      dup1\n      iszero\n      tag_1\n      jumpi\n      0x00\n      dup1\n      revert\n    tag_1:\n      pop\n      jumpi(tag_2, lt(calldatasize, 0x04))\n      shr(0xe0, calldataload(0x00))\n      dup1\n      0x943e8216\n      gt\n      tag_13\n      jumpi\n      dup1\n      0x943e8216\n      eq\n      tag_8\n      jumpi\n      dup1\n      0xacbab3a9\n      eq\n      tag_9\n      jumpi\n      dup1\n      0xbc903cb8\n      eq\n      tag_10\n      jumpi\n      dup1\n      0xca6d56dc\n      eq\n      tag_11\n      jumpi\n      dup1\n      0xcceb68f5\n      eq\n      tag_12\n      jumpi\n      0x00\n      dup1\n      revert\n    tag_13:\n      dup1\n      0x013cf08b\n      eq\n      tag_3\n      jumpi\n      dup1\n      0x08ae4b0c\n      eq\n      tag_4\n      jumpi\n      dup1\n      0x2ab09d14\n      eq\n      tag_5\n      jumpi\n      dup1\n      0x6b5e1766\n      eq\n      tag_6\n      jumpi\n      dup1\n      0x8da5cb5b\n      eq\n      tag_7\n      jumpi\n    tag_2:\n      0x00\n      dup1\n      revert\n        /* \"contracts/dao1.sol\":831:876  mapping(uint256 => Proposal) public proposals */\n    tag_3:\n      tag_14\n      tag_15\n      calldatasize\n      0x04\n      tag_16\n      jump\t// in\n    tag_15:\n      tag_17\n      jump\t// in\n    tag_14:\n      mload(0x40)\n      tag_18\n      swap9\n      swap8\n      swap7\n      swap6\n      swap5\n      swap4\n      swap3\n      swap2\n      swap1\n      tag_19\n      jump\t// in\n    tag_18:\n      mload(0x40)\n      dup1\n      swap2\n      sub\n      swap1\n      return\n        /* \"contracts/dao1.sol\":883:922  mapping(address => bool) public members */\n    tag_4:\n      tag_20\n      tag_21\n      calldatasize\n      0x04\n      tag_22\n      jump\t// in\n    tag_21:\n      mstore(0x20, 0x03)\n      0x00\n      swap1\n      dup2\n      mstore\n      0x40\n      swap1\n      keccak256\n      sload\n      0xff\n      and\n      dup2\n      jump\n    tag_20:\n      mload(0x40)\n        /* \"#utility.yul\":1949:1963   */\n      swap1\n      iszero\n        /* \"#utility.yul\":1942:1964   */\n      iszero\n        /* \"#utility.yul\":1924:1965   */\n      dup2\n      mstore\n        /* \"#utility.yul\":1912:1914   */\n      0x20\n        /* \"#utility.yul\":1897:1915   */\n      add\n        /* \"contracts/dao1.sol\":883:922  mapping(address => bool) public members */\n      tag_18\n        /* \"#utility.yul\":1784:1971   */\n      jump\n        /* \"contracts/dao1.sol\":115:144  uint256 public nextProposalId */\n    tag_5:\n      tag_26\n      sload(0x01)\n      dup2\n      jump\n    tag_26:\n      mload(0x40)\n        /* \"#utility.yul\":2122:2147   */\n      swap1\n      dup2\n      mstore\n        /* \"#utility.yul\":2110:2112   */\n      0x20\n        /* \"#utility.yul\":2095:2113   */\n      add\n        /* \"contracts/dao1.sol\":115:144  uint256 public nextProposalId */\n      tag_18\n        /* \"#utility.yul\":1976:2153   */\n      jump\n        /* \"contracts/dao1.sol\":1700:2698  function createProposal(... */\n    tag_6:\n      tag_30\n      tag_31\n      calldatasize\n      0x04\n      tag_32\n      jump\t// in\n    tag_31:\n      tag_33\n      jump\t// in\n    tag_30:\n      stop\n        /* \"contracts/dao1.sol\":88:108  address public owner */\n    tag_7:\n      sload(0x00)\n      tag_34\n      swap1\n      sub(shl(0xa0, 0x01), 0x01)\n      and\n      dup2\n      jump\n    tag_34:\n      mload(0x40)\n      sub(shl(0xa0, 0x01), 0x01)\n        /* \"#utility.yul\":3863:3895   */\n      swap1\n      swap2\n      and\n        /* \"#utility.yul\":3845:3896   */\n      dup2\n      mstore\n        /* \"#utility.yul\":3833:3835   */\n      0x20\n        /* \"#utility.yul\":3818:3836   */\n      add\n        /* \"contracts/dao1.sol\":88:108  address public owner */\n      tag_18\n        /* \"#utility.yul\":3699:3902   */\n      jump\n        /* \"contracts/dao1.sol\":2706:3545  function vote(uint256 _proposalId, VoteChoice _voteChoice)... */\n    tag_8:\n      tag_30\n      tag_39\n      calldatasize\n      0x04\n      tag_40\n      jump\t// in\n    tag_39:\n      tag_41\n      jump\t// in\n        /* \"contracts/dao1.sol\":5128:6183  function getAllProposalsInfo() external view returns (ProposalInfo[] memory) {... */\n    tag_9:\n      tag_42\n      tag_43\n      jump\t// in\n    tag_42:\n      mload(0x40)\n      tag_18\n      swap2\n      swap1\n      tag_45\n      jump\t// in\n        /* \"contracts/dao1.sol\":3762:4832  function getProposalInfo(uint256 _proposalId)... */\n    tag_10:\n      tag_46\n      tag_47\n      calldatasize\n      0x04\n      tag_16\n      jump\t// in\n    tag_47:\n      tag_48\n      jump\t// in\n    tag_46:\n      mload(0x40)\n      tag_18\n      swap9\n      swap8\n      swap7\n      swap6\n      swap5\n      swap4\n      swap3\n      swap2\n      swap1\n      tag_50\n      jump\t// in\n        /* \"contracts/dao1.sol\":3553:3754  function addMember(address _member) external onlyOwner {... */\n    tag_11:\n      tag_30\n      tag_52\n      calldatasize\n      0x04\n      tag_22\n      jump\t// in\n    tag_52:\n      tag_53\n      jump\t// in\n        /* \"contracts/dao1.sol\":4840:5120  function getAllProposals() external view returns (uint256[] memory) {... */\n    tag_12:\n      tag_54\n      tag_55\n      jump\t// in\n    tag_54:\n      mload(0x40)\n      tag_18\n      swap2\n      swap1\n      tag_57\n      jump\t// in\n        /* \"contracts/dao1.sol\":831:876  mapping(uint256 => Proposal) public proposals */\n    tag_17:\n      0x02\n      0x20\n      dup2\n      swap1\n      mstore\n      0x00\n      swap2\n      dup3\n      mstore\n      0x40\n      swap1\n      swap2\n      keccak256\n      dup1\n      sload\n      0x01\n      dup3\n      add\n      sload\n      swap3\n      dup3\n      add\n      dup1\n      sload\n      swap2\n      swap4\n      sub(shl(0xa0, 0x01), 0x01)\n      and\n      swap3\n      swap2\n      tag_58\n      swap1\n      tag_59\n      jump\t// in\n    tag_58:\n      dup1\n      0x1f\n      add\n      0x20\n      dup1\n      swap2\n      div\n      mul\n      0x20\n      add\n      mload(0x40)\n      swap1\n      dup2\n      add\n      0x40\n      mstore\n      dup1\n      swap3\n      swap2\n      swap1\n      dup2\n      dup2\n      mstore\n      0x20\n      add\n      dup3\n      dup1\n      sload\n      tag_60\n      swap1\n      tag_59\n      jump\t// in\n    tag_60:\n      dup1\n      iszero\n      tag_61\n      jumpi\n      dup1\n      0x1f\n      lt\n      tag_62\n      jumpi\n      0x0100\n      dup1\n      dup4\n      sload\n      div\n      mul\n      dup4\n      mstore\n      swap2\n      0x20\n      add\n      swap2\n      jump(tag_61)\n    tag_62:\n      dup3\n      add\n      swap2\n      swap1\n      0x00\n      mstore\n      keccak256(0x00, 0x20)\n      swap1\n    tag_63:\n      dup2\n      sload\n      dup2\n      mstore\n      swap1\n      0x01\n      add\n      swap1\n      0x20\n      add\n      dup1\n      dup4\n      gt\n      tag_63\n      jumpi\n      dup3\n      swap1\n      sub\n      0x1f\n      and\n      dup3\n      add\n      swap2\n    tag_61:\n      pop\n      pop\n      pop\n      pop\n      pop\n      swap1\n      dup1\n      0x03\n      add\n      dup1\n      sload\n      tag_64\n      swap1\n      tag_59\n      jump\t// in\n    tag_64:\n      dup1\n      0x1f\n      add\n      0x20\n      dup1\n      swap2\n      div\n      mul\n      0x20\n      add\n      mload(0x40)\n      swap1\n      dup2\n      add\n      0x40\n      mstore\n      dup1\n      swap3\n      swap2\n      swap1\n      dup2\n      dup2\n      mstore\n      0x20\n      add\n      dup3\n      dup1\n      sload\n      tag_65\n      swap1\n      tag_59\n      jump\t// in\n    tag_65:\n      dup1\n      iszero\n      tag_66\n      jumpi\n      dup1\n      0x1f\n      lt\n      tag_67\n      jumpi\n      0x0100\n      dup1\n      dup4\n      sload\n      div\n      mul\n      dup4\n      mstore\n      swap2\n      0x20\n      add\n      swap2\n      jump(tag_66)\n    tag_67:\n      dup3\n      add\n      swap2\n      swap1\n      0x00\n      mstore\n      keccak256(0x00, 0x20)\n      swap1\n    tag_68:\n      dup2\n      sload\n      dup2\n      mstore\n      swap1\n      0x01\n      add\n      swap1\n      0x20\n      add\n      dup1\n      dup4\n      gt\n      tag_68\n      jumpi\n      dup3\n      swap1\n      sub\n      0x1f\n      and\n      dup3\n      add\n      swap2\n    tag_66:\n      pop\n      pop\n      pop\n      pop\n      pop\n      swap1\n      dup1\n      0x04\n      add\n      sload\n      swap1\n      dup1\n      0x05\n      add\n      sload\n      swap1\n      dup1\n      0x08\n      add\n      sload\n      swap1\n      dup1\n      0x09\n      add\n      sload\n      swap1\n      pop\n      dup9\n      jump\t// out\n        /* \"contracts/dao1.sol\":1700:2698  function createProposal(... */\n    tag_33:\n        /* \"contracts/dao1.sol\":1329:1334  owner */\n      and(sub(shl(0xa0, 0x01), 0x01), sload(0x00))\n        /* \"contracts/dao1.sol\":1315:1325  msg.sender */\n      caller\n        /* \"contracts/dao1.sol\":1315:1334  msg.sender == owner */\n      eq\n        /* \"contracts/dao1.sol\":1307:1361  require(msg.sender == owner, \"Not the contract owner\") */\n      tag_70\n      jumpi\n      mload(0x40)\n      shl(0xe5, 0x461bcd)\n      dup2\n      mstore\n        /* \"#utility.yul\":8005:8007   */\n      0x20\n        /* \"contracts/dao1.sol\":1307:1361  require(msg.sender == owner, \"Not the contract owner\") */\n      0x04\n      dup3\n      add\n        /* \"#utility.yul\":7987:8008   */\n      mstore\n        /* \"#utility.yul\":8044:8046   */\n      0x16\n        /* \"#utility.yul\":8024:8042   */\n      0x24\n      dup3\n      add\n        /* \"#utility.yul\":8017:8047   */\n      mstore\n      shl(0x51, 0x2737ba103a34329031b7b73a3930b1ba1037bbb732b9)\n        /* \"#utility.yul\":8063:8081   */\n      0x44\n      dup3\n      add\n        /* \"#utility.yul\":8056:8108   */\n      mstore\n        /* \"#utility.yul\":8125:8143   */\n      0x64\n      add\n        /* \"contracts/dao1.sol\":1307:1361  require(msg.sender == owner, \"Not the contract owner\") */\n    tag_71:\n      mload(0x40)\n      dup1\n      swap2\n      sub\n      swap1\n      revert\n    tag_70:\n        /* \"contracts/dao1.sol\":1938:1952  _votingEndTime */\n      dup1\n        /* \"contracts/dao1.sol\":1919:1935  _votingStartTime */\n      dup3\n        /* \"contracts/dao1.sol\":1919:1952  _votingStartTime < _votingEndTime */\n      lt\n        /* \"contracts/dao1.sol\":1911:1977  require(_votingStartTime < _votingEndTime, \"Invalid voting times\") */\n      tag_74\n      jumpi\n      mload(0x40)\n      shl(0xe5, 0x461bcd)\n      dup2\n      mstore\n        /* \"#utility.yul\":8356:8358   */\n      0x20\n        /* \"contracts/dao1.sol\":1911:1977  require(_votingStartTime < _votingEndTime, \"Invalid voting times\") */\n      0x04\n      dup3\n      add\n        /* \"#utility.yul\":8338:8359   */\n      mstore\n        /* \"#utility.yul\":8395:8397   */\n      0x14\n        /* \"#utility.yul\":8375:8393   */\n      0x24\n      dup3\n      add\n        /* \"#utility.yul\":8368:8398   */\n      mstore\n      shl(0x60, 0x496e76616c696420766f74696e672074696d6573)\n        /* \"#utility.yul\":8414:8432   */\n      0x44\n      dup3\n      add\n        /* \"#utility.yul\":8407:8457   */\n      mstore\n        /* \"#utility.yul\":8474:8492   */\n      0x64\n      add\n        /* \"contracts/dao1.sol\":1911:1977  require(_votingStartTime < _votingEndTime, \"Invalid voting times\") */\n      tag_71\n        /* \"#utility.yul\":8154:8498   */\n      jump\n        /* \"contracts/dao1.sol\":1911:1977  require(_votingStartTime < _votingEndTime, \"Invalid voting times\") */\n    tag_74:\n        /* \"contracts/dao1.sol\":2031:2045  nextProposalId */\n      0x01\n      dup1\n      sload\n        /* \"contracts/dao1.sol\":1990:2018  Proposal storage newProposal */\n      0x00\n        /* \"contracts/dao1.sol\":2021:2046  proposals[nextProposalId] */\n      dup2\n      dup2\n      mstore\n        /* \"contracts/dao1.sol\":2021:2030  proposals */\n      0x02\n        /* \"contracts/dao1.sol\":2021:2046  proposals[nextProposalId] */\n      0x20\n      dup2\n      swap1\n      mstore\n      0x40\n      swap1\n      swap2\n      keccak256\n        /* \"contracts/dao1.sol\":2057:2088  newProposal.id = nextProposalId */\n      swap2\n      dup3\n      sstore\n        /* \"contracts/dao1.sol\":2099:2119  newProposal.proposer */\n      swap2\n      dup2\n      add\n        /* \"contracts/dao1.sol\":2099:2132  newProposal.proposer = msg.sender */\n      dup1\n      sload\n      not(sub(shl(0xa0, 0x01), 0x01))\n      and\n        /* \"contracts/dao1.sol\":2122:2132  msg.sender */\n      caller\n        /* \"contracts/dao1.sol\":2099:2132  newProposal.proposer = msg.sender */\n      or\n      swap1\n      sstore\n        /* \"contracts/dao1.sol\":2021:2046  proposals[nextProposalId] */\n      swap1\n        /* \"contracts/dao1.sol\":2143:2160  newProposal.title */\n      dup2\n      add\n        /* \"contracts/dao1.sol\":2143:2169  newProposal.title = _title */\n      tag_77\n        /* \"contracts/dao1.sol\":2163:2169  _title */\n      dup7\n        /* \"contracts/dao1.sol\":2143:2160  newProposal.title */\n      dup3\n        /* \"contracts/dao1.sol\":2143:2169  newProposal.title = _title */\n      tag_78\n      jump\t// in\n    tag_77:\n      pop\n        /* \"contracts/dao1.sol\":2180:2200  newProposal.ipfsLink */\n      0x03\n      dup2\n      add\n        /* \"contracts/dao1.sol\":2180:2212  newProposal.ipfsLink = _ipfsLink */\n      tag_79\n        /* \"contracts/dao1.sol\":2203:2212  _ipfsLink */\n      dup6\n        /* \"contracts/dao1.sol\":2180:2200  newProposal.ipfsLink */\n      dup3\n        /* \"contracts/dao1.sol\":2180:2212  newProposal.ipfsLink = _ipfsLink */\n      tag_78\n      jump\t// in\n    tag_79:\n      pop\n        /* \"contracts/dao1.sol\":2248:2275  newProposal.votingStartTime */\n      0x04\n      dup2\n      add\n        /* \"contracts/dao1.sol\":2248:2294  newProposal.votingStartTime = _votingStartTime */\n      dup4\n      swap1\n      sstore\n        /* \"contracts/dao1.sol\":2305:2330  newProposal.votingEndTime */\n      0x05\n      dup2\n      add\n        /* \"contracts/dao1.sol\":2305:2347  newProposal.votingEndTime = _votingEndTime */\n      dup3\n      swap1\n      sstore\n      0x00\n        /* \"contracts/dao1.sol\":2358:2378  newProposal.yesVotes */\n      0x08\n      dup3\n      add\n        /* \"contracts/dao1.sol\":2358:2382  newProposal.yesVotes = 0 */\n      dup2\n      swap1\n      sstore\n        /* \"contracts/dao1.sol\":2393:2412  newProposal.noVotes */\n      0x09\n      dup3\n      add\n        /* \"contracts/dao1.sol\":2393:2416  newProposal.noVotes = 0 */\n      sstore\n        /* \"contracts/dao1.sol\":2464:2478  nextProposalId */\n      sload(0x01)\n        /* \"contracts/dao1.sol\":2434:2661  ProposalCreated(... */\n      mload(0x40)\n      0xfaa337366f7965edea73e5dda4e27a18008218bee177df73f82fc597a1f4dd08\n      swap2\n      tag_80\n      swap2\n        /* \"contracts/dao1.sol\":2493:2503  msg.sender */\n      caller\n      swap1\n        /* \"contracts/dao1.sol\":2518:2524  _title */\n      dup10\n      swap1\n        /* \"contracts/dao1.sol\":2539:2548  _ipfsLink */\n      dup10\n      swap1\n        /* \"contracts/dao1.sol\":2278:2294  _votingStartTime */\n      dup10\n      swap1\n        /* \"contracts/dao1.sol\":2333:2347  _votingEndTime */\n      dup10\n      swap1\n        /* \"contracts/dao1.sol\":2434:2661  ProposalCreated(... */\n      tag_81\n      jump\t// in\n    tag_80:\n      mload(0x40)\n      dup1\n      swap2\n      sub\n      swap1\n      log1\n        /* \"contracts/dao1.sol\":2674:2688  nextProposalId */\n      0x01\n        /* \"contracts/dao1.sol\":2674:2690  nextProposalId++ */\n      dup1\n      sload\n      swap1\n        /* \"contracts/dao1.sol\":2674:2688  nextProposalId */\n      0x00\n        /* \"contracts/dao1.sol\":2674:2690  nextProposalId++ */\n      tag_82\n      dup4\n      tag_83\n      jump\t// in\n    tag_82:\n      swap2\n      swap1\n      pop\n      sstore\n      pop\n        /* \"contracts/dao1.sol\":1900:2698  {... */\n      pop\n        /* \"contracts/dao1.sol\":1700:2698  function createProposal(... */\n      pop\n      pop\n      pop\n      pop\n      jump\t// out\n        /* \"contracts/dao1.sol\":2706:3545  function vote(uint256 _proposalId, VoteChoice _voteChoice)... */\n    tag_41:\n        /* \"contracts/dao1.sol\":1438:1448  msg.sender */\n      caller\n        /* \"contracts/dao1.sol\":1430:1449  members[msg.sender] */\n      0x00\n      swap1\n      dup2\n      mstore\n        /* \"contracts/dao1.sol\":1430:1437  members */\n      0x03\n        /* \"contracts/dao1.sol\":1430:1449  members[msg.sender] */\n      0x20\n      mstore\n      0x40\n      swap1\n      keccak256\n      sload\n      0xff\n      and\n        /* \"contracts/dao1.sol\":1422:1470  require(members[msg.sender], \"Not a DAO member\") */\n      tag_85\n      jumpi\n      mload(0x40)\n      shl(0xe5, 0x461bcd)\n      dup2\n      mstore\n        /* \"#utility.yul\":11849:11851   */\n      0x20\n        /* \"contracts/dao1.sol\":1422:1470  require(members[msg.sender], \"Not a DAO member\") */\n      0x04\n      dup3\n      add\n        /* \"#utility.yul\":11831:11852   */\n      mstore\n        /* \"#utility.yul\":11888:11890   */\n      0x10\n        /* \"#utility.yul\":11868:11886   */\n      0x24\n      dup3\n      add\n        /* \"#utility.yul\":11861:11891   */\n      mstore\n      shl(0x81, 0x2737ba1030902220a79036b2b6b132b9)\n        /* \"#utility.yul\":11907:11925   */\n      0x44\n      dup3\n      add\n        /* \"#utility.yul\":11900:11946   */\n      mstore\n        /* \"#utility.yul\":11963:11981   */\n      0x64\n      add\n        /* \"contracts/dao1.sol\":1422:1470  require(members[msg.sender], \"Not a DAO member\") */\n      tag_71\n        /* \"#utility.yul\":11647:11987   */\n      jump\n        /* \"contracts/dao1.sol\":1422:1470  require(members[msg.sender], \"Not a DAO member\") */\n    tag_85:\n        /* \"contracts/dao1.sol\":2826:2837  _proposalId */\n      dup2\n        /* \"contracts/dao1.sol\":1575:1589  nextProposalId */\n      sload(0x01)\n        /* \"contracts/dao1.sol\":1561:1572  _proposalId */\n      dup2\n        /* \"contracts/dao1.sol\":1561:1589  _proposalId < nextProposalId */\n      lt\n        /* \"contracts/dao1.sol\":1553:1613  require(_proposalId < nextProposalId, \"Invalid proposal ID\") */\n      tag_89\n      jumpi\n      mload(0x40)\n      shl(0xe5, 0x461bcd)\n      dup2\n      mstore\n        /* \"#utility.yul\":12194:12196   */\n      0x20\n        /* \"contracts/dao1.sol\":1553:1613  require(_proposalId < nextProposalId, \"Invalid proposal ID\") */\n      0x04\n      dup3\n      add\n        /* \"#utility.yul\":12176:12197   */\n      mstore\n        /* \"#utility.yul\":12233:12235   */\n      0x13\n        /* \"#utility.yul\":12213:12231   */\n      0x24\n      dup3\n      add\n        /* \"#utility.yul\":12206:12236   */\n      mstore\n      shl(0x6a, 0x125b9d985b1a59081c1c9bdc1bdcd85b081251)\n        /* \"#utility.yul\":12252:12270   */\n      0x44\n      dup3\n      add\n        /* \"#utility.yul\":12245:12294   */\n      mstore\n        /* \"#utility.yul\":12311:12329   */\n      0x64\n      add\n        /* \"contracts/dao1.sol\":1553:1613  require(_proposalId < nextProposalId, \"Invalid proposal ID\") */\n      tag_71\n        /* \"#utility.yul\":11992:12335   */\n      jump\n        /* \"contracts/dao1.sol\":1553:1613  require(_proposalId < nextProposalId, \"Invalid proposal ID\") */\n    tag_89:\n        /* \"contracts/dao1.sol\":2855:2880  Proposal storage proposal */\n      0x00\n        /* \"contracts/dao1.sol\":2883:2905  proposals[_proposalId] */\n      dup4\n      dup2\n      mstore\n        /* \"contracts/dao1.sol\":2883:2892  proposals */\n      0x02\n        /* \"contracts/dao1.sol\":2883:2905  proposals[_proposalId] */\n      0x20\n      mstore\n      0x40\n      swap1\n      keccak256\n        /* \"contracts/dao1.sol\":2959:2983  proposal.votingStartTime */\n      0x04\n      dup2\n      add\n      sload\n        /* \"contracts/dao1.sol\":2940:2955  block.timestamp */\n      timestamp\n        /* \"contracts/dao1.sol\":2940:2983  block.timestamp >= proposal.votingStartTime */\n      lt\n      dup1\n      iszero\n      swap1\n        /* \"contracts/dao1.sol\":2940:3045  block.timestamp >= proposal.votingStartTime &&... */\n      tag_93\n      jumpi\n      pop\n        /* \"contracts/dao1.sol\":3023:3031  proposal */\n      dup1\n        /* \"contracts/dao1.sol\":3023:3045  proposal.votingEndTime */\n      0x05\n      add\n      sload\n        /* \"contracts/dao1.sol\":3004:3019  block.timestamp */\n      timestamp\n        /* \"contracts/dao1.sol\":3004:3045  block.timestamp <= proposal.votingEndTime */\n      gt\n      iszero\n        /* \"contracts/dao1.sol\":2940:3045  block.timestamp >= proposal.votingStartTime &&... */\n    tag_93:\n        /* \"contracts/dao1.sol\":2918:3104  require(... */\n      tag_94\n      jumpi\n      mload(0x40)\n      shl(0xe5, 0x461bcd)\n      dup2\n      mstore\n        /* \"#utility.yul\":12542:12544   */\n      0x20\n        /* \"contracts/dao1.sol\":2918:3104  require(... */\n      0x04\n      dup3\n      add\n        /* \"#utility.yul\":12524:12545   */\n      mstore\n        /* \"#utility.yul\":12581:12583   */\n      0x1f\n        /* \"#utility.yul\":12561:12579   */\n      0x24\n      dup3\n      add\n        /* \"#utility.yul\":12554:12584   */\n      mstore\n        /* \"#utility.yul\":12620:12653   */\n      0x566f74696e67206f7574736964652074686520616c6c6f7765642074696d6500\n        /* \"#utility.yul\":12600:12618   */\n      0x44\n      dup3\n      add\n        /* \"#utility.yul\":12593:12654   */\n      mstore\n        /* \"#utility.yul\":12671:12689   */\n      0x64\n      add\n        /* \"contracts/dao1.sol\":2918:3104  require(... */\n      tag_71\n        /* \"#utility.yul\":12340:12695   */\n      jump\n        /* \"contracts/dao1.sol\":2918:3104  require(... */\n    tag_94:\n        /* \"contracts/dao1.sol\":3142:3152  msg.sender */\n      caller\n        /* \"contracts/dao1.sol\":3124:3153  proposal.hasVoted[msg.sender] */\n      0x00\n      swap1\n      dup2\n      mstore\n        /* \"contracts/dao1.sol\":3124:3141  proposal.hasVoted */\n      0x06\n      dup3\n      add\n        /* \"contracts/dao1.sol\":3124:3153  proposal.hasVoted[msg.sender] */\n      0x20\n      mstore\n      0x40\n      swap1\n      keccak256\n      sload\n      0xff\n      and\n        /* \"contracts/dao1.sol\":3123:3153  !proposal.hasVoted[msg.sender] */\n      iszero\n        /* \"contracts/dao1.sol\":3115:3183  require(!proposal.hasVoted[msg.sender], \"Address has already voted\") */\n      tag_97\n      jumpi\n      mload(0x40)\n      shl(0xe5, 0x461bcd)\n      dup2\n      mstore\n        /* \"#utility.yul\":12902:12904   */\n      0x20\n        /* \"contracts/dao1.sol\":3115:3183  require(!proposal.hasVoted[msg.sender], \"Address has already voted\") */\n      0x04\n      dup3\n      add\n        /* \"#utility.yul\":12884:12905   */\n      mstore\n        /* \"#utility.yul\":12941:12943   */\n      0x19\n        /* \"#utility.yul\":12921:12939   */\n      0x24\n      dup3\n      add\n        /* \"#utility.yul\":12914:12944   */\n      mstore\n        /* \"#utility.yul\":12980:13007   */\n      0x416464726573732068617320616c726561647920766f74656400000000000000\n        /* \"#utility.yul\":12960:12978   */\n      0x44\n      dup3\n      add\n        /* \"#utility.yul\":12953:13008   */\n      mstore\n        /* \"#utility.yul\":13025:13043   */\n      0x64\n      add\n        /* \"contracts/dao1.sol\":3115:3183  require(!proposal.hasVoted[msg.sender], \"Address has already voted\") */\n      tag_71\n        /* \"#utility.yul\":12700:13049   */\n      jump\n        /* \"contracts/dao1.sol\":3115:3183  require(!proposal.hasVoted[msg.sender], \"Address has already voted\") */\n    tag_97:\n        /* \"contracts/dao1.sol\":3214:3224  msg.sender */\n      caller\n        /* \"contracts/dao1.sol\":3196:3225  proposal.hasVoted[msg.sender] */\n      0x00\n      swap1\n      dup2\n      mstore\n        /* \"contracts/dao1.sol\":3196:3213  proposal.hasVoted */\n      0x06\n      dup3\n      add\n        /* \"contracts/dao1.sol\":3196:3225  proposal.hasVoted[msg.sender] */\n      0x20\n      swap1\n      dup2\n      mstore\n      0x40\n      dup1\n      dup4\n      keccak256\n        /* \"contracts/dao1.sol\":3196:3232  proposal.hasVoted[msg.sender] = true */\n      dup1\n      sload\n        /* \"contracts/dao1.sol\":3228:3232  true */\n      0x01\n      not(0xff)\n        /* \"contracts/dao1.sol\":3196:3232  proposal.hasVoted[msg.sender] = true */\n      swap2\n      dup3\n      and\n      dup2\n      or\n      swap1\n      swap3\n      sstore\n        /* \"contracts/dao1.sol\":3243:3263  proposal.voteChoices */\n      0x07\n      dup7\n      add\n        /* \"contracts/dao1.sol\":3243:3275  proposal.voteChoices[msg.sender] */\n      swap1\n      swap4\n      mstore\n      swap3\n      keccak256\n        /* \"contracts/dao1.sol\":3243:3289  proposal.voteChoices[msg.sender] = _voteChoice */\n      dup1\n      sload\n        /* \"contracts/dao1.sol\":3278:3289  _voteChoice */\n      dup7\n      swap4\n        /* \"contracts/dao1.sol\":3243:3275  proposal.voteChoices[msg.sender] */\n      swap2\n      swap3\n        /* \"contracts/dao1.sol\":3243:3289  proposal.voteChoices[msg.sender] = _voteChoice */\n      and\n      swap1\n        /* \"contracts/dao1.sol\":3278:3289  _voteChoice */\n      dup4\n        /* \"contracts/dao1.sol\":3243:3289  proposal.voteChoices[msg.sender] = _voteChoice */\n      0x02\n      dup2\n      gt\n      iszero\n      tag_101\n      jumpi\n      tag_101\n      tag_102\n      jump\t// in\n    tag_101:\n      mul\n      or\n      swap1\n      sstore\n      pop\n        /* \"contracts/dao1.sol\":3321:3335  VoteChoice.Yes */\n      0x01\n        /* \"contracts/dao1.sol\":3306:3317  _voteChoice */\n      dup4\n        /* \"contracts/dao1.sol\":3306:3335  _voteChoice == VoteChoice.Yes */\n      0x02\n      dup2\n      gt\n      iszero\n      tag_106\n      jumpi\n      tag_106\n      tag_102\n      jump\t// in\n    tag_106:\n      sub\n        /* \"contracts/dao1.sol\":3302:3474  if (_voteChoice == VoteChoice.Yes) {... */\n      tag_107\n      jumpi\n        /* \"contracts/dao1.sol\":3373:3374  1 */\n      0x01\n        /* \"contracts/dao1.sol\":3352:3360  proposal */\n      dup2\n        /* \"contracts/dao1.sol\":3352:3369  proposal.yesVotes */\n      0x08\n      add\n      0x00\n        /* \"contracts/dao1.sol\":3352:3374  proposal.yesVotes += 1 */\n      dup3\n      dup3\n      sload\n      tag_108\n      swap2\n      swap1\n      tag_109\n      jump\t// in\n    tag_108:\n      swap1\n      swap2\n      sstore\n      pop\n        /* \"contracts/dao1.sol\":3302:3474  if (_voteChoice == VoteChoice.Yes) {... */\n      tag_115\n      swap1\n      pop\n      jump\n    tag_107:\n        /* \"contracts/dao1.sol\":3411:3424  VoteChoice.No */\n      0x02\n        /* \"contracts/dao1.sol\":3396:3407  _voteChoice */\n      dup4\n        /* \"contracts/dao1.sol\":3396:3424  _voteChoice == VoteChoice.No */\n      0x02\n      dup2\n      gt\n      iszero\n      tag_114\n      jumpi\n      tag_114\n      tag_102\n      jump\t// in\n    tag_114:\n      sub\n        /* \"contracts/dao1.sol\":3392:3474  if (_voteChoice == VoteChoice.No) {... */\n      tag_115\n      jumpi\n        /* \"contracts/dao1.sol\":3461:3462  1 */\n      0x01\n        /* \"contracts/dao1.sol\":3441:3449  proposal */\n      dup2\n        /* \"contracts/dao1.sol\":3441:3457  proposal.noVotes */\n      0x09\n      add\n      0x00\n        /* \"contracts/dao1.sol\":3441:3462  proposal.noVotes += 1 */\n      dup3\n      dup3\n      sload\n      tag_116\n      swap2\n      swap1\n      tag_109\n      jump\t// in\n    tag_116:\n      swap1\n      swap2\n      sstore\n      pop\n      pop\n        /* \"contracts/dao1.sol\":3392:3474  if (_voteChoice == VoteChoice.No) {... */\n    tag_115:\n        /* \"contracts/dao1.sol\":3491:3537  Voted(_proposalId, msg.sender, _voteChoice, 1) */\n      0x2635c84c3a8027a303ca6d6e90b1c4a9604754040372414d244aadfa64717518\n        /* \"contracts/dao1.sol\":3497:3508  _proposalId */\n      dup5\n        /* \"contracts/dao1.sol\":3510:3520  msg.sender */\n      caller\n        /* \"contracts/dao1.sol\":3522:3533  _voteChoice */\n      dup6\n        /* \"contracts/dao1.sol\":3535:3536  1 */\n      0x01\n        /* \"contracts/dao1.sol\":3491:3537  Voted(_proposalId, msg.sender, _voteChoice, 1) */\n      mload(0x40)\n      tag_117\n      swap5\n      swap4\n      swap3\n      swap2\n      swap1\n      tag_118\n      jump\t// in\n    tag_117:\n      mload(0x40)\n      dup1\n      swap2\n      sub\n      swap1\n      log1\n        /* \"contracts/dao1.sol\":2844:3545  {... */\n      pop\n        /* \"contracts/dao1.sol\":1481:1482  _ */\n      pop\n        /* \"contracts/dao1.sol\":2706:3545  function vote(uint256 _proposalId, VoteChoice _voteChoice)... */\n      pop\n      pop\n      jump\t// out\n        /* \"contracts/dao1.sol\":5128:6183  function getAllProposalsInfo() external view returns (ProposalInfo[] memory) {... */\n    tag_43:\n        /* \"contracts/dao1.sol\":5182:5203  ProposalInfo[] memory */\n      0x60\n        /* \"contracts/dao1.sol\":5216:5254  ProposalInfo[] memory allProposalsInfo */\n      0x00\n        /* \"contracts/dao1.sol\":5276:5290  nextProposalId */\n      sload(0x01)\n        /* \"contracts/dao1.sol\":5257:5291  new ProposalInfo[](nextProposalId) */\n      0xffffffffffffffff\n      dup2\n      gt\n      iszero\n      tag_121\n      jumpi\n      tag_121\n      tag_122\n      jump\t// in\n    tag_121:\n      mload(0x40)\n      swap1\n      dup1\n      dup3\n      mstore\n      dup1\n      0x20\n      mul\n      0x20\n      add\n      dup3\n      add\n      0x40\n      mstore\n      dup1\n      iszero\n      tag_123\n      jumpi\n      dup2\n      0x20\n      add\n    tag_124:\n      tag_125\n      mload(0x40)\n      dup1\n      0x0100\n      add\n      0x40\n      mstore\n      dup1\n      0x00\n      dup2\n      mstore\n      0x20\n      add\n      0x60\n      dup2\n      mstore\n      0x20\n      add\n      0x60\n      dup2\n      mstore\n      0x20\n      add\n      0x00\n      dup2\n      mstore\n      0x20\n      add\n      0x00\n      dup2\n      mstore\n      0x20\n      add\n      0x00\n      dup2\n      mstore\n      0x20\n      add\n      0x00\n      dup2\n      mstore\n      0x20\n      add\n      0x00\n      dup2\n      mstore\n      pop\n      swap1\n      jump\n    tag_125:\n      dup2\n      mstore\n      0x20\n      add\n      swap1\n      0x01\n      swap1\n      sub\n      swap1\n      dup2\n      tag_124\n      jumpi\n      swap1\n      pop\n    tag_123:\n      pop\n        /* \"contracts/dao1.sol\":5216:5291  ProposalInfo[] memory allProposalsInfo = new ProposalInfo[](nextProposalId) */\n      swap1\n      pop\n        /* \"contracts/dao1.sol\":5309:5318  uint256 i */\n      0x00\n        /* \"contracts/dao1.sol\":5304:6140  for (uint256 i = 0; i < nextProposalId; i++) {... */\n    tag_127:\n        /* \"contracts/dao1.sol\":5328:5342  nextProposalId */\n      sload(0x01)\n        /* \"contracts/dao1.sol\":5324:5325  i */\n      dup2\n        /* \"contracts/dao1.sol\":5324:5342  i < nextProposalId */\n      lt\n        /* \"contracts/dao1.sol\":5304:6140  for (uint256 i = 0; i < nextProposalId; i++) {... */\n      iszero\n      tag_128\n      jumpi\n        /* \"contracts/dao1.sol\":5383:5401  uint256 proposalId */\n      0x00\n        /* \"contracts/dao1.sol\":5420:5439  string memory title */\n      dup1\n        /* \"contracts/dao1.sol\":5458:5480  string memory ipfsLink */\n      0x00\n        /* \"contracts/dao1.sol\":5499:5515  uint256 yesVotes */\n      dup1\n        /* \"contracts/dao1.sol\":5534:5549  uint256 noVotes */\n      0x00\n        /* \"contracts/dao1.sol\":5568:5586  uint256 endResults */\n      dup1\n        /* \"contracts/dao1.sol\":5605:5628  uint256 votingStartTime */\n      0x00\n        /* \"contracts/dao1.sol\":5647:5668  uint256 votingEndTime */\n      dup1\n        /* \"contracts/dao1.sol\":5686:5704  getProposalInfo(i) */\n      tag_130\n        /* \"contracts/dao1.sol\":5702:5703  i */\n      dup10\n        /* \"contracts/dao1.sol\":5686:5701  getProposalInfo */\n      tag_48\n        /* \"contracts/dao1.sol\":5686:5704  getProposalInfo(i) */\n      jump\t// in\n    tag_130:\n        /* \"contracts/dao1.sol\":5364:5704  (... */\n      swap8\n      pop\n      swap8\n      pop\n      swap8\n      pop\n      swap8\n      pop\n      swap8\n      pop\n      swap8\n      pop\n      swap8\n      pop\n      swap8\n      pop\n        /* \"contracts/dao1.sol\":5743:6128  ProposalInfo({... */\n      mload(0x40)\n      dup1\n      0x0100\n      add\n      0x40\n      mstore\n      dup1\n        /* \"contracts/dao1.sol\":5787:5797  proposalId */\n      dup10\n        /* \"contracts/dao1.sol\":5743:6128  ProposalInfo({... */\n      dup2\n      mstore\n      0x20\n      add\n        /* \"contracts/dao1.sol\":5859:5864  title */\n      dup9\n        /* \"contracts/dao1.sol\":5743:6128  ProposalInfo({... */\n      dup2\n      mstore\n      0x20\n      add\n        /* \"contracts/dao1.sol\":5893:5901  ipfsLink */\n      dup8\n        /* \"contracts/dao1.sol\":5743:6128  ProposalInfo({... */\n      dup2\n      mstore\n      0x20\n      add\n        /* \"contracts/dao1.sol\":5930:5938  yesVotes */\n      dup7\n        /* \"contracts/dao1.sol\":5743:6128  ProposalInfo({... */\n      dup2\n      mstore\n      0x20\n      add\n        /* \"contracts/dao1.sol\":5966:5973  noVotes */\n      dup6\n        /* \"contracts/dao1.sol\":5743:6128  ProposalInfo({... */\n      dup2\n      mstore\n      0x20\n      add\n        /* \"contracts/dao1.sol\":6004:6014  endResults */\n      dup5\n        /* \"contracts/dao1.sol\":5743:6128  ProposalInfo({... */\n      dup2\n      mstore\n      0x20\n      add\n        /* \"contracts/dao1.sol\":6050:6065  votingStartTime */\n      dup4\n        /* \"contracts/dao1.sol\":5743:6128  ProposalInfo({... */\n      dup2\n      mstore\n      0x20\n      add\n        /* \"contracts/dao1.sol\":6099:6112  votingEndTime */\n      dup3\n        /* \"contracts/dao1.sol\":5743:6128  ProposalInfo({... */\n      dup2\n      mstore\n      pop\n        /* \"contracts/dao1.sol\":5721:5737  allProposalsInfo */\n      dup11\n        /* \"contracts/dao1.sol\":5738:5739  i */\n      dup11\n        /* \"contracts/dao1.sol\":5721:5740  allProposalsInfo[i] */\n      dup2\n      mload\n      dup2\n      lt\n      tag_132\n      jumpi\n      tag_132\n      tag_133\n      jump\t// in\n    tag_132:\n      0x20\n      mul\n      0x20\n      add\n      add\n        /* \"contracts/dao1.sol\":5721:6128  allProposalsInfo[i] = ProposalInfo({... */\n      dup2\n      swap1\n      mstore\n      pop\n        /* \"contracts/dao1.sol\":5349:6140  {... */\n      pop\n      pop\n      pop\n      pop\n      pop\n      pop\n      pop\n      pop\n        /* \"contracts/dao1.sol\":5344:5347  i++ */\n      dup1\n      dup1\n      0x01\n      add\n      swap2\n      pop\n      pop\n        /* \"contracts/dao1.sol\":5304:6140  for (uint256 i = 0; i < nextProposalId; i++) {... */\n      jump(tag_127)\n    tag_128:\n      pop\n        /* \"contracts/dao1.sol\":6159:6175  allProposalsInfo */\n      swap2\n        /* \"contracts/dao1.sol\":5128:6183  function getAllProposalsInfo() external view returns (ProposalInfo[] memory) {... */\n      swap1\n      pop\n      jump\t// out\n        /* \"contracts/dao1.sol\":3762:4832  function getProposalInfo(uint256 _proposalId)... */\n    tag_48:\n        /* \"contracts/dao1.sol\":3876:3883  uint256 */\n      0x00\n        /* \"contracts/dao1.sol\":3885:3898  string memory */\n      0x60\n        /* \"contracts/dao1.sol\":3900:3913  string memory */\n      dup1\n        /* \"contracts/dao1.sol\":3915:3922  uint256 */\n      0x00\n        /* \"contracts/dao1.sol\":3924:3931  uint256 */\n      dup1\n        /* \"contracts/dao1.sol\":3933:3940  uint256 */\n      0x00\n        /* \"contracts/dao1.sol\":3942:3949  uint256 */\n      dup1\n        /* \"contracts/dao1.sol\":3951:3958  uint256 */\n      0x00\n        /* \"contracts/dao1.sol\":3849:3860  _proposalId */\n      dup9\n        /* \"contracts/dao1.sol\":1575:1589  nextProposalId */\n      sload(0x01)\n        /* \"contracts/dao1.sol\":1561:1572  _proposalId */\n      dup2\n        /* \"contracts/dao1.sol\":1561:1589  _proposalId < nextProposalId */\n      lt\n        /* \"contracts/dao1.sol\":1553:1613  require(_proposalId < nextProposalId, \"Invalid proposal ID\") */\n      tag_135\n      jumpi\n      mload(0x40)\n      shl(0xe5, 0x461bcd)\n      dup2\n      mstore\n        /* \"#utility.yul\":12194:12196   */\n      0x20\n        /* \"contracts/dao1.sol\":1553:1613  require(_proposalId < nextProposalId, \"Invalid proposal ID\") */\n      0x04\n      dup3\n      add\n        /* \"#utility.yul\":12176:12197   */\n      mstore\n        /* \"#utility.yul\":12233:12235   */\n      0x13\n        /* \"#utility.yul\":12213:12231   */\n      0x24\n      dup3\n      add\n        /* \"#utility.yul\":12206:12236   */\n      mstore\n      shl(0x6a, 0x125b9d985b1a59081c1c9bdc1bdcd85b081251)\n        /* \"#utility.yul\":12252:12270   */\n      0x44\n      dup3\n      add\n        /* \"#utility.yul\":12245:12294   */\n      mstore\n        /* \"#utility.yul\":12311:12329   */\n      0x64\n      add\n        /* \"contracts/dao1.sol\":1553:1613  require(_proposalId < nextProposalId, \"Invalid proposal ID\") */\n      tag_71\n        /* \"#utility.yul\":11992:12335   */\n      jump\n        /* \"contracts/dao1.sol\":1553:1613  require(_proposalId < nextProposalId, \"Invalid proposal ID\") */\n    tag_135:\n        /* \"contracts/dao1.sol\":3976:4001  Proposal storage proposal */\n      0x00\n        /* \"contracts/dao1.sol\":4004:4026  proposals[_proposalId] */\n      dup11\n      dup2\n      mstore\n        /* \"contracts/dao1.sol\":4004:4013  proposals */\n      0x02\n        /* \"contracts/dao1.sol\":4004:4026  proposals[_proposalId] */\n      0x20\n      mstore\n      0x40\n      dup2\n      keccak256\n        /* \"contracts/dao1.sol\":4058:4075  proposal.yesVotes */\n      0x08\n      dup2\n      add\n      sload\n        /* \"contracts/dao1.sol\":4104:4120  proposal.noVotes */\n      0x09\n      dup3\n      add\n      sload\n        /* \"contracts/dao1.sol\":4250:4272  proposal.votingEndTime */\n      0x05\n      dup4\n      add\n      sload\n        /* \"contracts/dao1.sol\":4004:4026  proposals[_proposalId] */\n      swap3\n      swap4\n        /* \"contracts/dao1.sol\":4058:4075  proposal.yesVotes */\n      swap2\n      swap3\n        /* \"contracts/dao1.sol\":4104:4120  proposal.noVotes */\n      swap1\n      swap2\n        /* \"contracts/dao1.sol\":3976:4001  Proposal storage proposal */\n      swap1\n        /* \"contracts/dao1.sol\":4232:4247  block.timestamp */\n      timestamp\n        /* \"contracts/dao1.sol\":4232:4272  block.timestamp < proposal.votingEndTime */\n      lt\n        /* \"contracts/dao1.sol\":4228:4442  if (block.timestamp < proposal.votingEndTime) {... */\n      iszero\n      tag_138\n      jumpi\n      pop\n        /* \"contracts/dao1.sol\":4302:4303  0 */\n      0x00\n        /* \"contracts/dao1.sol\":4228:4442  if (block.timestamp < proposal.votingEndTime) {... */\n      jump(tag_139)\n    tag_138:\n        /* \"contracts/dao1.sol\":4387:4394  noVotes */\n      dup2\n        /* \"contracts/dao1.sol\":4376:4384  yesVotes */\n      dup4\n        /* \"contracts/dao1.sol\":4376:4394  yesVotes > noVotes */\n      gt\n        /* \"contracts/dao1.sol\":4376:4430  yesVotes > noVotes ? 1 : (yesVotes == noVotes ? 2 : 3) */\n      tag_140\n      jumpi\n        /* \"contracts/dao1.sol\":4414:4421  noVotes */\n      dup2\n        /* \"contracts/dao1.sol\":4402:4410  yesVotes */\n      dup4\n        /* \"contracts/dao1.sol\":4402:4421  yesVotes == noVotes */\n      eq\n        /* \"contracts/dao1.sol\":4402:4429  yesVotes == noVotes ? 2 : 3 */\n      tag_141\n      jumpi\n        /* \"contracts/dao1.sol\":4428:4429  3 */\n      0x03\n        /* \"contracts/dao1.sol\":4376:4430  yesVotes > noVotes ? 1 : (yesVotes == noVotes ? 2 : 3) */\n      jump(tag_143)\n        /* \"contracts/dao1.sol\":4402:4429  yesVotes == noVotes ? 2 : 3 */\n    tag_141:\n        /* \"contracts/dao1.sol\":4424:4425  2 */\n      0x02\n        /* \"contracts/dao1.sol\":4376:4430  yesVotes > noVotes ? 1 : (yesVotes == noVotes ? 2 : 3) */\n      jump(tag_143)\n    tag_140:\n        /* \"contracts/dao1.sol\":4397:4398  1 */\n      0x01\n        /* \"contracts/dao1.sol\":4376:4430  yesVotes > noVotes ? 1 : (yesVotes == noVotes ? 2 : 3) */\n    tag_143:\n        /* \"contracts/dao1.sol\":4363:4430  endResults = yesVotes > noVotes ? 1 : (yesVotes == noVotes ? 2 : 3) */\n      0xff\n      and\n      swap1\n      pop\n        /* \"contracts/dao1.sol\":4228:4442  if (block.timestamp < proposal.votingEndTime) {... */\n    tag_139:\n        /* \"contracts/dao1.sol\":4476:4484  proposal */\n      dup4\n        /* \"contracts/dao1.sol\":4476:4487  proposal.id */\n      0x00\n      add\n      sload\n        /* \"contracts/dao1.sol\":4545:4553  proposal */\n      dup5\n        /* \"contracts/dao1.sol\":4545:4559  proposal.title */\n      0x02\n      add\n        /* \"contracts/dao1.sol\":4574:4582  proposal */\n      dup6\n        /* \"contracts/dao1.sol\":4574:4591  proposal.ipfsLink */\n      0x03\n      add\n        /* \"contracts/dao1.sol\":4656:4664  yesVotes */\n      dup6\n        /* \"contracts/dao1.sol\":4679:4686  noVotes */\n      dup6\n        /* \"contracts/dao1.sol\":4701:4711  endResults */\n      dup6\n        /* \"contracts/dao1.sol\":4726:4734  proposal */\n      dup10\n        /* \"contracts/dao1.sol\":4726:4750  proposal.votingStartTime */\n      0x04\n      add\n      sload\n        /* \"contracts/dao1.sol\":4791:4799  proposal */\n      dup11\n        /* \"contracts/dao1.sol\":4791:4813  proposal.votingEndTime */\n      0x05\n      add\n      sload\n        /* \"contracts/dao1.sol\":4454:4824  return (... */\n      dup7\n      dup1\n      sload\n      tag_144\n      swap1\n      tag_59\n      jump\t// in\n    tag_144:\n      dup1\n      0x1f\n      add\n      0x20\n      dup1\n      swap2\n      div\n      mul\n      0x20\n      add\n      mload(0x40)\n      swap1\n      dup2\n      add\n      0x40\n      mstore\n      dup1\n      swap3\n      swap2\n      swap1\n      dup2\n      dup2\n      mstore\n      0x20\n      add\n      dup3\n      dup1\n      sload\n      tag_145\n      swap1\n      tag_59\n      jump\t// in\n    tag_145:\n      dup1\n      iszero\n      tag_146\n      jumpi\n      dup1\n      0x1f\n      lt\n      tag_147\n      jumpi\n      0x0100\n      dup1\n      dup4\n      sload\n      div\n      mul\n      dup4\n      mstore\n      swap2\n      0x20\n      add\n      swap2\n      jump(tag_146)\n    tag_147:\n      dup3\n      add\n      swap2\n      swap1\n      0x00\n      mstore\n      keccak256(0x00, 0x20)\n      swap1\n    tag_148:\n      dup2\n      sload\n      dup2\n      mstore\n      swap1\n      0x01\n      add\n      swap1\n      0x20\n      add\n      dup1\n      dup4\n      gt\n      tag_148\n      jumpi\n      dup3\n      swap1\n      sub\n      0x1f\n      and\n      dup3\n      add\n      swap2\n    tag_146:\n      pop\n      pop\n      pop\n      pop\n      pop\n      swap7\n      pop\n      dup6\n      dup1\n      sload\n      tag_149\n      swap1\n      tag_59\n      jump\t// in\n    tag_149:\n      dup1\n      0x1f\n      add\n      0x20\n      dup1\n      swap2\n      div\n      mul\n      0x20\n      add\n      mload(0x40)\n      swap1\n      dup2\n      add\n      0x40\n      mstore\n      dup1\n      swap3\n      swap2\n      swap1\n      dup2\n      dup2\n      mstore\n      0x20\n      add\n      dup3\n      dup1\n      sload\n      tag_150\n      swap1\n      tag_59\n      jump\t// in\n    tag_150:\n      dup1\n      iszero\n      tag_151\n      jumpi\n      dup1\n      0x1f\n      lt\n      tag_152\n      jumpi\n      0x0100\n      dup1\n      dup4\n      sload\n      div\n      mul\n      dup4\n      mstore\n      swap2\n      0x20\n      add\n      swap2\n      jump(tag_151)\n    tag_152:\n      dup3\n      add\n      swap2\n      swap1\n      0x00\n      mstore\n      keccak256(0x00, 0x20)\n      swap1\n    tag_153:\n      dup2\n      sload\n      dup2\n      mstore\n      swap1\n      0x01\n      add\n      swap1\n      0x20\n      add\n      dup1\n      dup4\n      gt\n      tag_153\n      jumpi\n      dup3\n      swap1\n      sub\n      0x1f\n      and\n      dup3\n      add\n      swap2\n    tag_151:\n      pop\n      pop\n      pop\n      pop\n      pop\n      swap6\n      pop\n      swap13\n      pop\n      swap13\n      pop\n      swap13\n      pop\n      swap13\n      pop\n      swap13\n      pop\n      swap13\n      pop\n      swap13\n      pop\n      swap13\n      pop\n      pop\n      pop\n      pop\n      pop\n        /* \"contracts/dao1.sol\":3762:4832  function getProposalInfo(uint256 _proposalId)... */\n      pop\n      swap2\n      swap4\n      swap6\n      swap8\n      pop\n      swap2\n      swap4\n      swap6\n      swap8\n      jump\t// out\n        /* \"contracts/dao1.sol\":3553:3754  function addMember(address _member) external onlyOwner {... */\n    tag_53:\n        /* \"contracts/dao1.sol\":1329:1334  owner */\n      and(sub(shl(0xa0, 0x01), 0x01), sload(0x00))\n        /* \"contracts/dao1.sol\":1315:1325  msg.sender */\n      caller\n        /* \"contracts/dao1.sol\":1315:1334  msg.sender == owner */\n      eq\n        /* \"contracts/dao1.sol\":1307:1361  require(msg.sender == owner, \"Not the contract owner\") */\n      tag_155\n      jumpi\n      mload(0x40)\n      shl(0xe5, 0x461bcd)\n      dup2\n      mstore\n        /* \"#utility.yul\":8005:8007   */\n      0x20\n        /* \"contracts/dao1.sol\":1307:1361  require(msg.sender == owner, \"Not the contract owner\") */\n      0x04\n      dup3\n      add\n        /* \"#utility.yul\":7987:8008   */\n      mstore\n        /* \"#utility.yul\":8044:8046   */\n      0x16\n        /* \"#utility.yul\":8024:8042   */\n      0x24\n      dup3\n      add\n        /* \"#utility.yul\":8017:8047   */\n      mstore\n      shl(0x51, 0x2737ba103a34329031b7b73a3930b1ba1037bbb732b9)\n        /* \"#utility.yul\":8063:8081   */\n      0x44\n      dup3\n      add\n        /* \"#utility.yul\":8056:8108   */\n      mstore\n        /* \"#utility.yul\":8125:8143   */\n      0x64\n      add\n        /* \"contracts/dao1.sol\":1307:1361  require(msg.sender == owner, \"Not the contract owner\") */\n      tag_71\n        /* \"#utility.yul\":7803:8149   */\n      jump\n        /* \"contracts/dao1.sol\":1307:1361  require(msg.sender == owner, \"Not the contract owner\") */\n    tag_155:\n      sub(shl(0xa0, 0x01), 0x01)\n        /* \"contracts/dao1.sol\":3628:3644  members[_member] */\n      dup2\n      and\n      0x00\n      swap1\n      dup2\n      mstore\n        /* \"contracts/dao1.sol\":3628:3635  members */\n      0x03\n        /* \"contracts/dao1.sol\":3628:3644  members[_member] */\n      0x20\n      mstore\n      0x40\n      swap1\n      keccak256\n      sload\n      0xff\n      and\n        /* \"contracts/dao1.sol\":3627:3644  !members[_member] */\n      iszero\n        /* \"contracts/dao1.sol\":3619:3676  require(!members[_member], \"Address is already a member\") */\n      tag_158\n      jumpi\n      mload(0x40)\n      shl(0xe5, 0x461bcd)\n      dup2\n      mstore\n        /* \"#utility.yul\":14243:14245   */\n      0x20\n        /* \"contracts/dao1.sol\":3619:3676  require(!members[_member], \"Address is already a member\") */\n      0x04\n      dup3\n      add\n        /* \"#utility.yul\":14225:14246   */\n      mstore\n        /* \"#utility.yul\":14282:14284   */\n      0x1b\n        /* \"#utility.yul\":14262:14280   */\n      0x24\n      dup3\n      add\n        /* \"#utility.yul\":14255:14285   */\n      mstore\n        /* \"#utility.yul\":14321:14350   */\n      0x4164647265737320697320616c72656164792061206d656d6265720000000000\n        /* \"#utility.yul\":14301:14319   */\n      0x44\n      dup3\n      add\n        /* \"#utility.yul\":14294:14351   */\n      mstore\n        /* \"#utility.yul\":14368:14386   */\n      0x64\n      add\n        /* \"contracts/dao1.sol\":3619:3676  require(!members[_member], \"Address is already a member\") */\n      tag_71\n        /* \"#utility.yul\":14041:14392   */\n      jump\n        /* \"contracts/dao1.sol\":3619:3676  require(!members[_member], \"Address is already a member\") */\n    tag_158:\n      sub(shl(0xa0, 0x01), 0x01)\n        /* \"contracts/dao1.sol\":3687:3703  members[_member] */\n      dup2\n      and\n      0x00\n      dup2\n      dup2\n      mstore\n        /* \"contracts/dao1.sol\":3687:3694  members */\n      0x03\n        /* \"contracts/dao1.sol\":3687:3703  members[_member] */\n      0x20\n      swap1\n      dup2\n      mstore\n      0x40\n      swap2\n      dup3\n      swap1\n      keccak256\n        /* \"contracts/dao1.sol\":3687:3710  members[_member] = true */\n      dup1\n      sload\n      not(0xff)\n      and\n        /* \"contracts/dao1.sol\":3706:3710  true */\n      0x01\n        /* \"contracts/dao1.sol\":3687:3710  members[_member] = true */\n      or\n      swap1\n      sstore\n        /* \"contracts/dao1.sol\":3726:3746  MemberAdded(_member) */\n      swap1\n      mload\n        /* \"#utility.yul\":3845:3896   */\n      swap2\n      dup3\n      mstore\n        /* \"contracts/dao1.sol\":3726:3746  MemberAdded(_member) */\n      0xb251eb052afc73ffd02ffe85ad79990a8b3fed60d76dbc2fa2fdd7123dffd914\n      swap2\n        /* \"#utility.yul\":3818:3836   */\n      add\n        /* \"contracts/dao1.sol\":3726:3746  MemberAdded(_member) */\n      mload(0x40)\n      dup1\n      swap2\n      sub\n      swap1\n      log1\n        /* \"contracts/dao1.sol\":3553:3754  function addMember(address _member) external onlyOwner {... */\n      pop\n      jump\t// out\n        /* \"contracts/dao1.sol\":4840:5120  function getAllProposals() external view returns (uint256[] memory) {... */\n    tag_55:\n        /* \"contracts/dao1.sol\":4890:4906  uint256[] memory */\n      0x60\n        /* \"contracts/dao1.sol\":4919:4947  uint256[] memory proposalIds */\n      0x00\n        /* \"contracts/dao1.sol\":4964:4978  nextProposalId */\n      sload(0x01)\n        /* \"contracts/dao1.sol\":4950:4979  new uint256[](nextProposalId) */\n      0xffffffffffffffff\n      dup2\n      gt\n      iszero\n      tag_164\n      jumpi\n      tag_164\n      tag_122\n      jump\t// in\n    tag_164:\n      mload(0x40)\n      swap1\n      dup1\n      dup3\n      mstore\n      dup1\n      0x20\n      mul\n      0x20\n      add\n      dup3\n      add\n      0x40\n      mstore\n      dup1\n      iszero\n      tag_165\n      jumpi\n      dup2\n      0x20\n      add\n      0x20\n      dup3\n      mul\n      dup1\n      calldatasize\n      dup4\n      calldatacopy\n      add\n      swap1\n      pop\n    tag_165:\n      pop\n        /* \"contracts/dao1.sol\":4919:4979  uint256[] memory proposalIds = new uint256[](nextProposalId) */\n      swap1\n      pop\n        /* \"contracts/dao1.sol\":4997:5006  uint256 i */\n      0x00\n        /* \"contracts/dao1.sol\":4992:5082  for (uint256 i = 0; i < nextProposalId; i++) {... */\n    tag_166:\n        /* \"contracts/dao1.sol\":5016:5030  nextProposalId */\n      sload(0x01)\n        /* \"contracts/dao1.sol\":5012:5013  i */\n      dup2\n        /* \"contracts/dao1.sol\":5012:5030  i < nextProposalId */\n      lt\n        /* \"contracts/dao1.sol\":4992:5082  for (uint256 i = 0; i < nextProposalId; i++) {... */\n      iszero\n      tag_128\n      jumpi\n        /* \"contracts/dao1.sol\":5069:5070  i */\n      dup1\n        /* \"contracts/dao1.sol\":5052:5063  proposalIds */\n      dup3\n        /* \"contracts/dao1.sol\":5064:5065  i */\n      dup3\n        /* \"contracts/dao1.sol\":5052:5066  proposalIds[i] */\n      dup2\n      mload\n      dup2\n      lt\n      tag_170\n      jumpi\n      tag_170\n      tag_133\n      jump\t// in\n    tag_170:\n      0x20\n      swap1\n      dup2\n      mul\n      swap2\n      swap1\n      swap2\n      add\n      add\n        /* \"contracts/dao1.sol\":5052:5070  proposalIds[i] = i */\n      mstore\n        /* \"contracts/dao1.sol\":5032:5035  i++ */\n      0x01\n      add\n        /* \"contracts/dao1.sol\":4992:5082  for (uint256 i = 0; i < nextProposalId; i++) {... */\n      jump(tag_166)\n        /* \"#utility.yul\":14:194   */\n    tag_16:\n        /* \"#utility.yul\":73:79   */\n      0x00\n        /* \"#utility.yul\":126:128   */\n      0x20\n        /* \"#utility.yul\":114:123   */\n      dup3\n        /* \"#utility.yul\":105:112   */\n      dup5\n        /* \"#utility.yul\":101:124   */\n      sub\n        /* \"#utility.yul\":97:129   */\n      slt\n        /* \"#utility.yul\":94:146   */\n      iszero\n      tag_179\n      jumpi\n        /* \"#utility.yul\":142:143   */\n      0x00\n        /* \"#utility.yul\":139:140   */\n      dup1\n        /* \"#utility.yul\":132:144   */\n      revert\n        /* \"#utility.yul\":94:146   */\n    tag_179:\n      pop\n        /* \"#utility.yul\":165:188   */\n      calldataload\n      swap2\n        /* \"#utility.yul\":14:194   */\n      swap1\n      pop\n      jump\t// out\n        /* \"#utility.yul\":199:622   */\n    tag_171:\n        /* \"#utility.yul\":241:244   */\n      0x00\n        /* \"#utility.yul\":279:284   */\n      dup2\n        /* \"#utility.yul\":273:285   */\n      mload\n        /* \"#utility.yul\":306:312   */\n      dup1\n        /* \"#utility.yul\":301:304   */\n      dup5\n        /* \"#utility.yul\":294:313   */\n      mstore\n        /* \"#utility.yul\":331:332   */\n      0x00\n        /* \"#utility.yul\":341:503   */\n    tag_181:\n        /* \"#utility.yul\":355:361   */\n      dup2\n        /* \"#utility.yul\":352:353   */\n      dup2\n        /* \"#utility.yul\":349:362   */\n      lt\n        /* \"#utility.yul\":341:503   */\n      iszero\n      tag_183\n      jumpi\n        /* \"#utility.yul\":417:421   */\n      0x20\n        /* \"#utility.yul\":473:486   */\n      dup2\n      dup6\n      add\n        /* \"#utility.yul\":469:491   */\n      dup2\n      add\n        /* \"#utility.yul\":463:492   */\n      mload\n        /* \"#utility.yul\":445:456   */\n      dup7\n      dup4\n      add\n        /* \"#utility.yul\":441:461   */\n      dup3\n      add\n        /* \"#utility.yul\":434:493   */\n      mstore\n        /* \"#utility.yul\":370:382   */\n      add\n        /* \"#utility.yul\":341:503   */\n      jump(tag_181)\n    tag_183:\n        /* \"#utility.yul\":345:348   */\n      pop\n        /* \"#utility.yul\":548:549   */\n      0x00\n        /* \"#utility.yul\":541:545   */\n      0x20\n        /* \"#utility.yul\":532:538   */\n      dup3\n        /* \"#utility.yul\":527:530   */\n      dup7\n        /* \"#utility.yul\":523:539   */\n      add\n        /* \"#utility.yul\":519:546   */\n      add\n        /* \"#utility.yul\":512:550   */\n      mstore\n        /* \"#utility.yul\":611:615   */\n      0x20\n        /* \"#utility.yul\":604:606   */\n      0x1f\n        /* \"#utility.yul\":600:607   */\n      not\n        /* \"#utility.yul\":595:597   */\n      0x1f\n        /* \"#utility.yul\":587:593   */\n      dup4\n        /* \"#utility.yul\":583:598   */\n      add\n        /* \"#utility.yul\":579:608   */\n      and\n        /* \"#utility.yul\":574:577   */\n      dup6\n        /* \"#utility.yul\":570:609   */\n      add\n        /* \"#utility.yul\":566:616   */\n      add\n        /* \"#utility.yul\":559:616   */\n      swap2\n      pop\n      pop\n        /* \"#utility.yul\":199:622   */\n      swap3\n      swap2\n      pop\n      pop\n      jump\t// out\n        /* \"#utility.yul\":627:1488   */\n    tag_19:\n        /* \"#utility.yul\":996:1021   */\n      dup9\n      dup2\n      mstore\n      sub(shl(0xa0, 0x01), 0x01)\n        /* \"#utility.yul\":1057:1089   */\n      dup9\n      and\n        /* \"#utility.yul\":1052:1054   */\n      0x20\n        /* \"#utility.yul\":1037:1055   */\n      dup3\n      add\n        /* \"#utility.yul\":1030:1090   */\n      mstore\n        /* \"#utility.yul\":984:987   */\n      0x0100\n        /* \"#utility.yul\":1121:1123   */\n      0x40\n        /* \"#utility.yul\":1106:1124   */\n      dup3\n      add\n        /* \"#utility.yul\":1099:1129   */\n      dup2\n      swap1\n      mstore\n        /* \"#utility.yul\":955:959   */\n      0x00\n      swap1\n        /* \"#utility.yul\":1152:1197   */\n      tag_185\n        /* \"#utility.yul\":1178:1196   */\n      dup4\n      dup3\n      add\n        /* \"#utility.yul\":1170:1176   */\n      dup11\n        /* \"#utility.yul\":1152:1197   */\n      tag_171\n      jump\t// in\n    tag_185:\n        /* \"#utility.yul\":1138:1197   */\n      swap1\n      pop\n        /* \"#utility.yul\":1245:1254   */\n      dup3\n        /* \"#utility.yul\":1237:1243   */\n      dup2\n        /* \"#utility.yul\":1233:1255   */\n      sub\n        /* \"#utility.yul\":1228:1230   */\n      0x60\n        /* \"#utility.yul\":1217:1226   */\n      dup5\n        /* \"#utility.yul\":1213:1231   */\n      add\n        /* \"#utility.yul\":1206:1256   */\n      mstore\n        /* \"#utility.yul\":1273:1306   */\n      tag_186\n        /* \"#utility.yul\":1299:1305   */\n      dup2\n        /* \"#utility.yul\":1291:1297   */\n      dup10\n        /* \"#utility.yul\":1273:1306   */\n      tag_171\n      jump\t// in\n    tag_186:\n        /* \"#utility.yul\":1265:1306   */\n      swap2\n      pop\n      pop\n        /* \"#utility.yul\":1343:1349   */\n      dup6\n        /* \"#utility.yul\":1337:1340   */\n      0x80\n        /* \"#utility.yul\":1326:1335   */\n      dup4\n        /* \"#utility.yul\":1322:1341   */\n      add\n        /* \"#utility.yul\":1315:1350   */\n      mstore\n        /* \"#utility.yul\":1387:1393   */\n      dup5\n        /* \"#utility.yul\":1381:1384   */\n      0xa0\n        /* \"#utility.yul\":1370:1379   */\n      dup4\n        /* \"#utility.yul\":1366:1385   */\n      add\n        /* \"#utility.yul\":1359:1394   */\n      mstore\n        /* \"#utility.yul\":1431:1437   */\n      dup4\n        /* \"#utility.yul\":1425:1428   */\n      0xc0\n        /* \"#utility.yul\":1414:1423   */\n      dup4\n        /* \"#utility.yul\":1410:1429   */\n      add\n        /* \"#utility.yul\":1403:1438   */\n      mstore\n        /* \"#utility.yul\":1475:1481   */\n      dup3\n        /* \"#utility.yul\":1469:1472   */\n      0xe0\n        /* \"#utility.yul\":1458:1467   */\n      dup4\n        /* \"#utility.yul\":1454:1473   */\n      add\n        /* \"#utility.yul\":1447:1482   */\n      mstore\n        /* \"#utility.yul\":627:1488   */\n      swap10\n      swap9\n      pop\n      pop\n      pop\n      pop\n      pop\n      pop\n      pop\n      pop\n      pop\n      jump\t// out\n        /* \"#utility.yul\":1493:1779   */\n    tag_22:\n        /* \"#utility.yul\":1552:1558   */\n      0x00\n        /* \"#utility.yul\":1605:1607   */\n      0x20\n        /* \"#utility.yul\":1593:1602   */\n      dup3\n        /* \"#utility.yul\":1584:1591   */\n      dup5\n        /* \"#utility.yul\":1580:1603   */\n      sub\n        /* \"#utility.yul\":1576:1608   */\n      slt\n        /* \"#utility.yul\":1573:1625   */\n      iszero\n      tag_188\n      jumpi\n        /* \"#utility.yul\":1621:1622   */\n      0x00\n        /* \"#utility.yul\":1618:1619   */\n      dup1\n        /* \"#utility.yul\":1611:1623   */\n      revert\n        /* \"#utility.yul\":1573:1625   */\n    tag_188:\n        /* \"#utility.yul\":1647:1670   */\n      dup2\n      calldataload\n      sub(shl(0xa0, 0x01), 0x01)\n        /* \"#utility.yul\":1699:1730   */\n      dup2\n      and\n        /* \"#utility.yul\":1689:1731   */\n      dup2\n      eq\n        /* \"#utility.yul\":1679:1749   */\n      tag_189\n      jumpi\n        /* \"#utility.yul\":1745:1746   */\n      0x00\n        /* \"#utility.yul\":1742:1743   */\n      dup1\n        /* \"#utility.yul\":1735:1747   */\n      revert\n        /* \"#utility.yul\":1679:1749   */\n    tag_189:\n        /* \"#utility.yul\":1768:1773   */\n      swap4\n        /* \"#utility.yul\":1493:1779   */\n      swap3\n      pop\n      pop\n      pop\n      jump\t// out\n        /* \"#utility.yul\":2158:2285   */\n    tag_122:\n        /* \"#utility.yul\":2219:2229   */\n      0x4e487b71\n        /* \"#utility.yul\":2214:2217   */\n      0xe0\n        /* \"#utility.yul\":2210:2230   */\n      shl\n        /* \"#utility.yul\":2207:2208   */\n      0x00\n        /* \"#utility.yul\":2200:2231   */\n      mstore\n        /* \"#utility.yul\":2250:2254   */\n      0x41\n        /* \"#utility.yul\":2247:2248   */\n      0x04\n        /* \"#utility.yul\":2240:2255   */\n      mstore\n        /* \"#utility.yul\":2274:2278   */\n      0x24\n        /* \"#utility.yul\":2271:2272   */\n      0x00\n        /* \"#utility.yul\":2264:2279   */\n      revert\n        /* \"#utility.yul\":2290:3009   */\n    tag_172:\n        /* \"#utility.yul\":2333:2338   */\n      0x00\n        /* \"#utility.yul\":2386:2389   */\n      dup3\n        /* \"#utility.yul\":2379:2383   */\n      0x1f\n        /* \"#utility.yul\":2371:2377   */\n      dup4\n        /* \"#utility.yul\":2367:2384   */\n      add\n        /* \"#utility.yul\":2363:2390   */\n      slt\n        /* \"#utility.yul\":2353:2408   */\n      tag_194\n      jumpi\n        /* \"#utility.yul\":2404:2405   */\n      0x00\n        /* \"#utility.yul\":2401:2402   */\n      dup1\n        /* \"#utility.yul\":2394:2406   */\n      revert\n        /* \"#utility.yul\":2353:2408   */\n    tag_194:\n        /* \"#utility.yul\":2440:2446   */\n      dup2\n        /* \"#utility.yul\":2427:2447   */\n      calldataload\n        /* \"#utility.yul\":2466:2484   */\n      0xffffffffffffffff\n        /* \"#utility.yul\":2503:2505   */\n      dup1\n        /* \"#utility.yul\":2499:2501   */\n      dup3\n        /* \"#utility.yul\":2496:2506   */\n      gt\n        /* \"#utility.yul\":2493:2529   */\n      iszero\n      tag_196\n      jumpi\n        /* \"#utility.yul\":2509:2527   */\n      tag_196\n      tag_122\n      jump\t// in\n    tag_196:\n        /* \"#utility.yul\":2584:2586   */\n      0x40\n        /* \"#utility.yul\":2578:2587   */\n      mload\n        /* \"#utility.yul\":2552:2554   */\n      0x1f\n        /* \"#utility.yul\":2638:2651   */\n      dup4\n      add\n      not(0x1f)\n        /* \"#utility.yul\":2634:2656   */\n      swap1\n      dup2\n      and\n        /* \"#utility.yul\":2658:2660   */\n      0x3f\n        /* \"#utility.yul\":2630:2661   */\n      add\n        /* \"#utility.yul\":2626:2666   */\n      and\n        /* \"#utility.yul\":2614:2667   */\n      dup2\n      add\n      swap1\n        /* \"#utility.yul\":2682:2700   */\n      dup3\n      dup3\n      gt\n        /* \"#utility.yul\":2702:2724   */\n      dup2\n      dup4\n      lt\n        /* \"#utility.yul\":2679:2725   */\n      or\n        /* \"#utility.yul\":2676:2748   */\n      iszero\n      tag_198\n      jumpi\n        /* \"#utility.yul\":2728:2746   */\n      tag_198\n      tag_122\n      jump\t// in\n    tag_198:\n        /* \"#utility.yul\":2768:2778   */\n      dup2\n        /* \"#utility.yul\":2764:2766   */\n      0x40\n        /* \"#utility.yul\":2757:2779   */\n      mstore\n        /* \"#utility.yul\":2803:2805   */\n      dup4\n        /* \"#utility.yul\":2795:2801   */\n      dup2\n        /* \"#utility.yul\":2788:2806   */\n      mstore\n        /* \"#utility.yul\":2849:2852   */\n      dup7\n        /* \"#utility.yul\":2842:2846   */\n      0x20\n        /* \"#utility.yul\":2837:2839   */\n      dup6\n        /* \"#utility.yul\":2829:2835   */\n      dup9\n        /* \"#utility.yul\":2825:2840   */\n      add\n        /* \"#utility.yul\":2821:2847   */\n      add\n        /* \"#utility.yul\":2818:2853   */\n      gt\n        /* \"#utility.yul\":2815:2870   */\n      iszero\n      tag_199\n      jumpi\n        /* \"#utility.yul\":2866:2867   */\n      0x00\n        /* \"#utility.yul\":2863:2864   */\n      dup1\n        /* \"#utility.yul\":2856:2868   */\n      revert\n        /* \"#utility.yul\":2815:2870   */\n    tag_199:\n        /* \"#utility.yul\":2930:2932   */\n      dup4\n        /* \"#utility.yul\":2923:2927   */\n      0x20\n        /* \"#utility.yul\":2915:2921   */\n      dup8\n        /* \"#utility.yul\":2911:2928   */\n      add\n        /* \"#utility.yul\":2904:2908   */\n      0x20\n        /* \"#utility.yul\":2896:2902   */\n      dup4\n        /* \"#utility.yul\":2892:2909   */\n      add\n        /* \"#utility.yul\":2879:2933   */\n      calldatacopy\n        /* \"#utility.yul\":2977:2978   */\n      0x00\n        /* \"#utility.yul\":2970:2974   */\n      0x20\n        /* \"#utility.yul\":2965:2967   */\n      dup6\n        /* \"#utility.yul\":2957:2963   */\n      dup4\n        /* \"#utility.yul\":2953:2968   */\n      add\n        /* \"#utility.yul\":2949:2975   */\n      add\n        /* \"#utility.yul\":2942:2979   */\n      mstore\n        /* \"#utility.yul\":2997:3003   */\n      dup1\n        /* \"#utility.yul\":2988:3003   */\n      swap5\n      pop\n      pop\n      pop\n      pop\n      pop\n        /* \"#utility.yul\":2290:3009   */\n      swap3\n      swap2\n      pop\n      pop\n      jump\t// out\n        /* \"#utility.yul\":3014:3694   */\n    tag_32:\n        /* \"#utility.yul\":3120:3126   */\n      0x00\n        /* \"#utility.yul\":3128:3134   */\n      dup1\n        /* \"#utility.yul\":3136:3142   */\n      0x00\n        /* \"#utility.yul\":3144:3150   */\n      dup1\n        /* \"#utility.yul\":3197:3200   */\n      0x80\n        /* \"#utility.yul\":3185:3194   */\n      dup6\n        /* \"#utility.yul\":3176:3183   */\n      dup8\n        /* \"#utility.yul\":3172:3195   */\n      sub\n        /* \"#utility.yul\":3168:3201   */\n      slt\n        /* \"#utility.yul\":3165:3218   */\n      iszero\n      tag_201\n      jumpi\n        /* \"#utility.yul\":3214:3215   */\n      0x00\n        /* \"#utility.yul\":3211:3212   */\n      dup1\n        /* \"#utility.yul\":3204:3216   */\n      revert\n        /* \"#utility.yul\":3165:3218   */\n    tag_201:\n        /* \"#utility.yul\":3254:3263   */\n      dup5\n        /* \"#utility.yul\":3241:3264   */\n      calldataload\n        /* \"#utility.yul\":3283:3301   */\n      0xffffffffffffffff\n        /* \"#utility.yul\":3324:3326   */\n      dup1\n        /* \"#utility.yul\":3316:3322   */\n      dup3\n        /* \"#utility.yul\":3313:3327   */\n      gt\n        /* \"#utility.yul\":3310:3344   */\n      iszero\n      tag_202\n      jumpi\n        /* \"#utility.yul\":3340:3341   */\n      0x00\n        /* \"#utility.yul\":3337:3338   */\n      dup1\n        /* \"#utility.yul\":3330:3342   */\n      revert\n        /* \"#utility.yul\":3310:3344   */\n    tag_202:\n        /* \"#utility.yul\":3363:3413   */\n      tag_203\n        /* \"#utility.yul\":3405:3412   */\n      dup9\n        /* \"#utility.yul\":3396:3402   */\n      dup4\n        /* \"#utility.yul\":3385:3394   */\n      dup10\n        /* \"#utility.yul\":3381:3403   */\n      add\n        /* \"#utility.yul\":3363:3413   */\n      tag_172\n      jump\t// in\n    tag_203:\n        /* \"#utility.yul\":3353:3413   */\n      swap6\n      pop\n        /* \"#utility.yul\":3466:3468   */\n      0x20\n        /* \"#utility.yul\":3455:3464   */\n      dup8\n        /* \"#utility.yul\":3451:3469   */\n      add\n        /* \"#utility.yul\":3438:3470   */\n      calldataload\n        /* \"#utility.yul\":3422:3470   */\n      swap2\n      pop\n        /* \"#utility.yul\":3495:3497   */\n      dup1\n        /* \"#utility.yul\":3485:3493   */\n      dup3\n        /* \"#utility.yul\":3482:3498   */\n      gt\n        /* \"#utility.yul\":3479:3515   */\n      iszero\n      tag_204\n      jumpi\n        /* \"#utility.yul\":3511:3512   */\n      0x00\n        /* \"#utility.yul\":3508:3509   */\n      dup1\n        /* \"#utility.yul\":3501:3513   */\n      revert\n        /* \"#utility.yul\":3479:3515   */\n    tag_204:\n      pop\n        /* \"#utility.yul\":3534:3586   */\n      tag_205\n        /* \"#utility.yul\":3578:3585   */\n      dup8\n        /* \"#utility.yul\":3567:3575   */\n      dup3\n        /* \"#utility.yul\":3556:3565   */\n      dup9\n        /* \"#utility.yul\":3552:3576   */\n      add\n        /* \"#utility.yul\":3534:3586   */\n      tag_172\n      jump\t// in\n    tag_205:\n        /* \"#utility.yul\":3014:3694   */\n      swap5\n      swap8\n        /* \"#utility.yul\":3524:3586   */\n      swap5\n      swap7\n      pop\n      pop\n      pop\n      pop\n        /* \"#utility.yul\":3633:3635   */\n      0x40\n        /* \"#utility.yul\":3618:3636   */\n      dup4\n      add\n        /* \"#utility.yul\":3605:3637   */\n      calldataload\n      swap3\n        /* \"#utility.yul\":3684:3686   */\n      0x60\n        /* \"#utility.yul\":3669:3687   */\n      add\n        /* \"#utility.yul\":3656:3688   */\n      calldataload\n      swap2\n        /* \"#utility.yul\":3014:3694   */\n      swap1\n      pop\n      jump\t// out\n        /* \"#utility.yul\":3907:4243   */\n    tag_40:\n        /* \"#utility.yul\":3987:3993   */\n      0x00\n        /* \"#utility.yul\":3995:4001   */\n      dup1\n        /* \"#utility.yul\":4048:4050   */\n      0x40\n        /* \"#utility.yul\":4036:4045   */\n      dup4\n        /* \"#utility.yul\":4027:4034   */\n      dup6\n        /* \"#utility.yul\":4023:4046   */\n      sub\n        /* \"#utility.yul\":4019:4051   */\n      slt\n        /* \"#utility.yul\":4016:4068   */\n      iszero\n      tag_208\n      jumpi\n        /* \"#utility.yul\":4064:4065   */\n      0x00\n        /* \"#utility.yul\":4061:4062   */\n      dup1\n        /* \"#utility.yul\":4054:4066   */\n      revert\n        /* \"#utility.yul\":4016:4068   */\n    tag_208:\n        /* \"#utility.yul\":4100:4109   */\n      dup3\n        /* \"#utility.yul\":4087:4110   */\n      calldataload\n        /* \"#utility.yul\":4077:4110   */\n      swap2\n      pop\n        /* \"#utility.yul\":4160:4162   */\n      0x20\n        /* \"#utility.yul\":4149:4158   */\n      dup4\n        /* \"#utility.yul\":4145:4163   */\n      add\n        /* \"#utility.yul\":4132:4164   */\n      calldataload\n        /* \"#utility.yul\":4193:4194   */\n      0x03\n        /* \"#utility.yul\":4186:4191   */\n      dup2\n        /* \"#utility.yul\":4183:4195   */\n      lt\n        /* \"#utility.yul\":4173:4213   */\n      tag_209\n      jumpi\n        /* \"#utility.yul\":4209:4210   */\n      0x00\n        /* \"#utility.yul\":4206:4207   */\n      dup1\n        /* \"#utility.yul\":4199:4211   */\n      revert\n        /* \"#utility.yul\":4173:4213   */\n    tag_209:\n        /* \"#utility.yul\":4232:4237   */\n      dup1\n        /* \"#utility.yul\":4222:4237   */\n      swap2\n      pop\n      pop\n        /* \"#utility.yul\":3907:4243   */\n      swap3\n      pop\n      swap3\n      swap1\n      pop\n      jump\t// out\n        /* \"#utility.yul\":4248:5936   */\n    tag_45:\n        /* \"#utility.yul\":4446:4450   */\n      0x00\n        /* \"#utility.yul\":4475:4477   */\n      0x20\n        /* \"#utility.yul\":4515:4517   */\n      dup1\n        /* \"#utility.yul\":4504:4513   */\n      dup4\n        /* \"#utility.yul\":4500:4518   */\n      add\n        /* \"#utility.yul\":4545:4547   */\n      dup2\n        /* \"#utility.yul\":4534:4543   */\n      dup5\n        /* \"#utility.yul\":4527:4548   */\n      mstore\n        /* \"#utility.yul\":4568:4574   */\n      dup1\n        /* \"#utility.yul\":4603:4609   */\n      dup6\n        /* \"#utility.yul\":4597:4610   */\n      mload\n        /* \"#utility.yul\":4634:4640   */\n      dup1\n        /* \"#utility.yul\":4626:4632   */\n      dup4\n        /* \"#utility.yul\":4619:4641   */\n      mstore\n        /* \"#utility.yul\":4660:4662   */\n      0x40\n        /* \"#utility.yul\":4650:4662   */\n      swap3\n      pop\n        /* \"#utility.yul\":4693:4695   */\n      0x40\n        /* \"#utility.yul\":4682:4691   */\n      dup7\n        /* \"#utility.yul\":4678:4696   */\n      add\n        /* \"#utility.yul\":4671:4696   */\n      swap2\n      pop\n        /* \"#utility.yul\":4755:4757   */\n      0x40\n        /* \"#utility.yul\":4745:4751   */\n      dup2\n        /* \"#utility.yul\":4742:4743   */\n      0x05\n        /* \"#utility.yul\":4738:4752   */\n      shl\n        /* \"#utility.yul\":4727:4736   */\n      dup8\n        /* \"#utility.yul\":4723:4753   */\n      add\n        /* \"#utility.yul\":4719:4758   */\n      add\n        /* \"#utility.yul\":4793:4795   */\n      dup5\n        /* \"#utility.yul\":4785:4791   */\n      dup9\n        /* \"#utility.yul\":4781:4796   */\n      add\n        /* \"#utility.yul\":4814:4815   */\n      0x00\n        /* \"#utility.yul\":4824:5907   */\n    tag_211:\n        /* \"#utility.yul\":4838:4844   */\n      dup4\n        /* \"#utility.yul\":4835:4836   */\n      dup2\n        /* \"#utility.yul\":4832:4845   */\n      lt\n        /* \"#utility.yul\":4824:5907   */\n      iszero\n      tag_213\n      jumpi\n        /* \"#utility.yul\":4931:4933   */\n      0x3f\n        /* \"#utility.yul\":4927:4934   */\n      not\n        /* \"#utility.yul\":4915:4924   */\n      dup10\n        /* \"#utility.yul\":4907:4913   */\n      dup5\n        /* \"#utility.yul\":4903:4925   */\n      sub\n        /* \"#utility.yul\":4899:4935   */\n      add\n        /* \"#utility.yul\":4894:4897   */\n      dup6\n        /* \"#utility.yul\":4887:4936   */\n      mstore\n        /* \"#utility.yul\":4965:4971   */\n      dup2\n        /* \"#utility.yul\":4959:4972   */\n      mload\n        /* \"#utility.yul\":4995:5001   */\n      0x0100\n        /* \"#utility.yul\":5035:5037   */\n      dup2\n        /* \"#utility.yul\":5029:5038   */\n      mload\n        /* \"#utility.yul\":5021:5027   */\n      dup6\n        /* \"#utility.yul\":5014:5039   */\n      mstore\n        /* \"#utility.yul\":5086:5088   */\n      dup9\n        /* \"#utility.yul\":5082:5084   */\n      dup3\n        /* \"#utility.yul\":5078:5089   */\n      add\n        /* \"#utility.yul\":5072:5090   */\n      mload\n        /* \"#utility.yul\":5127:5129   */\n      dup2\n        /* \"#utility.yul\":5122:5124   */\n      dup11\n        /* \"#utility.yul\":5114:5120   */\n      dup8\n        /* \"#utility.yul\":5110:5125   */\n      add\n        /* \"#utility.yul\":5103:5130   */\n      mstore\n        /* \"#utility.yul\":5157:5205   */\n      tag_214\n        /* \"#utility.yul\":5201:5203   */\n      dup3\n        /* \"#utility.yul\":5193:5199   */\n      dup8\n        /* \"#utility.yul\":5189:5204   */\n      add\n        /* \"#utility.yul\":5175:5187   */\n      dup3\n        /* \"#utility.yul\":5157:5205   */\n      tag_171\n      jump\t// in\n    tag_214:\n        /* \"#utility.yul\":5143:5205   */\n      swap2\n      pop\n      pop\n        /* \"#utility.yul\":5254:5256   */\n      dup8\n        /* \"#utility.yul\":5250:5252   */\n      dup3\n        /* \"#utility.yul\":5246:5257   */\n      add\n        /* \"#utility.yul\":5240:5258   */\n      mload\n        /* \"#utility.yul\":5307:5313   */\n      dup6\n        /* \"#utility.yul\":5299:5305   */\n      dup3\n        /* \"#utility.yul\":5295:5314   */\n      sub\n        /* \"#utility.yul\":5290:5292   */\n      dup10\n        /* \"#utility.yul\":5282:5288   */\n      dup8\n        /* \"#utility.yul\":5278:5293   */\n      add\n        /* \"#utility.yul\":5271:5315   */\n      mstore\n        /* \"#utility.yul\":5342:5383   */\n      tag_215\n        /* \"#utility.yul\":5376:5382   */\n      dup3\n        /* \"#utility.yul\":5360:5374   */\n      dup3\n        /* \"#utility.yul\":5342:5383   */\n      tag_171\n      jump\t// in\n    tag_215:\n        /* \"#utility.yul\":5406:5410   */\n      0x60\n        /* \"#utility.yul\":5453:5464   */\n      dup5\n      dup2\n      add\n        /* \"#utility.yul\":5447:5465   */\n      mload\n        /* \"#utility.yul\":5430:5445   */\n      swap1\n      dup9\n      add\n        /* \"#utility.yul\":5423:5466   */\n      mstore\n        /* \"#utility.yul\":5489:5493   */\n      0x80\n        /* \"#utility.yul\":5536:5547   */\n      dup1\n      dup6\n      add\n        /* \"#utility.yul\":5530:5548   */\n      mload\n        /* \"#utility.yul\":5513:5528   */\n      swap1\n      dup9\n      add\n        /* \"#utility.yul\":5506:5549   */\n      mstore\n        /* \"#utility.yul\":5572:5576   */\n      0xa0\n        /* \"#utility.yul\":5619:5630   */\n      dup1\n      dup6\n      add\n        /* \"#utility.yul\":5613:5631   */\n      mload\n        /* \"#utility.yul\":5596:5611   */\n      swap1\n      dup9\n      add\n        /* \"#utility.yul\":5589:5632   */\n      mstore\n        /* \"#utility.yul\":5655:5659   */\n      0xc0\n        /* \"#utility.yul\":5702:5713   */\n      dup1\n      dup6\n      add\n        /* \"#utility.yul\":5696:5714   */\n      mload\n        /* \"#utility.yul\":5679:5694   */\n      swap1\n      dup9\n      add\n        /* \"#utility.yul\":5672:5715   */\n      mstore\n        /* \"#utility.yul\":5738:5742   */\n      0xe0\n        /* \"#utility.yul\":5785:5796   */\n      swap4\n      dup5\n      add\n        /* \"#utility.yul\":5779:5797   */\n      mload\n        /* \"#utility.yul\":5762:5777   */\n      swap4\n      swap1\n      swap7\n      add\n        /* \"#utility.yul\":5755:5798   */\n      swap3\n      swap1\n      swap3\n      mstore\n      pop\n      pop\n        /* \"#utility.yul\":5885:5897   */\n      swap4\n      dup7\n      add\n      swap4\n        /* \"#utility.yul\":5850:5865   */\n      swap1\n      dup7\n      add\n      swap1\n        /* \"#utility.yul\":4860:4861   */\n      0x01\n        /* \"#utility.yul\":4853:4862   */\n      add\n        /* \"#utility.yul\":4824:5907   */\n      jump(tag_211)\n    tag_213:\n      pop\n        /* \"#utility.yul\":5924:5930   */\n      swap1\n      swap9\n        /* \"#utility.yul\":4248:5936   */\n      swap8\n      pop\n      pop\n      pop\n      pop\n      pop\n      pop\n      pop\n      pop\n      jump\t// out\n        /* \"#utility.yul\":5941:6776   */\n    tag_50:\n        /* \"#utility.yul\":6269:6273   */\n      0x00\n        /* \"#utility.yul\":6298:6301   */\n      0x0100\n        /* \"#utility.yul\":6328:6334   */\n      dup11\n        /* \"#utility.yul\":6317:6326   */\n      dup4\n        /* \"#utility.yul\":6310:6335   */\n      mstore\n        /* \"#utility.yul\":6371:6373   */\n      dup1\n        /* \"#utility.yul\":6366:6368   */\n      0x20\n        /* \"#utility.yul\":6355:6364   */\n      dup5\n        /* \"#utility.yul\":6351:6369   */\n      add\n        /* \"#utility.yul\":6344:6374   */\n      mstore\n        /* \"#utility.yul\":6397:6442   */\n      tag_217\n        /* \"#utility.yul\":6438:6440   */\n      dup2\n        /* \"#utility.yul\":6427:6436   */\n      dup5\n        /* \"#utility.yul\":6423:6441   */\n      add\n        /* \"#utility.yul\":6415:6421   */\n      dup12\n        /* \"#utility.yul\":6397:6442   */\n      tag_171\n      jump\t// in\n    tag_217:\n        /* \"#utility.yul\":6383:6442   */\n      swap1\n      pop\n        /* \"#utility.yul\":6490:6499   */\n      dup3\n        /* \"#utility.yul\":6482:6488   */\n      dup2\n        /* \"#utility.yul\":6478:6500   */\n      sub\n        /* \"#utility.yul\":6473:6475   */\n      0x40\n        /* \"#utility.yul\":6462:6471   */\n      dup5\n        /* \"#utility.yul\":6458:6476   */\n      add\n        /* \"#utility.yul\":6451:6501   */\n      mstore\n        /* \"#utility.yul\":6518:6551   */\n      tag_218\n        /* \"#utility.yul\":6544:6550   */\n      dup2\n        /* \"#utility.yul\":6536:6542   */\n      dup11\n        /* \"#utility.yul\":6518:6551   */\n      tag_171\n      jump\t// in\n    tag_218:\n        /* \"#utility.yul\":6582:6584   */\n      0x60\n        /* \"#utility.yul\":6567:6585   */\n      dup5\n      add\n        /* \"#utility.yul\":6560:6594   */\n      swap9\n      swap1\n      swap9\n      mstore\n      pop\n      pop\n        /* \"#utility.yul\":6625:6628   */\n      0x80\n        /* \"#utility.yul\":6610:6629   */\n      dup2\n      add\n        /* \"#utility.yul\":6603:6638   */\n      swap5\n      swap1\n      swap5\n      mstore\n        /* \"#utility.yul\":6669:6672   */\n      0xa0\n        /* \"#utility.yul\":6654:6673   */\n      dup5\n      add\n        /* \"#utility.yul\":6647:6682   */\n      swap3\n      swap1\n      swap3\n      mstore\n        /* \"#utility.yul\":6713:6716   */\n      0xc0\n        /* \"#utility.yul\":6698:6717   */\n      dup4\n      add\n        /* \"#utility.yul\":6691:6726   */\n      mstore\n        /* \"#utility.yul\":6757:6760   */\n      0xe0\n        /* \"#utility.yul\":6742:6761   */\n      swap1\n      swap2\n      add\n        /* \"#utility.yul\":6735:6770   */\n      mstore\n        /* \"#utility.yul\":6510:6551   */\n      swap4\n        /* \"#utility.yul\":5941:6776   */\n      swap3\n      pop\n      pop\n      pop\n      jump\t// out\n        /* \"#utility.yul\":6781:7413   */\n    tag_57:\n        /* \"#utility.yul\":6952:6954   */\n      0x20\n        /* \"#utility.yul\":7004:7025   */\n      dup1\n      dup3\n      mstore\n        /* \"#utility.yul\":7074:7087   */\n      dup3\n      mload\n        /* \"#utility.yul\":6977:6995   */\n      dup3\n      dup3\n      add\n        /* \"#utility.yul\":7096:7118   */\n      dup2\n      swap1\n      mstore\n        /* \"#utility.yul\":6923:6927   */\n      0x00\n      swap2\n        /* \"#utility.yul\":6952:6954   */\n      swap1\n        /* \"#utility.yul\":7175:7190   */\n      dup5\n      dup3\n      add\n      swap1\n        /* \"#utility.yul\":7149:7151   */\n      0x40\n        /* \"#utility.yul\":7134:7152   */\n      dup6\n      add\n      swap1\n        /* \"#utility.yul\":6923:6927   */\n      dup5\n        /* \"#utility.yul\":7218:7387   */\n    tag_220:\n        /* \"#utility.yul\":7232:7238   */\n      dup2\n        /* \"#utility.yul\":7229:7230   */\n      dup2\n        /* \"#utility.yul\":7226:7239   */\n      lt\n        /* \"#utility.yul\":7218:7387   */\n      iszero\n      tag_222\n      jumpi\n        /* \"#utility.yul\":7293:7306   */\n      dup4\n      mload\n        /* \"#utility.yul\":7281:7307   */\n      dup4\n      mstore\n        /* \"#utility.yul\":7362:7377   */\n      swap3\n      dup5\n      add\n      swap3\n        /* \"#utility.yul\":7327:7339   */\n      swap2\n      dup5\n      add\n      swap2\n        /* \"#utility.yul\":7254:7255   */\n      0x01\n        /* \"#utility.yul\":7247:7256   */\n      add\n        /* \"#utility.yul\":7218:7387   */\n      jump(tag_220)\n    tag_222:\n      pop\n        /* \"#utility.yul\":7404:7407   */\n      swap1\n      swap7\n        /* \"#utility.yul\":6781:7413   */\n      swap6\n      pop\n      pop\n      pop\n      pop\n      pop\n      pop\n      jump\t// out\n        /* \"#utility.yul\":7418:7798   */\n    tag_59:\n        /* \"#utility.yul\":7497:7498   */\n      0x01\n        /* \"#utility.yul\":7493:7505   */\n      dup2\n      dup2\n      shr\n      swap1\n        /* \"#utility.yul\":7540:7552   */\n      dup3\n      and\n      dup1\n        /* \"#utility.yul\":7561:7622   */\n      tag_224\n      jumpi\n        /* \"#utility.yul\":7615:7619   */\n      0x7f\n        /* \"#utility.yul\":7607:7613   */\n      dup3\n        /* \"#utility.yul\":7603:7620   */\n      and\n        /* \"#utility.yul\":7593:7620   */\n      swap2\n      pop\n        /* \"#utility.yul\":7561:7622   */\n    tag_224:\n        /* \"#utility.yul\":7668:7670   */\n      0x20\n        /* \"#utility.yul\":7660:7666   */\n      dup3\n        /* \"#utility.yul\":7657:7671   */\n      lt\n        /* \"#utility.yul\":7637:7655   */\n      dup2\n        /* \"#utility.yul\":7634:7672   */\n      sub\n        /* \"#utility.yul\":7631:7792   */\n      tag_128\n      jumpi\n        /* \"#utility.yul\":7714:7724   */\n      0x4e487b71\n        /* \"#utility.yul\":7709:7712   */\n      0xe0\n        /* \"#utility.yul\":7705:7725   */\n      shl\n        /* \"#utility.yul\":7702:7703   */\n      0x00\n        /* \"#utility.yul\":7695:7726   */\n      mstore\n        /* \"#utility.yul\":7749:7753   */\n      0x22\n        /* \"#utility.yul\":7746:7747   */\n      0x04\n        /* \"#utility.yul\":7739:7754   */\n      mstore\n        /* \"#utility.yul\":7777:7781   */\n      0x24\n        /* \"#utility.yul\":7774:7775   */\n      0x00\n        /* \"#utility.yul\":7767:7782   */\n      revert\n        /* \"#utility.yul\":8629:9147   */\n    tag_174:\n        /* \"#utility.yul\":8731:8733   */\n      0x1f\n        /* \"#utility.yul\":8726:8729   */\n      dup3\n        /* \"#utility.yul\":8723:8734   */\n      gt\n        /* \"#utility.yul\":8720:9141   */\n      iszero\n      tag_230\n      jumpi\n        /* \"#utility.yul\":8767:8772   */\n      dup1\n        /* \"#utility.yul\":8764:8765   */\n      0x00\n        /* \"#utility.yul\":8757:8773   */\n      mstore\n        /* \"#utility.yul\":8811:8815   */\n      0x20\n        /* \"#utility.yul\":8808:8809   */\n      0x00\n        /* \"#utility.yul\":8798:8816   */\n      keccak256\n        /* \"#utility.yul\":8881:8883   */\n      0x1f\n        /* \"#utility.yul\":8869:8879   */\n      dup5\n        /* \"#utility.yul\":8865:8884   */\n      add\n        /* \"#utility.yul\":8862:8863   */\n      0x05\n        /* \"#utility.yul\":8858:8885   */\n      shr\n        /* \"#utility.yul\":8852:8856   */\n      dup2\n        /* \"#utility.yul\":8848:8886   */\n      add\n        /* \"#utility.yul\":8917:8921   */\n      0x20\n        /* \"#utility.yul\":8905:8915   */\n      dup6\n        /* \"#utility.yul\":8902:8922   */\n      lt\n        /* \"#utility.yul\":8899:8946   */\n      iszero\n      tag_231\n      jumpi\n      pop\n        /* \"#utility.yul\":8940:8944   */\n      dup1\n        /* \"#utility.yul\":8899:8946   */\n    tag_231:\n        /* \"#utility.yul\":8995:8997   */\n      0x1f\n        /* \"#utility.yul\":8990:8993   */\n      dup5\n        /* \"#utility.yul\":8986:8998   */\n      add\n        /* \"#utility.yul\":8983:8984   */\n      0x05\n        /* \"#utility.yul\":8979:8999   */\n      shr\n        /* \"#utility.yul\":8973:8977   */\n      dup3\n        /* \"#utility.yul\":8969:9000   */\n      add\n        /* \"#utility.yul\":8959:9000   */\n      swap2\n      pop\n        /* \"#utility.yul\":9050:9131   */\n    tag_232:\n        /* \"#utility.yul\":9068:9070   */\n      dup2\n        /* \"#utility.yul\":9061:9066   */\n      dup2\n        /* \"#utility.yul\":9058:9071   */\n      lt\n        /* \"#utility.yul\":9050:9131   */\n      iszero\n      tag_234\n      jumpi\n        /* \"#utility.yul\":9127:9128   */\n      0x00\n        /* \"#utility.yul\":9113:9129   */\n      dup2\n      sstore\n        /* \"#utility.yul\":9094:9095   */\n      0x01\n        /* \"#utility.yul\":9083:9096   */\n      add\n        /* \"#utility.yul\":9050:9131   */\n      jump(tag_232)\n    tag_234:\n        /* \"#utility.yul\":9054:9057   */\n      pop\n      pop\n        /* \"#utility.yul\":8720:9141   */\n    tag_230:\n        /* \"#utility.yul\":8629:9147   */\n      pop\n      pop\n      pop\n      jump\t// out\n        /* \"#utility.yul\":9323:10668   */\n    tag_78:\n        /* \"#utility.yul\":9449:9452   */\n      dup2\n        /* \"#utility.yul\":9443:9453   */\n      mload\n        /* \"#utility.yul\":9476:9494   */\n      0xffffffffffffffff\n        /* \"#utility.yul\":9468:9474   */\n      dup2\n        /* \"#utility.yul\":9465:9495   */\n      gt\n        /* \"#utility.yul\":9462:9518   */\n      iszero\n      tag_238\n      jumpi\n        /* \"#utility.yul\":9498:9516   */\n      tag_238\n      tag_122\n      jump\t// in\n    tag_238:\n        /* \"#utility.yul\":9527:9624   */\n      tag_239\n        /* \"#utility.yul\":9617:9623   */\n      dup2\n        /* \"#utility.yul\":9577:9615   */\n      tag_240\n        /* \"#utility.yul\":9609:9613   */\n      dup5\n        /* \"#utility.yul\":9603:9614   */\n      sload\n        /* \"#utility.yul\":9577:9615   */\n      tag_59\n      jump\t// in\n    tag_240:\n        /* \"#utility.yul\":9571:9575   */\n      dup5\n        /* \"#utility.yul\":9527:9624   */\n      tag_174\n      jump\t// in\n    tag_239:\n        /* \"#utility.yul\":9679:9683   */\n      0x20\n      dup1\n        /* \"#utility.yul\":9736:9738   */\n      0x1f\n        /* \"#utility.yul\":9725:9739   */\n      dup4\n      gt\n        /* \"#utility.yul\":9753:9754   */\n      0x01\n        /* \"#utility.yul\":9748:10411   */\n      dup2\n      eq\n      tag_242\n      jumpi\n        /* \"#utility.yul\":10455:10456   */\n      0x00\n        /* \"#utility.yul\":10472:10478   */\n      dup5\n        /* \"#utility.yul\":10469:10558   */\n      iszero\n      tag_243\n      jumpi\n      pop\n        /* \"#utility.yul\":10524:10543   */\n      dup6\n      dup4\n      add\n        /* \"#utility.yul\":10518:10544   */\n      mload\n        /* \"#utility.yul\":10469:10558   */\n    tag_243:\n      not(0x00)\n        /* \"#utility.yul\":9280:9281   */\n      0x03\n        /* \"#utility.yul\":9276:9287   */\n      dup7\n      swap1\n      shl\n        /* \"#utility.yul\":9272:9296   */\n      shr\n        /* \"#utility.yul\":9268:9297   */\n      not\n        /* \"#utility.yul\":9258:9298   */\n      and\n        /* \"#utility.yul\":9304:9305   */\n      0x01\n        /* \"#utility.yul\":9300:9311   */\n      dup6\n      swap1\n      shl\n        /* \"#utility.yul\":9255:9312   */\n      or\n        /* \"#utility.yul\":10571:10652   */\n      dup6\n      sstore\n        /* \"#utility.yul\":9718:10662   */\n      jump(tag_241)\n        /* \"#utility.yul\":9748:10411   */\n    tag_242:\n        /* \"#utility.yul\":8576:8577   */\n      0x00\n        /* \"#utility.yul\":8569:8583   */\n      dup6\n      dup2\n      mstore\n        /* \"#utility.yul\":8613:8617   */\n      0x20\n        /* \"#utility.yul\":8600:8618   */\n      dup2\n      keccak256\n      not(0x1f)\n        /* \"#utility.yul\":9784:9804   */\n      dup7\n      and\n      swap2\n        /* \"#utility.yul\":9902:10138   */\n    tag_246:\n        /* \"#utility.yul\":9916:9923   */\n      dup3\n        /* \"#utility.yul\":9913:9914   */\n      dup2\n        /* \"#utility.yul\":9910:9924   */\n      lt\n        /* \"#utility.yul\":9902:10138   */\n      iszero\n      tag_248\n      jumpi\n        /* \"#utility.yul\":10005:10024   */\n      dup9\n      dup7\n      add\n        /* \"#utility.yul\":9999:10025   */\n      mload\n        /* \"#utility.yul\":9984:10026   */\n      dup3\n      sstore\n        /* \"#utility.yul\":10097:10124   */\n      swap5\n      dup5\n      add\n      swap5\n        /* \"#utility.yul\":10065:10066   */\n      0x01\n        /* \"#utility.yul\":10053:10067   */\n      swap1\n      swap2\n      add\n      swap1\n        /* \"#utility.yul\":9932:9951   */\n      dup5\n      add\n        /* \"#utility.yul\":9902:10138   */\n      jump(tag_246)\n    tag_248:\n        /* \"#utility.yul\":9906:9909   */\n      pop\n        /* \"#utility.yul\":10166:10172   */\n      dup6\n        /* \"#utility.yul\":10157:10164   */\n      dup3\n        /* \"#utility.yul\":10154:10173   */\n      lt\n        /* \"#utility.yul\":10151:10352   */\n      iszero\n      tag_249\n      jumpi\n        /* \"#utility.yul\":10227:10246   */\n      dup8\n      dup6\n      add\n        /* \"#utility.yul\":10221:10247   */\n      mload\n      not(0x00)\n        /* \"#utility.yul\":10310:10311   */\n      0x03\n        /* \"#utility.yul\":10306:10320   */\n      dup9\n      swap1\n      shl\n        /* \"#utility.yul\":10322:10325   */\n      0xf8\n        /* \"#utility.yul\":10302:10326   */\n      and\n        /* \"#utility.yul\":10298:10335   */\n      shr\n        /* \"#utility.yul\":10294:10336   */\n      not\n        /* \"#utility.yul\":10279:10337   */\n      and\n        /* \"#utility.yul\":10264:10338   */\n      dup2\n      sstore\n        /* \"#utility.yul\":10151:10352   */\n    tag_249:\n      pop\n      pop\n        /* \"#utility.yul\":10398:10399   */\n      0x01\n        /* \"#utility.yul\":10389:10395   */\n      dup5\n        /* \"#utility.yul\":10386:10387   */\n      0x01\n        /* \"#utility.yul\":10382:10396   */\n      shl\n        /* \"#utility.yul\":10378:10400   */\n      add\n        /* \"#utility.yul\":10372:10376   */\n      dup6\n        /* \"#utility.yul\":10365:10401   */\n      sstore\n        /* \"#utility.yul\":9718:10662   */\n    tag_241:\n      pop\n      pop\n      pop\n      pop\n        /* \"#utility.yul\":9323:10668   */\n      pop\n      pop\n      jump\t// out\n        /* \"#utility.yul\":10673:11370   */\n    tag_81:\n        /* \"#utility.yul\":10964:10989   */\n      dup7\n      dup2\n      mstore\n      sub(shl(0xa0, 0x01), 0x01)\n        /* \"#utility.yul\":11025:11057   */\n      dup7\n      and\n        /* \"#utility.yul\":11020:11022   */\n      0x20\n        /* \"#utility.yul\":11005:11023   */\n      dup3\n      add\n        /* \"#utility.yul\":10998:11058   */\n      mstore\n        /* \"#utility.yul\":11094:11097   */\n      0xc0\n        /* \"#utility.yul\":11089:11091   */\n      0x40\n        /* \"#utility.yul\":11074:11092   */\n      dup3\n      add\n        /* \"#utility.yul\":11067:11098   */\n      dup2\n      swap1\n      mstore\n      0x00\n      swap1\n        /* \"#utility.yul\":11121:11167   */\n      tag_251\n      swap1\n        /* \"#utility.yul\":11147:11166   */\n      dup4\n      add\n        /* \"#utility.yul\":11139:11145   */\n      dup8\n        /* \"#utility.yul\":11121:11167   */\n      tag_171\n      jump\t// in\n    tag_251:\n        /* \"#utility.yul\":11215:11224   */\n      dup3\n        /* \"#utility.yul\":11207:11213   */\n      dup2\n        /* \"#utility.yul\":11203:11225   */\n      sub\n        /* \"#utility.yul\":11198:11200   */\n      0x60\n        /* \"#utility.yul\":11187:11196   */\n      dup5\n        /* \"#utility.yul\":11183:11201   */\n      add\n        /* \"#utility.yul\":11176:11226   */\n      mstore\n        /* \"#utility.yul\":11243:11276   */\n      tag_252\n        /* \"#utility.yul\":11269:11275   */\n      dup2\n        /* \"#utility.yul\":11261:11267   */\n      dup8\n        /* \"#utility.yul\":11243:11276   */\n      tag_171\n      jump\t// in\n    tag_252:\n        /* \"#utility.yul\":11307:11310   */\n      0x80\n        /* \"#utility.yul\":11292:11311   */\n      dup5\n      add\n        /* \"#utility.yul\":11285:11320   */\n      swap6\n      swap1\n      swap6\n      mstore\n      pop\n      pop\n        /* \"#utility.yul\":11351:11354   */\n      0xa0\n        /* \"#utility.yul\":11336:11355   */\n      add\n        /* \"#utility.yul\":11329:11364   */\n      mstore\n        /* \"#utility.yul\":11235:11276   */\n      swap5\n        /* \"#utility.yul\":10673:11370   */\n      swap4\n      pop\n      pop\n      pop\n      pop\n      jump\t// out\n        /* \"#utility.yul\":11375:11502   */\n    tag_176:\n        /* \"#utility.yul\":11436:11446   */\n      0x4e487b71\n        /* \"#utility.yul\":11431:11434   */\n      0xe0\n        /* \"#utility.yul\":11427:11447   */\n      shl\n        /* \"#utility.yul\":11424:11425   */\n      0x00\n        /* \"#utility.yul\":11417:11448   */\n      mstore\n        /* \"#utility.yul\":11467:11471   */\n      0x11\n        /* \"#utility.yul\":11464:11465   */\n      0x04\n        /* \"#utility.yul\":11457:11472   */\n      mstore\n        /* \"#utility.yul\":11491:11495   */\n      0x24\n        /* \"#utility.yul\":11488:11489   */\n      0x00\n        /* \"#utility.yul\":11481:11496   */\n      revert\n        /* \"#utility.yul\":11507:11642   */\n    tag_83:\n        /* \"#utility.yul\":11546:11549   */\n      0x00\n        /* \"#utility.yul\":11567:11584   */\n      0x01\n      dup3\n      add\n        /* \"#utility.yul\":11564:11607   */\n      tag_256\n      jumpi\n        /* \"#utility.yul\":11587:11605   */\n      tag_256\n      tag_176\n      jump\t// in\n    tag_256:\n      pop\n        /* \"#utility.yul\":11634:11635   */\n      0x01\n        /* \"#utility.yul\":11623:11636   */\n      add\n      swap1\n        /* \"#utility.yul\":11507:11642   */\n      jump\t// out\n        /* \"#utility.yul\":13054:13181   */\n    tag_102:\n        /* \"#utility.yul\":13115:13125   */\n      0x4e487b71\n        /* \"#utility.yul\":13110:13113   */\n      0xe0\n        /* \"#utility.yul\":13106:13126   */\n      shl\n        /* \"#utility.yul\":13103:13104   */\n      0x00\n        /* \"#utility.yul\":13096:13127   */\n      mstore\n        /* \"#utility.yul\":13146:13150   */\n      0x21\n        /* \"#utility.yul\":13143:13144   */\n      0x04\n        /* \"#utility.yul\":13136:13151   */\n      mstore\n        /* \"#utility.yul\":13170:13174   */\n      0x24\n        /* \"#utility.yul\":13167:13168   */\n      0x00\n        /* \"#utility.yul\":13160:13175   */\n      revert\n        /* \"#utility.yul\":13186:13311   */\n    tag_109:\n        /* \"#utility.yul\":13251:13260   */\n      dup1\n      dup3\n      add\n        /* \"#utility.yul\":13272:13282   */\n      dup1\n      dup3\n      gt\n        /* \"#utility.yul\":13269:13305   */\n      iszero\n      tag_264\n      jumpi\n        /* \"#utility.yul\":13285:13303   */\n      tag_264\n      tag_176\n      jump\t// in\n    tag_264:\n        /* \"#utility.yul\":13186:13311   */\n      swap3\n      swap2\n      pop\n      pop\n      jump\t// out\n        /* \"#utility.yul\":13316:13904   */\n    tag_118:\n        /* \"#utility.yul\":13565:13590   */\n      dup5\n      dup2\n      mstore\n      sub(shl(0xa0, 0x01), 0x01)\n        /* \"#utility.yul\":13626:13658   */\n      dup5\n      and\n        /* \"#utility.yul\":13621:13623   */\n      0x20\n        /* \"#utility.yul\":13606:13624   */\n      dup3\n      add\n        /* \"#utility.yul\":13599:13659   */\n      mstore\n        /* \"#utility.yul\":13552:13555   */\n      0x80\n        /* \"#utility.yul\":13537:13556   */\n      dup2\n      add\n        /* \"#utility.yul\":13689:13690   */\n      0x03\n        /* \"#utility.yul\":13678:13691   */\n      dup5\n      lt\n        /* \"#utility.yul\":13668:13812   */\n      tag_266\n      jumpi\n        /* \"#utility.yul\":13734:13744   */\n      0x4e487b71\n        /* \"#utility.yul\":13729:13732   */\n      0xe0\n        /* \"#utility.yul\":13725:13745   */\n      shl\n        /* \"#utility.yul\":13722:13723   */\n      0x00\n        /* \"#utility.yul\":13715:13746   */\n      mstore\n        /* \"#utility.yul\":13769:13773   */\n      0x21\n        /* \"#utility.yul\":13766:13767   */\n      0x04\n        /* \"#utility.yul\":13759:13774   */\n      mstore\n        /* \"#utility.yul\":13797:13801   */\n      0x24\n        /* \"#utility.yul\":13794:13795   */\n      0x00\n        /* \"#utility.yul\":13787:13802   */\n      revert\n        /* \"#utility.yul\":13668:13812   */\n    tag_266:\n        /* \"#utility.yul\":13843:13845   */\n      0x40\n        /* \"#utility.yul\":13828:13846   */\n      dup3\n      add\n        /* \"#utility.yul\":13821:13855   */\n      swap4\n      swap1\n      swap4\n      mstore\n        /* \"#utility.yul\":13886:13888   */\n      0x60\n        /* \"#utility.yul\":13871:13889   */\n      add\n        /* \"#utility.yul\":13864:13898   */\n      mstore\n        /* \"#utility.yul\":13316:13904   */\n      swap3\n      swap2\n      pop\n      pop\n      jump\t// out\n        /* \"#utility.yul\":13909:14036   */\n    tag_133:\n        /* \"#utility.yul\":13970:13980   */\n      0x4e487b71\n        /* \"#utility.yul\":13965:13968   */\n      0xe0\n        /* \"#utility.yul\":13961:13981   */\n      shl\n        /* \"#utility.yul\":13958:13959   */\n      0x00\n        /* \"#utility.yul\":13951:13982   */\n      mstore\n        /* \"#utility.yul\":14001:14005   */\n      0x32\n        /* \"#utility.yul\":13998:13999   */\n      0x04\n        /* \"#utility.yul\":13991:14006   */\n      mstore\n        /* \"#utility.yul\":14025:14029   */\n      0x24\n        /* \"#utility.yul\":14022:14023   */\n      0x00\n        /* \"#utility.yul\":14015:14030   */\n      revert\n\n    auxdata: 0xa26469706673582212204b23a77be517e9b6eb4f4d60013f5ff94cd756a9b64db36cf4ef156b397774e164736f6c63430008180033\n}\n",
				"bytecode": {
					"linkReferences": {},
					"object": "608060405234801561000f575f80fd5b505f80546001600160a01b0319163317905561119c8061002e5f395ff3fe608060405234801561000f575f80fd5b506004361061009b575f3560e01c8063943e821611610063578063943e821614610157578063acbab3a91461016a578063bc903cb81461017f578063ca6d56dc146101a6578063cceb68f5146101b9575f80fd5b8063013cf08b1461009f57806308ae4b0c146100cf5780632ab09d14146101015780636b5e1766146101185780638da5cb5b1461012d575b5f80fd5b6100b26100ad366004610b9c565b6101ce565b6040516100c6989796959493929190610bf6565b60405180910390f35b6100f16100dd366004610c5c565b60036020525f908152604090205460ff1681565b60405190151581526020016100c6565b61010a60015481565b6040519081526020016100c6565b61012b610126366004610d26565b610325565b005b5f5461013f906001600160a01b031681565b6040516001600160a01b0390911681526020016100c6565b61012b610165366004610d95565b610482565b6101726106e6565b6040516100c69190610dc6565b61019261018d366004610b9c565b610819565b6040516100c6989796959493929190610e8a565b61012b6101b4366004610c5c565b610a0d565b6101c1610b20565b6040516100c69190610ee3565b600260208190525f918252604090912080546001820154928201805491936001600160a01b0316929161020090610f26565b80601f016020809104026020016040519081016040528092919081815260200182805461022c90610f26565b80156102775780601f1061024e57610100808354040283529160200191610277565b820191905f5260205f20905b81548152906001019060200180831161025a57829003601f168201915b50505050509080600301805461028c90610f26565b80601f01602080910402602001604051908101604052809291908181526020018280546102b890610f26565b80156103035780601f106102da57610100808354040283529160200191610303565b820191905f5260205f20905b8154815290600101906020018083116102e657829003601f168201915b5050505050908060040154908060050154908060080154908060090154905088565b5f546001600160a01b0316331461037c5760405162461bcd60e51b81526020600482015260166024820152752737ba103a34329031b7b73a3930b1ba1037bbb732b960511b60448201526064015b60405180910390fd5b8082106103c25760405162461bcd60e51b8152602060048201526014602482015273496e76616c696420766f74696e672074696d657360601b6044820152606401610373565b600180545f81815260026020819052604090912091825591810180546001600160a01b031916331790559081016103f98682610fa4565b50600381016104088582610fa4565b5060048101839055600581018290555f6008820181905560098201556001546040517ffaa337366f7965edea73e5dda4e27a18008218bee177df73f82fc597a1f4dd089161045f9133908990899089908990611064565b60405180910390a160018054905f610476836110c9565b91905055505050505050565b335f9081526003602052604090205460ff166104d35760405162461bcd60e51b815260206004820152601060248201526f2737ba1030902220a79036b2b6b132b960811b6044820152606401610373565b81600154811061051b5760405162461bcd60e51b8152602060048201526013602482015272125b9d985b1a59081c1c9bdc1bdcd85b081251606a1b6044820152606401610373565b5f83815260026020526040902060048101544210801590610540575080600501544211155b61058c5760405162461bcd60e51b815260206004820152601f60248201527f566f74696e67206f7574736964652074686520616c6c6f7765642074696d65006044820152606401610373565b335f90815260068201602052604090205460ff16156105ed5760405162461bcd60e51b815260206004820152601960248201527f416464726573732068617320616c726561647920766f746564000000000000006044820152606401610373565b335f90815260068201602090815260408083208054600160ff1991821681179092556007860190935292208054869391921690836002811115610632576106326110e1565b0217905550600183600281111561064b5761064b6110e1565b0361066f576001816008015f82825461066491906110f5565b909155506106a29050565b6002836002811115610683576106836110e1565b036106a2576001816009015f82825461069c91906110f5565b90915550505b7f2635c84c3a8027a303ca6d6e90b1c4a9604754040372414d244aadfa6471751884338560016040516106d8949392919061110e565b60405180910390a150505050565b60605f60015467ffffffffffffffff81111561070457610704610c89565b60405190808252806020026020018201604052801561077757816020015b6107646040518061010001604052805f815260200160608152602001606081526020015f81526020015f81526020015f81526020015f81526020015f81525090565b8152602001906001900390816107225790505b5090505f5b600154811015610813575f805f805f805f8061079789610819565b97509750975097509750975097509750604051806101000160405280898152602001888152602001878152602001868152602001858152602001848152602001838152602001828152508a8a815181106107f3576107f3611152565b60200260200101819052505050505050505050808060010191505061077c565b50919050565b5f6060805f805f805f88600154811061086a5760405162461bcd60e51b8152602060048201526013602482015272125b9d985b1a59081c1c9bdc1bdcd85b081251606a1b6044820152606401610373565b5f8a81526002602052604081206008810154600982015460058301549293919290919042101561089b57505f6108c0565b8183116108b7578183146108b05760036108ba565b60026108ba565b60015b60ff1690505b835f0154846002018560030185858589600401548a600501548680546108e590610f26565b80601f016020809104026020016040519081016040528092919081815260200182805461091190610f26565b801561095c5780601f106109335761010080835404028352916020019161095c565b820191905f5260205f20905b81548152906001019060200180831161093f57829003601f168201915b5050505050965085805461096f90610f26565b80601f016020809104026020016040519081016040528092919081815260200182805461099b90610f26565b80156109e65780601f106109bd576101008083540402835291602001916109e6565b820191905f5260205f20905b8154815290600101906020018083116109c957829003601f168201915b505050505095509c509c509c509c509c509c509c509c505050505050919395975091939597565b5f546001600160a01b03163314610a5f5760405162461bcd60e51b81526020600482015260166024820152752737ba103a34329031b7b73a3930b1ba1037bbb732b960511b6044820152606401610373565b6001600160a01b0381165f9081526003602052604090205460ff1615610ac75760405162461bcd60e51b815260206004820152601b60248201527f4164647265737320697320616c72656164792061206d656d62657200000000006044820152606401610373565b6001600160a01b0381165f81815260036020908152604091829020805460ff1916600117905590519182527fb251eb052afc73ffd02ffe85ad79990a8b3fed60d76dbc2fa2fdd7123dffd914910160405180910390a150565b60605f60015467ffffffffffffffff811115610b3e57610b3e610c89565b604051908082528060200260200182016040528015610b67578160200160208202803683370190505b5090505f5b6001548110156108135780828281518110610b8957610b89611152565b6020908102919091010152600101610b6c565b5f60208284031215610bac575f80fd5b5035919050565b5f81518084525f5b81811015610bd757602081850181015186830182015201610bbb565b505f602082860101526020601f19601f83011685010191505092915050565b8881526001600160a01b0388166020820152610100604082018190525f90610c208382018a610bb3565b90508281036060840152610c348189610bb3565b9150508560808301528460a08301528360c08301528260e08301529998505050505050505050565b5f60208284031215610c6c575f80fd5b81356001600160a01b0381168114610c82575f80fd5b9392505050565b634e487b7160e01b5f52604160045260245ffd5b5f82601f830112610cac575f80fd5b813567ffffffffffffffff80821115610cc757610cc7610c89565b604051601f8301601f19908116603f01168101908282118183101715610cef57610cef610c89565b81604052838152866020858801011115610d07575f80fd5b836020870160208301375f602085830101528094505050505092915050565b5f805f8060808587031215610d39575f80fd5b843567ffffffffffffffff80821115610d50575f80fd5b610d5c88838901610c9d565b95506020870135915080821115610d71575f80fd5b50610d7e87828801610c9d565b949794965050505060408301359260600135919050565b5f8060408385031215610da6575f80fd5b82359150602083013560038110610dbb575f80fd5b809150509250929050565b5f60208083018184528085518083526040925060408601915060408160051b8701018488015f5b83811015610e7c57603f1989840301855281516101008151855288820151818a870152610e1c82870182610bb3565b9150508782015185820389870152610e348282610bb3565b606084810151908801526080808501519088015260a0808501519088015260c0808501519088015260e093840151939096019290925250509386019390860190600101610ded565b509098975050505050505050565b5f6101008a8352806020840152610ea38184018b610bb3565b90508281036040840152610eb7818a610bb3565b60608401989098525050608081019490945260a084019290925260c083015260e0909101529392505050565b602080825282518282018190525f9190848201906040850190845b81811015610f1a57835183529284019291840191600101610efe565b50909695505050505050565b600181811c90821680610f3a57607f821691505b60208210810361081357634e487b7160e01b5f52602260045260245ffd5b601f821115610f9f57805f5260205f20601f840160051c81016020851015610f7d5750805b601f840160051c820191505b81811015610f9c575f8155600101610f89565b50505b505050565b815167ffffffffffffffff811115610fbe57610fbe610c89565b610fd281610fcc8454610f26565b84610f58565b602080601f831160018114611005575f8415610fee5750858301515b5f19600386901b1c1916600185901b17855561105c565b5f85815260208120601f198616915b8281101561103357888601518255948401946001909101908401611014565b508582101561105057878501515f19600388901b60f8161c191681555b505060018460011b0185555b505050505050565b8681526001600160a01b038616602082015260c0604082018190525f9061108d90830187610bb3565b828103606084015261109f8187610bb3565b6080840195909552505060a00152949350505050565b634e487b7160e01b5f52601160045260245ffd5b5f600182016110da576110da6110b5565b5060010190565b634e487b7160e01b5f52602160045260245ffd5b80820180821115611108576111086110b5565b92915050565b8481526001600160a01b0384166020820152608081016003841061114057634e487b7160e01b5f52602160045260245ffd5b60408201939093526060015292915050565b634e487b7160e01b5f52603260045260245ffdfea26469706673582212204b23a77be517e9b6eb4f4d60013f5ff94cd756a9b64db36cf4ef156b397774e164736f6c63430008180033",
					"opcodes": "PUSH1 0x80 PUSH1 0x40 MSTORE CALLVALUE DUP1 ISZERO PUSH2 0xF JUMPI PUSH0 DUP1 REVERT JUMPDEST POP PUSH0 DUP1 SLOAD PUSH1 0x1 PUSH1 0x1 PUSH1 0xA0 SHL SUB NOT AND CALLER OR SWAP1 SSTORE PUSH2 0x119C DUP1 PUSH2 0x2E PUSH0 CODECOPY PUSH0 RETURN INVALID PUSH1 0x80 PUSH1 0x40 MSTORE CALLVALUE DUP1 ISZERO PUSH2 0xF JUMPI PUSH0 DUP1 REVERT JUMPDEST POP PUSH1 0x4 CALLDATASIZE LT PUSH2 0x9B JUMPI PUSH0 CALLDATALOAD PUSH1 0xE0 SHR DUP1 PUSH4 0x943E8216 GT PUSH2 0x63 JUMPI DUP1 PUSH4 0x943E8216 EQ PUSH2 0x157 JUMPI DUP1 PUSH4 0xACBAB3A9 EQ PUSH2 0x16A JUMPI DUP1 PUSH4 0xBC903CB8 EQ PUSH2 0x17F JUMPI DUP1 PUSH4 0xCA6D56DC EQ PUSH2 0x1A6 JUMPI DUP1 PUSH4 0xCCEB68F5 EQ PUSH2 0x1B9 JUMPI PUSH0 DUP1 REVERT JUMPDEST DUP1 PUSH4 0x13CF08B EQ PUSH2 0x9F JUMPI DUP1 PUSH4 0x8AE4B0C EQ PUSH2 0xCF JUMPI DUP1 PUSH4 0x2AB09D14 EQ PUSH2 0x101 JUMPI DUP1 PUSH4 0x6B5E1766 EQ PUSH2 0x118 JUMPI DUP1 PUSH4 0x8DA5CB5B EQ PUSH2 0x12D JUMPI JUMPDEST PUSH0 DUP1 REVERT JUMPDEST PUSH2 0xB2 PUSH2 0xAD CALLDATASIZE PUSH1 0x4 PUSH2 0xB9C JUMP JUMPDEST PUSH2 0x1CE JUMP JUMPDEST PUSH1 0x40 MLOAD PUSH2 0xC6 SWAP9 SWAP8 SWAP7 SWAP6 SWAP5 SWAP4 SWAP3 SWAP2 SWAP1 PUSH2 0xBF6 JUMP JUMPDEST PUSH1 0x40 MLOAD DUP1 SWAP2 SUB SWAP1 RETURN JUMPDEST PUSH2 0xF1 PUSH2 0xDD CALLDATASIZE PUSH1 0x4 PUSH2 0xC5C JUMP JUMPDEST PUSH1 0x3 PUSH1 0x20 MSTORE PUSH0 SWAP1 DUP2 MSTORE PUSH1 0x40 SWAP1 KECCAK256 SLOAD PUSH1 0xFF AND DUP2 JUMP JUMPDEST PUSH1 0x40 MLOAD SWAP1 ISZERO ISZERO DUP2 MSTORE PUSH1 0x20 ADD PUSH2 0xC6 JUMP JUMPDEST PUSH2 0x10A PUSH1 0x1 SLOAD DUP2 JUMP JUMPDEST PUSH1 0x40 MLOAD SWAP1 DUP2 MSTORE PUSH1 0x20 ADD PUSH2 0xC6 JUMP JUMPDEST PUSH2 0x12B PUSH2 0x126 CALLDATASIZE PUSH1 0x4 PUSH2 0xD26 JUMP JUMPDEST PUSH2 0x325 JUMP JUMPDEST STOP JUMPDEST PUSH0 SLOAD PUSH2 0x13F SWAP1 PUSH1 0x1 PUSH1 0x1 PUSH1 0xA0 SHL SUB AND DUP2 JUMP JUMPDEST PUSH1 0x40 MLOAD PUSH1 0x1 PUSH1 0x1 PUSH1 0xA0 SHL SUB SWAP1 SWAP2 AND DUP2 MSTORE PUSH1 0x20 ADD PUSH2 0xC6 JUMP JUMPDEST PUSH2 0x12B PUSH2 0x165 CALLDATASIZE PUSH1 0x4 PUSH2 0xD95 JUMP JUMPDEST PUSH2 0x482 JUMP JUMPDEST PUSH2 0x172 PUSH2 0x6E6 JUMP JUMPDEST PUSH1 0x40 MLOAD PUSH2 0xC6 SWAP2 SWAP1 PUSH2 0xDC6 JUMP JUMPDEST PUSH2 0x192 PUSH2 0x18D CALLDATASIZE PUSH1 0x4 PUSH2 0xB9C JUMP JUMPDEST PUSH2 0x819 JUMP JUMPDEST PUSH1 0x40 MLOAD PUSH2 0xC6 SWAP9 SWAP8 SWAP7 SWAP6 SWAP5 SWAP4 SWAP3 SWAP2 SWAP1 PUSH2 0xE8A JUMP JUMPDEST PUSH2 0x12B PUSH2 0x1B4 CALLDATASIZE PUSH1 0x4 PUSH2 0xC5C JUMP JUMPDEST PUSH2 0xA0D JUMP JUMPDEST PUSH2 0x1C1 PUSH2 0xB20 JUMP JUMPDEST PUSH1 0x40 MLOAD PUSH2 0xC6 SWAP2 SWAP1 PUSH2 0xEE3 JUMP JUMPDEST PUSH1 0x2 PUSH1 0x20 DUP2 SWAP1 MSTORE PUSH0 SWAP2 DUP3 MSTORE PUSH1 0x40 SWAP1 SWAP2 KECCAK256 DUP1 SLOAD PUSH1 0x1 DUP3 ADD SLOAD SWAP3 DUP3 ADD DUP1 SLOAD SWAP2 SWAP4 PUSH1 0x1 PUSH1 0x1 PUSH1 0xA0 SHL SUB AND SWAP3 SWAP2 PUSH2 0x200 SWAP1 PUSH2 0xF26 JUMP JUMPDEST DUP1 PUSH1 0x1F ADD PUSH1 0x20 DUP1 SWAP2 DIV MUL PUSH1 0x20 ADD PUSH1 0x40 MLOAD SWAP1 DUP2 ADD PUSH1 0x40 MSTORE DUP1 SWAP3 SWAP2 SWAP1 DUP2 DUP2 MSTORE PUSH1 0x20 ADD DUP3 DUP1 SLOAD PUSH2 0x22C SWAP1 PUSH2 0xF26 JUMP JUMPDEST DUP1 ISZERO PUSH2 0x277 JUMPI DUP1 PUSH1 0x1F LT PUSH2 0x24E JUMPI PUSH2 0x100 DUP1 DUP4 SLOAD DIV MUL DUP4 MSTORE SWAP2 PUSH1 0x20 ADD SWAP2 PUSH2 0x277 JUMP JUMPDEST DUP3 ADD SWAP2 SWAP1 PUSH0 MSTORE PUSH1 0x20 PUSH0 KECCAK256 SWAP1 JUMPDEST DUP2 SLOAD DUP2 MSTORE SWAP1 PUSH1 0x1 ADD SWAP1 PUSH1 0x20 ADD DUP1 DUP4 GT PUSH2 0x25A JUMPI DUP3 SWAP1 SUB PUSH1 0x1F AND DUP3 ADD SWAP2 JUMPDEST POP POP POP POP POP SWAP1 DUP1 PUSH1 0x3 ADD DUP1 SLOAD PUSH2 0x28C SWAP1 PUSH2 0xF26 JUMP JUMPDEST DUP1 PUSH1 0x1F ADD PUSH1 0x20 DUP1 SWAP2 DIV MUL PUSH1 0x20 ADD PUSH1 0x40 MLOAD SWAP1 DUP2 ADD PUSH1 0x40 MSTORE DUP1 SWAP3 SWAP2 SWAP1 DUP2 DUP2 MSTORE PUSH1 0x20 ADD DUP3 DUP1 SLOAD PUSH2 0x2B8 SWAP1 PUSH2 0xF26 JUMP JUMPDEST DUP1 ISZERO PUSH2 0x303 JUMPI DUP1 PUSH1 0x1F LT PUSH2 0x2DA JUMPI PUSH2 0x100 DUP1 DUP4 SLOAD DIV MUL DUP4 MSTORE SWAP2 PUSH1 0x20 ADD SWAP2 PUSH2 0x303 JUMP JUMPDEST DUP3 ADD SWAP2 SWAP1 PUSH0 MSTORE PUSH1 0x20 PUSH0 KECCAK256 SWAP1 JUMPDEST DUP2 SLOAD DUP2 MSTORE SWAP1 PUSH1 0x1 ADD SWAP1 PUSH1 0x20 ADD DUP1 DUP4 GT PUSH2 0x2E6 JUMPI DUP3 SWAP1 SUB PUSH1 0x1F AND DUP3 ADD SWAP2 JUMPDEST POP POP POP POP POP SWAP1 DUP1 PUSH1 0x4 ADD SLOAD SWAP1 DUP1 PUSH1 0x5 ADD SLOAD SWAP1 DUP1 PUSH1 0x8 ADD SLOAD SWAP1 DUP1 PUSH1 0x9 ADD SLOAD SWAP1 POP DUP9 JUMP JUMPDEST PUSH0 SLOAD PUSH1 0x1 PUSH1 0x1 PUSH1 0xA0 SHL SUB AND CALLER EQ PUSH2 0x37C JUMPI PUSH1 0x40 MLOAD PUSH3 0x461BCD PUSH1 0xE5 SHL DUP2 MSTORE PUSH1 0x20 PUSH1 0x4 DUP3 ADD MSTORE PUSH1 0x16 PUSH1 0x24 DUP3 ADD MSTORE PUSH22 0x2737BA103A34329031B7B73A3930B1BA1037BBB732B9 PUSH1 0x51 SHL PUSH1 0x44 DUP3 ADD MSTORE PUSH1 0x64 ADD JUMPDEST PUSH1 0x40 MLOAD DUP1 SWAP2 SUB SWAP1 REVERT JUMPDEST DUP1 DUP3 LT PUSH2 0x3C2 JUMPI PUSH1 0x40 MLOAD PUSH3 0x461BCD PUSH1 0xE5 SHL DUP2 MSTORE PUSH1 0x20 PUSH1 0x4 DUP3 ADD MSTORE PUSH1 0x14 PUSH1 0x24 DUP3 ADD MSTORE PUSH20 0x496E76616C696420766F74696E672074696D6573 PUSH1 0x60 SHL PUSH1 0x44 DUP3 ADD MSTORE PUSH1 0x64 ADD PUSH2 0x373 JUMP JUMPDEST PUSH1 0x1 DUP1 SLOAD PUSH0 DUP2 DUP2 MSTORE PUSH1 0x2 PUSH1 0x20 DUP2 SWAP1 MSTORE PUSH1 0x40 SWAP1 SWAP2 KECCAK256 SWAP2 DUP3 SSTORE SWAP2 DUP2 ADD DUP1 SLOAD PUSH1 0x1 PUSH1 0x1 PUSH1 0xA0 SHL SUB NOT AND CALLER OR SWAP1 SSTORE SWAP1 DUP2 ADD PUSH2 0x3F9 DUP7 DUP3 PUSH2 0xFA4 JUMP JUMPDEST POP PUSH1 0x3 DUP2 ADD PUSH2 0x408 DUP6 DUP3 PUSH2 0xFA4 JUMP JUMPDEST POP PUSH1 0x4 DUP2 ADD DUP4 SWAP1 SSTORE PUSH1 0x5 DUP2 ADD DUP3 SWAP1 SSTORE PUSH0 PUSH1 0x8 DUP3 ADD DUP2 SWAP1 SSTORE PUSH1 0x9 DUP3 ADD SSTORE PUSH1 0x1 SLOAD PUSH1 0x40 MLOAD PUSH32 0xFAA337366F7965EDEA73E5DDA4E27A18008218BEE177DF73F82FC597A1F4DD08 SWAP2 PUSH2 0x45F SWAP2 CALLER SWAP1 DUP10 SWAP1 DUP10 SWAP1 DUP10 SWAP1 DUP10 SWAP1 PUSH2 0x1064 JUMP JUMPDEST PUSH1 0x40 MLOAD DUP1 SWAP2 SUB SWAP1 LOG1 PUSH1 0x1 DUP1 SLOAD SWAP1 PUSH0 PUSH2 0x476 DUP4 PUSH2 0x10C9 JUMP JUMPDEST SWAP2 SWAP1 POP SSTORE POP POP POP POP POP POP JUMP JUMPDEST CALLER PUSH0 SWAP1 DUP2 MSTORE PUSH1 0x3 PUSH1 0x20 MSTORE PUSH1 0x40 SWAP1 KECCAK256 SLOAD PUSH1 0xFF AND PUSH2 0x4D3 JUMPI PUSH1 0x40 MLOAD PUSH3 0x461BCD PUSH1 0xE5 SHL DUP2 MSTORE PUSH1 0x20 PUSH1 0x4 DUP3 ADD MSTORE PUSH1 0x10 PUSH1 0x24 DUP3 ADD MSTORE PUSH16 0x2737BA1030902220A79036B2B6B132B9 PUSH1 0x81 SHL PUSH1 0x44 DUP3 ADD MSTORE PUSH1 0x64 ADD PUSH2 0x373 JUMP JUMPDEST DUP2 PUSH1 0x1 SLOAD DUP2 LT PUSH2 0x51B JUMPI PUSH1 0x40 MLOAD PUSH3 0x461BCD PUSH1 0xE5 SHL DUP2 MSTORE PUSH1 0x20 PUSH1 0x4 DUP3 ADD MSTORE PUSH1 0x13 PUSH1 0x24 DUP3 ADD MSTORE PUSH19 0x125B9D985B1A59081C1C9BDC1BDCD85B081251 PUSH1 0x6A SHL PUSH1 0x44 DUP3 ADD MSTORE PUSH1 0x64 ADD PUSH2 0x373 JUMP JUMPDEST PUSH0 DUP4 DUP2 MSTORE PUSH1 0x2 PUSH1 0x20 MSTORE PUSH1 0x40 SWAP1 KECCAK256 PUSH1 0x4 DUP2 ADD SLOAD TIMESTAMP LT DUP1 ISZERO SWAP1 PUSH2 0x540 JUMPI POP DUP1 PUSH1 0x5 ADD SLOAD TIMESTAMP GT ISZERO JUMPDEST PUSH2 0x58C JUMPI PUSH1 0x40 MLOAD PUSH3 0x461BCD PUSH1 0xE5 SHL DUP2 MSTORE PUSH1 0x20 PUSH1 0x4 DUP3 ADD MSTORE PUSH1 0x1F PUSH1 0x24 DUP3 ADD MSTORE PUSH32 0x566F74696E67206F7574736964652074686520616C6C6F7765642074696D6500 PUSH1 0x44 DUP3 ADD MSTORE PUSH1 0x64 ADD PUSH2 0x373 JUMP JUMPDEST CALLER PUSH0 SWAP1 DUP2 MSTORE PUSH1 0x6 DUP3 ADD PUSH1 0x20 MSTORE PUSH1 0x40 SWAP1 KECCAK256 SLOAD PUSH1 0xFF AND ISZERO PUSH2 0x5ED JUMPI PUSH1 0x40 MLOAD PUSH3 0x461BCD PUSH1 0xE5 SHL DUP2 MSTORE PUSH1 0x20 PUSH1 0x4 DUP3 ADD MSTORE PUSH1 0x19 PUSH1 0x24 DUP3 ADD MSTORE PUSH32 0x416464726573732068617320616C726561647920766F74656400000000000000 PUSH1 0x44 DUP3 ADD MSTORE PUSH1 0x64 ADD PUSH2 0x373 JUMP JUMPDEST CALLER PUSH0 SWAP1 DUP2 MSTORE PUSH1 0x6 DUP3 ADD PUSH1 0x20 SWAP1 DUP2 MSTORE PUSH1 0x40 DUP1 DUP4 KECCAK256 DUP1 SLOAD PUSH1 0x1 PUSH1 0xFF NOT SWAP2 DUP3 AND DUP2 OR SWAP1 SWAP3 SSTORE PUSH1 0x7 DUP7 ADD SWAP1 SWAP4 MSTORE SWAP3 KECCAK256 DUP1 SLOAD DUP7 SWAP4 SWAP2 SWAP3 AND SWAP1 DUP4 PUSH1 0x2 DUP2 GT ISZERO PUSH2 0x632 JUMPI PUSH2 0x632 PUSH2 0x10E1 JUMP JUMPDEST MUL OR SWAP1 SSTORE POP PUSH1 0x1 DUP4 PUSH1 0x2 DUP2 GT ISZERO PUSH2 0x64B JUMPI PUSH2 0x64B PUSH2 0x10E1 JUMP JUMPDEST SUB PUSH2 0x66F JUMPI PUSH1 0x1 DUP2 PUSH1 0x8 ADD PUSH0 DUP3 DUP3 SLOAD PUSH2 0x664 SWAP2 SWAP1 PUSH2 0x10F5 JUMP JUMPDEST SWAP1 SWAP2 SSTORE POP PUSH2 0x6A2 SWAP1 POP JUMP JUMPDEST PUSH1 0x2 DUP4 PUSH1 0x2 DUP2 GT ISZERO PUSH2 0x683 JUMPI PUSH2 0x683 PUSH2 0x10E1 JUMP JUMPDEST SUB PUSH2 0x6A2 JUMPI PUSH1 0x1 DUP2 PUSH1 0x9 ADD PUSH0 DUP3 DUP3 SLOAD PUSH2 0x69C SWAP2 SWAP1 PUSH2 0x10F5 JUMP JUMPDEST SWAP1 SWAP2 SSTORE POP POP JUMPDEST PUSH32 0x2635C84C3A8027A303CA6D6E90B1C4A9604754040372414D244AADFA64717518 DUP5 CALLER DUP6 PUSH1 0x1 PUSH1 0x40 MLOAD PUSH2 0x6D8 SWAP5 SWAP4 SWAP3 SWAP2 SWAP1 PUSH2 0x110E JUMP JUMPDEST PUSH1 0x40 MLOAD DUP1 SWAP2 SUB SWAP1 LOG1 POP POP POP POP JUMP JUMPDEST PUSH1 0x60 PUSH0 PUSH1 0x1 SLOAD PUSH8 0xFFFFFFFFFFFFFFFF DUP2 GT ISZERO PUSH2 0x704 JUMPI PUSH2 0x704 PUSH2 0xC89 JUMP JUMPDEST PUSH1 0x40 MLOAD SWAP1 DUP1 DUP3 MSTORE DUP1 PUSH1 0x20 MUL PUSH1 0x20 ADD DUP3 ADD PUSH1 0x40 MSTORE DUP1 ISZERO PUSH2 0x777 JUMPI DUP2 PUSH1 0x20 ADD JUMPDEST PUSH2 0x764 PUSH1 0x40 MLOAD DUP1 PUSH2 0x100 ADD PUSH1 0x40 MSTORE DUP1 PUSH0 DUP2 MSTORE PUSH1 0x20 ADD PUSH1 0x60 DUP2 MSTORE PUSH1 0x20 ADD PUSH1 0x60 DUP2 MSTORE PUSH1 0x20 ADD PUSH0 DUP2 MSTORE PUSH1 0x20 ADD PUSH0 DUP2 MSTORE PUSH1 0x20 ADD PUSH0 DUP2 MSTORE PUSH1 0x20 ADD PUSH0 DUP2 MSTORE PUSH1 0x20 ADD PUSH0 DUP2 MSTORE POP SWAP1 JUMP JUMPDEST DUP2 MSTORE PUSH1 0x20 ADD SWAP1 PUSH1 0x1 SWAP1 SUB SWAP1 DUP2 PUSH2 0x722 JUMPI SWAP1 POP JUMPDEST POP SWAP1 POP PUSH0 JUMPDEST PUSH1 0x1 SLOAD DUP2 LT ISZERO PUSH2 0x813 JUMPI PUSH0 DUP1 PUSH0 DUP1 PUSH0 DUP1 PUSH0 DUP1 PUSH2 0x797 DUP10 PUSH2 0x819 JUMP JUMPDEST SWAP8 POP SWAP8 POP SWAP8 POP SWAP8 POP SWAP8 POP SWAP8 POP SWAP8 POP SWAP8 POP PUSH1 0x40 MLOAD DUP1 PUSH2 0x100 ADD PUSH1 0x40 MSTORE DUP1 DUP10 DUP2 MSTORE PUSH1 0x20 ADD DUP9 DUP2 MSTORE PUSH1 0x20 ADD DUP8 DUP2 MSTORE PUSH1 0x20 ADD DUP7 DUP2 MSTORE PUSH1 0x20 ADD DUP6 DUP2 MSTORE PUSH1 0x20 ADD DUP5 DUP2 MSTORE PUSH1 0x20 ADD DUP4 DUP2 MSTORE PUSH1 0x20 ADD DUP3 DUP2 MSTORE POP DUP11 DUP11 DUP2 MLOAD DUP2 LT PUSH2 0x7F3 JUMPI PUSH2 0x7F3 PUSH2 0x1152 JUMP JUMPDEST PUSH1 0x20 MUL PUSH1 0x20 ADD ADD DUP2 SWAP1 MSTORE POP POP POP POP POP POP POP POP POP DUP1 DUP1 PUSH1 0x1 ADD SWAP2 POP POP PUSH2 0x77C JUMP JUMPDEST POP SWAP2 SWAP1 POP JUMP JUMPDEST PUSH0 PUSH1 0x60 DUP1 PUSH0 DUP1 PUSH0 DUP1 PUSH0 DUP9 PUSH1 0x1 SLOAD DUP2 LT PUSH2 0x86A JUMPI PUSH1 0x40 MLOAD PUSH3 0x461BCD PUSH1 0xE5 SHL DUP2 MSTORE PUSH1 0x20 PUSH1 0x4 DUP3 ADD MSTORE PUSH1 0x13 PUSH1 0x24 DUP3 ADD MSTORE PUSH19 0x125B9D985B1A59081C1C9BDC1BDCD85B081251 PUSH1 0x6A SHL PUSH1 0x44 DUP3 ADD MSTORE PUSH1 0x64 ADD PUSH2 0x373 JUMP JUMPDEST PUSH0 DUP11 DUP2 MSTORE PUSH1 0x2 PUSH1 0x20 MSTORE PUSH1 0x40 DUP2 KECCAK256 PUSH1 0x8 DUP2 ADD SLOAD PUSH1 0x9 DUP3 ADD SLOAD PUSH1 0x5 DUP4 ADD SLOAD SWAP3 SWAP4 SWAP2 SWAP3 SWAP1 SWAP2 SWAP1 TIMESTAMP LT ISZERO PUSH2 0x89B JUMPI POP PUSH0 PUSH2 0x8C0 JUMP JUMPDEST DUP2 DUP4 GT PUSH2 0x8B7 JUMPI DUP2 DUP4 EQ PUSH2 0x8B0 JUMPI PUSH1 0x3 PUSH2 0x8BA JUMP JUMPDEST PUSH1 0x2 PUSH2 0x8BA JUMP JUMPDEST PUSH1 0x1 JUMPDEST PUSH1 0xFF AND SWAP1 POP JUMPDEST DUP4 PUSH0 ADD SLOAD DUP5 PUSH1 0x2 ADD DUP6 PUSH1 0x3 ADD DUP6 DUP6 DUP6 DUP10 PUSH1 0x4 ADD SLOAD DUP11 PUSH1 0x5 ADD SLOAD DUP7 DUP1 SLOAD PUSH2 0x8E5 SWAP1 PUSH2 0xF26 JUMP JUMPDEST DUP1 PUSH1 0x1F ADD PUSH1 0x20 DUP1 SWAP2 DIV MUL PUSH1 0x20 ADD PUSH1 0x40 MLOAD SWAP1 DUP2 ADD PUSH1 0x40 MSTORE DUP1 SWAP3 SWAP2 SWAP1 DUP2 DUP2 MSTORE PUSH1 0x20 ADD DUP3 DUP1 SLOAD PUSH2 0x911 SWAP1 PUSH2 0xF26 JUMP JUMPDEST DUP1 ISZERO PUSH2 0x95C JUMPI DUP1 PUSH1 0x1F LT PUSH2 0x933 JUMPI PUSH2 0x100 DUP1 DUP4 SLOAD DIV MUL DUP4 MSTORE SWAP2 PUSH1 0x20 ADD SWAP2 PUSH2 0x95C JUMP JUMPDEST DUP3 ADD SWAP2 SWAP1 PUSH0 MSTORE PUSH1 0x20 PUSH0 KECCAK256 SWAP1 JUMPDEST DUP2 SLOAD DUP2 MSTORE SWAP1 PUSH1 0x1 ADD SWAP1 PUSH1 0x20 ADD DUP1 DUP4 GT PUSH2 0x93F JUMPI DUP3 SWAP1 SUB PUSH1 0x1F AND DUP3 ADD SWAP2 JUMPDEST POP POP POP POP POP SWAP7 POP DUP6 DUP1 SLOAD PUSH2 0x96F SWAP1 PUSH2 0xF26 JUMP JUMPDEST DUP1 PUSH1 0x1F ADD PUSH1 0x20 DUP1 SWAP2 DIV MUL PUSH1 0x20 ADD PUSH1 0x40 MLOAD SWAP1 DUP2 ADD PUSH1 0x40 MSTORE DUP1 SWAP3 SWAP2 SWAP1 DUP2 DUP2 MSTORE PUSH1 0x20 ADD DUP3 DUP1 SLOAD PUSH2 0x99B SWAP1 PUSH2 0xF26 JUMP JUMPDEST DUP1 ISZERO PUSH2 0x9E6 JUMPI DUP1 PUSH1 0x1F LT PUSH2 0x9BD JUMPI PUSH2 0x100 DUP1 DUP4 SLOAD DIV MUL DUP4 MSTORE SWAP2 PUSH1 0x20 ADD SWAP2 PUSH2 0x9E6 JUMP JUMPDEST DUP3 ADD SWAP2 SWAP1 PUSH0 MSTORE PUSH1 0x20 PUSH0 KECCAK256 SWAP1 JUMPDEST DUP2 SLOAD DUP2 MSTORE SWAP1 PUSH1 0x1 ADD SWAP1 PUSH1 0x20 ADD DUP1 DUP4 GT PUSH2 0x9C9 JUMPI DUP3 SWAP1 SUB PUSH1 0x1F AND DUP3 ADD SWAP2 JUMPDEST POP POP POP POP POP SWAP6 POP SWAP13 POP SWAP13 POP SWAP13 POP SWAP13 POP SWAP13 POP SWAP13 POP SWAP13 POP SWAP13 POP POP POP POP POP POP SWAP2 SWAP4 SWAP6 SWAP8 POP SWAP2 SWAP4 SWAP6 SWAP8 JUMP JUMPDEST PUSH0 SLOAD PUSH1 0x1 PUSH1 0x1 PUSH1 0xA0 SHL SUB AND CALLER EQ PUSH2 0xA5F JUMPI PUSH1 0x40 MLOAD PUSH3 0x461BCD PUSH1 0xE5 SHL DUP2 MSTORE PUSH1 0x20 PUSH1 0x4 DUP3 ADD MSTORE PUSH1 0x16 PUSH1 0x24 DUP3 ADD MSTORE PUSH22 0x2737BA103A34329031B7B73A3930B1BA1037BBB732B9 PUSH1 0x51 SHL PUSH1 0x44 DUP3 ADD MSTORE PUSH1 0x64 ADD PUSH2 0x373 JUMP JUMPDEST PUSH1 0x1 PUSH1 0x1 PUSH1 0xA0 SHL SUB DUP2 AND PUSH0 SWAP1 DUP2 MSTORE PUSH1 0x3 PUSH1 0x20 MSTORE PUSH1 0x40 SWAP1 KECCAK256 SLOAD PUSH1 0xFF AND ISZERO PUSH2 0xAC7 JUMPI PUSH1 0x40 MLOAD PUSH3 0x461BCD PUSH1 0xE5 SHL DUP2 MSTORE PUSH1 0x20 PUSH1 0x4 DUP3 ADD MSTORE PUSH1 0x1B PUSH1 0x24 DUP3 ADD MSTORE PUSH32 0x4164647265737320697320616C72656164792061206D656D6265720000000000 PUSH1 0x44 DUP3 ADD MSTORE PUSH1 0x64 ADD PUSH2 0x373 JUMP JUMPDEST PUSH1 0x1 PUSH1 0x1 PUSH1 0xA0 SHL SUB DUP2 AND PUSH0 DUP2 DUP2 MSTORE PUSH1 0x3 PUSH1 0x20 SWAP1 DUP2 MSTORE PUSH1 0x40 SWAP2 DUP3 SWAP1 KECCAK256 DUP1 SLOAD PUSH1 0xFF NOT AND PUSH1 0x1 OR SWAP1 SSTORE SWAP1 MLOAD SWAP2 DUP3 MSTORE PUSH32 0xB251EB052AFC73FFD02FFE85AD79990A8B3FED60D76DBC2FA2FDD7123DFFD914 SWAP2 ADD PUSH1 0x40 MLOAD DUP1 SWAP2 SUB SWAP1 LOG1 POP JUMP JUMPDEST PUSH1 0x60 PUSH0 PUSH1 0x1 SLOAD PUSH8 0xFFFFFFFFFFFFFFFF DUP2 GT ISZERO PUSH2 0xB3E JUMPI PUSH2 0xB3E PUSH2 0xC89 JUMP JUMPDEST PUSH1 0x40 MLOAD SWAP1 DUP1 DUP3 MSTORE DUP1 PUSH1 0x20 MUL PUSH1 0x20 ADD DUP3 ADD PUSH1 0x40 MSTORE DUP1 ISZERO PUSH2 0xB67 JUMPI DUP2 PUSH1 0x20 ADD PUSH1 0x20 DUP3 MUL DUP1 CALLDATASIZE DUP4 CALLDATACOPY ADD SWAP1 POP JUMPDEST POP SWAP1 POP PUSH0 JUMPDEST PUSH1 0x1 SLOAD DUP2 LT ISZERO PUSH2 0x813 JUMPI DUP1 DUP3 DUP3 DUP2 MLOAD DUP2 LT PUSH2 0xB89 JUMPI PUSH2 0xB89 PUSH2 0x1152 JUMP JUMPDEST PUSH1 0x20 SWAP1 DUP2 MUL SWAP2 SWAP1 SWAP2 ADD ADD MSTORE PUSH1 0x1 ADD PUSH2 0xB6C JUMP JUMPDEST PUSH0 PUSH1 0x20 DUP3 DUP5 SUB SLT ISZERO PUSH2 0xBAC JUMPI PUSH0 DUP1 REVERT JUMPDEST POP CALLDATALOAD SWAP2 SWAP1 POP JUMP JUMPDEST PUSH0 DUP2 MLOAD DUP1 DUP5 MSTORE PUSH0 JUMPDEST DUP2 DUP2 LT ISZERO PUSH2 0xBD7 JUMPI PUSH1 0x20 DUP2 DUP6 ADD DUP2 ADD MLOAD DUP7 DUP4 ADD DUP3 ADD MSTORE ADD PUSH2 0xBBB JUMP JUMPDEST POP PUSH0 PUSH1 0x20 DUP3 DUP7 ADD ADD MSTORE PUSH1 0x20 PUSH1 0x1F NOT PUSH1 0x1F DUP4 ADD AND DUP6 ADD ADD SWAP2 POP POP SWAP3 SWAP2 POP POP JUMP JUMPDEST DUP9 DUP2 MSTORE PUSH1 0x1 PUSH1 0x1 PUSH1 0xA0 SHL SUB DUP9 AND PUSH1 0x20 DUP3 ADD MSTORE PUSH2 0x100 PUSH1 0x40 DUP3 ADD DUP2 SWAP1 MSTORE PUSH0 SWAP1 PUSH2 0xC20 DUP4 DUP3 ADD DUP11 PUSH2 0xBB3 JUMP JUMPDEST SWAP1 POP DUP3 DUP2 SUB PUSH1 0x60 DUP5 ADD MSTORE PUSH2 0xC34 DUP2 DUP10 PUSH2 0xBB3 JUMP JUMPDEST SWAP2 POP POP DUP6 PUSH1 0x80 DUP4 ADD MSTORE DUP5 PUSH1 0xA0 DUP4 ADD MSTORE DUP4 PUSH1 0xC0 DUP4 ADD MSTORE DUP3 PUSH1 0xE0 DUP4 ADD MSTORE SWAP10 SWAP9 POP POP POP POP POP POP POP POP POP JUMP JUMPDEST PUSH0 PUSH1 0x20 DUP3 DUP5 SUB SLT ISZERO PUSH2 0xC6C JUMPI PUSH0 DUP1 REVERT JUMPDEST DUP2 CALLDATALOAD PUSH1 0x1 PUSH1 0x1 PUSH1 0xA0 SHL SUB DUP2 AND DUP2 EQ PUSH2 0xC82 JUMPI PUSH0 DUP1 REVERT JUMPDEST SWAP4 SWAP3 POP POP POP JUMP JUMPDEST PUSH4 0x4E487B71 PUSH1 0xE0 SHL PUSH0 MSTORE PUSH1 0x41 PUSH1 0x4 MSTORE PUSH1 0x24 PUSH0 REVERT JUMPDEST PUSH0 DUP3 PUSH1 0x1F DUP4 ADD SLT PUSH2 0xCAC JUMPI PUSH0 DUP1 REVERT JUMPDEST DUP2 CALLDATALOAD PUSH8 0xFFFFFFFFFFFFFFFF DUP1 DUP3 GT ISZERO PUSH2 0xCC7 JUMPI PUSH2 0xCC7 PUSH2 0xC89 JUMP JUMPDEST PUSH1 0x40 MLOAD PUSH1 0x1F DUP4 ADD PUSH1 0x1F NOT SWAP1 DUP2 AND PUSH1 0x3F ADD AND DUP2 ADD SWAP1 DUP3 DUP3 GT DUP2 DUP4 LT OR ISZERO PUSH2 0xCEF JUMPI PUSH2 0xCEF PUSH2 0xC89 JUMP JUMPDEST DUP2 PUSH1 0x40 MSTORE DUP4 DUP2 MSTORE DUP7 PUSH1 0x20 DUP6 DUP9 ADD ADD GT ISZERO PUSH2 0xD07 JUMPI PUSH0 DUP1 REVERT JUMPDEST DUP4 PUSH1 0x20 DUP8 ADD PUSH1 0x20 DUP4 ADD CALLDATACOPY PUSH0 PUSH1 0x20 DUP6 DUP4 ADD ADD MSTORE DUP1 SWAP5 POP POP POP POP POP SWAP3 SWAP2 POP POP JUMP JUMPDEST PUSH0 DUP1 PUSH0 DUP1 PUSH1 0x80 DUP6 DUP8 SUB SLT ISZERO PUSH2 0xD39 JUMPI PUSH0 DUP1 REVERT JUMPDEST DUP5 CALLDATALOAD PUSH8 0xFFFFFFFFFFFFFFFF DUP1 DUP3 GT ISZERO PUSH2 0xD50 JUMPI PUSH0 DUP1 REVERT JUMPDEST PUSH2 0xD5C DUP9 DUP4 DUP10 ADD PUSH2 0xC9D JUMP JUMPDEST SWAP6 POP PUSH1 0x20 DUP8 ADD CALLDATALOAD SWAP2 POP DUP1 DUP3 GT ISZERO PUSH2 0xD71 JUMPI PUSH0 DUP1 REVERT JUMPDEST POP PUSH2 0xD7E DUP8 DUP3 DUP9 ADD PUSH2 0xC9D JUMP JUMPDEST SWAP5 SWAP8 SWAP5 SWAP7 POP POP POP POP PUSH1 0x40 DUP4 ADD CALLDATALOAD SWAP3 PUSH1 0x60 ADD CALLDATALOAD SWAP2 SWAP1 POP JUMP JUMPDEST PUSH0 DUP1 PUSH1 0x40 DUP4 DUP6 SUB SLT ISZERO PUSH2 0xDA6 JUMPI PUSH0 DUP1 REVERT JUMPDEST DUP3 CALLDATALOAD SWAP2 POP PUSH1 0x20 DUP4 ADD CALLDATALOAD PUSH1 0x3 DUP2 LT PUSH2 0xDBB JUMPI PUSH0 DUP1 REVERT JUMPDEST DUP1 SWAP2 POP POP SWAP3 POP SWAP3 SWAP1 POP JUMP JUMPDEST PUSH0 PUSH1 0x20 DUP1 DUP4 ADD DUP2 DUP5 MSTORE DUP1 DUP6 MLOAD DUP1 DUP4 MSTORE PUSH1 0x40 SWAP3 POP PUSH1 0x40 DUP7 ADD SWAP2 POP PUSH1 0x40 DUP2 PUSH1 0x5 SHL DUP8 ADD ADD DUP5 DUP9 ADD PUSH0 JUMPDEST DUP4 DUP2 LT ISZERO PUSH2 0xE7C JUMPI PUSH1 0x3F NOT DUP10 DUP5 SUB ADD DUP6 MSTORE DUP2 MLOAD PUSH2 0x100 DUP2 MLOAD DUP6 MSTORE DUP9 DUP3 ADD MLOAD DUP2 DUP11 DUP8 ADD MSTORE PUSH2 0xE1C DUP3 DUP8 ADD DUP3 PUSH2 0xBB3 JUMP JUMPDEST SWAP2 POP POP DUP8 DUP3 ADD MLOAD DUP6 DUP3 SUB DUP10 DUP8 ADD MSTORE PUSH2 0xE34 DUP3 DUP3 PUSH2 0xBB3 JUMP JUMPDEST PUSH1 0x60 DUP5 DUP2 ADD MLOAD SWAP1 DUP9 ADD MSTORE PUSH1 0x80 DUP1 DUP6 ADD MLOAD SWAP1 DUP9 ADD MSTORE PUSH1 0xA0 DUP1 DUP6 ADD MLOAD SWAP1 DUP9 ADD MSTORE PUSH1 0xC0 DUP1 DUP6 ADD MLOAD SWAP1 DUP9 ADD MSTORE PUSH1 0xE0 SWAP4 DUP5 ADD MLOAD SWAP4 SWAP1 SWAP7 ADD SWAP3 SWAP1 SWAP3 MSTORE POP POP SWAP4 DUP7 ADD SWAP4 SWAP1 DUP7 ADD SWAP1 PUSH1 0x1 ADD PUSH2 0xDED JUMP JUMPDEST POP SWAP1 SWAP9 SWAP8 POP POP POP POP POP POP POP POP JUMP JUMPDEST PUSH0 PUSH2 0x100 DUP11 DUP4 MSTORE DUP1 PUSH1 0x20 DUP5 ADD MSTORE PUSH2 0xEA3 DUP2 DUP5 ADD DUP12 PUSH2 0xBB3 JUMP JUMPDEST SWAP1 POP DUP3 DUP2 SUB PUSH1 0x40 DUP5 ADD MSTORE PUSH2 0xEB7 DUP2 DUP11 PUSH2 0xBB3 JUMP JUMPDEST PUSH1 0x60 DUP5 ADD SWAP9 SWAP1 SWAP9 MSTORE POP POP PUSH1 0x80 DUP2 ADD SWAP5 SWAP1 SWAP5 MSTORE PUSH1 0xA0 DUP5 ADD SWAP3 SWAP1 SWAP3 MSTORE PUSH1 0xC0 DUP4 ADD MSTORE PUSH1 0xE0 SWAP1 SWAP2 ADD MSTORE SWAP4 SWAP3 POP POP POP JUMP JUMPDEST PUSH1 0x20 DUP1 DUP3 MSTORE DUP3 MLOAD DUP3 DUP3 ADD DUP2 SWAP1 MSTORE PUSH0 SWAP2 SWAP1 DUP5 DUP3 ADD SWAP1 PUSH1 0x40 DUP6 ADD SWAP1 DUP5 JUMPDEST DUP2 DUP2 LT ISZERO PUSH2 0xF1A JUMPI DUP4 MLOAD DUP4 MSTORE SWAP3 DUP5 ADD SWAP3 SWAP2 DUP5 ADD SWAP2 PUSH1 0x1 ADD PUSH2 0xEFE JUMP JUMPDEST POP SWAP1 SWAP7 SWAP6 POP POP POP POP POP POP JUMP JUMPDEST PUSH1 0x1 DUP2 DUP2 SHR SWAP1 DUP3 AND DUP1 PUSH2 0xF3A JUMPI PUSH1 0x7F DUP3 AND SWAP2 POP JUMPDEST PUSH1 0x20 DUP3 LT DUP2 SUB PUSH2 0x813 JUMPI PUSH4 0x4E487B71 PUSH1 0xE0 SHL PUSH0 MSTORE PUSH1 0x22 PUSH1 0x4 MSTORE PUSH1 0x24 PUSH0 REVERT JUMPDEST PUSH1 0x1F DUP3 GT ISZERO PUSH2 0xF9F JUMPI DUP1 PUSH0 MSTORE PUSH1 0x20 PUSH0 KECCAK256 PUSH1 0x1F DUP5 ADD PUSH1 0x5 SHR DUP2 ADD PUSH1 0x20 DUP6 LT ISZERO PUSH2 0xF7D JUMPI POP DUP1 JUMPDEST PUSH1 0x1F DUP5 ADD PUSH1 0x5 SHR DUP3 ADD SWAP2 POP JUMPDEST DUP2 DUP2 LT ISZERO PUSH2 0xF9C JUMPI PUSH0 DUP2 SSTORE PUSH1 0x1 ADD PUSH2 0xF89 JUMP JUMPDEST POP POP JUMPDEST POP POP POP JUMP JUMPDEST DUP2 MLOAD PUSH8 0xFFFFFFFFFFFFFFFF DUP2 GT ISZERO PUSH2 0xFBE JUMPI PUSH2 0xFBE PUSH2 0xC89 JUMP JUMPDEST PUSH2 0xFD2 DUP2 PUSH2 0xFCC DUP5 SLOAD PUSH2 0xF26 JUMP JUMPDEST DUP5 PUSH2 0xF58 JUMP JUMPDEST PUSH1 0x20 DUP1 PUSH1 0x1F DUP4 GT PUSH1 0x1 DUP2 EQ PUSH2 0x1005 JUMPI PUSH0 DUP5 ISZERO PUSH2 0xFEE JUMPI POP DUP6 DUP4 ADD MLOAD JUMPDEST PUSH0 NOT PUSH1 0x3 DUP7 SWAP1 SHL SHR NOT AND PUSH1 0x1 DUP6 SWAP1 SHL OR DUP6 SSTORE PUSH2 0x105C JUMP JUMPDEST PUSH0 DUP6 DUP2 MSTORE PUSH1 0x20 DUP2 KECCAK256 PUSH1 0x1F NOT DUP7 AND SWAP2 JUMPDEST DUP3 DUP2 LT ISZERO PUSH2 0x1033 JUMPI DUP9 DUP7 ADD MLOAD DUP3 SSTORE SWAP5 DUP5 ADD SWAP5 PUSH1 0x1 SWAP1 SWAP2 ADD SWAP1 DUP5 ADD PUSH2 0x1014 JUMP JUMPDEST POP DUP6 DUP3 LT ISZERO PUSH2 0x1050 JUMPI DUP8 DUP6 ADD MLOAD PUSH0 NOT PUSH1 0x3 DUP9 SWAP1 SHL PUSH1 0xF8 AND SHR NOT AND DUP2 SSTORE JUMPDEST POP POP PUSH1 0x1 DUP5 PUSH1 0x1 SHL ADD DUP6 SSTORE JUMPDEST POP POP POP POP POP POP JUMP JUMPDEST DUP7 DUP2 MSTORE PUSH1 0x1 PUSH1 0x1 PUSH1 0xA0 SHL SUB DUP7 AND PUSH1 0x20 DUP3 ADD MSTORE PUSH1 0xC0 PUSH1 0x40 DUP3 ADD DUP2 SWAP1 MSTORE PUSH0 SWAP1 PUSH2 0x108D SWAP1 DUP4 ADD DUP8 PUSH2 0xBB3 JUMP JUMPDEST DUP3 DUP2 SUB PUSH1 0x60 DUP5 ADD MSTORE PUSH2 0x109F DUP2 DUP8 PUSH2 0xBB3 JUMP JUMPDEST PUSH1 0x80 DUP5 ADD SWAP6 SWAP1 SWAP6 MSTORE POP POP PUSH1 0xA0 ADD MSTORE SWAP5 SWAP4 POP POP POP POP JUMP JUMPDEST PUSH4 0x4E487B71 PUSH1 0xE0 SHL PUSH0 MSTORE PUSH1 0x11 PUSH1 0x4 MSTORE PUSH1 0x24 PUSH0 REVERT JUMPDEST PUSH0 PUSH1 0x1 DUP3 ADD PUSH2 0x10DA JUMPI PUSH2 0x10DA PUSH2 0x10B5 JUMP JUMPDEST POP PUSH1 0x1 ADD SWAP1 JUMP JUMPDEST PUSH4 0x4E487B71 PUSH1 0xE0 SHL PUSH0 MSTORE PUSH1 0x21 PUSH1 0x4 MSTORE PUSH1 0x24 PUSH0 REVERT JUMPDEST DUP1 DUP3 ADD DUP1 DUP3 GT ISZERO PUSH2 0x1108 JUMPI PUSH2 0x1108 PUSH2 0x10B5 JUMP JUMPDEST SWAP3 SWAP2 POP POP JUMP JUMPDEST DUP5 DUP2 MSTORE PUSH1 0x1 PUSH1 0x1 PUSH1 0xA0 SHL SUB DUP5 AND PUSH1 0x20 DUP3 ADD MSTORE PUSH1 0x80 DUP2 ADD PUSH1 0x3 DUP5 LT PUSH2 0x1140 JUMPI PUSH4 0x4E487B71 PUSH1 0xE0 SHL PUSH0 MSTORE PUSH1 0x21 PUSH1 0x4 MSTORE PUSH1 0x24 PUSH0 REVERT JUMPDEST PUSH1 0x40 DUP3 ADD SWAP4 SWAP1 SWAP4 MSTORE PUSH1 0x60 ADD MSTORE SWAP3 SWAP2 POP POP JUMP JUMPDEST PUSH4 0x4E487B71 PUSH1 0xE0 SHL PUSH0 MSTORE PUSH1 0x32 PUSH1 0x4 MSTORE PUSH1 0x24 PUSH0 REVERT INVALID LOG2 PUSH5 0x6970667358 0x22 SLT KECCAK256 0x4B 0x23 0xA7 PUSH28 0xE517E9B6EB4F4D60013F5FF94CD756A9B64DB36CF4EF156B397774E1 PUSH5 0x736F6C6343 STOP ADDMOD XOR STOP CALLER "
				},
				"gasEstimates": {
					"creation": {
						"codeDepositCost": "901600",
						"executionCost": "25167",
						"totalCost": "926767"
					},
					"external": {
						"addMember(address)": "30060",
						"createProposal(string,string,uint256,uint256)": "infinite",
						"getAllProposals()": "infinite",
						"getAllProposalsInfo()": "infinite",
						"getProposalInfo(uint256)": "infinite",
						"members(address)": "2516",
						"nextProposalId()": "2339",
						"owner()": "2424",
						"proposals(uint256)": "infinite",
						"vote(uint256,uint8)": "86166"
					}
				},
				"methodIdentifiers": {
					"addMember(address)": "ca6d56dc",
					"createProposal(string,string,uint256,uint256)": "6b5e1766",
					"getAllProposals()": "cceb68f5",
					"getAllProposalsInfo()": "acbab3a9",
					"getProposalInfo(uint256)": "bc903cb8",
					"members(address)": "08ae4b0c",
					"nextProposalId()": "2ab09d14",
					"owner()": "8da5cb5b",
					"proposals(uint256)": "013cf08b",
					"vote(uint256,uint8)": "943e8216"
				}
			},
			"storageLayout": {
				"storage": [
					{
						"astId": 3,
						"contract": "contracts/dao1.sol:ProposalDAO",
						"label": "owner",
						"offset": 0,
						"slot": "0",
						"type": "t_address"
					},
					{
						"astId": 5,
						"contract": "contracts/dao1.sol:ProposalDAO",
						"label": "nextProposalId",
						"offset": 0,
						"slot": "1",
						"type": "t_uint256"
					},
					{
						"astId": 57,
						"contract": "contracts/dao1.sol:ProposalDAO",
						"label": "proposals",
						"offset": 0,
						"slot": "2",
						"type": "t_mapping(t_uint256,t_struct(Proposal)35_storage)"
					},
					{
						"astId": 61,
						"contract": "contracts/dao1.sol:ProposalDAO",
						"label": "members",
						"offset": 0,
						"slot": "3",
						"type": "t_mapping(t_address,t_bool)"
					}
				],
				"types": {
					"t_address": {
						"encoding": "inplace",
						"label": "address",
						"numberOfBytes": "20"
					},
					"t_bool": {
						"encoding": "inplace",
						"label": "bool",
						"numberOfBytes": "1"
					},
					"t_enum(VoteChoice)9": {
						"encoding": "inplace",
						"label": "enum ProposalDAO.VoteChoice",
						"numberOfBytes": "1"
					},
					"t_mapping(t_address,t_bool)": {
						"encoding": "mapping",
						"key": "t_address",
						"label": "mapping(address => bool)",
						"numberOfBytes": "32",
						"value": "t_bool"
					},
					"t_mapping(t_address,t_enum(VoteChoice)9)": {
						"encoding": "mapping",
						"key": "t_address",
						"label": "mapping(address => enum ProposalDAO.VoteChoice)",
						"numberOfBytes": "32",
						"value": "t_enum(VoteChoice)9"
					},
					"t_mapping(t_uint256,t_struct(Proposal)35_storage)": {
						"encoding": "mapping",
						"key": "t_uint256",
						"label": "mapping(uint256 => struct ProposalDAO.Proposal)",
						"numberOfBytes": "32",
						"value": "t_struct(Proposal)35_storage"
					},
					"t_string_storage": {
						"encoding": "bytes",
						"label": "string",
						"numberOfBytes": "32"
					},
					"t_struct(Proposal)35_storage": {
						"encoding": "inplace",
						"label": "struct ProposalDAO.Proposal",
						"members": [
							{
								"astId": 11,
								"contract": "contracts/dao1.sol:ProposalDAO",
								"label": "id",
								"offset": 0,
								"slot": "0",
								"type": "t_uint256"
							},
							{
								"astId": 13,
								"contract": "contracts/dao1.sol:ProposalDAO",
								"label": "proposer",
								"offset": 0,
								"slot": "1",
								"type": "t_address"
							},
							{
								"astId": 15,
								"contract": "contracts/dao1.sol:ProposalDAO",
								"label": "title",
								"offset": 0,
								"slot": "2",
								"type": "t_string_storage"
							},
							{
								"astId": 17,
								"contract": "contracts/dao1.sol:ProposalDAO",
								"label": "ipfsLink",
								"offset": 0,
								"slot": "3",
								"type": "t_string_storage"
							},
							{
								"astId": 19,
								"contract": "contracts/dao1.sol:ProposalDAO",
								"label": "votingStartTime",
								"offset": 0,
								"slot": "4",
								"type": "t_uint256"
							},
							{
								"astId": 21,
								"contract": "contracts/dao1.sol:ProposalDAO",
								"label": "votingEndTime",
								"offset": 0,
								"slot": "5",
								"type": "t_uint256"
							},
							{
								"astId": 25,
								"contract": "contracts/dao1.sol:ProposalDAO",
								"label": "hasVoted",
								"offset": 0,
								"slot": "6",
								"type": "t_mapping(t_address,t_bool)"
							},
							{
								"astId": 30,
								"contract": "contracts/dao1.sol:ProposalDAO",
								"label": "voteChoices",
								"offset": 0,
								"slot": "7",
								"type": "t_mapping(t_address,t_enum(VoteChoice)9)"
							},
							{
								"astId": 32,
								"contract": "contracts/dao1.sol:ProposalDAO",
								"label": "yesVotes",
								"offset": 0,
								"slot": "8",
								"type": "t_uint256"
							},
							{
								"astId": 34,
								"contract": "contracts/dao1.sol:ProposalDAO",
								"label": "noVotes",
								"offset": 0,
								"slot": "9",
								"type": "t_uint256"
							}
						],
						"numberOfBytes": "320"
					},
					"t_uint256": {
						"encoding": "inplace",
						"label": "uint256",
						"numberOfBytes": "32"
					}
				}
			},
			"userdoc": {
				"kind": "user",
				"methods": {},
				"version": 1
			}
		}
	}
}