{
	"contracts/Validator.sol": {
		"ValidatorDepositContract": {
			"abi": [
				{
					"inputs": [],
					"stateMutability": "nonpayable",
					"type": "constructor"
				},
				{
					"inputs": [
						{
							"internalType": "address",
							"name": "owner",
							"type": "address"
						}
					],
					"name": "OwnableInvalidOwner",
					"type": "error"
				},
				{
					"inputs": [
						{
							"internalType": "address",
							"name": "account",
							"type": "address"
						}
					],
					"name": "OwnableUnauthorizedAccount",
					"type": "error"
				},
				{
					"anonymous": false,
					"inputs": [
						{
							"indexed": true,
							"internalType": "address",
							"name": "previousOwner",
							"type": "address"
						},
						{
							"indexed": true,
							"internalType": "address",
							"name": "newOwner",
							"type": "address"
						}
					],
					"name": "OwnershipTransferred",
					"type": "event"
				},
				{
					"anonymous": false,
					"inputs": [
						{
							"indexed": false,
							"internalType": "address",
							"name": "account",
							"type": "address"
						}
					],
					"name": "Paused",
					"type": "event"
				},
				{
					"anonymous": false,
					"inputs": [
						{
							"indexed": false,
							"internalType": "address",
							"name": "account",
							"type": "address"
						}
					],
					"name": "Unpaused",
					"type": "event"
				},
				{
					"inputs": [
						{
							"internalType": "uint256",
							"name": "",
							"type": "uint256"
						}
					],
					"name": "allValidatorNodes",
					"outputs": [
						{
							"internalType": "address",
							"name": "",
							"type": "address"
						}
					],
					"stateMutability": "view",
					"type": "function"
				},
				{
					"inputs": [
						{
							"internalType": "address",
							"name": "validatorNodeAddress",
							"type": "address"
						}
					],
					"name": "deleteValidatorNode",
					"outputs": [],
					"stateMutability": "nonpayable",
					"type": "function"
				},
				{
					"inputs": [],
					"name": "deposit",
					"outputs": [],
					"stateMutability": "payable",
					"type": "function"
				},
				{
					"inputs": [
						{
							"internalType": "address",
							"name": "",
							"type": "address"
						}
					],
					"name": "depositedBalances",
					"outputs": [
						{
							"internalType": "uint256",
							"name": "",
							"type": "uint256"
						}
					],
					"stateMutability": "view",
					"type": "function"
				},
				{
					"inputs": [],
					"name": "edxAccount",
					"outputs": [
						{
							"internalType": "address",
							"name": "",
							"type": "address"
						}
					],
					"stateMutability": "view",
					"type": "function"
				},
				{
					"inputs": [],
					"name": "fetchAllValidatorNodeDetails",
					"outputs": [
						{
							"internalType": "address[]",
							"name": "",
							"type": "address[]"
						},
						{
							"internalType": "address[]",
							"name": "",
							"type": "address[]"
						},
						{
							"internalType": "uint256[]",
							"name": "",
							"type": "uint256[]"
						},
						{
							"internalType": "uint256[]",
							"name": "",
							"type": "uint256[]"
						}
					],
					"stateMutability": "view",
					"type": "function"
				},
				{
					"inputs": [
						{
							"internalType": "address",
							"name": "validatorNodeAddress",
							"type": "address"
						}
					],
					"name": "getValidatorNodeDetails",
					"outputs": [
						{
							"internalType": "address",
							"name": "",
							"type": "address"
						},
						{
							"internalType": "uint256",
							"name": "",
							"type": "uint256"
						},
						{
							"internalType": "uint256",
							"name": "",
							"type": "uint256"
						}
					],
					"stateMutability": "view",
					"type": "function"
				},
				{
					"inputs": [
						{
							"internalType": "address",
							"name": "validatorNodeAddress",
							"type": "address"
						},
						{
							"internalType": "address",
							"name": "validatorAccountAddress",
							"type": "address"
						}
					],
					"name": "linkValidatorNode",
					"outputs": [],
					"stateMutability": "nonpayable",
					"type": "function"
				},
				{
					"inputs": [],
					"name": "owner",
					"outputs": [
						{
							"internalType": "address",
							"name": "",
							"type": "address"
						}
					],
					"stateMutability": "view",
					"type": "function"
				},
				{
					"inputs": [],
					"name": "pauseContract",
					"outputs": [],
					"stateMutability": "nonpayable",
					"type": "function"
				},
				{
					"inputs": [],
					"name": "paused",
					"outputs": [
						{
							"internalType": "bool",
							"name": "",
							"type": "bool"
						}
					],
					"stateMutability": "view",
					"type": "function"
				},
				{
					"inputs": [],
					"name": "renounceOwnership",
					"outputs": [],
					"stateMutability": "nonpayable",
					"type": "function"
				},
				{
					"inputs": [
						{
							"internalType": "address",
							"name": "_account",
							"type": "address"
						}
					],
					"name": "setEdxAccount",
					"outputs": [],
					"stateMutability": "nonpayable",
					"type": "function"
				},
				{
					"inputs": [
						{
							"internalType": "uint256",
							"name": "_feePercentage",
							"type": "uint256"
						}
					],
					"name": "setWithdrawalFeePercentage",
					"outputs": [],
					"stateMutability": "nonpayable",
					"type": "function"
				},
				{
					"inputs": [
						{
							"internalType": "address",
							"name": "",
							"type": "address"
						}
					],
					"name": "totalDepositedAmount",
					"outputs": [
						{
							"internalType": "uint256",
							"name": "",
							"type": "uint256"
						}
					],
					"stateMutability": "view",
					"type": "function"
				},
				{
					"inputs": [
						{
							"internalType": "address",
							"name": "newOwner",
							"type": "address"
						}
					],
					"name": "transferOwnership",
					"outputs": [],
					"stateMutability": "nonpayable",
					"type": "function"
				},
				{
					"inputs": [],
					"name": "unpauseContract",
					"outputs": [],
					"stateMutability": "nonpayable",
					"type": "function"
				},
				{
					"inputs": [
						{
							"internalType": "address",
							"name": "",
							"type": "address"
						}
					],
					"name": "validatorNodeToAccount",
					"outputs": [
						{
							"internalType": "address",
							"name": "",
							"type": "address"
						}
					],
					"stateMutability": "view",
					"type": "function"
				},
				{
					"inputs": [],
					"name": "withdraw",
					"outputs": [],
					"stateMutability": "nonpayable",
					"type": "function"
				},
				{
					"inputs": [],
					"name": "withdrawalFeePercentage",
					"outputs": [
						{
							"internalType": "uint256",
							"name": "",
							"type": "uint256"
						}
					],
					"stateMutability": "view",
					"type": "function"
				}
			],
			"devdoc": {
				"errors": {
					"OwnableInvalidOwner(address)": [
						{
							"details": "The owner is not a valid owner account. (eg. `address(0)`)"
						}
					],
					"OwnableUnauthorizedAccount(address)": [
						{
							"details": "The caller account is not authorized to perform an operation."
						}
					]
				},
				"events": {
					"Paused(address)": {
						"details": "Emitted when the pause is triggered by `account`."
					},
					"Unpaused(address)": {
						"details": "Emitted when the pause is lifted by `account`."
					}
				},
				"kind": "dev",
				"methods": {
					"owner()": {
						"details": "Returns the address of the current owner."
					},
					"paused()": {
						"details": "Returns true if the contract is paused, and false otherwise."
					},
					"renounceOwnership()": {
						"details": "Leaves the contract without owner. It will not be possible to call `onlyOwner` functions. Can only be called by the current owner. NOTE: Renouncing ownership will leave the contract without an owner, thereby disabling any functionality that is only available to the owner."
					},
					"transferOwnership(address)": {
						"details": "Transfers ownership of the contract to a new account (`newOwner`). Can only be called by the current owner."
					}
				},
				"version": 1
			},
			"evm": {
				"assembly": "    /* \"contracts/Validator.sol\":239:7257  contract ValidatorDepositContract is ReentrancyGuard, Ownable, Pausable {... */\n  mstore(0x40, 0x80)\n    /* \"contracts/Validator.sol\":898:900  10 */\n  0x0a\n    /* \"contracts/Validator.sol\":857:900  uint256 public withdrawalFeePercentage = 10 */\n  0x06\n  sstore\n    /* \"contracts/Validator.sol\":929:967  address public edxAccount = address(0) */\n  0x07\n  dup1\n  sload\n  not(sub(shl(0xa0, 0x01), 0x01))\n  and\n  swap1\n  sstore\n    /* \"contracts/Validator.sol\":1002:1038  constructor() Ownable(msg.sender) {} */\n  callvalue\n  dup1\n  iszero\n  tag_1\n  jumpi\n  0x00\n  dup1\n  revert\ntag_1:\n  pop\n    /* \"@openzeppelin/contracts/security/ReentrancyGuard.sol\":1716:1717  1 */\n  0x01\n    /* \"@openzeppelin/contracts/security/ReentrancyGuard.sol\":1821:1828  _status */\n  0x00\n    /* \"@openzeppelin/contracts/security/ReentrancyGuard.sol\":1821:1843  _status = _NOT_ENTERED */\n  sstore\n    /* \"contracts/Validator.sol\":1024:1034  msg.sender */\n  caller\n  dup1\n    /* \"@openzeppelin/contracts/access/Ownable.sol\":1269:1364  if (initialOwner == address(0)) {... */\n  tag_8\n  jumpi\n    /* \"@openzeppelin/contracts/access/Ownable.sol\":1322:1353  OwnableInvalidOwner(address(0)) */\n  mload(0x40)\n  shl(0xe0, 0x1e4fbdf7)\n  dup2\n  mstore\n    /* \"@openzeppelin/contracts/access/Ownable.sol\":1350:1351  0 */\n  0x00\n    /* \"@openzeppelin/contracts/access/Ownable.sol\":1322:1353  OwnableInvalidOwner(address(0)) */\n  0x04\n  dup3\n  add\n    /* \"#utility.yul\":160:211   */\n  mstore\n    /* \"#utility.yul\":133:151   */\n  0x24\n  add\n    /* \"@openzeppelin/contracts/access/Ownable.sol\":1322:1353  OwnableInvalidOwner(address(0)) */\n  mload(0x40)\n  dup1\n  swap2\n  sub\n  swap1\n  revert\n    /* \"@openzeppelin/contracts/access/Ownable.sol\":1269:1364  if (initialOwner == address(0)) {... */\ntag_8:\n    /* \"@openzeppelin/contracts/access/Ownable.sol\":1373:1405  _transferOwnership(initialOwner) */\n  tag_11\n    /* \"@openzeppelin/contracts/access/Ownable.sol\":1392:1404  initialOwner */\n  dup2\n    /* \"@openzeppelin/contracts/access/Ownable.sol\":1373:1391  _transferOwnership */\n  tag_12\n    /* \"@openzeppelin/contracts/access/Ownable.sol\":1373:1405  _transferOwnership(initialOwner) */\n  jump\t// in\ntag_11:\n  pop\n    /* \"@openzeppelin/contracts/security/Pausable.sol\":996:1003  _paused */\n  0x01\n    /* \"@openzeppelin/contracts/security/Pausable.sol\":996:1011  _paused = false */\n  dup1\n  sload\n  not(shl(0xa0, 0xff))\n  and\n  swap1\n  sstore\n    /* \"contracts/Validator.sol\":239:7257  contract ValidatorDepositContract is ReentrancyGuard, Ownable, Pausable {... */\n  jump(tag_17)\n    /* \"@openzeppelin/contracts/access/Ownable.sol\":2912:3099  function _transferOwnership(address newOwner) internal virtual {... */\ntag_12:\n    /* \"@openzeppelin/contracts/access/Ownable.sol\":3004:3010  _owner */\n  0x01\n  dup1\n  sload\n  sub(shl(0xa0, 0x01), 0x01)\n    /* \"@openzeppelin/contracts/access/Ownable.sol\":3020:3037  _owner = newOwner */\n  dup4\n  dup2\n  and\n  not(sub(shl(0xa0, 0x01), 0x01))\n  dup4\n  and\n  dup2\n  or\n  swap1\n  swap4\n  sstore\n    /* \"@openzeppelin/contracts/access/Ownable.sol\":3052:3092  OwnershipTransferred(oldOwner, newOwner) */\n  mload(0x40)\n    /* \"@openzeppelin/contracts/access/Ownable.sol\":3004:3010  _owner */\n  swap2\n  and\n  swap2\n    /* \"@openzeppelin/contracts/access/Ownable.sol\":3020:3037  _owner = newOwner */\n  swap1\n    /* \"@openzeppelin/contracts/access/Ownable.sol\":3004:3010  _owner */\n  dup3\n  swap1\n    /* \"@openzeppelin/contracts/access/Ownable.sol\":3052:3092  OwnershipTransferred(oldOwner, newOwner) */\n  0x8be0079c531659141344cd1fd0a4f28419497f9722a3daafe3b4186f6b6457e0\n  swap1\n    /* \"@openzeppelin/contracts/access/Ownable.sol\":2985:3001  address oldOwner */\n  0x00\n  swap1\n    /* \"@openzeppelin/contracts/access/Ownable.sol\":3052:3092  OwnershipTransferred(oldOwner, newOwner) */\n  log3\n    /* \"@openzeppelin/contracts/access/Ownable.sol\":2975:3099  {... */\n  pop\n    /* \"@openzeppelin/contracts/access/Ownable.sol\":2912:3099  function _transferOwnership(address newOwner) internal virtual {... */\n  pop\n  jump\t// out\n    /* \"#utility.yul\":14:217   */\ntag_17:\n    /* \"contracts/Validator.sol\":239:7257  contract ValidatorDepositContract is ReentrancyGuard, Ownable, Pausable {... */\n  dataSize(sub_0)\n  dup1\n  dataOffset(sub_0)\n  0x00\n  codecopy\n  0x00\n  return\nstop\n\nsub_0: assembly {\n        /* \"contracts/Validator.sol\":239:7257  contract ValidatorDepositContract is ReentrancyGuard, Ownable, Pausable {... */\n      mstore(0x40, 0x80)\n      jumpi(tag_1, lt(calldatasize, 0x04))\n      shr(0xe0, calldataload(0x00))\n      dup1\n      0x78922c8f\n      gt\n      tag_22\n      jumpi\n      dup1\n      0xb33712c5\n      gt\n      tag_23\n      jumpi\n      dup1\n      0xb33712c5\n      eq\n      tag_17\n      jumpi\n      dup1\n      0xb5e1302e\n      eq\n      tag_18\n      jumpi\n      dup1\n      0xbb0a43bc\n      eq\n      tag_19\n      jumpi\n      dup1\n      0xd0e30db0\n      eq\n      tag_20\n      jumpi\n      dup1\n      0xf2fde38b\n      eq\n      tag_21\n      jumpi\n      0x00\n      dup1\n      revert\n    tag_23:\n      dup1\n      0x78922c8f\n      eq\n      tag_12\n      jumpi\n      dup1\n      0x7d995311\n      eq\n      tag_13\n      jumpi\n      dup1\n      0x7da830b4\n      eq\n      tag_14\n      jumpi\n      dup1\n      0x8da5cb5b\n      eq\n      tag_15\n      jumpi\n      dup1\n      0xa7d77ce5\n      eq\n      tag_16\n      jumpi\n      0x00\n      dup1\n      revert\n    tag_22:\n      dup1\n      0x439766ce\n      gt\n      tag_24\n      jumpi\n      dup1\n      0x439766ce\n      eq\n      tag_7\n      jumpi\n      dup1\n      0x5c975abb\n      eq\n      tag_8\n      jumpi\n      dup1\n      0x5fb0ea90\n      eq\n      tag_9\n      jumpi\n      dup1\n      0x6ca6d88e\n      eq\n      tag_10\n      jumpi\n      dup1\n      0x715018a6\n      eq\n      tag_11\n      jumpi\n      0x00\n      dup1\n      revert\n    tag_24:\n      dup1\n      0x03a2c9e2\n      eq\n      tag_2\n      jumpi\n      dup1\n      0x22df93ba\n      eq\n      tag_3\n      jumpi\n      dup1\n      0x33deea05\n      eq\n      tag_4\n      jumpi\n      dup1\n      0x3ccfd60b\n      eq\n      tag_5\n      jumpi\n      dup1\n      0x3ed0eee4\n      eq\n      tag_6\n      jumpi\n    tag_1:\n      0x00\n      dup1\n      revert\n        /* \"contracts/Validator.sol\":3101:4458  function deleteValidatorNode(address validatorNodeAddress) external onlyOwner {... */\n    tag_2:\n      callvalue\n      dup1\n      iszero\n      tag_25\n      jumpi\n      0x00\n      dup1\n      revert\n    tag_25:\n      pop\n      tag_26\n      tag_27\n      calldatasize\n      0x04\n      tag_28\n      jump\t// in\n    tag_27:\n      tag_29\n      jump\t// in\n    tag_26:\n      stop\n        /* \"contracts/Validator.sol\":2633:3049  function linkValidatorNode(address validatorNodeAddress, address validatorAccountAddress) external onlyOwner{... */\n    tag_3:\n      callvalue\n      dup1\n      iszero\n      tag_30\n      jumpi\n      0x00\n      dup1\n      revert\n    tag_30:\n      pop\n      tag_26\n      tag_32\n      calldatasize\n      0x04\n      tag_33\n      jump\t// in\n    tag_32:\n      tag_34\n      jump\t// in\n        /* \"contracts/Validator.sol\":929:967  address public edxAccount = address(0) */\n    tag_4:\n      callvalue\n      dup1\n      iszero\n      tag_35\n      jumpi\n      0x00\n      dup1\n      revert\n    tag_35:\n      pop\n      sload(0x07)\n      tag_36\n      swap1\n      sub(shl(0xa0, 0x01), 0x01)\n      and\n      dup2\n      jump\n    tag_36:\n      mload(0x40)\n      sub(shl(0xa0, 0x01), 0x01)\n        /* \"#utility.yul\":812:844   */\n      swap1\n      swap2\n      and\n        /* \"#utility.yul\":794:845   */\n      dup2\n      mstore\n        /* \"#utility.yul\":782:784   */\n      0x20\n        /* \"#utility.yul\":767:785   */\n      add\n        /* \"contracts/Validator.sol\":929:967  address public edxAccount = address(0) */\n    tag_38:\n      mload(0x40)\n      dup1\n      swap2\n      sub\n      swap1\n      return\n        /* \"contracts/Validator.sol\":1866:2530  function withdraw() external nonReentrant whenNotPaused{... */\n    tag_5:\n      callvalue\n      dup1\n      iszero\n      tag_40\n      jumpi\n      0x00\n      dup1\n      revert\n    tag_40:\n      pop\n      tag_26\n      tag_42\n      jump\t// in\n        /* \"contracts/Validator.sol\":5287:5716  function getValidatorNodeDetails(address validatorNodeAddress) external view returns (address, uint256, uint256) {... */\n    tag_6:\n      callvalue\n      dup1\n      iszero\n      tag_43\n      jumpi\n      0x00\n      dup1\n      revert\n    tag_43:\n      pop\n      tag_44\n      tag_45\n      calldatasize\n      0x04\n      tag_28\n      jump\t// in\n    tag_45:\n      sub(shl(0xa0, 0x01), 0x01)\n        /* \"contracts/Validator.sol\":5439:5483  validatorNodeToAccount[validatorNodeAddress] */\n      swap1\n      dup2\n      and\n        /* \"contracts/Validator.sol\":5373:5380  address */\n      0x00\n        /* \"contracts/Validator.sol\":5439:5483  validatorNodeToAccount[validatorNodeAddress] */\n      swap1\n      dup2\n      mstore\n        /* \"contracts/Validator.sol\":5439:5461  validatorNodeToAccount */\n      0x02\n        /* \"contracts/Validator.sol\":5439:5483  validatorNodeToAccount[validatorNodeAddress] */\n      0x20\n      swap1\n      dup2\n      mstore\n      0x40\n      dup1\n      dup4\n      keccak256\n      sload\n        /* \"contracts/Validator.sol\":5515:5535  totalDepositedAmount */\n      0x04\n        /* \"contracts/Validator.sol\":5515:5557  totalDepositedAmount[validatorNodeAddress] */\n      dup4\n      mstore\n      dup2\n      dup5\n      keccak256\n      sload\n        /* \"contracts/Validator.sol\":5439:5483  validatorNodeToAccount[validatorNodeAddress] */\n      swap5\n      and\n        /* \"contracts/Validator.sol\":5595:5631  depositedBalances[associatedAddress] */\n      dup1\n      dup5\n      mstore\n        /* \"contracts/Validator.sol\":5595:5612  depositedBalances */\n      0x03\n        /* \"contracts/Validator.sol\":5595:5631  depositedBalances[associatedAddress] */\n      swap1\n      swap3\n      mstore\n      swap1\n      swap2\n      keccak256\n      sload\n        /* \"contracts/Validator.sol\":5439:5483  validatorNodeToAccount[validatorNodeAddress] */\n      swap1\n      swap3\n        /* \"contracts/Validator.sol\":5287:5716  function getValidatorNodeDetails(address validatorNodeAddress) external view returns (address, uint256, uint256) {... */\n      jump\n    tag_44:\n      0x40\n      dup1\n      mload\n      sub(shl(0xa0, 0x01), 0x01)\n        /* \"#utility.yul\":1076:1108   */\n      swap1\n      swap5\n      and\n        /* \"#utility.yul\":1058:1109   */\n      dup5\n      mstore\n        /* \"#utility.yul\":1140:1142   */\n      0x20\n        /* \"#utility.yul\":1125:1143   */\n      dup5\n      add\n        /* \"#utility.yul\":1118:1152   */\n      swap3\n      swap1\n      swap3\n      mstore\n        /* \"#utility.yul\":1168:1186   */\n      swap1\n      dup3\n      add\n        /* \"#utility.yul\":1161:1195   */\n      mstore\n        /* \"#utility.yul\":1046:1048   */\n      0x60\n        /* \"#utility.yul\":1031:1049   */\n      add\n        /* \"contracts/Validator.sol\":5287:5716  function getValidatorNodeDetails(address validatorNodeAddress) external view returns (address, uint256, uint256) {... */\n      tag_38\n        /* \"#utility.yul\":856:1201   */\n      jump\n        /* \"contracts/Validator.sol\":4993:5064  function pauseContract() external onlyOwner {... */\n    tag_7:\n      callvalue\n      dup1\n      iszero\n      tag_49\n      jumpi\n      0x00\n      dup1\n      revert\n    tag_49:\n      pop\n      tag_26\n      tag_51\n      jump\t// in\n        /* \"@openzeppelin/contracts/security/Pausable.sol\":1615:1699  function paused() public view virtual returns (bool) {... */\n    tag_8:\n      callvalue\n      dup1\n      iszero\n      tag_52\n      jumpi\n      0x00\n      dup1\n      revert\n    tag_52:\n      pop\n        /* \"@openzeppelin/contracts/security/Pausable.sol\":1685:1692  _paused */\n      sload(0x01)\n      shl(0xa0, 0x01)\n      swap1\n      div\n      0xff\n      and\n        /* \"@openzeppelin/contracts/security/Pausable.sol\":1615:1699  function paused() public view virtual returns (bool) {... */\n      mload(0x40)\n        /* \"#utility.yul\":1371:1385   */\n      swap1\n      iszero\n        /* \"#utility.yul\":1364:1386   */\n      iszero\n        /* \"#utility.yul\":1346:1387   */\n      dup2\n      mstore\n        /* \"#utility.yul\":1334:1336   */\n      0x20\n        /* \"#utility.yul\":1319:1337   */\n      add\n        /* \"@openzeppelin/contracts/security/Pausable.sol\":1615:1699  function paused() public view virtual returns (bool) {... */\n      tag_38\n        /* \"#utility.yul\":1206:1393   */\n      jump\n        /* \"contracts/Validator.sol\":4533:4749  function setWithdrawalFeePercentage(uint256 _feePercentage) external onlyOwner {... */\n    tag_9:\n      callvalue\n      dup1\n      iszero\n      tag_57\n      jumpi\n      0x00\n      dup1\n      revert\n    tag_57:\n      pop\n      tag_26\n      tag_59\n      calldatasize\n      0x04\n      tag_60\n      jump\t// in\n    tag_59:\n      tag_61\n      jump\t// in\n        /* \"contracts/Validator.sol\":5781:6911  function fetchAllValidatorNodeDetails() external view returns (address[] memory, address[] memory, uint256[] memory, uint256[] memory) {... */\n    tag_10:\n      callvalue\n      dup1\n      iszero\n      tag_62\n      jumpi\n      0x00\n      dup1\n      revert\n    tag_62:\n      pop\n      tag_63\n      tag_64\n      jump\t// in\n    tag_63:\n      mload(0x40)\n      tag_38\n      swap5\n      swap4\n      swap3\n      swap2\n      swap1\n      tag_66\n      jump\t// in\n        /* \"@openzeppelin/contracts/access/Ownable.sol\":2293:2394  function renounceOwnership() public virtual onlyOwner {... */\n    tag_11:\n      callvalue\n      dup1\n      iszero\n      tag_67\n      jumpi\n      0x00\n      dup1\n      revert\n    tag_67:\n      pop\n      tag_26\n      tag_69\n      jump\t// in\n        /* \"contracts/Validator.sol\":857:900  uint256 public withdrawalFeePercentage = 10 */\n    tag_12:\n      callvalue\n      dup1\n      iszero\n      tag_70\n      jumpi\n      0x00\n      dup1\n      revert\n    tag_70:\n      pop\n      tag_71\n      sload(0x06)\n      dup2\n      jump\n    tag_71:\n      mload(0x40)\n        /* \"#utility.yul\":3523:3548   */\n      swap1\n      dup2\n      mstore\n        /* \"#utility.yul\":3511:3513   */\n      0x20\n        /* \"#utility.yul\":3496:3514   */\n      add\n        /* \"contracts/Validator.sol\":857:900  uint256 public withdrawalFeePercentage = 10 */\n      tag_38\n        /* \"#utility.yul\":3377:3554   */\n      jump\n        /* \"contracts/Validator.sol\":561:613  mapping(address => uint256) public depositedBalances */\n    tag_13:\n      callvalue\n      dup1\n      iszero\n      tag_75\n      jumpi\n      0x00\n      dup1\n      revert\n    tag_75:\n      pop\n      tag_71\n      tag_77\n      calldatasize\n      0x04\n      tag_28\n      jump\t// in\n    tag_77:\n      mstore(0x20, 0x03)\n      0x00\n      swap1\n      dup2\n      mstore\n      0x40\n      swap1\n      keccak256\n      sload\n      dup2\n      jump\n        /* \"contracts/Validator.sol\":698:753  mapping(address => uint256) public totalDepositedAmount */\n    tag_14:\n      callvalue\n      dup1\n      iszero\n      tag_80\n      jumpi\n      0x00\n      dup1\n      revert\n    tag_80:\n      pop\n      tag_71\n      tag_82\n      calldatasize\n      0x04\n      tag_28\n      jump\t// in\n    tag_82:\n      mstore(0x20, 0x04)\n      0x00\n      swap1\n      dup2\n      mstore\n      0x40\n      swap1\n      keccak256\n      sload\n      dup2\n      jump\n        /* \"@openzeppelin/contracts/access/Ownable.sol\":1638:1723  function owner() public view virtual returns (address) {... */\n    tag_15:\n      callvalue\n      dup1\n      iszero\n      tag_85\n      jumpi\n      0x00\n      dup1\n      revert\n    tag_85:\n      pop\n        /* \"@openzeppelin/contracts/access/Ownable.sol\":1710:1716  _owner */\n      and(sub(shl(0xa0, 0x01), 0x01), sload(0x01))\n        /* \"@openzeppelin/contracts/access/Ownable.sol\":1638:1723  function owner() public view virtual returns (address) {... */\n      jump(tag_36)\n        /* \"contracts/Validator.sol\":4817:4917  function setEdxAccount(address _account) external onlyOwner {... */\n    tag_16:\n      callvalue\n      dup1\n      iszero\n      tag_89\n      jumpi\n      0x00\n      dup1\n      revert\n    tag_89:\n      pop\n      tag_26\n      tag_91\n      calldatasize\n      0x04\n      tag_28\n      jump\t// in\n    tag_91:\n      tag_92\n      jump\t// in\n        /* \"contracts/Validator.sol\":5142:5216  function unpauseContract() external onlyOwner {... */\n    tag_17:\n      callvalue\n      dup1\n      iszero\n      tag_93\n      jumpi\n      0x00\n      dup1\n      revert\n    tag_93:\n      pop\n      tag_26\n      tag_95\n      jump\t// in\n        /* \"contracts/Validator.sol\":416:473  mapping(address => address) public validatorNodeToAccount */\n    tag_18:\n      callvalue\n      dup1\n      iszero\n      tag_96\n      jumpi\n      0x00\n      dup1\n      revert\n    tag_96:\n      pop\n      tag_36\n      tag_98\n      calldatasize\n      0x04\n      tag_28\n      jump\t// in\n    tag_98:\n      mstore(0x20, 0x02)\n      0x00\n      swap1\n      dup2\n      mstore\n      0x40\n      swap1\n      keccak256\n      sload\n      sub(shl(0xa0, 0x01), 0x01)\n      and\n      dup2\n      jump\n        /* \"contracts/Validator.sol\":814:848  address[] public allValidatorNodes */\n    tag_19:\n      callvalue\n      dup1\n      iszero\n      tag_101\n      jumpi\n      0x00\n      dup1\n      revert\n    tag_101:\n      pop\n      tag_36\n      tag_103\n      calldatasize\n      0x04\n      tag_60\n      jump\t// in\n    tag_103:\n      tag_104\n      jump\t// in\n        /* \"contracts/Validator.sol\":1130:1780  function deposit() external payable nonReentrant whenNotPaused {... */\n    tag_20:\n      tag_26\n      tag_107\n      jump\t// in\n        /* \"@openzeppelin/contracts/access/Ownable.sol\":2543:2758  function transferOwnership(address newOwner) public virtual onlyOwner {... */\n    tag_21:\n      callvalue\n      dup1\n      iszero\n      tag_108\n      jumpi\n      0x00\n      dup1\n      revert\n    tag_108:\n      pop\n      tag_26\n      tag_110\n      calldatasize\n      0x04\n      tag_28\n      jump\t// in\n    tag_110:\n      tag_111\n      jump\t// in\n        /* \"contracts/Validator.sol\":3101:4458  function deleteValidatorNode(address validatorNodeAddress) external onlyOwner {... */\n    tag_29:\n        /* \"@openzeppelin/contracts/access/Ownable.sol\":1531:1544  _checkOwner() */\n      tag_113\n        /* \"@openzeppelin/contracts/access/Ownable.sol\":1531:1542  _checkOwner */\n      tag_114\n        /* \"@openzeppelin/contracts/access/Ownable.sol\":1531:1544  _checkOwner() */\n      jump\t// in\n    tag_113:\n      sub(shl(0xa0, 0x01), 0x01)\n        /* \"contracts/Validator.sol\":3220:3264  validatorNodeToAccount[validatorNodeAddress] */\n      dup1\n      dup3\n      and\n        /* \"contracts/Validator.sol\":3192:3217  address associatedAddress */\n      0x00\n        /* \"contracts/Validator.sol\":3220:3264  validatorNodeToAccount[validatorNodeAddress] */\n      swap1\n      dup2\n      mstore\n        /* \"contracts/Validator.sol\":3220:3242  validatorNodeToAccount */\n      0x02\n        /* \"contracts/Validator.sol\":3220:3264  validatorNodeToAccount[validatorNodeAddress] */\n      0x20\n      swap1\n      dup2\n      mstore\n      0x40\n      dup1\n      dup4\n      keccak256\n      sload\n      swap1\n      swap4\n      and\n        /* \"contracts/Validator.sol\":3299:3335  depositedBalances[associatedAddress] */\n      dup1\n      dup4\n      mstore\n        /* \"contracts/Validator.sol\":3299:3316  depositedBalances */\n      0x03\n        /* \"contracts/Validator.sol\":3299:3335  depositedBalances[associatedAddress] */\n      swap1\n      swap2\n      mstore\n      swap2\n      dup2\n      keccak256\n      sload\n        /* \"contracts/Validator.sol\":3377:3400  withdrawalFeePercentage */\n      sload(0x06)\n        /* \"contracts/Validator.sol\":3299:3335  depositedBalances[associatedAddress] */\n      swap1\n      swap2\n        /* \"contracts/Validator.sol\":3192:3217  address associatedAddress */\n      swap1\n        /* \"contracts/Validator.sol\":3404:3407  100 */\n      0x64\n      swap1\n        /* \"contracts/Validator.sol\":3361:3400  depositAmount * withdrawalFeePercentage */\n      tag_116\n      swap1\n        /* \"contracts/Validator.sol\":3299:3335  depositedBalances[associatedAddress] */\n      dup5\n        /* \"contracts/Validator.sol\":3361:3400  depositAmount * withdrawalFeePercentage */\n      tag_117\n      jump\t// in\n    tag_116:\n        /* \"contracts/Validator.sol\":3360:3407  (depositAmount * withdrawalFeePercentage) / 100 */\n      tag_118\n      swap2\n      swap1\n      tag_119\n      jump\t// in\n    tag_118:\n        /* \"contracts/Validator.sol\":3346:3407  uint256 fee = (depositAmount * withdrawalFeePercentage) / 100 */\n      swap1\n      pop\n        /* \"contracts/Validator.sol\":3447:3469  uint256 withdrawAmount */\n      0x00\n        /* \"contracts/Validator.sol\":3472:3491  depositAmount - fee */\n      tag_120\n        /* \"contracts/Validator.sol\":3346:3407  uint256 fee = (depositAmount * withdrawalFeePercentage) / 100 */\n      dup3\n        /* \"contracts/Validator.sol\":3472:3485  depositAmount */\n      dup5\n        /* \"contracts/Validator.sol\":3472:3491  depositAmount - fee */\n      tag_121\n      jump\t// in\n    tag_120:\n      sub(shl(0xa0, 0x01), 0x01)\n        /* \"contracts/Validator.sol\":3542:3578  depositedBalances[associatedAddress] */\n      dup6\n      and\n        /* \"contracts/Validator.sol\":3581:3582  0 */\n      0x00\n        /* \"contracts/Validator.sol\":3542:3578  depositedBalances[associatedAddress] */\n      dup2\n      dup2\n      mstore\n        /* \"contracts/Validator.sol\":3542:3559  depositedBalances */\n      0x03\n        /* \"contracts/Validator.sol\":3542:3578  depositedBalances[associatedAddress] */\n      0x20\n      mstore\n      0x40\n      dup1\n      dup3\n      keccak256\n        /* \"contracts/Validator.sol\":3542:3582  depositedBalances[associatedAddress] = 0 */\n      dup3\n      swap1\n      sstore\n        /* \"contracts/Validator.sol\":3593:3644  payable(associatedAddress).transfer(withdrawAmount) */\n      mload\n        /* \"contracts/Validator.sol\":3447:3491  uint256 withdrawAmount = depositAmount - fee */\n      swap3\n      swap4\n      pop\n        /* \"contracts/Validator.sol\":3542:3578  depositedBalances[associatedAddress] */\n      swap1\n      swap2\n        /* \"contracts/Validator.sol\":3593:3644  payable(associatedAddress).transfer(withdrawAmount) */\n      dup4\n      iszero\n      0x08fc\n      mul\n      swap2\n        /* \"contracts/Validator.sol\":3447:3491  uint256 withdrawAmount = depositAmount - fee */\n      dup5\n      swap2\n        /* \"contracts/Validator.sol\":3593:3644  payable(associatedAddress).transfer(withdrawAmount) */\n      swap1\n      dup2\n        /* \"contracts/Validator.sol\":3581:3582  0 */\n      dup2\n        /* \"contracts/Validator.sol\":3593:3644  payable(associatedAddress).transfer(withdrawAmount) */\n      dup2\n        /* \"contracts/Validator.sol\":3447:3491  uint256 withdrawAmount = depositAmount - fee */\n      dup6\n        /* \"contracts/Validator.sol\":3542:3578  depositedBalances[associatedAddress] */\n      dup9\n        /* \"contracts/Validator.sol\":3593:3644  payable(associatedAddress).transfer(withdrawAmount) */\n      dup9\n      call\n      swap4\n      pop\n      pop\n      pop\n      pop\n      iszero\n      dup1\n      iszero\n      tag_123\n      jumpi\n      returndatasize\n      0x00\n      dup1\n      returndatacopy\n      revert(0x00, returndatasize)\n    tag_123:\n      pop\n        /* \"contracts/Validator.sol\":3659:3669  edxAccount */\n      and(sub(shl(0xa0, 0x01), 0x01), sload(0x07))\n        /* \"contracts/Validator.sol\":3659:3683  edxAccount != address(0) */\n      iszero\n        /* \"contracts/Validator.sol\":3655:3786  if (edxAccount != address(0)) {... */\n      tag_124\n      jumpi\n        /* \"contracts/Validator.sol\":3708:3718  edxAccount */\n      sload(0x07)\n        /* \"contracts/Validator.sol\":3700:3733  payable(edxAccount).transfer(fee) */\n      mload(0x40)\n      sub(shl(0xa0, 0x01), 0x01)\n        /* \"contracts/Validator.sol\":3708:3718  edxAccount */\n      swap1\n      swap2\n      and\n      swap1\n        /* \"contracts/Validator.sol\":3700:3733  payable(edxAccount).transfer(fee) */\n      dup4\n      iszero\n      0x08fc\n      mul\n      swap1\n        /* \"contracts/Validator.sol\":3729:3732  fee */\n      dup5\n      swap1\n        /* \"contracts/Validator.sol\":3708:3718  edxAccount */\n      0x00\n        /* \"contracts/Validator.sol\":3700:3733  payable(edxAccount).transfer(fee) */\n      dup2\n        /* \"contracts/Validator.sol\":3708:3718  edxAccount */\n      dup2\n        /* \"contracts/Validator.sol\":3700:3733  payable(edxAccount).transfer(fee) */\n      dup2\n        /* \"contracts/Validator.sol\":3729:3732  fee */\n      dup6\n        /* \"contracts/Validator.sol\":3708:3718  edxAccount */\n      dup9\n        /* \"contracts/Validator.sol\":3700:3733  payable(edxAccount).transfer(fee) */\n      dup9\n      call\n      swap4\n      pop\n      pop\n      pop\n      pop\n      iszero\n      dup1\n      iszero\n      tag_126\n      jumpi\n      returndatasize\n      0x00\n      dup1\n      returndatacopy\n      revert(0x00, returndatasize)\n    tag_126:\n      pop\n        /* \"contracts/Validator.sol\":3655:3786  if (edxAccount != address(0)) {... */\n    tag_124:\n        /* \"contracts/Validator.sol\":3876:3885  uint256 i */\n      0x00\n        /* \"contracts/Validator.sol\":3871:4275  for (uint256 i = 0; i < allValidatorNodes.length; i++) {... */\n    tag_127:\n        /* \"contracts/Validator.sol\":3895:3912  allValidatorNodes */\n      0x05\n        /* \"contracts/Validator.sol\":3895:3919  allValidatorNodes.length */\n      sload\n        /* \"contracts/Validator.sol\":3891:3919  i < allValidatorNodes.length */\n      dup2\n      lt\n        /* \"contracts/Validator.sol\":3871:4275  for (uint256 i = 0; i < allValidatorNodes.length; i++) {... */\n      iszero\n      tag_128\n      jumpi\n        /* \"contracts/Validator.sol\":3969:3989  validatorNodeAddress */\n      dup6\n      sub(shl(0xa0, 0x01), 0x01)\n        /* \"contracts/Validator.sol\":3945:3989  allValidatorNodes[i] == validatorNodeAddress */\n      and\n        /* \"contracts/Validator.sol\":3945:3962  allValidatorNodes */\n      0x05\n        /* \"contracts/Validator.sol\":3963:3964  i */\n      dup3\n        /* \"contracts/Validator.sol\":3945:3965  allValidatorNodes[i] */\n      dup2\n      sload\n      dup2\n      lt\n      tag_131\n      jumpi\n      tag_131\n      tag_132\n      jump\t// in\n    tag_131:\n      0x00\n      swap2\n      dup3\n      mstore\n      0x20\n      swap1\n      swap2\n      keccak256\n      add\n      sload\n      sub(shl(0xa0, 0x01), 0x01)\n      and\n        /* \"contracts/Validator.sol\":3945:3989  allValidatorNodes[i] == validatorNodeAddress */\n      sub\n        /* \"contracts/Validator.sol\":3941:4264  if (allValidatorNodes[i] == validatorNodeAddress) {... */\n      tag_134\n      jumpi\n        /* \"contracts/Validator.sol\":4135:4152  allValidatorNodes */\n      0x05\n        /* \"contracts/Validator.sol\":4153:4177  allValidatorNodes.length */\n      dup1\n      sload\n        /* \"contracts/Validator.sol\":4153:4181  allValidatorNodes.length - 1 */\n      tag_135\n      swap1\n        /* \"contracts/Validator.sol\":4180:4181  1 */\n      0x01\n      swap1\n        /* \"contracts/Validator.sol\":4153:4181  allValidatorNodes.length - 1 */\n      tag_121\n      jump\t// in\n    tag_135:\n        /* \"contracts/Validator.sol\":4135:4182  allValidatorNodes[allValidatorNodes.length - 1] */\n      dup2\n      sload\n      dup2\n      lt\n      tag_137\n      jumpi\n      tag_137\n      tag_132\n      jump\t// in\n    tag_137:\n      0x00\n      swap2\n      dup3\n      mstore\n      0x20\n      swap1\n      swap2\n      keccak256\n      add\n      sload\n        /* \"contracts/Validator.sol\":4112:4129  allValidatorNodes */\n      0x05\n        /* \"contracts/Validator.sol\":4112:4132  allValidatorNodes[i] */\n      dup1\n      sload\n      sub(shl(0xa0, 0x01), 0x01)\n        /* \"contracts/Validator.sol\":4135:4182  allValidatorNodes[allValidatorNodes.length - 1] */\n      swap1\n      swap3\n      and\n      swap2\n        /* \"contracts/Validator.sol\":4130:4131  i */\n      dup4\n      swap1\n        /* \"contracts/Validator.sol\":4112:4132  allValidatorNodes[i] */\n      dup2\n      lt\n      tag_140\n      jumpi\n      tag_140\n      tag_132\n      jump\t// in\n    tag_140:\n      swap1\n      0x00\n      mstore\n      keccak256(0x00, 0x20)\n      add\n      0x00\n        /* \"contracts/Validator.sol\":4112:4182  allValidatorNodes[i] = allValidatorNodes[allValidatorNodes.length - 1] */\n      0x0100\n      exp\n      dup2\n      sload\n      dup2\n      sub(shl(0xa0, 0x01), 0x01)\n      mul\n      not\n      and\n      swap1\n      dup4\n      sub(shl(0xa0, 0x01), 0x01)\n      and\n      mul\n      or\n      swap1\n      sstore\n      pop\n        /* \"contracts/Validator.sol\":4201:4218  allValidatorNodes */\n      0x05\n        /* \"contracts/Validator.sol\":4201:4224  allValidatorNodes.pop() */\n      dup1\n      sload\n      dup1\n      tag_143\n      jumpi\n      tag_143\n      tag_144\n      jump\t// in\n    tag_143:\n      0x00\n      dup3\n      dup2\n      mstore\n      0x20\n      swap1\n      keccak256\n      dup2\n      add\n      not(0x00)\n      swap1\n      dup2\n      add\n      dup1\n      sload\n      not(sub(shl(0xa0, 0x01), 0x01))\n      and\n      swap1\n      sstore\n      add\n      swap1\n      sstore\n        /* \"contracts/Validator.sol\":4243:4248  break */\n      jump(tag_128)\n        /* \"contracts/Validator.sol\":3941:4264  if (allValidatorNodes[i] == validatorNodeAddress) {... */\n    tag_134:\n        /* \"contracts/Validator.sol\":3921:3924  i++ */\n      0x01\n      add\n        /* \"contracts/Validator.sol\":3871:4275  for (uint256 i = 0; i < allValidatorNodes.length; i++) {... */\n      jump(tag_127)\n    tag_128:\n      pop\n      pop\n      pop\n      sub(shl(0xa0, 0x01), 0x01)\n        /* \"contracts/Validator.sol\":4346:4390  validatorNodeToAccount[validatorNodeAddress] */\n      swap1\n      swap3\n      and\n      0x00\n      swap1\n      dup2\n      mstore\n        /* \"contracts/Validator.sol\":4346:4368  validatorNodeToAccount */\n      0x02\n        /* \"contracts/Validator.sol\":4346:4390  validatorNodeToAccount[validatorNodeAddress] */\n      0x20\n      swap1\n      dup2\n      mstore\n      0x40\n      dup1\n      dup4\n      keccak256\n        /* \"contracts/Validator.sol\":4339:4390  delete validatorNodeToAccount[validatorNodeAddress] */\n      dup1\n      sload\n      not(sub(shl(0xa0, 0x01), 0x01))\n      and\n      swap1\n      sstore\n        /* \"contracts/Validator.sol\":4408:4428  totalDepositedAmount */\n      0x04\n        /* \"contracts/Validator.sol\":4408:4450  totalDepositedAmount[validatorNodeAddress] */\n      swap1\n      swap2\n      mstore\n      dup2\n      keccak256\n        /* \"contracts/Validator.sol\":4401:4450  delete totalDepositedAmount[validatorNodeAddress] */\n      sstore\n      pop\n      pop\n        /* \"contracts/Validator.sol\":3101:4458  function deleteValidatorNode(address validatorNodeAddress) external onlyOwner {... */\n      jump\t// out\n        /* \"contracts/Validator.sol\":2633:3049  function linkValidatorNode(address validatorNodeAddress, address validatorAccountAddress) external onlyOwner{... */\n    tag_34:\n        /* \"@openzeppelin/contracts/access/Ownable.sol\":1531:1544  _checkOwner() */\n      tag_147\n        /* \"@openzeppelin/contracts/access/Ownable.sol\":1531:1542  _checkOwner */\n      tag_114\n        /* \"@openzeppelin/contracts/access/Ownable.sol\":1531:1544  _checkOwner() */\n      jump\t// in\n    tag_147:\n      sub(shl(0xa0, 0x01), 0x01)\n        /* \"contracts/Validator.sol\":2752:2796  validatorNodeToAccount[validatorNodeAddress] */\n      dup3\n      dup2\n      and\n      0x00\n      swap1\n      dup2\n      mstore\n        /* \"contracts/Validator.sol\":2752:2774  validatorNodeToAccount */\n      0x02\n        /* \"contracts/Validator.sol\":2752:2796  validatorNodeToAccount[validatorNodeAddress] */\n      0x20\n      mstore\n      0x40\n      swap1\n      keccak256\n        /* \"contracts/Validator.sol\":2752:2822  validatorNodeToAccount[validatorNodeAddress] = validatorAccountAddress */\n      dup1\n      sload\n      not(sub(shl(0xa0, 0x01), 0x01))\n      and\n      swap2\n      dup4\n      and\n      swap2\n      swap1\n      swap2\n      or\n      swap1\n      sstore\n        /* \"contracts/Validator.sol\":2920:2969  contains(allValidatorNodes, validatorNodeAddress) */\n      tag_149\n        /* \"contracts/Validator.sol\":2929:2946  allValidatorNodes */\n      0x05\n        /* \"contracts/Validator.sol\":2752:2796  validatorNodeToAccount[validatorNodeAddress] */\n      dup4\n        /* \"contracts/Validator.sol\":2920:2928  contains */\n      tag_150\n        /* \"contracts/Validator.sol\":2920:2969  contains(allValidatorNodes, validatorNodeAddress) */\n      jump\t// in\n    tag_149:\n        /* \"contracts/Validator.sol\":2915:3042  if (!contains(allValidatorNodes, validatorNodeAddress)) {... */\n      tag_151\n      jumpi\n        /* \"contracts/Validator.sol\":2986:3003  allValidatorNodes */\n      0x05\n        /* \"contracts/Validator.sol\":2986:3030  allValidatorNodes.push(validatorNodeAddress) */\n      dup1\n      sload\n      0x01\n      dup2\n      add\n      dup3\n      sstore\n      0x00\n      swap2\n      swap1\n      swap2\n      mstore\n      0x036b6384b5eca791c62761152d0c79bb0604c104a5fb6f4eb0703f3154bb3db0\n      add\n      dup1\n      sload\n      not(sub(shl(0xa0, 0x01), 0x01))\n      and\n      sub(shl(0xa0, 0x01), 0x01)\n      dup5\n      and\n      or\n      swap1\n      sstore\n        /* \"contracts/Validator.sol\":2915:3042  if (!contains(allValidatorNodes, validatorNodeAddress)) {... */\n    tag_151:\n        /* \"contracts/Validator.sol\":2633:3049  function linkValidatorNode(address validatorNodeAddress, address validatorAccountAddress) external onlyOwner{... */\n      pop\n      pop\n      jump\t// out\n        /* \"contracts/Validator.sol\":1866:2530  function withdraw() external nonReentrant whenNotPaused{... */\n    tag_42:\n        /* \"@openzeppelin/contracts/security/ReentrancyGuard.sol\":2261:2282  _nonReentrantBefore() */\n      tag_154\n        /* \"@openzeppelin/contracts/security/ReentrancyGuard.sol\":2261:2280  _nonReentrantBefore */\n      tag_155\n        /* \"@openzeppelin/contracts/security/ReentrancyGuard.sol\":2261:2282  _nonReentrantBefore() */\n      jump\t// in\n    tag_154:\n        /* \"@openzeppelin/contracts/security/Pausable.sol\":1239:1258  _requireNotPaused() */\n      tag_157\n        /* \"@openzeppelin/contracts/security/Pausable.sol\":1239:1256  _requireNotPaused */\n      tag_158\n        /* \"@openzeppelin/contracts/security/Pausable.sol\":1239:1258  _requireNotPaused() */\n      jump\t// in\n    tag_157:\n        /* \"contracts/Validator.sol\":1974:1984  msg.sender */\n      caller\n        /* \"contracts/Validator.sol\":1932:1953  uint256 depositAmount */\n      0x00\n        /* \"contracts/Validator.sol\":1956:1985  depositedBalances[msg.sender] */\n      swap1\n      dup2\n      mstore\n        /* \"contracts/Validator.sol\":1956:1973  depositedBalances */\n      0x03\n        /* \"contracts/Validator.sol\":1956:1985  depositedBalances[msg.sender] */\n      0x20\n      mstore\n      0x40\n      swap1\n      keccak256\n      sload\n        /* \"contracts/Validator.sol\":2004:2021  depositAmount > 0 */\n      dup1\n        /* \"contracts/Validator.sol\":1996:2056  require(depositAmount > 0, \"No funds available to withdraw\") */\n      tag_160\n      jumpi\n      mload(0x40)\n      shl(0xe5, 0x461bcd)\n      dup2\n      mstore\n        /* \"#utility.yul\":4685:4687   */\n      0x20\n        /* \"contracts/Validator.sol\":1996:2056  require(depositAmount > 0, \"No funds available to withdraw\") */\n      0x04\n      dup3\n      add\n        /* \"#utility.yul\":4667:4688   */\n      mstore\n        /* \"#utility.yul\":4724:4726   */\n      0x1e\n        /* \"#utility.yul\":4704:4722   */\n      0x24\n      dup3\n      add\n        /* \"#utility.yul\":4697:4727   */\n      mstore\n        /* \"#utility.yul\":4763:4795   */\n      0x4e6f2066756e647320617661696c61626c6520746f2077697468647261770000\n        /* \"#utility.yul\":4743:4761   */\n      0x44\n      dup3\n      add\n        /* \"#utility.yul\":4736:4796   */\n      mstore\n        /* \"#utility.yul\":4813:4831   */\n      0x64\n      add\n        /* \"contracts/Validator.sol\":1996:2056  require(depositAmount > 0, \"No funds available to withdraw\") */\n    tag_161:\n      mload(0x40)\n      dup1\n      swap2\n      sub\n      swap1\n      revert\n    tag_160:\n        /* \"contracts/Validator.sol\":2077:2088  uint256 fee */\n      0x00\n        /* \"contracts/Validator.sol\":2135:2138  100 */\n      0x64\n        /* \"contracts/Validator.sol\":2108:2131  withdrawalFeePercentage */\n      sload(0x06)\n        /* \"contracts/Validator.sol\":2092:2105  depositAmount */\n      dup4\n        /* \"contracts/Validator.sol\":2092:2131  depositAmount * withdrawalFeePercentage */\n      tag_163\n      swap2\n      swap1\n      tag_117\n      jump\t// in\n    tag_163:\n        /* \"contracts/Validator.sol\":2091:2138  (depositAmount * withdrawalFeePercentage) / 100 */\n      tag_164\n      swap2\n      swap1\n      tag_119\n      jump\t// in\n    tag_164:\n        /* \"contracts/Validator.sol\":2077:2138  uint256 fee = (depositAmount * withdrawalFeePercentage) / 100 */\n      swap1\n      pop\n        /* \"contracts/Validator.sol\":2178:2200  uint256 withdrawAmount */\n      0x00\n        /* \"contracts/Validator.sol\":2203:2222  depositAmount - fee */\n      tag_165\n        /* \"contracts/Validator.sol\":2077:2138  uint256 fee = (depositAmount * withdrawalFeePercentage) / 100 */\n      dup3\n        /* \"contracts/Validator.sol\":2203:2216  depositAmount */\n      dup5\n        /* \"contracts/Validator.sol\":2203:2222  depositAmount - fee */\n      tag_121\n      jump\t// in\n    tag_165:\n        /* \"contracts/Validator.sol\":2301:2311  msg.sender */\n      caller\n        /* \"contracts/Validator.sol\":2315:2316  0 */\n      0x00\n        /* \"contracts/Validator.sol\":2283:2312  depositedBalances[msg.sender] */\n      dup2\n      dup2\n      mstore\n        /* \"contracts/Validator.sol\":2283:2300  depositedBalances */\n      0x03\n        /* \"contracts/Validator.sol\":2283:2312  depositedBalances[msg.sender] */\n      0x20\n      mstore\n      0x40\n      dup1\n      dup3\n      keccak256\n        /* \"contracts/Validator.sol\":2283:2316  depositedBalances[msg.sender] = 0 */\n      dup3\n      swap1\n      sstore\n        /* \"contracts/Validator.sol\":2327:2371  payable(msg.sender).transfer(withdrawAmount) */\n      mload\n        /* \"contracts/Validator.sol\":2178:2222  uint256 withdrawAmount = depositAmount - fee */\n      swap3\n      swap4\n      pop\n        /* \"contracts/Validator.sol\":2301:2311  msg.sender */\n      swap1\n      swap2\n        /* \"contracts/Validator.sol\":2327:2371  payable(msg.sender).transfer(withdrawAmount) */\n      dup4\n      iszero\n      0x08fc\n      mul\n      swap2\n        /* \"contracts/Validator.sol\":2178:2222  uint256 withdrawAmount = depositAmount - fee */\n      dup5\n      swap2\n        /* \"contracts/Validator.sol\":2327:2371  payable(msg.sender).transfer(withdrawAmount) */\n      swap1\n      dup2\n        /* \"contracts/Validator.sol\":2315:2316  0 */\n      dup2\n        /* \"contracts/Validator.sol\":2327:2371  payable(msg.sender).transfer(withdrawAmount) */\n      dup2\n        /* \"contracts/Validator.sol\":2178:2222  uint256 withdrawAmount = depositAmount - fee */\n      dup6\n        /* \"contracts/Validator.sol\":2301:2311  msg.sender */\n      dup9\n        /* \"contracts/Validator.sol\":2327:2371  payable(msg.sender).transfer(withdrawAmount) */\n      dup9\n      call\n      swap4\n      pop\n      pop\n      pop\n      pop\n      iszero\n      dup1\n      iszero\n      tag_167\n      jumpi\n      returndatasize\n      0x00\n      dup1\n      returndatacopy\n      revert(0x00, returndatasize)\n    tag_167:\n      pop\n        /* \"contracts/Validator.sol\":2396:2406  edxAccount */\n      and(sub(shl(0xa0, 0x01), 0x01), sload(0x07))\n        /* \"contracts/Validator.sol\":2396:2420  edxAccount != address(0) */\n      iszero\n        /* \"contracts/Validator.sol\":2392:2523  if (edxAccount != address(0)) {... */\n      tag_168\n      jumpi\n        /* \"contracts/Validator.sol\":2445:2455  edxAccount */\n      sload(0x07)\n        /* \"contracts/Validator.sol\":2437:2470  payable(edxAccount).transfer(fee) */\n      mload(0x40)\n      sub(shl(0xa0, 0x01), 0x01)\n        /* \"contracts/Validator.sol\":2445:2455  edxAccount */\n      swap1\n      swap2\n      and\n      swap1\n        /* \"contracts/Validator.sol\":2437:2470  payable(edxAccount).transfer(fee) */\n      dup4\n      iszero\n      0x08fc\n      mul\n      swap1\n        /* \"contracts/Validator.sol\":2466:2469  fee */\n      dup5\n      swap1\n        /* \"contracts/Validator.sol\":2445:2455  edxAccount */\n      0x00\n        /* \"contracts/Validator.sol\":2437:2470  payable(edxAccount).transfer(fee) */\n      dup2\n        /* \"contracts/Validator.sol\":2445:2455  edxAccount */\n      dup2\n        /* \"contracts/Validator.sol\":2437:2470  payable(edxAccount).transfer(fee) */\n      dup2\n        /* \"contracts/Validator.sol\":2466:2469  fee */\n      dup6\n        /* \"contracts/Validator.sol\":2445:2455  edxAccount */\n      dup9\n        /* \"contracts/Validator.sol\":2437:2470  payable(edxAccount).transfer(fee) */\n      dup9\n      call\n      swap4\n      pop\n      pop\n      pop\n      pop\n      iszero\n      dup1\n      iszero\n      tag_170\n      jumpi\n      returndatasize\n      0x00\n      dup1\n      returndatacopy\n      revert(0x00, returndatasize)\n    tag_170:\n      pop\n        /* \"contracts/Validator.sol\":2392:2523  if (edxAccount != address(0)) {... */\n    tag_168:\n        /* \"contracts/Validator.sol\":1921:2530  {... */\n      pop\n      pop\n      pop\n        /* \"@openzeppelin/contracts/security/ReentrancyGuard.sol\":2303:2323  _nonReentrantAfter() */\n      tag_171\n        /* \"@openzeppelin/contracts/security/ReentrancyGuard.sol\":1716:1717  1 */\n      0x01\n        /* \"@openzeppelin/contracts/security/ReentrancyGuard.sol\":2809:2816  _status */\n      0x00\n        /* \"@openzeppelin/contracts/security/ReentrancyGuard.sol\":2809:2831  _status = _NOT_ENTERED */\n      sstore\n        /* \"@openzeppelin/contracts/security/ReentrancyGuard.sol\":2629:2838  function _nonReentrantAfter() private {... */\n      jump\n        /* \"@openzeppelin/contracts/security/ReentrancyGuard.sol\":2303:2323  _nonReentrantAfter() */\n    tag_171:\n        /* \"contracts/Validator.sol\":1866:2530  function withdraw() external nonReentrant whenNotPaused{... */\n      jump\t// out\n        /* \"contracts/Validator.sol\":4993:5064  function pauseContract() external onlyOwner {... */\n    tag_51:\n        /* \"@openzeppelin/contracts/access/Ownable.sol\":1531:1544  _checkOwner() */\n      tag_175\n        /* \"@openzeppelin/contracts/access/Ownable.sol\":1531:1542  _checkOwner */\n      tag_114\n        /* \"@openzeppelin/contracts/access/Ownable.sol\":1531:1544  _checkOwner() */\n      jump\t// in\n    tag_175:\n        /* \"contracts/Validator.sol\":5048:5056  _pause() */\n      tag_171\n        /* \"contracts/Validator.sol\":5048:5054  _pause */\n      tag_178\n        /* \"contracts/Validator.sol\":5048:5056  _pause() */\n      jump\t// in\n        /* \"contracts/Validator.sol\":4533:4749  function setWithdrawalFeePercentage(uint256 _feePercentage) external onlyOwner {... */\n    tag_61:\n        /* \"@openzeppelin/contracts/access/Ownable.sol\":1531:1544  _checkOwner() */\n      tag_181\n        /* \"@openzeppelin/contracts/access/Ownable.sol\":1531:1542  _checkOwner */\n      tag_114\n        /* \"@openzeppelin/contracts/access/Ownable.sol\":1531:1544  _checkOwner() */\n      jump\t// in\n    tag_181:\n        /* \"contracts/Validator.sol\":4649:4652  100 */\n      0x64\n        /* \"contracts/Validator.sol\":4631:4645  _feePercentage */\n      dup2\n        /* \"contracts/Validator.sol\":4631:4652  _feePercentage <= 100 */\n      gt\n      iszero\n        /* \"contracts/Validator.sol\":4623:4690  require(_feePercentage <= 100, \"Fee percentage cannot exceed 100%\") */\n      tag_183\n      jumpi\n      mload(0x40)\n      shl(0xe5, 0x461bcd)\n      dup2\n      mstore\n        /* \"#utility.yul\":5044:5046   */\n      0x20\n        /* \"contracts/Validator.sol\":4623:4690  require(_feePercentage <= 100, \"Fee percentage cannot exceed 100%\") */\n      0x04\n      dup3\n      add\n        /* \"#utility.yul\":5026:5047   */\n      mstore\n        /* \"#utility.yul\":5083:5085   */\n      0x21\n        /* \"#utility.yul\":5063:5081   */\n      0x24\n      dup3\n      add\n        /* \"#utility.yul\":5056:5086   */\n      mstore\n        /* \"#utility.yul\":5122:5156   */\n      0x4665652070657263656e746167652063616e6e6f742065786365656420313030\n        /* \"#utility.yul\":5102:5120   */\n      0x44\n      dup3\n      add\n        /* \"#utility.yul\":5095:5157   */\n      mstore\n      shl(0xf8, 0x25)\n        /* \"#utility.yul\":5173:5191   */\n      0x64\n      dup3\n      add\n        /* \"#utility.yul\":5166:5197   */\n      mstore\n        /* \"#utility.yul\":5214:5233   */\n      0x84\n      add\n        /* \"contracts/Validator.sol\":4623:4690  require(_feePercentage <= 100, \"Fee percentage cannot exceed 100%\") */\n      tag_161\n        /* \"#utility.yul\":4842:5239   */\n      jump\n        /* \"contracts/Validator.sol\":4623:4690  require(_feePercentage <= 100, \"Fee percentage cannot exceed 100%\") */\n    tag_183:\n        /* \"contracts/Validator.sol\":4701:4724  withdrawalFeePercentage */\n      0x06\n        /* \"contracts/Validator.sol\":4701:4741  withdrawalFeePercentage = _feePercentage */\n      sstore\n        /* \"contracts/Validator.sol\":4533:4749  function setWithdrawalFeePercentage(uint256 _feePercentage) external onlyOwner {... */\n      jump\t// out\n        /* \"contracts/Validator.sol\":5781:6911  function fetchAllValidatorNodeDetails() external view returns (address[] memory, address[] memory, uint256[] memory, uint256[] memory) {... */\n    tag_64:\n        /* \"contracts/Validator.sol\":5948:5965  allValidatorNodes */\n      0x05\n        /* \"contracts/Validator.sol\":5948:5972  allValidatorNodes.length */\n      sload\n        /* \"contracts/Validator.sol\":5844:5860  address[] memory */\n      0x60\n      swap1\n      dup2\n      swap1\n      dup2\n      swap1\n      dup2\n      swap1\n        /* \"contracts/Validator.sol\":5927:5945  uint256 totalNodes */\n      0x00\n        /* \"contracts/Validator.sol\":5948:5972  allValidatorNodes.length */\n      dup2\n        /* \"contracts/Validator.sol\":6016:6041  new address[](totalNodes) */\n      0xffffffffffffffff\n      dup2\n      gt\n      iszero\n      tag_188\n      jumpi\n      tag_188\n      tag_189\n      jump\t// in\n    tag_188:\n      mload(0x40)\n      swap1\n      dup1\n      dup3\n      mstore\n      dup1\n      0x20\n      mul\n      0x20\n      add\n      dup3\n      add\n      0x40\n      mstore\n      dup1\n      iszero\n      tag_190\n      jumpi\n      dup2\n      0x20\n      add\n      0x20\n      dup3\n      mul\n      dup1\n      calldatasize\n      dup4\n      calldatacopy\n      add\n      swap1\n      pop\n    tag_190:\n      pop\n        /* \"contracts/Validator.sol\":5983:6041  address[] memory nodeAddresses = new address[](totalNodes) */\n      swap1\n      pop\n        /* \"contracts/Validator.sol\":6052:6088  address[] memory associatedAddresses */\n      0x00\n        /* \"contracts/Validator.sol\":6105:6115  totalNodes */\n      dup3\n        /* \"contracts/Validator.sol\":6091:6116  new address[](totalNodes) */\n      0xffffffffffffffff\n      dup2\n      gt\n      iszero\n      tag_192\n      jumpi\n      tag_192\n      tag_189\n      jump\t// in\n    tag_192:\n      mload(0x40)\n      swap1\n      dup1\n      dup3\n      mstore\n      dup1\n      0x20\n      mul\n      0x20\n      add\n      dup3\n      add\n      0x40\n      mstore\n      dup1\n      iszero\n      tag_193\n      jumpi\n      dup2\n      0x20\n      add\n      0x20\n      dup3\n      mul\n      dup1\n      calldatasize\n      dup4\n      calldatacopy\n      add\n      swap1\n      pop\n    tag_193:\n      pop\n        /* \"contracts/Validator.sol\":6052:6116  address[] memory associatedAddresses = new address[](totalNodes) */\n      swap1\n      pop\n        /* \"contracts/Validator.sol\":6127:6155  uint256[] memory sentAmounts */\n      0x00\n        /* \"contracts/Validator.sol\":6172:6182  totalNodes */\n      dup4\n        /* \"contracts/Validator.sol\":6158:6183  new uint256[](totalNodes) */\n      0xffffffffffffffff\n      dup2\n      gt\n      iszero\n      tag_195\n      jumpi\n      tag_195\n      tag_189\n      jump\t// in\n    tag_195:\n      mload(0x40)\n      swap1\n      dup1\n      dup3\n      mstore\n      dup1\n      0x20\n      mul\n      0x20\n      add\n      dup3\n      add\n      0x40\n      mstore\n      dup1\n      iszero\n      tag_196\n      jumpi\n      dup2\n      0x20\n      add\n      0x20\n      dup3\n      mul\n      dup1\n      calldatasize\n      dup4\n      calldatacopy\n      add\n      swap1\n      pop\n    tag_196:\n      pop\n        /* \"contracts/Validator.sol\":6127:6183  uint256[] memory sentAmounts = new uint256[](totalNodes) */\n      swap1\n      pop\n        /* \"contracts/Validator.sol\":6194:6228  uint256[] memory remainingBalances */\n      0x00\n        /* \"contracts/Validator.sol\":6245:6255  totalNodes */\n      dup5\n        /* \"contracts/Validator.sol\":6231:6256  new uint256[](totalNodes) */\n      0xffffffffffffffff\n      dup2\n      gt\n      iszero\n      tag_198\n      jumpi\n      tag_198\n      tag_189\n      jump\t// in\n    tag_198:\n      mload(0x40)\n      swap1\n      dup1\n      dup3\n      mstore\n      dup1\n      0x20\n      mul\n      0x20\n      add\n      dup3\n      add\n      0x40\n      mstore\n      dup1\n      iszero\n      tag_199\n      jumpi\n      dup2\n      0x20\n      add\n      0x20\n      dup3\n      mul\n      dup1\n      calldatasize\n      dup4\n      calldatacopy\n      add\n      swap1\n      pop\n    tag_199:\n      pop\n        /* \"contracts/Validator.sol\":6194:6256  uint256[] memory remainingBalances = new uint256[](totalNodes) */\n      swap1\n      pop\n        /* \"contracts/Validator.sol\":6274:6283  uint256 i */\n      0x00\n        /* \"contracts/Validator.sol\":6269:6816  for (uint256 i = 0; i < totalNodes; i++) {... */\n    tag_200:\n        /* \"contracts/Validator.sol\":6293:6303  totalNodes */\n      dup6\n        /* \"contracts/Validator.sol\":6289:6290  i */\n      dup2\n        /* \"contracts/Validator.sol\":6289:6303  i < totalNodes */\n      lt\n        /* \"contracts/Validator.sol\":6269:6816  for (uint256 i = 0; i < totalNodes; i++) {... */\n      iszero\n      tag_201\n      jumpi\n        /* \"contracts/Validator.sol\":6325:6344  address nodeAddress */\n      0x00\n        /* \"contracts/Validator.sol\":6347:6364  allValidatorNodes */\n      0x05\n        /* \"contracts/Validator.sol\":6365:6366  i */\n      dup3\n        /* \"contracts/Validator.sol\":6347:6367  allValidatorNodes[i] */\n      dup2\n      sload\n      dup2\n      lt\n      tag_204\n      jumpi\n      tag_204\n      tag_132\n      jump\t// in\n    tag_204:\n      0x00\n      swap2\n      dup3\n      mstore\n      0x20\n      dup1\n      dup4\n      keccak256\n      swap1\n      swap2\n      add\n      sload\n      sub(shl(0xa0, 0x01), 0x01)\n      swap1\n      dup2\n      and\n        /* \"contracts/Validator.sol\":6410:6445  validatorNodeToAccount[nodeAddress] */\n      dup1\n      dup5\n      mstore\n        /* \"contracts/Validator.sol\":6410:6432  validatorNodeToAccount */\n      0x02\n        /* \"contracts/Validator.sol\":6410:6445  validatorNodeToAccount[nodeAddress] */\n      dup4\n      mstore\n      0x40\n      dup1\n      dup6\n      keccak256\n      sload\n        /* \"contracts/Validator.sol\":6481:6501  totalDepositedAmount */\n      0x04\n        /* \"contracts/Validator.sol\":6481:6514  totalDepositedAmount[nodeAddress] */\n      dup6\n      mstore\n      dup2\n      dup7\n      keccak256\n      sload\n        /* \"contracts/Validator.sol\":6410:6445  validatorNodeToAccount[nodeAddress] */\n      swap4\n      and\n        /* \"contracts/Validator.sol\":6556:6592  depositedBalances[associatedAddress] */\n      dup1\n      dup7\n      mstore\n        /* \"contracts/Validator.sol\":6556:6573  depositedBalances */\n      0x03\n        /* \"contracts/Validator.sol\":6556:6592  depositedBalances[associatedAddress] */\n      swap1\n      swap5\n      mstore\n      swap1\n      swap4\n      keccak256\n      sload\n        /* \"contracts/Validator.sol\":6621:6637  nodeAddresses[i] */\n      dup10\n      mload\n        /* \"contracts/Validator.sol\":6347:6367  allValidatorNodes[i] */\n      swap4\n      swap5\n      pop\n        /* \"contracts/Validator.sol\":6410:6445  validatorNodeToAccount[nodeAddress] */\n      swap2\n      swap3\n        /* \"contracts/Validator.sol\":6481:6514  totalDepositedAmount[nodeAddress] */\n      swap1\n      swap2\n        /* \"contracts/Validator.sol\":6556:6592  depositedBalances[associatedAddress] */\n      swap1\n        /* \"contracts/Validator.sol\":6347:6367  allValidatorNodes[i] */\n      dup5\n      swap1\n        /* \"contracts/Validator.sol\":6621:6634  nodeAddresses */\n      dup11\n      swap1\n        /* \"contracts/Validator.sol\":6635:6636  i */\n      dup8\n      swap1\n        /* \"contracts/Validator.sol\":6621:6637  nodeAddresses[i] */\n      dup2\n      lt\n      tag_207\n      jumpi\n      tag_207\n      tag_132\n      jump\t// in\n    tag_207:\n      0x20\n      mul\n      0x20\n      add\n      add\n        /* \"contracts/Validator.sol\":6621:6651  nodeAddresses[i] = nodeAddress */\n      swap1\n      sub(shl(0xa0, 0x01), 0x01)\n      and\n      swap1\n      dup2\n      sub(shl(0xa0, 0x01), 0x01)\n      and\n      dup2\n      mstore\n      pop\n      pop\n        /* \"contracts/Validator.sol\":6691:6708  associatedAddress */\n      dup3\n        /* \"contracts/Validator.sol\":6666:6685  associatedAddresses */\n      dup9\n        /* \"contracts/Validator.sol\":6686:6687  i */\n      dup7\n        /* \"contracts/Validator.sol\":6666:6688  associatedAddresses[i] */\n      dup2\n      mload\n      dup2\n      lt\n      tag_209\n      jumpi\n      tag_209\n      tag_132\n      jump\t// in\n    tag_209:\n      0x20\n      mul\n      0x20\n      add\n      add\n        /* \"contracts/Validator.sol\":6666:6708  associatedAddresses[i] = associatedAddress */\n      swap1\n      sub(shl(0xa0, 0x01), 0x01)\n      and\n      swap1\n      dup2\n      sub(shl(0xa0, 0x01), 0x01)\n      and\n      dup2\n      mstore\n      pop\n      pop\n        /* \"contracts/Validator.sol\":6740:6750  sentAmount */\n      dup2\n        /* \"contracts/Validator.sol\":6723:6734  sentAmounts */\n      dup8\n        /* \"contracts/Validator.sol\":6735:6736  i */\n      dup7\n        /* \"contracts/Validator.sol\":6723:6737  sentAmounts[i] */\n      dup2\n      mload\n      dup2\n      lt\n      tag_211\n      jumpi\n      tag_211\n      tag_132\n      jump\t// in\n    tag_211:\n      0x20\n      mul\n      0x20\n      add\n      add\n        /* \"contracts/Validator.sol\":6723:6750  sentAmounts[i] = sentAmount */\n      dup2\n      dup2\n      mstore\n      pop\n      pop\n        /* \"contracts/Validator.sol\":6788:6804  remainingBalance */\n      dup1\n        /* \"contracts/Validator.sol\":6765:6782  remainingBalances */\n      dup7\n        /* \"contracts/Validator.sol\":6783:6784  i */\n      dup7\n        /* \"contracts/Validator.sol\":6765:6785  remainingBalances[i] */\n      dup2\n      mload\n      dup2\n      lt\n      tag_213\n      jumpi\n      tag_213\n      tag_132\n      jump\t// in\n    tag_213:\n      0x20\n      swap1\n      dup2\n      mul\n      swap2\n      swap1\n      swap2\n      add\n      add\n        /* \"contracts/Validator.sol\":6765:6804  remainingBalances[i] = remainingBalance */\n      mstore\n      pop\n      pop\n        /* \"contracts/Validator.sol\":6305:6308  i++ */\n      0x01\n      swap1\n      swap3\n      add\n      swap2\n      pop\n        /* \"contracts/Validator.sol\":6269:6816  for (uint256 i = 0; i < totalNodes; i++) {... */\n      tag_200\n      swap1\n      pop\n      jump\n    tag_201:\n      pop\n        /* \"contracts/Validator.sol\":6836:6849  nodeAddresses */\n      swap3\n      swap9\n        /* \"contracts/Validator.sol\":6851:6870  associatedAddresses */\n      swap2\n      swap8\n      pop\n      swap6\n      pop\n        /* \"contracts/Validator.sol\":6836:6849  nodeAddresses */\n      swap1\n      swap4\n      pop\n        /* \"contracts/Validator.sol\":5781:6911  function fetchAllValidatorNodeDetails() external view returns (address[] memory, address[] memory, uint256[] memory, uint256[] memory) {... */\n      swap2\n      pop\n      pop\n      jump\t// out\n        /* \"@openzeppelin/contracts/access/Ownable.sol\":2293:2394  function renounceOwnership() public virtual onlyOwner {... */\n    tag_69:\n        /* \"@openzeppelin/contracts/access/Ownable.sol\":1531:1544  _checkOwner() */\n      tag_215\n        /* \"@openzeppelin/contracts/access/Ownable.sol\":1531:1542  _checkOwner */\n      tag_114\n        /* \"@openzeppelin/contracts/access/Ownable.sol\":1531:1544  _checkOwner() */\n      jump\t// in\n    tag_215:\n        /* \"@openzeppelin/contracts/access/Ownable.sol\":2357:2387  _transferOwnership(address(0)) */\n      tag_171\n        /* \"@openzeppelin/contracts/access/Ownable.sol\":2384:2385  0 */\n      0x00\n        /* \"@openzeppelin/contracts/access/Ownable.sol\":2357:2375  _transferOwnership */\n      tag_218\n        /* \"@openzeppelin/contracts/access/Ownable.sol\":2357:2387  _transferOwnership(address(0)) */\n      jump\t// in\n        /* \"contracts/Validator.sol\":4817:4917  function setEdxAccount(address _account) external onlyOwner {... */\n    tag_92:\n        /* \"@openzeppelin/contracts/access/Ownable.sol\":1531:1544  _checkOwner() */\n      tag_221\n        /* \"@openzeppelin/contracts/access/Ownable.sol\":1531:1542  _checkOwner */\n      tag_114\n        /* \"@openzeppelin/contracts/access/Ownable.sol\":1531:1544  _checkOwner() */\n      jump\t// in\n    tag_221:\n        /* \"contracts/Validator.sol\":4888:4898  edxAccount */\n      0x07\n        /* \"contracts/Validator.sol\":4888:4909  edxAccount = _account */\n      dup1\n      sload\n      not(sub(shl(0xa0, 0x01), 0x01))\n      and\n      sub(shl(0xa0, 0x01), 0x01)\n      swap3\n      swap1\n      swap3\n      and\n      swap2\n      swap1\n      swap2\n      or\n      swap1\n      sstore\n        /* \"contracts/Validator.sol\":4817:4917  function setEdxAccount(address _account) external onlyOwner {... */\n      jump\t// out\n        /* \"contracts/Validator.sol\":5142:5216  function unpauseContract() external onlyOwner {... */\n    tag_95:\n        /* \"@openzeppelin/contracts/access/Ownable.sol\":1531:1544  _checkOwner() */\n      tag_224\n        /* \"@openzeppelin/contracts/access/Ownable.sol\":1531:1542  _checkOwner */\n      tag_114\n        /* \"@openzeppelin/contracts/access/Ownable.sol\":1531:1544  _checkOwner() */\n      jump\t// in\n    tag_224:\n        /* \"contracts/Validator.sol\":5198:5208  _unpause() */\n      tag_171\n        /* \"contracts/Validator.sol\":5198:5206  _unpause */\n      tag_227\n        /* \"contracts/Validator.sol\":5198:5208  _unpause() */\n      jump\t// in\n        /* \"contracts/Validator.sol\":814:848  address[] public allValidatorNodes */\n    tag_104:\n      0x05\n      dup2\n      dup2\n      sload\n      dup2\n      lt\n      tag_228\n      jumpi\n      0x00\n      dup1\n      revert\n    tag_228:\n      0x00\n      swap2\n      dup3\n      mstore\n      0x20\n      swap1\n      swap2\n      keccak256\n      add\n      sload\n      sub(shl(0xa0, 0x01), 0x01)\n      and\n      swap1\n      pop\n      dup2\n      jump\t// out\n        /* \"contracts/Validator.sol\":1130:1780  function deposit() external payable nonReentrant whenNotPaused {... */\n    tag_107:\n        /* \"@openzeppelin/contracts/security/ReentrancyGuard.sol\":2261:2282  _nonReentrantBefore() */\n      tag_231\n        /* \"@openzeppelin/contracts/security/ReentrancyGuard.sol\":2261:2280  _nonReentrantBefore */\n      tag_155\n        /* \"@openzeppelin/contracts/security/ReentrancyGuard.sol\":2261:2282  _nonReentrantBefore() */\n      jump\t// in\n    tag_231:\n        /* \"@openzeppelin/contracts/security/Pausable.sol\":1239:1258  _requireNotPaused() */\n      tag_233\n        /* \"@openzeppelin/contracts/security/Pausable.sol\":1239:1256  _requireNotPaused */\n      tag_158\n        /* \"@openzeppelin/contracts/security/Pausable.sol\":1239:1258  _requireNotPaused() */\n      jump\t// in\n    tag_233:\n        /* \"contracts/Validator.sol\":1261:1271  msg.sender */\n      caller\n        /* \"contracts/Validator.sol\":1204:1235  address validatorAccountAddress */\n      0x00\n        /* \"contracts/Validator.sol\":1238:1272  validatorNodeToAccount[msg.sender] */\n      swap1\n      dup2\n      mstore\n        /* \"contracts/Validator.sol\":1238:1260  validatorNodeToAccount */\n      0x02\n        /* \"contracts/Validator.sol\":1238:1272  validatorNodeToAccount[msg.sender] */\n      0x20\n      mstore\n      0x40\n      swap1\n      keccak256\n      sload\n      sub(shl(0xa0, 0x01), 0x01)\n      and\n      dup1\n        /* \"contracts/Validator.sol\":1283:1358  require(validatorAccountAddress != address(0), \"Validator node not linked\") */\n      tag_235\n      jumpi\n      mload(0x40)\n      shl(0xe5, 0x461bcd)\n      dup2\n      mstore\n        /* \"#utility.yul\":5578:5580   */\n      0x20\n        /* \"contracts/Validator.sol\":1283:1358  require(validatorAccountAddress != address(0), \"Validator node not linked\") */\n      0x04\n      dup3\n      add\n        /* \"#utility.yul\":5560:5581   */\n      mstore\n        /* \"#utility.yul\":5617:5619   */\n      0x19\n        /* \"#utility.yul\":5597:5615   */\n      0x24\n      dup3\n      add\n        /* \"#utility.yul\":5590:5620   */\n      mstore\n        /* \"#utility.yul\":5656:5683   */\n      0x56616c696461746f72206e6f6465206e6f74206c696e6b656400000000000000\n        /* \"#utility.yul\":5636:5654   */\n      0x44\n      dup3\n      add\n        /* \"#utility.yul\":5629:5684   */\n      mstore\n        /* \"#utility.yul\":5701:5719   */\n      0x64\n      add\n        /* \"contracts/Validator.sol\":1283:1358  require(validatorAccountAddress != address(0), \"Validator node not linked\") */\n      tag_161\n        /* \"#utility.yul\":5376:5725   */\n      jump\n        /* \"contracts/Validator.sol\":1283:1358  require(validatorAccountAddress != address(0), \"Validator node not linked\") */\n    tag_235:\n      sub(shl(0xa0, 0x01), 0x01)\n        /* \"contracts/Validator.sol\":1369:1411  depositedBalances[validatorAccountAddress] */\n      dup2\n      and\n      0x00\n      swap1\n      dup2\n      mstore\n        /* \"contracts/Validator.sol\":1369:1386  depositedBalances */\n      0x03\n        /* \"contracts/Validator.sol\":1369:1411  depositedBalances[validatorAccountAddress] */\n      0x20\n      mstore\n      0x40\n      dup2\n      keccak256\n        /* \"contracts/Validator.sol\":1369:1424  depositedBalances[validatorAccountAddress] += msg.value */\n      dup1\n      sload\n        /* \"contracts/Validator.sol\":1415:1424  msg.value */\n      callvalue\n      swap3\n        /* \"contracts/Validator.sol\":1369:1411  depositedBalances[validatorAccountAddress] */\n      swap1\n        /* \"contracts/Validator.sol\":1369:1424  depositedBalances[validatorAccountAddress] += msg.value */\n      tag_238\n      swap1\n        /* \"contracts/Validator.sol\":1415:1424  msg.value */\n      dup5\n      swap1\n        /* \"contracts/Validator.sol\":1369:1424  depositedBalances[validatorAccountAddress] += msg.value */\n      tag_239\n      jump\t// in\n    tag_238:\n      swap1\n      swap2\n      sstore\n      pop\n      pop\n        /* \"contracts/Validator.sol\":1493:1503  msg.sender */\n      caller\n        /* \"contracts/Validator.sol\":1472:1504  totalDepositedAmount[msg.sender] */\n      0x00\n      swap1\n      dup2\n      mstore\n        /* \"contracts/Validator.sol\":1472:1492  totalDepositedAmount */\n      0x04\n        /* \"contracts/Validator.sol\":1472:1504  totalDepositedAmount[msg.sender] */\n      0x20\n      mstore\n      0x40\n      dup2\n      keccak256\n        /* \"contracts/Validator.sol\":1472:1517  totalDepositedAmount[msg.sender] += msg.value */\n      dup1\n      sload\n        /* \"contracts/Validator.sol\":1508:1517  msg.value */\n      callvalue\n      swap3\n        /* \"contracts/Validator.sol\":1472:1504  totalDepositedAmount[msg.sender] */\n      swap1\n        /* \"contracts/Validator.sol\":1472:1517  totalDepositedAmount[msg.sender] += msg.value */\n      tag_240\n      swap1\n        /* \"contracts/Validator.sol\":1508:1517  msg.value */\n      dup5\n      swap1\n        /* \"contracts/Validator.sol\":1472:1517  totalDepositedAmount[msg.sender] += msg.value */\n      tag_239\n      jump\t// in\n    tag_240:\n      swap1\n      swap2\n      sstore\n      pop\n        /* \"contracts/Validator.sol\":1671:1710  contains(allValidatorNodes, msg.sender) */\n      tag_241\n      swap1\n      pop\n        /* \"contracts/Validator.sol\":1680:1697  allValidatorNodes */\n      0x05\n        /* \"contracts/Validator.sol\":1699:1709  msg.sender */\n      caller\n        /* \"contracts/Validator.sol\":1671:1679  contains */\n      tag_150\n        /* \"contracts/Validator.sol\":1671:1710  contains(allValidatorNodes, msg.sender) */\n      jump\t// in\n    tag_241:\n        /* \"contracts/Validator.sol\":1666:1773  if (!contains(allValidatorNodes, msg.sender)) {... */\n      tag_242\n      jumpi\n        /* \"contracts/Validator.sol\":1727:1744  allValidatorNodes */\n      0x05\n        /* \"contracts/Validator.sol\":1727:1761  allValidatorNodes.push(msg.sender) */\n      dup1\n      sload\n      0x01\n      dup2\n      add\n      dup3\n      sstore\n      0x00\n      swap2\n      swap1\n      swap2\n      mstore\n      0x036b6384b5eca791c62761152d0c79bb0604c104a5fb6f4eb0703f3154bb3db0\n      add\n      dup1\n      sload\n      not(sub(shl(0xa0, 0x01), 0x01))\n      and\n        /* \"contracts/Validator.sol\":1750:1760  msg.sender */\n      caller\n        /* \"contracts/Validator.sol\":1727:1761  allValidatorNodes.push(msg.sender) */\n      or\n      swap1\n      sstore\n        /* \"contracts/Validator.sol\":1666:1773  if (!contains(allValidatorNodes, msg.sender)) {... */\n    tag_242:\n        /* \"contracts/Validator.sol\":1193:1780  {... */\n      pop\n        /* \"@openzeppelin/contracts/security/ReentrancyGuard.sol\":2303:2323  _nonReentrantAfter() */\n      tag_171\n        /* \"@openzeppelin/contracts/security/ReentrancyGuard.sol\":1716:1717  1 */\n      0x01\n        /* \"@openzeppelin/contracts/security/ReentrancyGuard.sol\":2809:2816  _status */\n      0x00\n        /* \"@openzeppelin/contracts/security/ReentrancyGuard.sol\":2809:2831  _status = _NOT_ENTERED */\n      sstore\n        /* \"@openzeppelin/contracts/security/ReentrancyGuard.sol\":2629:2838  function _nonReentrantAfter() private {... */\n      jump\n        /* \"@openzeppelin/contracts/access/Ownable.sol\":2543:2758  function transferOwnership(address newOwner) public virtual onlyOwner {... */\n    tag_111:\n        /* \"@openzeppelin/contracts/access/Ownable.sol\":1531:1544  _checkOwner() */\n      tag_246\n        /* \"@openzeppelin/contracts/access/Ownable.sol\":1531:1542  _checkOwner */\n      tag_114\n        /* \"@openzeppelin/contracts/access/Ownable.sol\":1531:1544  _checkOwner() */\n      jump\t// in\n    tag_246:\n      sub(shl(0xa0, 0x01), 0x01)\n        /* \"@openzeppelin/contracts/access/Ownable.sol\":2627:2649  newOwner == address(0) */\n      dup2\n      and\n        /* \"@openzeppelin/contracts/access/Ownable.sol\":2623:2714  if (newOwner == address(0)) {... */\n      tag_248\n      jumpi\n        /* \"@openzeppelin/contracts/access/Ownable.sol\":2672:2703  OwnableInvalidOwner(address(0)) */\n      mload(0x40)\n      shl(0xe0, 0x1e4fbdf7)\n      dup2\n      mstore\n        /* \"@openzeppelin/contracts/access/Ownable.sol\":2700:2701  0 */\n      0x00\n        /* \"@openzeppelin/contracts/access/Ownable.sol\":2672:2703  OwnableInvalidOwner(address(0)) */\n      0x04\n      dup3\n      add\n        /* \"#utility.yul\":794:845   */\n      mstore\n        /* \"#utility.yul\":767:785   */\n      0x24\n      add\n        /* \"@openzeppelin/contracts/access/Ownable.sol\":2672:2703  OwnableInvalidOwner(address(0)) */\n      tag_161\n        /* \"#utility.yul\":648:851   */\n      jump\n        /* \"@openzeppelin/contracts/access/Ownable.sol\":2623:2714  if (newOwner == address(0)) {... */\n    tag_248:\n        /* \"@openzeppelin/contracts/access/Ownable.sol\":2723:2751  _transferOwnership(newOwner) */\n      tag_250\n        /* \"@openzeppelin/contracts/access/Ownable.sol\":2742:2750  newOwner */\n      dup2\n        /* \"@openzeppelin/contracts/access/Ownable.sol\":2723:2741  _transferOwnership */\n      tag_218\n        /* \"@openzeppelin/contracts/access/Ownable.sol\":2723:2751  _transferOwnership(newOwner) */\n      jump\t// in\n    tag_250:\n        /* \"@openzeppelin/contracts/access/Ownable.sol\":2543:2758  function transferOwnership(address newOwner) public virtual onlyOwner {... */\n      pop\n      jump\t// out\n        /* \"@openzeppelin/contracts/access/Ownable.sol\":1796:1958  function _checkOwner() internal view virtual {... */\n    tag_114:\n        /* \"@openzeppelin/contracts/access/Ownable.sol\":1710:1716  _owner */\n      and(sub(shl(0xa0, 0x01), 0x01), sload(0x01))\n        /* \"@openzeppelin/contracts/utils/Context.sol\":735:745  msg.sender */\n      caller\n        /* \"@openzeppelin/contracts/access/Ownable.sol\":1855:1878  owner() != _msgSender() */\n      eq\n        /* \"@openzeppelin/contracts/access/Ownable.sol\":1851:1952  if (owner() != _msgSender()) {... */\n      tag_171\n      jumpi\n        /* \"@openzeppelin/contracts/access/Ownable.sol\":1901:1941  OwnableUnauthorizedAccount(_msgSender()) */\n      mload(0x40)\n      shl(0xe0, 0x118cdaa7)\n      dup2\n      mstore\n        /* \"@openzeppelin/contracts/utils/Context.sol\":735:745  msg.sender */\n      caller\n        /* \"@openzeppelin/contracts/access/Ownable.sol\":1901:1941  OwnableUnauthorizedAccount(_msgSender()) */\n      0x04\n      dup3\n      add\n        /* \"#utility.yul\":794:845   */\n      mstore\n        /* \"#utility.yul\":767:785   */\n      0x24\n      add\n        /* \"@openzeppelin/contracts/access/Ownable.sol\":1901:1941  OwnableUnauthorizedAccount(_msgSender()) */\n      tag_161\n        /* \"#utility.yul\":648:851   */\n      jump\n        /* \"contracts/Validator.sol\":6978:7248  function contains(address[] storage array, address element) internal view returns (bool) {... */\n    tag_150:\n        /* \"contracts/Validator.sol\":7061:7065  bool */\n      0x00\n      dup1\n        /* \"contracts/Validator.sol\":7078:7218  for (uint256 i = 0; i < array.length; i++) {... */\n    tag_259:\n        /* \"contracts/Validator.sol\":7102:7114  array.length */\n      dup4\n      sload\n        /* \"contracts/Validator.sol\":7098:7114  i < array.length */\n      dup2\n      lt\n        /* \"contracts/Validator.sol\":7078:7218  for (uint256 i = 0; i < array.length; i++) {... */\n      iszero\n      tag_260\n      jumpi\n        /* \"contracts/Validator.sol\":7152:7159  element */\n      dup3\n      sub(shl(0xa0, 0x01), 0x01)\n        /* \"contracts/Validator.sol\":7140:7159  array[i] == element */\n      and\n        /* \"contracts/Validator.sol\":7140:7145  array */\n      dup5\n        /* \"contracts/Validator.sol\":7146:7147  i */\n      dup3\n        /* \"contracts/Validator.sol\":7140:7148  array[i] */\n      dup2\n      sload\n      dup2\n      lt\n      tag_263\n      jumpi\n      tag_263\n      tag_132\n      jump\t// in\n    tag_263:\n      0x00\n      swap2\n      dup3\n      mstore\n      0x20\n      swap1\n      swap2\n      keccak256\n      add\n      sload\n      sub(shl(0xa0, 0x01), 0x01)\n      and\n        /* \"contracts/Validator.sol\":7140:7159  array[i] == element */\n      sub\n        /* \"contracts/Validator.sol\":7136:7207  if (array[i] == element) {... */\n      tag_265\n      jumpi\n        /* \"contracts/Validator.sol\":7187:7191  true */\n      0x01\n        /* \"contracts/Validator.sol\":7180:7191  return true */\n      swap2\n      pop\n      pop\n      jump(tag_258)\n        /* \"contracts/Validator.sol\":7136:7207  if (array[i] == element) {... */\n    tag_265:\n        /* \"contracts/Validator.sol\":7116:7119  i++ */\n      0x01\n      add\n        /* \"contracts/Validator.sol\":7078:7218  for (uint256 i = 0; i < array.length; i++) {... */\n      jump(tag_259)\n    tag_260:\n      pop\n        /* \"contracts/Validator.sol\":7235:7240  false */\n      0x00\n        /* \"contracts/Validator.sol\":7228:7240  return false */\n      swap1\n      pop\n        /* \"contracts/Validator.sol\":6978:7248  function contains(address[] storage array, address element) internal view returns (bool) {... */\n    tag_258:\n      swap3\n      swap2\n      pop\n      pop\n      jump\t// out\n        /* \"@openzeppelin/contracts/security/ReentrancyGuard.sol\":2336:2623  function _nonReentrantBefore() private {... */\n    tag_155:\n        /* \"@openzeppelin/contracts/security/ReentrancyGuard.sol\":1759:1760  2 */\n      0x02\n        /* \"@openzeppelin/contracts/security/ReentrancyGuard.sol\":2468:2475  _status */\n      sload(0x00)\n        /* \"@openzeppelin/contracts/security/ReentrancyGuard.sol\":2468:2487  _status != _ENTERED */\n      sub\n        /* \"@openzeppelin/contracts/security/ReentrancyGuard.sol\":2460:2523  require(_status != _ENTERED, \"ReentrancyGuard: reentrant call\") */\n      tag_267\n      jumpi\n      mload(0x40)\n      shl(0xe5, 0x461bcd)\n      dup2\n      mstore\n        /* \"#utility.yul\":6062:6064   */\n      0x20\n        /* \"@openzeppelin/contracts/security/ReentrancyGuard.sol\":2460:2523  require(_status != _ENTERED, \"ReentrancyGuard: reentrant call\") */\n      0x04\n      dup3\n      add\n        /* \"#utility.yul\":6044:6065   */\n      mstore\n        /* \"#utility.yul\":6101:6103   */\n      0x1f\n        /* \"#utility.yul\":6081:6099   */\n      0x24\n      dup3\n      add\n        /* \"#utility.yul\":6074:6104   */\n      mstore\n        /* \"#utility.yul\":6140:6173   */\n      0x5265656e7472616e637947756172643a207265656e7472616e742063616c6c00\n        /* \"#utility.yul\":6120:6138   */\n      0x44\n      dup3\n      add\n        /* \"#utility.yul\":6113:6174   */\n      mstore\n        /* \"#utility.yul\":6191:6209   */\n      0x64\n      add\n        /* \"@openzeppelin/contracts/security/ReentrancyGuard.sol\":2460:2523  require(_status != _ENTERED, \"ReentrancyGuard: reentrant call\") */\n      tag_161\n        /* \"#utility.yul\":5860:6215   */\n      jump\n        /* \"@openzeppelin/contracts/security/ReentrancyGuard.sol\":2460:2523  require(_status != _ENTERED, \"ReentrancyGuard: reentrant call\") */\n    tag_267:\n        /* \"@openzeppelin/contracts/security/ReentrancyGuard.sol\":1759:1760  2 */\n      0x02\n        /* \"@openzeppelin/contracts/security/ReentrancyGuard.sol\":2598:2605  _status */\n      0x00\n        /* \"@openzeppelin/contracts/security/ReentrancyGuard.sol\":2598:2616  _status = _ENTERED */\n      sstore\n        /* \"@openzeppelin/contracts/security/ReentrancyGuard.sol\":2336:2623  function _nonReentrantBefore() private {... */\n      jump\t// out\n        /* \"@openzeppelin/contracts/security/Pausable.sol\":1767:1873  function _requireNotPaused() internal view virtual {... */\n    tag_158:\n        /* \"@openzeppelin/contracts/security/Pausable.sol\":1685:1692  _paused */\n      sload(0x01)\n      shl(0xa0, 0x01)\n      swap1\n      div\n      0xff\n      and\n        /* \"@openzeppelin/contracts/security/Pausable.sol\":1836:1845  !paused() */\n      iszero\n        /* \"@openzeppelin/contracts/security/Pausable.sol\":1828:1866  require(!paused(), \"Pausable: paused\") */\n      tag_171\n      jumpi\n      mload(0x40)\n      shl(0xe5, 0x461bcd)\n      dup2\n      mstore\n        /* \"#utility.yul\":6422:6424   */\n      0x20\n        /* \"@openzeppelin/contracts/security/Pausable.sol\":1828:1866  require(!paused(), \"Pausable: paused\") */\n      0x04\n      dup3\n      add\n        /* \"#utility.yul\":6404:6425   */\n      mstore\n        /* \"#utility.yul\":6461:6463   */\n      0x10\n        /* \"#utility.yul\":6441:6459   */\n      0x24\n      dup3\n      add\n        /* \"#utility.yul\":6434:6464   */\n      mstore\n      shl(0x82, 0x14185d5cd8589b194e881c185d5cd959)\n        /* \"#utility.yul\":6480:6498   */\n      0x44\n      dup3\n      add\n        /* \"#utility.yul\":6473:6519   */\n      mstore\n        /* \"#utility.yul\":6536:6554   */\n      0x64\n      add\n        /* \"@openzeppelin/contracts/security/Pausable.sol\":1828:1866  require(!paused(), \"Pausable: paused\") */\n      tag_161\n        /* \"#utility.yul\":6220:6560   */\n      jump\n        /* \"@openzeppelin/contracts/security/Pausable.sol\":2186:2301  function _pause() internal virtual whenNotPaused {... */\n    tag_178:\n        /* \"@openzeppelin/contracts/security/Pausable.sol\":1239:1258  _requireNotPaused() */\n      tag_277\n        /* \"@openzeppelin/contracts/security/Pausable.sol\":1239:1256  _requireNotPaused */\n      tag_158\n        /* \"@openzeppelin/contracts/security/Pausable.sol\":1239:1258  _requireNotPaused() */\n      jump\t// in\n    tag_277:\n        /* \"@openzeppelin/contracts/security/Pausable.sol\":2255:2259  true */\n      0x01\n        /* \"@openzeppelin/contracts/security/Pausable.sol\":2245:2259  _paused = true */\n      dup1\n      sload\n      not(shl(0xa0, 0xff))\n      and\n      shl(0xa0, 0x01)\n      or\n      swap1\n      sstore\n        /* \"@openzeppelin/contracts/security/Pausable.sol\":2274:2294  Paused(_msgSender()) */\n      0x62e78cea01bee320cd4e420270b5ea74000d11b0c9f74754ebdbfc544b05a258\n        /* \"@openzeppelin/contracts/security/Pausable.sol\":2281:2293  _msgSender() */\n      tag_279\n        /* \"@openzeppelin/contracts/utils/Context.sol\":735:745  msg.sender */\n      caller\n      swap1\n        /* \"@openzeppelin/contracts/utils/Context.sol\":656:752  function _msgSender() internal view virtual returns (address) {... */\n      jump\n        /* \"@openzeppelin/contracts/security/Pausable.sol\":2281:2293  _msgSender() */\n    tag_279:\n        /* \"@openzeppelin/contracts/security/Pausable.sol\":2274:2294  Paused(_msgSender()) */\n      mload(0x40)\n      sub(shl(0xa0, 0x01), 0x01)\n        /* \"#utility.yul\":812:844   */\n      swap1\n      swap2\n      and\n        /* \"#utility.yul\":794:845   */\n      dup2\n      mstore\n        /* \"#utility.yul\":782:784   */\n      0x20\n        /* \"#utility.yul\":767:785   */\n      add\n        /* \"@openzeppelin/contracts/security/Pausable.sol\":2274:2294  Paused(_msgSender()) */\n      mload(0x40)\n      dup1\n      swap2\n      sub\n      swap1\n      log1\n        /* \"@openzeppelin/contracts/security/Pausable.sol\":2186:2301  function _pause() internal virtual whenNotPaused {... */\n      jump\t// out\n        /* \"@openzeppelin/contracts/access/Ownable.sol\":2912:3099  function _transferOwnership(address newOwner) internal virtual {... */\n    tag_218:\n        /* \"@openzeppelin/contracts/access/Ownable.sol\":3004:3010  _owner */\n      0x01\n      dup1\n      sload\n      sub(shl(0xa0, 0x01), 0x01)\n        /* \"@openzeppelin/contracts/access/Ownable.sol\":3020:3037  _owner = newOwner */\n      dup4\n      dup2\n      and\n      not(sub(shl(0xa0, 0x01), 0x01))\n      dup4\n      and\n      dup2\n      or\n      swap1\n      swap4\n      sstore\n        /* \"@openzeppelin/contracts/access/Ownable.sol\":3052:3092  OwnershipTransferred(oldOwner, newOwner) */\n      mload(0x40)\n        /* \"@openzeppelin/contracts/access/Ownable.sol\":3004:3010  _owner */\n      swap2\n      and\n      swap2\n        /* \"@openzeppelin/contracts/access/Ownable.sol\":3020:3037  _owner = newOwner */\n      swap1\n        /* \"@openzeppelin/contracts/access/Ownable.sol\":3004:3010  _owner */\n      dup3\n      swap1\n        /* \"@openzeppelin/contracts/access/Ownable.sol\":3052:3092  OwnershipTransferred(oldOwner, newOwner) */\n      0x8be0079c531659141344cd1fd0a4f28419497f9722a3daafe3b4186f6b6457e0\n      swap1\n        /* \"@openzeppelin/contracts/access/Ownable.sol\":2985:3001  address oldOwner */\n      0x00\n      swap1\n        /* \"@openzeppelin/contracts/access/Ownable.sol\":3052:3092  OwnershipTransferred(oldOwner, newOwner) */\n      log3\n        /* \"@openzeppelin/contracts/access/Ownable.sol\":2975:3099  {... */\n      pop\n        /* \"@openzeppelin/contracts/access/Ownable.sol\":2912:3099  function _transferOwnership(address newOwner) internal virtual {... */\n      pop\n      jump\t// out\n        /* \"@openzeppelin/contracts/security/Pausable.sol\":2433:2550  function _unpause() internal virtual whenPaused {... */\n    tag_227:\n        /* \"@openzeppelin/contracts/security/Pausable.sol\":1486:1502  _requirePaused() */\n      tag_283\n        /* \"@openzeppelin/contracts/security/Pausable.sol\":1486:1500  _requirePaused */\n      tag_284\n        /* \"@openzeppelin/contracts/security/Pausable.sol\":1486:1502  _requirePaused() */\n      jump\t// in\n    tag_283:\n        /* \"@openzeppelin/contracts/security/Pausable.sol\":2491:2498  _paused */\n      0x01\n        /* \"@openzeppelin/contracts/security/Pausable.sol\":2491:2506  _paused = false */\n      dup1\n      sload\n      not(shl(0xa0, 0xff))\n      and\n      swap1\n      sstore\n        /* \"@openzeppelin/contracts/security/Pausable.sol\":2521:2543  Unpaused(_msgSender()) */\n      0x5db9ee0a495bf2e6ff9c91a7834c1ba4fdd244a5e8aa4e537bd38aeae4b073aa\n        /* \"@openzeppelin/contracts/utils/Context.sol\":735:745  msg.sender */\n      caller\n        /* \"@openzeppelin/contracts/security/Pausable.sol\":2530:2542  _msgSender() */\n      tag_279\n        /* \"@openzeppelin/contracts/utils/Context.sol\":656:752  function _msgSender() internal view virtual returns (address) {... */\n      jump\n        /* \"@openzeppelin/contracts/security/Pausable.sol\":1945:2051  function _requirePaused() internal view virtual {... */\n    tag_284:\n        /* \"@openzeppelin/contracts/security/Pausable.sol\":1685:1692  _paused */\n      sload(0x01)\n      shl(0xa0, 0x01)\n      swap1\n      div\n      0xff\n      and\n        /* \"@openzeppelin/contracts/security/Pausable.sol\":2003:2044  require(paused(), \"Pausable: not paused\") */\n      tag_171\n      jumpi\n      mload(0x40)\n      shl(0xe5, 0x461bcd)\n      dup2\n      mstore\n        /* \"#utility.yul\":6767:6769   */\n      0x20\n        /* \"@openzeppelin/contracts/security/Pausable.sol\":2003:2044  require(paused(), \"Pausable: not paused\") */\n      0x04\n      dup3\n      add\n        /* \"#utility.yul\":6749:6770   */\n      mstore\n        /* \"#utility.yul\":6806:6808   */\n      0x14\n        /* \"#utility.yul\":6786:6804   */\n      0x24\n      dup3\n      add\n        /* \"#utility.yul\":6779:6809   */\n      mstore\n      shl(0x62, 0x14185d5cd8589b194e881b9bdd081c185d5cd959)\n        /* \"#utility.yul\":6825:6843   */\n      0x44\n      dup3\n      add\n        /* \"#utility.yul\":6818:6868   */\n      mstore\n        /* \"#utility.yul\":6885:6903   */\n      0x64\n      add\n        /* \"@openzeppelin/contracts/security/Pausable.sol\":2003:2044  require(paused(), \"Pausable: not paused\") */\n      tag_161\n        /* \"#utility.yul\":6565:6909   */\n      jump\n        /* \"#utility.yul\":14:187   */\n    tag_294:\n        /* \"#utility.yul\":82:102   */\n      dup1\n      calldataload\n      sub(shl(0xa0, 0x01), 0x01)\n        /* \"#utility.yul\":131:162   */\n      dup2\n      and\n        /* \"#utility.yul\":121:163   */\n      dup2\n      eq\n        /* \"#utility.yul\":111:181   */\n      tag_300\n      jumpi\n        /* \"#utility.yul\":177:178   */\n      0x00\n        /* \"#utility.yul\":174:175   */\n      dup1\n        /* \"#utility.yul\":167:179   */\n      revert\n        /* \"#utility.yul\":111:181   */\n    tag_300:\n        /* \"#utility.yul\":14:187   */\n      swap2\n      swap1\n      pop\n      jump\t// out\n        /* \"#utility.yul\":192:378   */\n    tag_28:\n        /* \"#utility.yul\":251:257   */\n      0x00\n        /* \"#utility.yul\":304:306   */\n      0x20\n        /* \"#utility.yul\":292:301   */\n      dup3\n        /* \"#utility.yul\":283:290   */\n      dup5\n        /* \"#utility.yul\":279:302   */\n      sub\n        /* \"#utility.yul\":275:307   */\n      slt\n        /* \"#utility.yul\":272:324   */\n      iszero\n      tag_302\n      jumpi\n        /* \"#utility.yul\":320:321   */\n      0x00\n        /* \"#utility.yul\":317:318   */\n      dup1\n        /* \"#utility.yul\":310:322   */\n      revert\n        /* \"#utility.yul\":272:324   */\n    tag_302:\n        /* \"#utility.yul\":343:372   */\n      tag_303\n        /* \"#utility.yul\":362:371   */\n      dup3\n        /* \"#utility.yul\":343:372   */\n      tag_294\n      jump\t// in\n    tag_303:\n        /* \"#utility.yul\":333:372   */\n      swap4\n        /* \"#utility.yul\":192:378   */\n      swap3\n      pop\n      pop\n      pop\n      jump\t// out\n        /* \"#utility.yul\":383:643   */\n    tag_33:\n        /* \"#utility.yul\":451:457   */\n      0x00\n        /* \"#utility.yul\":459:465   */\n      dup1\n        /* \"#utility.yul\":512:514   */\n      0x40\n        /* \"#utility.yul\":500:509   */\n      dup4\n        /* \"#utility.yul\":491:498   */\n      dup6\n        /* \"#utility.yul\":487:510   */\n      sub\n        /* \"#utility.yul\":483:515   */\n      slt\n        /* \"#utility.yul\":480:532   */\n      iszero\n      tag_305\n      jumpi\n        /* \"#utility.yul\":528:529   */\n      0x00\n        /* \"#utility.yul\":525:526   */\n      dup1\n        /* \"#utility.yul\":518:530   */\n      revert\n        /* \"#utility.yul\":480:532   */\n    tag_305:\n        /* \"#utility.yul\":551:580   */\n      tag_306\n        /* \"#utility.yul\":570:579   */\n      dup4\n        /* \"#utility.yul\":551:580   */\n      tag_294\n      jump\t// in\n    tag_306:\n        /* \"#utility.yul\":541:580   */\n      swap2\n      pop\n        /* \"#utility.yul\":599:637   */\n      tag_307\n        /* \"#utility.yul\":633:635   */\n      0x20\n        /* \"#utility.yul\":622:631   */\n      dup5\n        /* \"#utility.yul\":618:636   */\n      add\n        /* \"#utility.yul\":599:637   */\n      tag_294\n      jump\t// in\n    tag_307:\n        /* \"#utility.yul\":589:637   */\n      swap1\n      pop\n        /* \"#utility.yul\":383:643   */\n      swap3\n      pop\n      swap3\n      swap1\n      pop\n      jump\t// out\n        /* \"#utility.yul\":1398:1578   */\n    tag_60:\n        /* \"#utility.yul\":1457:1463   */\n      0x00\n        /* \"#utility.yul\":1510:1512   */\n      0x20\n        /* \"#utility.yul\":1498:1507   */\n      dup3\n        /* \"#utility.yul\":1489:1496   */\n      dup5\n        /* \"#utility.yul\":1485:1508   */\n      sub\n        /* \"#utility.yul\":1481:1513   */\n      slt\n        /* \"#utility.yul\":1478:1530   */\n      iszero\n      tag_312\n      jumpi\n        /* \"#utility.yul\":1526:1527   */\n      0x00\n        /* \"#utility.yul\":1523:1524   */\n      dup1\n        /* \"#utility.yul\":1516:1528   */\n      revert\n        /* \"#utility.yul\":1478:1530   */\n    tag_312:\n      pop\n        /* \"#utility.yul\":1549:1572   */\n      calldataload\n      swap2\n        /* \"#utility.yul\":1398:1578   */\n      swap1\n      pop\n      jump\t// out\n        /* \"#utility.yul\":1583:2048   */\n    tag_295:\n        /* \"#utility.yul\":1636:1639   */\n      0x00\n        /* \"#utility.yul\":1674:1679   */\n      dup2\n        /* \"#utility.yul\":1668:1680   */\n      mload\n        /* \"#utility.yul\":1701:1707   */\n      dup1\n        /* \"#utility.yul\":1696:1699   */\n      dup5\n        /* \"#utility.yul\":1689:1708   */\n      mstore\n        /* \"#utility.yul\":1727:1731   */\n      0x20\n        /* \"#utility.yul\":1756:1760   */\n      dup1\n        /* \"#utility.yul\":1751:1754   */\n      dup6\n        /* \"#utility.yul\":1747:1761   */\n      add\n        /* \"#utility.yul\":1740:1761   */\n      swap5\n      pop\n        /* \"#utility.yul\":1795:1799   */\n      0x20\n        /* \"#utility.yul\":1788:1793   */\n      dup5\n        /* \"#utility.yul\":1784:1800   */\n      add\n        /* \"#utility.yul\":1818:1819   */\n      0x00\n        /* \"#utility.yul\":1828:2023   */\n    tag_314:\n        /* \"#utility.yul\":1842:1848   */\n      dup4\n        /* \"#utility.yul\":1839:1840   */\n      dup2\n        /* \"#utility.yul\":1836:1849   */\n      lt\n        /* \"#utility.yul\":1828:2023   */\n      iszero\n      tag_316\n      jumpi\n        /* \"#utility.yul\":1907:1920   */\n      dup2\n      mload\n      sub(shl(0xa0, 0x01), 0x01)\n        /* \"#utility.yul\":1903:1942   */\n      and\n        /* \"#utility.yul\":1891:1943   */\n      dup8\n      mstore\n        /* \"#utility.yul\":1963:1975   */\n      swap6\n      dup3\n      add\n      swap6\n        /* \"#utility.yul\":1998:2013   */\n      swap1\n      dup3\n      add\n      swap1\n        /* \"#utility.yul\":1939:1940   */\n      0x01\n        /* \"#utility.yul\":1857:1866   */\n      add\n        /* \"#utility.yul\":1828:2023   */\n      jump(tag_314)\n    tag_316:\n      pop\n        /* \"#utility.yul\":2039:2042   */\n      swap5\n      swap6\n        /* \"#utility.yul\":1583:2048   */\n      swap5\n      pop\n      pop\n      pop\n      pop\n      pop\n      jump\t// out\n        /* \"#utility.yul\":2053:2492   */\n    tag_296:\n        /* \"#utility.yul\":2106:2109   */\n      0x00\n        /* \"#utility.yul\":2144:2149   */\n      dup2\n        /* \"#utility.yul\":2138:2150   */\n      mload\n        /* \"#utility.yul\":2171:2177   */\n      dup1\n        /* \"#utility.yul\":2166:2169   */\n      dup5\n        /* \"#utility.yul\":2159:2178   */\n      mstore\n        /* \"#utility.yul\":2197:2201   */\n      0x20\n        /* \"#utility.yul\":2226:2230   */\n      dup1\n        /* \"#utility.yul\":2221:2224   */\n      dup6\n        /* \"#utility.yul\":2217:2231   */\n      add\n        /* \"#utility.yul\":2210:2231   */\n      swap5\n      pop\n        /* \"#utility.yul\":2265:2269   */\n      0x20\n        /* \"#utility.yul\":2258:2263   */\n      dup5\n        /* \"#utility.yul\":2254:2270   */\n      add\n        /* \"#utility.yul\":2288:2289   */\n      0x00\n        /* \"#utility.yul\":2298:2467   */\n    tag_318:\n        /* \"#utility.yul\":2312:2318   */\n      dup4\n        /* \"#utility.yul\":2309:2310   */\n      dup2\n        /* \"#utility.yul\":2306:2319   */\n      lt\n        /* \"#utility.yul\":2298:2467   */\n      iszero\n      tag_316\n      jumpi\n        /* \"#utility.yul\":2373:2386   */\n      dup2\n      mload\n        /* \"#utility.yul\":2361:2387   */\n      dup8\n      mstore\n        /* \"#utility.yul\":2407:2419   */\n      swap6\n      dup3\n      add\n      swap6\n        /* \"#utility.yul\":2442:2457   */\n      swap1\n      dup3\n      add\n      swap1\n        /* \"#utility.yul\":2334:2335   */\n      0x01\n        /* \"#utility.yul\":2327:2336   */\n      add\n        /* \"#utility.yul\":2298:2467   */\n      jump(tag_318)\n        /* \"#utility.yul\":2497:3372   */\n    tag_66:\n        /* \"#utility.yul\":2910:2913   */\n      0x80\n        /* \"#utility.yul\":2899:2908   */\n      dup2\n        /* \"#utility.yul\":2892:2914   */\n      mstore\n        /* \"#utility.yul\":2873:2877   */\n      0x00\n        /* \"#utility.yul\":2937:2994   */\n      tag_322\n        /* \"#utility.yul\":2989:2992   */\n      0x80\n        /* \"#utility.yul\":2978:2987   */\n      dup4\n        /* \"#utility.yul\":2974:2993   */\n      add\n        /* \"#utility.yul\":2966:2972   */\n      dup8\n        /* \"#utility.yul\":2937:2994   */\n      tag_295\n      jump\t// in\n    tag_322:\n        /* \"#utility.yul\":3042:3051   */\n      dup3\n        /* \"#utility.yul\":3034:3040   */\n      dup2\n        /* \"#utility.yul\":3030:3052   */\n      sub\n        /* \"#utility.yul\":3025:3027   */\n      0x20\n        /* \"#utility.yul\":3014:3023   */\n      dup5\n        /* \"#utility.yul\":3010:3028   */\n      add\n        /* \"#utility.yul\":3003:3053   */\n      mstore\n        /* \"#utility.yul\":3076:3120   */\n      tag_323\n        /* \"#utility.yul\":3113:3119   */\n      dup2\n        /* \"#utility.yul\":3105:3111   */\n      dup8\n        /* \"#utility.yul\":3076:3120   */\n      tag_295\n      jump\t// in\n    tag_323:\n        /* \"#utility.yul\":3062:3120   */\n      swap1\n      pop\n        /* \"#utility.yul\":3168:3177   */\n      dup3\n        /* \"#utility.yul\":3160:3166   */\n      dup2\n        /* \"#utility.yul\":3156:3178   */\n      sub\n        /* \"#utility.yul\":3151:3153   */\n      0x40\n        /* \"#utility.yul\":3140:3149   */\n      dup5\n        /* \"#utility.yul\":3136:3154   */\n      add\n        /* \"#utility.yul\":3129:3179   */\n      mstore\n        /* \"#utility.yul\":3202:3246   */\n      tag_324\n        /* \"#utility.yul\":3239:3245   */\n      dup2\n        /* \"#utility.yul\":3231:3237   */\n      dup7\n        /* \"#utility.yul\":3202:3246   */\n      tag_296\n      jump\t// in\n    tag_324:\n        /* \"#utility.yul\":3188:3246   */\n      swap1\n      pop\n        /* \"#utility.yul\":3294:3303   */\n      dup3\n        /* \"#utility.yul\":3286:3292   */\n      dup2\n        /* \"#utility.yul\":3282:3304   */\n      sub\n        /* \"#utility.yul\":3277:3279   */\n      0x60\n        /* \"#utility.yul\":3266:3275   */\n      dup5\n        /* \"#utility.yul\":3262:3280   */\n      add\n        /* \"#utility.yul\":3255:3305   */\n      mstore\n        /* \"#utility.yul\":3322:3366   */\n      tag_325\n        /* \"#utility.yul\":3359:3365   */\n      dup2\n        /* \"#utility.yul\":3351:3357   */\n      dup6\n        /* \"#utility.yul\":3322:3366   */\n      tag_296\n      jump\t// in\n    tag_325:\n        /* \"#utility.yul\":3314:3366   */\n      swap8\n        /* \"#utility.yul\":2497:3372   */\n      swap7\n      pop\n      pop\n      pop\n      pop\n      pop\n      pop\n      pop\n      jump\t// out\n        /* \"#utility.yul\":3559:3686   */\n    tag_297:\n        /* \"#utility.yul\":3620:3630   */\n      0x4e487b71\n        /* \"#utility.yul\":3615:3618   */\n      0xe0\n        /* \"#utility.yul\":3611:3631   */\n      shl\n        /* \"#utility.yul\":3608:3609   */\n      0x00\n        /* \"#utility.yul\":3601:3632   */\n      mstore\n        /* \"#utility.yul\":3651:3655   */\n      0x11\n        /* \"#utility.yul\":3648:3649   */\n      0x04\n        /* \"#utility.yul\":3641:3656   */\n      mstore\n        /* \"#utility.yul\":3675:3679   */\n      0x24\n        /* \"#utility.yul\":3672:3673   */\n      0x00\n        /* \"#utility.yul\":3665:3680   */\n      revert\n        /* \"#utility.yul\":3691:3859   */\n    tag_117:\n        /* \"#utility.yul\":3764:3773   */\n      dup1\n      dup3\n      mul\n        /* \"#utility.yul\":3795:3804   */\n      dup2\n      iszero\n        /* \"#utility.yul\":3812:3827   */\n      dup3\n      dup3\n      div\n        /* \"#utility.yul\":3806:3828   */\n      dup5\n      eq\n        /* \"#utility.yul\":3792:3829   */\n      or\n        /* \"#utility.yul\":3782:3853   */\n      tag_258\n      jumpi\n        /* \"#utility.yul\":3833:3851   */\n      tag_258\n      tag_297\n      jump\t// in\n        /* \"#utility.yul\":3864:4081   */\n    tag_119:\n        /* \"#utility.yul\":3904:3905   */\n      0x00\n        /* \"#utility.yul\":3930:3931   */\n      dup3\n        /* \"#utility.yul\":3920:4052   */\n      tag_332\n      jumpi\n        /* \"#utility.yul\":3974:3984   */\n      0x4e487b71\n        /* \"#utility.yul\":3969:3972   */\n      0xe0\n        /* \"#utility.yul\":3965:3985   */\n      shl\n        /* \"#utility.yul\":3962:3963   */\n      0x00\n        /* \"#utility.yul\":3955:3986   */\n      mstore\n        /* \"#utility.yul\":4009:4013   */\n      0x12\n        /* \"#utility.yul\":4006:4007   */\n      0x04\n        /* \"#utility.yul\":3999:4014   */\n      mstore\n        /* \"#utility.yul\":4037:4041   */\n      0x24\n        /* \"#utility.yul\":4034:4035   */\n      0x00\n        /* \"#utility.yul\":4027:4042   */\n      revert\n        /* \"#utility.yul\":3920:4052   */\n    tag_332:\n      pop\n        /* \"#utility.yul\":4066:4075   */\n      div\n      swap1\n        /* \"#utility.yul\":3864:4081   */\n      jump\t// out\n        /* \"#utility.yul\":4086:4214   */\n    tag_121:\n        /* \"#utility.yul\":4153:4162   */\n      dup2\n      dup2\n      sub\n        /* \"#utility.yul\":4174:4185   */\n      dup2\n      dup2\n      gt\n        /* \"#utility.yul\":4171:4208   */\n      iszero\n      tag_258\n      jumpi\n        /* \"#utility.yul\":4188:4206   */\n      tag_258\n      tag_297\n      jump\t// in\n        /* \"#utility.yul\":4219:4346   */\n    tag_132:\n        /* \"#utility.yul\":4280:4290   */\n      0x4e487b71\n        /* \"#utility.yul\":4275:4278   */\n      0xe0\n        /* \"#utility.yul\":4271:4291   */\n      shl\n        /* \"#utility.yul\":4268:4269   */\n      0x00\n        /* \"#utility.yul\":4261:4292   */\n      mstore\n        /* \"#utility.yul\":4311:4315   */\n      0x32\n        /* \"#utility.yul\":4308:4309   */\n      0x04\n        /* \"#utility.yul\":4301:4316   */\n      mstore\n        /* \"#utility.yul\":4335:4339   */\n      0x24\n        /* \"#utility.yul\":4332:4333   */\n      0x00\n        /* \"#utility.yul\":4325:4340   */\n      revert\n        /* \"#utility.yul\":4351:4478   */\n    tag_144:\n        /* \"#utility.yul\":4412:4422   */\n      0x4e487b71\n        /* \"#utility.yul\":4407:4410   */\n      0xe0\n        /* \"#utility.yul\":4403:4423   */\n      shl\n        /* \"#utility.yul\":4400:4401   */\n      0x00\n        /* \"#utility.yul\":4393:4424   */\n      mstore\n        /* \"#utility.yul\":4443:4447   */\n      0x31\n        /* \"#utility.yul\":4440:4441   */\n      0x04\n        /* \"#utility.yul\":4433:4448   */\n      mstore\n        /* \"#utility.yul\":4467:4471   */\n      0x24\n        /* \"#utility.yul\":4464:4465   */\n      0x00\n        /* \"#utility.yul\":4457:4472   */\n      revert\n        /* \"#utility.yul\":5244:5371   */\n    tag_189:\n        /* \"#utility.yul\":5305:5315   */\n      0x4e487b71\n        /* \"#utility.yul\":5300:5303   */\n      0xe0\n        /* \"#utility.yul\":5296:5316   */\n      shl\n        /* \"#utility.yul\":5293:5294   */\n      0x00\n        /* \"#utility.yul\":5286:5317   */\n      mstore\n        /* \"#utility.yul\":5336:5340   */\n      0x41\n        /* \"#utility.yul\":5333:5334   */\n      0x04\n        /* \"#utility.yul\":5326:5341   */\n      mstore\n        /* \"#utility.yul\":5360:5364   */\n      0x24\n        /* \"#utility.yul\":5357:5358   */\n      0x00\n        /* \"#utility.yul\":5350:5365   */\n      revert\n        /* \"#utility.yul\":5730:5855   */\n    tag_239:\n        /* \"#utility.yul\":5795:5804   */\n      dup1\n      dup3\n      add\n        /* \"#utility.yul\":5816:5826   */\n      dup1\n      dup3\n      gt\n        /* \"#utility.yul\":5813:5849   */\n      iszero\n      tag_258\n      jumpi\n        /* \"#utility.yul\":5829:5847   */\n      tag_258\n      tag_297\n      jump\t// in\n\n    auxdata: 0xa2646970667358221220c368c3755268e9cb268f619fd7e79aee0ebf446b422eda25b3b07994fcabce9664736f6c63430008160033\n}\n",
				"bytecode": {
					"linkReferences": {},
					"object": "6080604052600a600655600780546001600160a01b031916905534801561002557600080fd5b506001600055338061005157604051631e4fbdf760e01b81526000600482015260240160405180910390fd5b61005a8161006d565b506001805460ff60a01b191690556100bf565b600180546001600160a01b038381166001600160a01b0319831681179093556040519116919082907f8be0079c531659141344cd1fd0a4f28419497f9722a3daafe3b4186f6b6457e090600090a35050565b61116c806100ce6000396000f3fe60806040526004361061011f5760003560e01c806378922c8f116100a0578063b33712c511610064578063b33712c514610384578063b5e1302e14610399578063bb0a43bc146103cf578063d0e30db0146103ef578063f2fde38b146103f757600080fd5b806378922c8f146102c85780637d995311146102ec5780637da830b4146103195780638da5cb5b14610346578063a7d77ce51461036457600080fd5b8063439766ce116100e7578063439766ce1461022f5780635c975abb146102445780635fb0ea901461026e5780636ca6d88e1461028e578063715018a6146102b357600080fd5b806303a2c9e21461012457806322df93ba1461014657806333deea05146101665780633ccfd60b146101a35780633ed0eee4146101b8575b600080fd5b34801561013057600080fd5b5061014461013f366004610f43565b610417565b005b34801561015257600080fd5b50610144610161366004610f65565b610644565b34801561017257600080fd5b50600754610186906001600160a01b031681565b6040516001600160a01b0390911681526020015b60405180910390f35b3480156101af57600080fd5b506101446106d9565b3480156101c457600080fd5b5061020a6101d3366004610f43565b6001600160a01b03908116600090815260026020908152604080832054600483528184205494168084526003909252909120549092565b604080516001600160a01b03909416845260208401929092529082015260600161019a565b34801561023b57600080fd5b50610144610812565b34801561025057600080fd5b50600154600160a01b900460ff16604051901515815260200161019a565b34801561027a57600080fd5b50610144610289366004610f98565b610822565b34801561029a57600080fd5b506102a361088a565b60405161019a9493929190611027565b3480156102bf57600080fd5b50610144610adc565b3480156102d457600080fd5b506102de60065481565b60405190815260200161019a565b3480156102f857600080fd5b506102de610307366004610f43565b60036020526000908152604090205481565b34801561032557600080fd5b506102de610334366004610f43565b60046020526000908152604090205481565b34801561035257600080fd5b506001546001600160a01b0316610186565b34801561037057600080fd5b5061014461037f366004610f43565b610aee565b34801561039057600080fd5b50610144610b18565b3480156103a557600080fd5b506101866103b4366004610f43565b6002602052600090815260409020546001600160a01b031681565b3480156103db57600080fd5b506101866103ea366004610f98565b610b28565b610144610b52565b34801561040357600080fd5b50610144610412366004610f43565b610c77565b61041f610cb5565b6001600160a01b0380821660009081526002602090815260408083205490931680835260039091529181205460065490919060649061045e9084611095565b61046891906110ac565b9050600061047682846110ce565b6001600160a01b03851660008181526003602052604080822082905551929350909183156108fc0291849190818181858888f193505050501580156104bf573d6000803e3d6000fd5b506007546001600160a01b03161561050d576007546040516001600160a01b039091169083156108fc029084906000818181858888f1935050505015801561050b573d6000803e3d6000fd5b505b60005b60055481101561060b57856001600160a01b031660058281548110610537576105376110e1565b6000918252602090912001546001600160a01b0316036106035760058054610561906001906110ce565b81548110610571576105716110e1565b600091825260209091200154600580546001600160a01b03909216918390811061059d5761059d6110e1565b9060005260206000200160006101000a8154816001600160a01b0302191690836001600160a01b0316021790555060058054806105dc576105dc6110f7565b600082815260209020810160001990810180546001600160a01b031916905501905561060b565b600101610510565b5050506001600160a01b03909216600090815260026020908152604080832080546001600160a01b031916905560049091528120555050565b61064c610cb5565b6001600160a01b03828116600090815260026020526040902080546001600160a01b031916918316919091179055610685600583610ce2565b6106d557600580546001810182556000919091527f036b6384b5eca791c62761152d0c79bb0604c104a5fb6f4eb0703f3154bb3db00180546001600160a01b0319166001600160a01b0384161790555b5050565b6106e1610d43565b6106e9610d9c565b336000908152600360205260409020548061074b5760405162461bcd60e51b815260206004820152601e60248201527f4e6f2066756e647320617661696c61626c6520746f207769746864726177000060448201526064015b60405180910390fd5b600060646006548361075d9190611095565b61076791906110ac565b9050600061077582846110ce565b3360008181526003602052604080822082905551929350909183156108fc0291849190818181858888f193505050501580156107b5573d6000803e3d6000fd5b506007546001600160a01b031615610803576007546040516001600160a01b039091169083156108fc029084906000818181858888f19350505050158015610801573d6000803e3d6000fd5b505b5050506108106001600055565b565b61081a610cb5565b610810610de9565b61082a610cb5565b60648111156108855760405162461bcd60e51b815260206004820152602160248201527f4665652070657263656e746167652063616e6e6f7420657863656564203130306044820152602560f81b6064820152608401610742565b600655565b60055460609081908190819060008167ffffffffffffffff8111156108b1576108b161110d565b6040519080825280602002602001820160405280156108da578160200160208202803683370190505b50905060008267ffffffffffffffff8111156108f8576108f861110d565b604051908082528060200260200182016040528015610921578160200160208202803683370190505b50905060008367ffffffffffffffff81111561093f5761093f61110d565b604051908082528060200260200182016040528015610968578160200160208202803683370190505b50905060008467ffffffffffffffff8111156109865761098661110d565b6040519080825280602002602001820160405280156109af578160200160208202803683370190505b50905060005b85811015610acc576000600582815481106109d2576109d26110e1565b60009182526020808320909101546001600160a01b0390811680845260028352604080852054600485528186205493168086526003909452909320548951939450919290919084908a9087908110610a2c57610a2c6110e1565b60200260200101906001600160a01b031690816001600160a01b03168152505082888681518110610a5f57610a5f6110e1565b60200260200101906001600160a01b031690816001600160a01b03168152505081878681518110610a9257610a926110e1565b60200260200101818152505080868681518110610ab157610ab16110e1565b60209081029190910101525050600190920191506109b59050565b5092989197509550909350915050565b610ae4610cb5565b6108106000610e49565b610af6610cb5565b600780546001600160a01b0319166001600160a01b0392909216919091179055565b610b20610cb5565b610810610e9b565b60058181548110610b3857600080fd5b6000918252602090912001546001600160a01b0316905081565b610b5a610d43565b610b62610d9c565b336000908152600260205260409020546001600160a01b031680610bc85760405162461bcd60e51b815260206004820152601960248201527f56616c696461746f72206e6f6465206e6f74206c696e6b6564000000000000006044820152606401610742565b6001600160a01b03811660009081526003602052604081208054349290610bf0908490611123565b90915550503360009081526004602052604081208054349290610c14908490611123565b90915550610c259050600533610ce2565b610c6c57600580546001810182556000919091527f036b6384b5eca791c62761152d0c79bb0604c104a5fb6f4eb0703f3154bb3db00180546001600160a01b031916331790555b506108106001600055565b610c7f610cb5565b6001600160a01b038116610ca957604051631e4fbdf760e01b815260006004820152602401610742565b610cb281610e49565b50565b6001546001600160a01b031633146108105760405163118cdaa760e01b8152336004820152602401610742565b6000805b8354811015610d3757826001600160a01b0316848281548110610d0b57610d0b6110e1565b6000918252602090912001546001600160a01b031603610d2f576001915050610d3d565b600101610ce6565b50600090505b92915050565b600260005403610d955760405162461bcd60e51b815260206004820152601f60248201527f5265656e7472616e637947756172643a207265656e7472616e742063616c6c006044820152606401610742565b6002600055565b600154600160a01b900460ff16156108105760405162461bcd60e51b815260206004820152601060248201526f14185d5cd8589b194e881c185d5cd95960821b6044820152606401610742565b610df1610d9c565b6001805460ff60a01b1916600160a01b1790557f62e78cea01bee320cd4e420270b5ea74000d11b0c9f74754ebdbfc544b05a258610e2c3390565b6040516001600160a01b03909116815260200160405180910390a1565b600180546001600160a01b038381166001600160a01b0319831681179093556040519116919082907f8be0079c531659141344cd1fd0a4f28419497f9722a3daafe3b4186f6b6457e090600090a35050565b610ea3610ed7565b6001805460ff60a01b191690557f5db9ee0a495bf2e6ff9c91a7834c1ba4fdd244a5e8aa4e537bd38aeae4b073aa33610e2c565b600154600160a01b900460ff166108105760405162461bcd60e51b815260206004820152601460248201527314185d5cd8589b194e881b9bdd081c185d5cd95960621b6044820152606401610742565b80356001600160a01b0381168114610f3e57600080fd5b919050565b600060208284031215610f5557600080fd5b610f5e82610f27565b9392505050565b60008060408385031215610f7857600080fd5b610f8183610f27565b9150610f8f60208401610f27565b90509250929050565b600060208284031215610faa57600080fd5b5035919050565b60008151808452602080850194506020840160005b83811015610feb5781516001600160a01b031687529582019590820190600101610fc6565b509495945050505050565b60008151808452602080850194506020840160005b83811015610feb5781518752958201959082019060010161100b565b60808152600061103a6080830187610fb1565b828103602084015261104c8187610fb1565b905082810360408401526110608186610ff6565b905082810360608401526110748185610ff6565b979650505050505050565b634e487b7160e01b600052601160045260246000fd5b8082028115828204841417610d3d57610d3d61107f565b6000826110c957634e487b7160e01b600052601260045260246000fd5b500490565b81810381811115610d3d57610d3d61107f565b634e487b7160e01b600052603260045260246000fd5b634e487b7160e01b600052603160045260246000fd5b634e487b7160e01b600052604160045260246000fd5b80820180821115610d3d57610d3d61107f56fea2646970667358221220c368c3755268e9cb268f619fd7e79aee0ebf446b422eda25b3b07994fcabce9664736f6c63430008160033",
					"opcodes": "PUSH1 0x80 PUSH1 0x40 MSTORE PUSH1 0xA PUSH1 0x6 SSTORE PUSH1 0x7 DUP1 SLOAD PUSH1 0x1 PUSH1 0x1 PUSH1 0xA0 SHL SUB NOT AND SWAP1 SSTORE CALLVALUE DUP1 ISZERO PUSH2 0x25 JUMPI PUSH1 0x0 DUP1 REVERT JUMPDEST POP PUSH1 0x1 PUSH1 0x0 SSTORE CALLER DUP1 PUSH2 0x51 JUMPI PUSH1 0x40 MLOAD PUSH4 0x1E4FBDF7 PUSH1 0xE0 SHL DUP2 MSTORE PUSH1 0x0 PUSH1 0x4 DUP3 ADD MSTORE PUSH1 0x24 ADD PUSH1 0x40 MLOAD DUP1 SWAP2 SUB SWAP1 REVERT JUMPDEST PUSH2 0x5A DUP2 PUSH2 0x6D JUMP JUMPDEST POP PUSH1 0x1 DUP1 SLOAD PUSH1 0xFF PUSH1 0xA0 SHL NOT AND SWAP1 SSTORE PUSH2 0xBF JUMP JUMPDEST PUSH1 0x1 DUP1 SLOAD PUSH1 0x1 PUSH1 0x1 PUSH1 0xA0 SHL SUB DUP4 DUP2 AND PUSH1 0x1 PUSH1 0x1 PUSH1 0xA0 SHL SUB NOT DUP4 AND DUP2 OR SWAP1 SWAP4 SSTORE PUSH1 0x40 MLOAD SWAP2 AND SWAP2 SWAP1 DUP3 SWAP1 PUSH32 0x8BE0079C531659141344CD1FD0A4F28419497F9722A3DAAFE3B4186F6B6457E0 SWAP1 PUSH1 0x0 SWAP1 LOG3 POP POP JUMP JUMPDEST PUSH2 0x116C DUP1 PUSH2 0xCE PUSH1 0x0 CODECOPY PUSH1 0x0 RETURN INVALID PUSH1 0x80 PUSH1 0x40 MSTORE PUSH1 0x4 CALLDATASIZE LT PUSH2 0x11F JUMPI PUSH1 0x0 CALLDATALOAD PUSH1 0xE0 SHR DUP1 PUSH4 0x78922C8F GT PUSH2 0xA0 JUMPI DUP1 PUSH4 0xB33712C5 GT PUSH2 0x64 JUMPI DUP1 PUSH4 0xB33712C5 EQ PUSH2 0x384 JUMPI DUP1 PUSH4 0xB5E1302E EQ PUSH2 0x399 JUMPI DUP1 PUSH4 0xBB0A43BC EQ PUSH2 0x3CF JUMPI DUP1 PUSH4 0xD0E30DB0 EQ PUSH2 0x3EF JUMPI DUP1 PUSH4 0xF2FDE38B EQ PUSH2 0x3F7 JUMPI PUSH1 0x0 DUP1 REVERT JUMPDEST DUP1 PUSH4 0x78922C8F EQ PUSH2 0x2C8 JUMPI DUP1 PUSH4 0x7D995311 EQ PUSH2 0x2EC JUMPI DUP1 PUSH4 0x7DA830B4 EQ PUSH2 0x319 JUMPI DUP1 PUSH4 0x8DA5CB5B EQ PUSH2 0x346 JUMPI DUP1 PUSH4 0xA7D77CE5 EQ PUSH2 0x364 JUMPI PUSH1 0x0 DUP1 REVERT JUMPDEST DUP1 PUSH4 0x439766CE GT PUSH2 0xE7 JUMPI DUP1 PUSH4 0x439766CE EQ PUSH2 0x22F JUMPI DUP1 PUSH4 0x5C975ABB EQ PUSH2 0x244 JUMPI DUP1 PUSH4 0x5FB0EA90 EQ PUSH2 0x26E JUMPI DUP1 PUSH4 0x6CA6D88E EQ PUSH2 0x28E JUMPI DUP1 PUSH4 0x715018A6 EQ PUSH2 0x2B3 JUMPI PUSH1 0x0 DUP1 REVERT JUMPDEST DUP1 PUSH4 0x3A2C9E2 EQ PUSH2 0x124 JUMPI DUP1 PUSH4 0x22DF93BA EQ PUSH2 0x146 JUMPI DUP1 PUSH4 0x33DEEA05 EQ PUSH2 0x166 JUMPI DUP1 PUSH4 0x3CCFD60B EQ PUSH2 0x1A3 JUMPI DUP1 PUSH4 0x3ED0EEE4 EQ PUSH2 0x1B8 JUMPI JUMPDEST PUSH1 0x0 DUP1 REVERT JUMPDEST CALLVALUE DUP1 ISZERO PUSH2 0x130 JUMPI PUSH1 0x0 DUP1 REVERT JUMPDEST POP PUSH2 0x144 PUSH2 0x13F CALLDATASIZE PUSH1 0x4 PUSH2 0xF43 JUMP JUMPDEST PUSH2 0x417 JUMP JUMPDEST STOP JUMPDEST CALLVALUE DUP1 ISZERO PUSH2 0x152 JUMPI PUSH1 0x0 DUP1 REVERT JUMPDEST POP PUSH2 0x144 PUSH2 0x161 CALLDATASIZE PUSH1 0x4 PUSH2 0xF65 JUMP JUMPDEST PUSH2 0x644 JUMP JUMPDEST CALLVALUE DUP1 ISZERO PUSH2 0x172 JUMPI PUSH1 0x0 DUP1 REVERT JUMPDEST POP PUSH1 0x7 SLOAD PUSH2 0x186 SWAP1 PUSH1 0x1 PUSH1 0x1 PUSH1 0xA0 SHL SUB AND DUP2 JUMP JUMPDEST PUSH1 0x40 MLOAD PUSH1 0x1 PUSH1 0x1 PUSH1 0xA0 SHL SUB SWAP1 SWAP2 AND DUP2 MSTORE PUSH1 0x20 ADD JUMPDEST PUSH1 0x40 MLOAD DUP1 SWAP2 SUB SWAP1 RETURN JUMPDEST CALLVALUE DUP1 ISZERO PUSH2 0x1AF JUMPI PUSH1 0x0 DUP1 REVERT JUMPDEST POP PUSH2 0x144 PUSH2 0x6D9 JUMP JUMPDEST CALLVALUE DUP1 ISZERO PUSH2 0x1C4 JUMPI PUSH1 0x0 DUP1 REVERT JUMPDEST POP PUSH2 0x20A PUSH2 0x1D3 CALLDATASIZE PUSH1 0x4 PUSH2 0xF43 JUMP JUMPDEST PUSH1 0x1 PUSH1 0x1 PUSH1 0xA0 SHL SUB SWAP1 DUP2 AND PUSH1 0x0 SWAP1 DUP2 MSTORE PUSH1 0x2 PUSH1 0x20 SWAP1 DUP2 MSTORE PUSH1 0x40 DUP1 DUP4 KECCAK256 SLOAD PUSH1 0x4 DUP4 MSTORE DUP2 DUP5 KECCAK256 SLOAD SWAP5 AND DUP1 DUP5 MSTORE PUSH1 0x3 SWAP1 SWAP3 MSTORE SWAP1 SWAP2 KECCAK256 SLOAD SWAP1 SWAP3 JUMP JUMPDEST PUSH1 0x40 DUP1 MLOAD PUSH1 0x1 PUSH1 0x1 PUSH1 0xA0 SHL SUB SWAP1 SWAP5 AND DUP5 MSTORE PUSH1 0x20 DUP5 ADD SWAP3 SWAP1 SWAP3 MSTORE SWAP1 DUP3 ADD MSTORE PUSH1 0x60 ADD PUSH2 0x19A JUMP JUMPDEST CALLVALUE DUP1 ISZERO PUSH2 0x23B JUMPI PUSH1 0x0 DUP1 REVERT JUMPDEST POP PUSH2 0x144 PUSH2 0x812 JUMP JUMPDEST CALLVALUE DUP1 ISZERO PUSH2 0x250 JUMPI PUSH1 0x0 DUP1 REVERT JUMPDEST POP PUSH1 0x1 SLOAD PUSH1 0x1 PUSH1 0xA0 SHL SWAP1 DIV PUSH1 0xFF AND PUSH1 0x40 MLOAD SWAP1 ISZERO ISZERO DUP2 MSTORE PUSH1 0x20 ADD PUSH2 0x19A JUMP JUMPDEST CALLVALUE DUP1 ISZERO PUSH2 0x27A JUMPI PUSH1 0x0 DUP1 REVERT JUMPDEST POP PUSH2 0x144 PUSH2 0x289 CALLDATASIZE PUSH1 0x4 PUSH2 0xF98 JUMP JUMPDEST PUSH2 0x822 JUMP JUMPDEST CALLVALUE DUP1 ISZERO PUSH2 0x29A JUMPI PUSH1 0x0 DUP1 REVERT JUMPDEST POP PUSH2 0x2A3 PUSH2 0x88A JUMP JUMPDEST PUSH1 0x40 MLOAD PUSH2 0x19A SWAP5 SWAP4 SWAP3 SWAP2 SWAP1 PUSH2 0x1027 JUMP JUMPDEST CALLVALUE DUP1 ISZERO PUSH2 0x2BF JUMPI PUSH1 0x0 DUP1 REVERT JUMPDEST POP PUSH2 0x144 PUSH2 0xADC JUMP JUMPDEST CALLVALUE DUP1 ISZERO PUSH2 0x2D4 JUMPI PUSH1 0x0 DUP1 REVERT JUMPDEST POP PUSH2 0x2DE PUSH1 0x6 SLOAD DUP2 JUMP JUMPDEST PUSH1 0x40 MLOAD SWAP1 DUP2 MSTORE PUSH1 0x20 ADD PUSH2 0x19A JUMP JUMPDEST CALLVALUE DUP1 ISZERO PUSH2 0x2F8 JUMPI PUSH1 0x0 DUP1 REVERT JUMPDEST POP PUSH2 0x2DE PUSH2 0x307 CALLDATASIZE PUSH1 0x4 PUSH2 0xF43 JUMP JUMPDEST PUSH1 0x3 PUSH1 0x20 MSTORE PUSH1 0x0 SWAP1 DUP2 MSTORE PUSH1 0x40 SWAP1 KECCAK256 SLOAD DUP2 JUMP JUMPDEST CALLVALUE DUP1 ISZERO PUSH2 0x325 JUMPI PUSH1 0x0 DUP1 REVERT JUMPDEST POP PUSH2 0x2DE PUSH2 0x334 CALLDATASIZE PUSH1 0x4 PUSH2 0xF43 JUMP JUMPDEST PUSH1 0x4 PUSH1 0x20 MSTORE PUSH1 0x0 SWAP1 DUP2 MSTORE PUSH1 0x40 SWAP1 KECCAK256 SLOAD DUP2 JUMP JUMPDEST CALLVALUE DUP1 ISZERO PUSH2 0x352 JUMPI PUSH1 0x0 DUP1 REVERT JUMPDEST POP PUSH1 0x1 SLOAD PUSH1 0x1 PUSH1 0x1 PUSH1 0xA0 SHL SUB AND PUSH2 0x186 JUMP JUMPDEST CALLVALUE DUP1 ISZERO PUSH2 0x370 JUMPI PUSH1 0x0 DUP1 REVERT JUMPDEST POP PUSH2 0x144 PUSH2 0x37F CALLDATASIZE PUSH1 0x4 PUSH2 0xF43 JUMP JUMPDEST PUSH2 0xAEE JUMP JUMPDEST CALLVALUE DUP1 ISZERO PUSH2 0x390 JUMPI PUSH1 0x0 DUP1 REVERT JUMPDEST POP PUSH2 0x144 PUSH2 0xB18 JUMP JUMPDEST CALLVALUE DUP1 ISZERO PUSH2 0x3A5 JUMPI PUSH1 0x0 DUP1 REVERT JUMPDEST POP PUSH2 0x186 PUSH2 0x3B4 CALLDATASIZE PUSH1 0x4 PUSH2 0xF43 JUMP JUMPDEST PUSH1 0x2 PUSH1 0x20 MSTORE PUSH1 0x0 SWAP1 DUP2 MSTORE PUSH1 0x40 SWAP1 KECCAK256 SLOAD PUSH1 0x1 PUSH1 0x1 PUSH1 0xA0 SHL SUB AND DUP2 JUMP JUMPDEST CALLVALUE DUP1 ISZERO PUSH2 0x3DB JUMPI PUSH1 0x0 DUP1 REVERT JUMPDEST POP PUSH2 0x186 PUSH2 0x3EA CALLDATASIZE PUSH1 0x4 PUSH2 0xF98 JUMP JUMPDEST PUSH2 0xB28 JUMP JUMPDEST PUSH2 0x144 PUSH2 0xB52 JUMP JUMPDEST CALLVALUE DUP1 ISZERO PUSH2 0x403 JUMPI PUSH1 0x0 DUP1 REVERT JUMPDEST POP PUSH2 0x144 PUSH2 0x412 CALLDATASIZE PUSH1 0x4 PUSH2 0xF43 JUMP JUMPDEST PUSH2 0xC77 JUMP JUMPDEST PUSH2 0x41F PUSH2 0xCB5 JUMP JUMPDEST PUSH1 0x1 PUSH1 0x1 PUSH1 0xA0 SHL SUB DUP1 DUP3 AND PUSH1 0x0 SWAP1 DUP2 MSTORE PUSH1 0x2 PUSH1 0x20 SWAP1 DUP2 MSTORE PUSH1 0x40 DUP1 DUP4 KECCAK256 SLOAD SWAP1 SWAP4 AND DUP1 DUP4 MSTORE PUSH1 0x3 SWAP1 SWAP2 MSTORE SWAP2 DUP2 KECCAK256 SLOAD PUSH1 0x6 SLOAD SWAP1 SWAP2 SWAP1 PUSH1 0x64 SWAP1 PUSH2 0x45E SWAP1 DUP5 PUSH2 0x1095 JUMP JUMPDEST PUSH2 0x468 SWAP2 SWAP1 PUSH2 0x10AC JUMP JUMPDEST SWAP1 POP PUSH1 0x0 PUSH2 0x476 DUP3 DUP5 PUSH2 0x10CE JUMP JUMPDEST PUSH1 0x1 PUSH1 0x1 PUSH1 0xA0 SHL SUB DUP6 AND PUSH1 0x0 DUP2 DUP2 MSTORE PUSH1 0x3 PUSH1 0x20 MSTORE PUSH1 0x40 DUP1 DUP3 KECCAK256 DUP3 SWAP1 SSTORE MLOAD SWAP3 SWAP4 POP SWAP1 SWAP2 DUP4 ISZERO PUSH2 0x8FC MUL SWAP2 DUP5 SWAP2 SWAP1 DUP2 DUP2 DUP2 DUP6 DUP9 DUP9 CALL SWAP4 POP POP POP POP ISZERO DUP1 ISZERO PUSH2 0x4BF JUMPI RETURNDATASIZE PUSH1 0x0 DUP1 RETURNDATACOPY RETURNDATASIZE PUSH1 0x0 REVERT JUMPDEST POP PUSH1 0x7 SLOAD PUSH1 0x1 PUSH1 0x1 PUSH1 0xA0 SHL SUB AND ISZERO PUSH2 0x50D JUMPI PUSH1 0x7 SLOAD PUSH1 0x40 MLOAD PUSH1 0x1 PUSH1 0x1 PUSH1 0xA0 SHL SUB SWAP1 SWAP2 AND SWAP1 DUP4 ISZERO PUSH2 0x8FC MUL SWAP1 DUP5 SWAP1 PUSH1 0x0 DUP2 DUP2 DUP2 DUP6 DUP9 DUP9 CALL SWAP4 POP POP POP POP ISZERO DUP1 ISZERO PUSH2 0x50B JUMPI RETURNDATASIZE PUSH1 0x0 DUP1 RETURNDATACOPY RETURNDATASIZE PUSH1 0x0 REVERT JUMPDEST POP JUMPDEST PUSH1 0x0 JUMPDEST PUSH1 0x5 SLOAD DUP2 LT ISZERO PUSH2 0x60B JUMPI DUP6 PUSH1 0x1 PUSH1 0x1 PUSH1 0xA0 SHL SUB AND PUSH1 0x5 DUP3 DUP2 SLOAD DUP2 LT PUSH2 0x537 JUMPI PUSH2 0x537 PUSH2 0x10E1 JUMP JUMPDEST PUSH1 0x0 SWAP2 DUP3 MSTORE PUSH1 0x20 SWAP1 SWAP2 KECCAK256 ADD SLOAD PUSH1 0x1 PUSH1 0x1 PUSH1 0xA0 SHL SUB AND SUB PUSH2 0x603 JUMPI PUSH1 0x5 DUP1 SLOAD PUSH2 0x561 SWAP1 PUSH1 0x1 SWAP1 PUSH2 0x10CE JUMP JUMPDEST DUP2 SLOAD DUP2 LT PUSH2 0x571 JUMPI PUSH2 0x571 PUSH2 0x10E1 JUMP JUMPDEST PUSH1 0x0 SWAP2 DUP3 MSTORE PUSH1 0x20 SWAP1 SWAP2 KECCAK256 ADD SLOAD PUSH1 0x5 DUP1 SLOAD PUSH1 0x1 PUSH1 0x1 PUSH1 0xA0 SHL SUB SWAP1 SWAP3 AND SWAP2 DUP4 SWAP1 DUP2 LT PUSH2 0x59D JUMPI PUSH2 0x59D PUSH2 0x10E1 JUMP JUMPDEST SWAP1 PUSH1 0x0 MSTORE PUSH1 0x20 PUSH1 0x0 KECCAK256 ADD PUSH1 0x0 PUSH2 0x100 EXP DUP2 SLOAD DUP2 PUSH1 0x1 PUSH1 0x1 PUSH1 0xA0 SHL SUB MUL NOT AND SWAP1 DUP4 PUSH1 0x1 PUSH1 0x1 PUSH1 0xA0 SHL SUB AND MUL OR SWAP1 SSTORE POP PUSH1 0x5 DUP1 SLOAD DUP1 PUSH2 0x5DC JUMPI PUSH2 0x5DC PUSH2 0x10F7 JUMP JUMPDEST PUSH1 0x0 DUP3 DUP2 MSTORE PUSH1 0x20 SWAP1 KECCAK256 DUP2 ADD PUSH1 0x0 NOT SWAP1 DUP2 ADD DUP1 SLOAD PUSH1 0x1 PUSH1 0x1 PUSH1 0xA0 SHL SUB NOT AND SWAP1 SSTORE ADD SWAP1 SSTORE PUSH2 0x60B JUMP JUMPDEST PUSH1 0x1 ADD PUSH2 0x510 JUMP JUMPDEST POP POP POP PUSH1 0x1 PUSH1 0x1 PUSH1 0xA0 SHL SUB SWAP1 SWAP3 AND PUSH1 0x0 SWAP1 DUP2 MSTORE PUSH1 0x2 PUSH1 0x20 SWAP1 DUP2 MSTORE PUSH1 0x40 DUP1 DUP4 KECCAK256 DUP1 SLOAD PUSH1 0x1 PUSH1 0x1 PUSH1 0xA0 SHL SUB NOT AND SWAP1 SSTORE PUSH1 0x4 SWAP1 SWAP2 MSTORE DUP2 KECCAK256 SSTORE POP POP JUMP JUMPDEST PUSH2 0x64C PUSH2 0xCB5 JUMP JUMPDEST PUSH1 0x1 PUSH1 0x1 PUSH1 0xA0 SHL SUB DUP3 DUP2 AND PUSH1 0x0 SWAP1 DUP2 MSTORE PUSH1 0x2 PUSH1 0x20 MSTORE PUSH1 0x40 SWAP1 KECCAK256 DUP1 SLOAD PUSH1 0x1 PUSH1 0x1 PUSH1 0xA0 SHL SUB NOT AND SWAP2 DUP4 AND SWAP2 SWAP1 SWAP2 OR SWAP1 SSTORE PUSH2 0x685 PUSH1 0x5 DUP4 PUSH2 0xCE2 JUMP JUMPDEST PUSH2 0x6D5 JUMPI PUSH1 0x5 DUP1 SLOAD PUSH1 0x1 DUP2 ADD DUP3 SSTORE PUSH1 0x0 SWAP2 SWAP1 SWAP2 MSTORE PUSH32 0x36B6384B5ECA791C62761152D0C79BB0604C104A5FB6F4EB0703F3154BB3DB0 ADD DUP1 SLOAD PUSH1 0x1 PUSH1 0x1 PUSH1 0xA0 SHL SUB NOT AND PUSH1 0x1 PUSH1 0x1 PUSH1 0xA0 SHL SUB DUP5 AND OR SWAP1 SSTORE JUMPDEST POP POP JUMP JUMPDEST PUSH2 0x6E1 PUSH2 0xD43 JUMP JUMPDEST PUSH2 0x6E9 PUSH2 0xD9C JUMP JUMPDEST CALLER PUSH1 0x0 SWAP1 DUP2 MSTORE PUSH1 0x3 PUSH1 0x20 MSTORE PUSH1 0x40 SWAP1 KECCAK256 SLOAD DUP1 PUSH2 0x74B JUMPI PUSH1 0x40 MLOAD PUSH3 0x461BCD PUSH1 0xE5 SHL DUP2 MSTORE PUSH1 0x20 PUSH1 0x4 DUP3 ADD MSTORE PUSH1 0x1E PUSH1 0x24 DUP3 ADD MSTORE PUSH32 0x4E6F2066756E647320617661696C61626C6520746F2077697468647261770000 PUSH1 0x44 DUP3 ADD MSTORE PUSH1 0x64 ADD JUMPDEST PUSH1 0x40 MLOAD DUP1 SWAP2 SUB SWAP1 REVERT JUMPDEST PUSH1 0x0 PUSH1 0x64 PUSH1 0x6 SLOAD DUP4 PUSH2 0x75D SWAP2 SWAP1 PUSH2 0x1095 JUMP JUMPDEST PUSH2 0x767 SWAP2 SWAP1 PUSH2 0x10AC JUMP JUMPDEST SWAP1 POP PUSH1 0x0 PUSH2 0x775 DUP3 DUP5 PUSH2 0x10CE JUMP JUMPDEST CALLER PUSH1 0x0 DUP2 DUP2 MSTORE PUSH1 0x3 PUSH1 0x20 MSTORE PUSH1 0x40 DUP1 DUP3 KECCAK256 DUP3 SWAP1 SSTORE MLOAD SWAP3 SWAP4 POP SWAP1 SWAP2 DUP4 ISZERO PUSH2 0x8FC MUL SWAP2 DUP5 SWAP2 SWAP1 DUP2 DUP2 DUP2 DUP6 DUP9 DUP9 CALL SWAP4 POP POP POP POP ISZERO DUP1 ISZERO PUSH2 0x7B5 JUMPI RETURNDATASIZE PUSH1 0x0 DUP1 RETURNDATACOPY RETURNDATASIZE PUSH1 0x0 REVERT JUMPDEST POP PUSH1 0x7 SLOAD PUSH1 0x1 PUSH1 0x1 PUSH1 0xA0 SHL SUB AND ISZERO PUSH2 0x803 JUMPI PUSH1 0x7 SLOAD PUSH1 0x40 MLOAD PUSH1 0x1 PUSH1 0x1 PUSH1 0xA0 SHL SUB SWAP1 SWAP2 AND SWAP1 DUP4 ISZERO PUSH2 0x8FC MUL SWAP1 DUP5 SWAP1 PUSH1 0x0 DUP2 DUP2 DUP2 DUP6 DUP9 DUP9 CALL SWAP4 POP POP POP POP ISZERO DUP1 ISZERO PUSH2 0x801 JUMPI RETURNDATASIZE PUSH1 0x0 DUP1 RETURNDATACOPY RETURNDATASIZE PUSH1 0x0 REVERT JUMPDEST POP JUMPDEST POP POP POP PUSH2 0x810 PUSH1 0x1 PUSH1 0x0 SSTORE JUMP JUMPDEST JUMP JUMPDEST PUSH2 0x81A PUSH2 0xCB5 JUMP JUMPDEST PUSH2 0x810 PUSH2 0xDE9 JUMP JUMPDEST PUSH2 0x82A PUSH2 0xCB5 JUMP JUMPDEST PUSH1 0x64 DUP2 GT ISZERO PUSH2 0x885 JUMPI PUSH1 0x40 MLOAD PUSH3 0x461BCD PUSH1 0xE5 SHL DUP2 MSTORE PUSH1 0x20 PUSH1 0x4 DUP3 ADD MSTORE PUSH1 0x21 PUSH1 0x24 DUP3 ADD MSTORE PUSH32 0x4665652070657263656E746167652063616E6E6F742065786365656420313030 PUSH1 0x44 DUP3 ADD MSTORE PUSH1 0x25 PUSH1 0xF8 SHL PUSH1 0x64 DUP3 ADD MSTORE PUSH1 0x84 ADD PUSH2 0x742 JUMP JUMPDEST PUSH1 0x6 SSTORE JUMP JUMPDEST PUSH1 0x5 SLOAD PUSH1 0x60 SWAP1 DUP2 SWAP1 DUP2 SWAP1 DUP2 SWAP1 PUSH1 0x0 DUP2 PUSH8 0xFFFFFFFFFFFFFFFF DUP2 GT ISZERO PUSH2 0x8B1 JUMPI PUSH2 0x8B1 PUSH2 0x110D JUMP JUMPDEST PUSH1 0x40 MLOAD SWAP1 DUP1 DUP3 MSTORE DUP1 PUSH1 0x20 MUL PUSH1 0x20 ADD DUP3 ADD PUSH1 0x40 MSTORE DUP1 ISZERO PUSH2 0x8DA JUMPI DUP2 PUSH1 0x20 ADD PUSH1 0x20 DUP3 MUL DUP1 CALLDATASIZE DUP4 CALLDATACOPY ADD SWAP1 POP JUMPDEST POP SWAP1 POP PUSH1 0x0 DUP3 PUSH8 0xFFFFFFFFFFFFFFFF DUP2 GT ISZERO PUSH2 0x8F8 JUMPI PUSH2 0x8F8 PUSH2 0x110D JUMP JUMPDEST PUSH1 0x40 MLOAD SWAP1 DUP1 DUP3 MSTORE DUP1 PUSH1 0x20 MUL PUSH1 0x20 ADD DUP3 ADD PUSH1 0x40 MSTORE DUP1 ISZERO PUSH2 0x921 JUMPI DUP2 PUSH1 0x20 ADD PUSH1 0x20 DUP3 MUL DUP1 CALLDATASIZE DUP4 CALLDATACOPY ADD SWAP1 POP JUMPDEST POP SWAP1 POP PUSH1 0x0 DUP4 PUSH8 0xFFFFFFFFFFFFFFFF DUP2 GT ISZERO PUSH2 0x93F JUMPI PUSH2 0x93F PUSH2 0x110D JUMP JUMPDEST PUSH1 0x40 MLOAD SWAP1 DUP1 DUP3 MSTORE DUP1 PUSH1 0x20 MUL PUSH1 0x20 ADD DUP3 ADD PUSH1 0x40 MSTORE DUP1 ISZERO PUSH2 0x968 JUMPI DUP2 PUSH1 0x20 ADD PUSH1 0x20 DUP3 MUL DUP1 CALLDATASIZE DUP4 CALLDATACOPY ADD SWAP1 POP JUMPDEST POP SWAP1 POP PUSH1 0x0 DUP5 PUSH8 0xFFFFFFFFFFFFFFFF DUP2 GT ISZERO PUSH2 0x986 JUMPI PUSH2 0x986 PUSH2 0x110D JUMP JUMPDEST PUSH1 0x40 MLOAD SWAP1 DUP1 DUP3 MSTORE DUP1 PUSH1 0x20 MUL PUSH1 0x20 ADD DUP3 ADD PUSH1 0x40 MSTORE DUP1 ISZERO PUSH2 0x9AF JUMPI DUP2 PUSH1 0x20 ADD PUSH1 0x20 DUP3 MUL DUP1 CALLDATASIZE DUP4 CALLDATACOPY ADD SWAP1 POP JUMPDEST POP SWAP1 POP PUSH1 0x0 JUMPDEST DUP6 DUP2 LT ISZERO PUSH2 0xACC JUMPI PUSH1 0x0 PUSH1 0x5 DUP3 DUP2 SLOAD DUP2 LT PUSH2 0x9D2 JUMPI PUSH2 0x9D2 PUSH2 0x10E1 JUMP JUMPDEST PUSH1 0x0 SWAP2 DUP3 MSTORE PUSH1 0x20 DUP1 DUP4 KECCAK256 SWAP1 SWAP2 ADD SLOAD PUSH1 0x1 PUSH1 0x1 PUSH1 0xA0 SHL SUB SWAP1 DUP2 AND DUP1 DUP5 MSTORE PUSH1 0x2 DUP4 MSTORE PUSH1 0x40 DUP1 DUP6 KECCAK256 SLOAD PUSH1 0x4 DUP6 MSTORE DUP2 DUP7 KECCAK256 SLOAD SWAP4 AND DUP1 DUP7 MSTORE PUSH1 0x3 SWAP1 SWAP5 MSTORE SWAP1 SWAP4 KECCAK256 SLOAD DUP10 MLOAD SWAP4 SWAP5 POP SWAP2 SWAP3 SWAP1 SWAP2 SWAP1 DUP5 SWAP1 DUP11 SWAP1 DUP8 SWAP1 DUP2 LT PUSH2 0xA2C JUMPI PUSH2 0xA2C PUSH2 0x10E1 JUMP JUMPDEST PUSH1 0x20 MUL PUSH1 0x20 ADD ADD SWAP1 PUSH1 0x1 PUSH1 0x1 PUSH1 0xA0 SHL SUB AND SWAP1 DUP2 PUSH1 0x1 PUSH1 0x1 PUSH1 0xA0 SHL SUB AND DUP2 MSTORE POP POP DUP3 DUP9 DUP7 DUP2 MLOAD DUP2 LT PUSH2 0xA5F JUMPI PUSH2 0xA5F PUSH2 0x10E1 JUMP JUMPDEST PUSH1 0x20 MUL PUSH1 0x20 ADD ADD SWAP1 PUSH1 0x1 PUSH1 0x1 PUSH1 0xA0 SHL SUB AND SWAP1 DUP2 PUSH1 0x1 PUSH1 0x1 PUSH1 0xA0 SHL SUB AND DUP2 MSTORE POP POP DUP2 DUP8 DUP7 DUP2 MLOAD DUP2 LT PUSH2 0xA92 JUMPI PUSH2 0xA92 PUSH2 0x10E1 JUMP JUMPDEST PUSH1 0x20 MUL PUSH1 0x20 ADD ADD DUP2 DUP2 MSTORE POP POP DUP1 DUP7 DUP7 DUP2 MLOAD DUP2 LT PUSH2 0xAB1 JUMPI PUSH2 0xAB1 PUSH2 0x10E1 JUMP JUMPDEST PUSH1 0x20 SWAP1 DUP2 MUL SWAP2 SWAP1 SWAP2 ADD ADD MSTORE POP POP PUSH1 0x1 SWAP1 SWAP3 ADD SWAP2 POP PUSH2 0x9B5 SWAP1 POP JUMP JUMPDEST POP SWAP3 SWAP9 SWAP2 SWAP8 POP SWAP6 POP SWAP1 SWAP4 POP SWAP2 POP POP JUMP JUMPDEST PUSH2 0xAE4 PUSH2 0xCB5 JUMP JUMPDEST PUSH2 0x810 PUSH1 0x0 PUSH2 0xE49 JUMP JUMPDEST PUSH2 0xAF6 PUSH2 0xCB5 JUMP JUMPDEST PUSH1 0x7 DUP1 SLOAD PUSH1 0x1 PUSH1 0x1 PUSH1 0xA0 SHL SUB NOT AND PUSH1 0x1 PUSH1 0x1 PUSH1 0xA0 SHL SUB SWAP3 SWAP1 SWAP3 AND SWAP2 SWAP1 SWAP2 OR SWAP1 SSTORE JUMP JUMPDEST PUSH2 0xB20 PUSH2 0xCB5 JUMP JUMPDEST PUSH2 0x810 PUSH2 0xE9B JUMP JUMPDEST PUSH1 0x5 DUP2 DUP2 SLOAD DUP2 LT PUSH2 0xB38 JUMPI PUSH1 0x0 DUP1 REVERT JUMPDEST PUSH1 0x0 SWAP2 DUP3 MSTORE PUSH1 0x20 SWAP1 SWAP2 KECCAK256 ADD SLOAD PUSH1 0x1 PUSH1 0x1 PUSH1 0xA0 SHL SUB AND SWAP1 POP DUP2 JUMP JUMPDEST PUSH2 0xB5A PUSH2 0xD43 JUMP JUMPDEST PUSH2 0xB62 PUSH2 0xD9C JUMP JUMPDEST CALLER PUSH1 0x0 SWAP1 DUP2 MSTORE PUSH1 0x2 PUSH1 0x20 MSTORE PUSH1 0x40 SWAP1 KECCAK256 SLOAD PUSH1 0x1 PUSH1 0x1 PUSH1 0xA0 SHL SUB AND DUP1 PUSH2 0xBC8 JUMPI PUSH1 0x40 MLOAD PUSH3 0x461BCD PUSH1 0xE5 SHL DUP2 MSTORE PUSH1 0x20 PUSH1 0x4 DUP3 ADD MSTORE PUSH1 0x19 PUSH1 0x24 DUP3 ADD MSTORE PUSH32 0x56616C696461746F72206E6F6465206E6F74206C696E6B656400000000000000 PUSH1 0x44 DUP3 ADD MSTORE PUSH1 0x64 ADD PUSH2 0x742 JUMP JUMPDEST PUSH1 0x1 PUSH1 0x1 PUSH1 0xA0 SHL SUB DUP2 AND PUSH1 0x0 SWAP1 DUP2 MSTORE PUSH1 0x3 PUSH1 0x20 MSTORE PUSH1 0x40 DUP2 KECCAK256 DUP1 SLOAD CALLVALUE SWAP3 SWAP1 PUSH2 0xBF0 SWAP1 DUP5 SWAP1 PUSH2 0x1123 JUMP JUMPDEST SWAP1 SWAP2 SSTORE POP POP CALLER PUSH1 0x0 SWAP1 DUP2 MSTORE PUSH1 0x4 PUSH1 0x20 MSTORE PUSH1 0x40 DUP2 KECCAK256 DUP1 SLOAD CALLVALUE SWAP3 SWAP1 PUSH2 0xC14 SWAP1 DUP5 SWAP1 PUSH2 0x1123 JUMP JUMPDEST SWAP1 SWAP2 SSTORE POP PUSH2 0xC25 SWAP1 POP PUSH1 0x5 CALLER PUSH2 0xCE2 JUMP JUMPDEST PUSH2 0xC6C JUMPI PUSH1 0x5 DUP1 SLOAD PUSH1 0x1 DUP2 ADD DUP3 SSTORE PUSH1 0x0 SWAP2 SWAP1 SWAP2 MSTORE PUSH32 0x36B6384B5ECA791C62761152D0C79BB0604C104A5FB6F4EB0703F3154BB3DB0 ADD DUP1 SLOAD PUSH1 0x1 PUSH1 0x1 PUSH1 0xA0 SHL SUB NOT AND CALLER OR SWAP1 SSTORE JUMPDEST POP PUSH2 0x810 PUSH1 0x1 PUSH1 0x0 SSTORE JUMP JUMPDEST PUSH2 0xC7F PUSH2 0xCB5 JUMP JUMPDEST PUSH1 0x1 PUSH1 0x1 PUSH1 0xA0 SHL SUB DUP2 AND PUSH2 0xCA9 JUMPI PUSH1 0x40 MLOAD PUSH4 0x1E4FBDF7 PUSH1 0xE0 SHL DUP2 MSTORE PUSH1 0x0 PUSH1 0x4 DUP3 ADD MSTORE PUSH1 0x24 ADD PUSH2 0x742 JUMP JUMPDEST PUSH2 0xCB2 DUP2 PUSH2 0xE49 JUMP JUMPDEST POP JUMP JUMPDEST PUSH1 0x1 SLOAD PUSH1 0x1 PUSH1 0x1 PUSH1 0xA0 SHL SUB AND CALLER EQ PUSH2 0x810 JUMPI PUSH1 0x40 MLOAD PUSH4 0x118CDAA7 PUSH1 0xE0 SHL DUP2 MSTORE CALLER PUSH1 0x4 DUP3 ADD MSTORE PUSH1 0x24 ADD PUSH2 0x742 JUMP JUMPDEST PUSH1 0x0 DUP1 JUMPDEST DUP4 SLOAD DUP2 LT ISZERO PUSH2 0xD37 JUMPI DUP3 PUSH1 0x1 PUSH1 0x1 PUSH1 0xA0 SHL SUB AND DUP5 DUP3 DUP2 SLOAD DUP2 LT PUSH2 0xD0B JUMPI PUSH2 0xD0B PUSH2 0x10E1 JUMP JUMPDEST PUSH1 0x0 SWAP2 DUP3 MSTORE PUSH1 0x20 SWAP1 SWAP2 KECCAK256 ADD SLOAD PUSH1 0x1 PUSH1 0x1 PUSH1 0xA0 SHL SUB AND SUB PUSH2 0xD2F JUMPI PUSH1 0x1 SWAP2 POP POP PUSH2 0xD3D JUMP JUMPDEST PUSH1 0x1 ADD PUSH2 0xCE6 JUMP JUMPDEST POP PUSH1 0x0 SWAP1 POP JUMPDEST SWAP3 SWAP2 POP POP JUMP JUMPDEST PUSH1 0x2 PUSH1 0x0 SLOAD SUB PUSH2 0xD95 JUMPI PUSH1 0x40 MLOAD PUSH3 0x461BCD PUSH1 0xE5 SHL DUP2 MSTORE PUSH1 0x20 PUSH1 0x4 DUP3 ADD MSTORE PUSH1 0x1F PUSH1 0x24 DUP3 ADD MSTORE PUSH32 0x5265656E7472616E637947756172643A207265656E7472616E742063616C6C00 PUSH1 0x44 DUP3 ADD MSTORE PUSH1 0x64 ADD PUSH2 0x742 JUMP JUMPDEST PUSH1 0x2 PUSH1 0x0 SSTORE JUMP JUMPDEST PUSH1 0x1 SLOAD PUSH1 0x1 PUSH1 0xA0 SHL SWAP1 DIV PUSH1 0xFF AND ISZERO PUSH2 0x810 JUMPI PUSH1 0x40 MLOAD PUSH3 0x461BCD PUSH1 0xE5 SHL DUP2 MSTORE PUSH1 0x20 PUSH1 0x4 DUP3 ADD MSTORE PUSH1 0x10 PUSH1 0x24 DUP3 ADD MSTORE PUSH16 0x14185D5CD8589B194E881C185D5CD959 PUSH1 0x82 SHL PUSH1 0x44 DUP3 ADD MSTORE PUSH1 0x64 ADD PUSH2 0x742 JUMP JUMPDEST PUSH2 0xDF1 PUSH2 0xD9C JUMP JUMPDEST PUSH1 0x1 DUP1 SLOAD PUSH1 0xFF PUSH1 0xA0 SHL NOT AND PUSH1 0x1 PUSH1 0xA0 SHL OR SWAP1 SSTORE PUSH32 0x62E78CEA01BEE320CD4E420270B5EA74000D11B0C9F74754EBDBFC544B05A258 PUSH2 0xE2C CALLER SWAP1 JUMP JUMPDEST PUSH1 0x40 MLOAD PUSH1 0x1 PUSH1 0x1 PUSH1 0xA0 SHL SUB SWAP1 SWAP2 AND DUP2 MSTORE PUSH1 0x20 ADD PUSH1 0x40 MLOAD DUP1 SWAP2 SUB SWAP1 LOG1 JUMP JUMPDEST PUSH1 0x1 DUP1 SLOAD PUSH1 0x1 PUSH1 0x1 PUSH1 0xA0 SHL SUB DUP4 DUP2 AND PUSH1 0x1 PUSH1 0x1 PUSH1 0xA0 SHL SUB NOT DUP4 AND DUP2 OR SWAP1 SWAP4 SSTORE PUSH1 0x40 MLOAD SWAP2 AND SWAP2 SWAP1 DUP3 SWAP1 PUSH32 0x8BE0079C531659141344CD1FD0A4F28419497F9722A3DAAFE3B4186F6B6457E0 SWAP1 PUSH1 0x0 SWAP1 LOG3 POP POP JUMP JUMPDEST PUSH2 0xEA3 PUSH2 0xED7 JUMP JUMPDEST PUSH1 0x1 DUP1 SLOAD PUSH1 0xFF PUSH1 0xA0 SHL NOT AND SWAP1 SSTORE PUSH32 0x5DB9EE0A495BF2E6FF9C91A7834C1BA4FDD244A5E8AA4E537BD38AEAE4B073AA CALLER PUSH2 0xE2C JUMP JUMPDEST PUSH1 0x1 SLOAD PUSH1 0x1 PUSH1 0xA0 SHL SWAP1 DIV PUSH1 0xFF AND PUSH2 0x810 JUMPI PUSH1 0x40 MLOAD PUSH3 0x461BCD PUSH1 0xE5 SHL DUP2 MSTORE PUSH1 0x20 PUSH1 0x4 DUP3 ADD MSTORE PUSH1 0x14 PUSH1 0x24 DUP3 ADD MSTORE PUSH20 0x14185D5CD8589B194E881B9BDD081C185D5CD959 PUSH1 0x62 SHL PUSH1 0x44 DUP3 ADD MSTORE PUSH1 0x64 ADD PUSH2 0x742 JUMP JUMPDEST DUP1 CALLDATALOAD PUSH1 0x1 PUSH1 0x1 PUSH1 0xA0 SHL SUB DUP2 AND DUP2 EQ PUSH2 0xF3E JUMPI PUSH1 0x0 DUP1 REVERT JUMPDEST SWAP2 SWAP1 POP JUMP JUMPDEST PUSH1 0x0 PUSH1 0x20 DUP3 DUP5 SUB SLT ISZERO PUSH2 0xF55 JUMPI PUSH1 0x0 DUP1 REVERT JUMPDEST PUSH2 0xF5E DUP3 PUSH2 0xF27 JUMP JUMPDEST SWAP4 SWAP3 POP POP POP JUMP JUMPDEST PUSH1 0x0 DUP1 PUSH1 0x40 DUP4 DUP6 SUB SLT ISZERO PUSH2 0xF78 JUMPI PUSH1 0x0 DUP1 REVERT JUMPDEST PUSH2 0xF81 DUP4 PUSH2 0xF27 JUMP JUMPDEST SWAP2 POP PUSH2 0xF8F PUSH1 0x20 DUP5 ADD PUSH2 0xF27 JUMP JUMPDEST SWAP1 POP SWAP3 POP SWAP3 SWAP1 POP JUMP JUMPDEST PUSH1 0x0 PUSH1 0x20 DUP3 DUP5 SUB SLT ISZERO PUSH2 0xFAA JUMPI PUSH1 0x0 DUP1 REVERT JUMPDEST POP CALLDATALOAD SWAP2 SWAP1 POP JUMP JUMPDEST PUSH1 0x0 DUP2 MLOAD DUP1 DUP5 MSTORE PUSH1 0x20 DUP1 DUP6 ADD SWAP5 POP PUSH1 0x20 DUP5 ADD PUSH1 0x0 JUMPDEST DUP4 DUP2 LT ISZERO PUSH2 0xFEB JUMPI DUP2 MLOAD PUSH1 0x1 PUSH1 0x1 PUSH1 0xA0 SHL SUB AND DUP8 MSTORE SWAP6 DUP3 ADD SWAP6 SWAP1 DUP3 ADD SWAP1 PUSH1 0x1 ADD PUSH2 0xFC6 JUMP JUMPDEST POP SWAP5 SWAP6 SWAP5 POP POP POP POP POP JUMP JUMPDEST PUSH1 0x0 DUP2 MLOAD DUP1 DUP5 MSTORE PUSH1 0x20 DUP1 DUP6 ADD SWAP5 POP PUSH1 0x20 DUP5 ADD PUSH1 0x0 JUMPDEST DUP4 DUP2 LT ISZERO PUSH2 0xFEB JUMPI DUP2 MLOAD DUP8 MSTORE SWAP6 DUP3 ADD SWAP6 SWAP1 DUP3 ADD SWAP1 PUSH1 0x1 ADD PUSH2 0x100B JUMP JUMPDEST PUSH1 0x80 DUP2 MSTORE PUSH1 0x0 PUSH2 0x103A PUSH1 0x80 DUP4 ADD DUP8 PUSH2 0xFB1 JUMP JUMPDEST DUP3 DUP2 SUB PUSH1 0x20 DUP5 ADD MSTORE PUSH2 0x104C DUP2 DUP8 PUSH2 0xFB1 JUMP JUMPDEST SWAP1 POP DUP3 DUP2 SUB PUSH1 0x40 DUP5 ADD MSTORE PUSH2 0x1060 DUP2 DUP7 PUSH2 0xFF6 JUMP JUMPDEST SWAP1 POP DUP3 DUP2 SUB PUSH1 0x60 DUP5 ADD MSTORE PUSH2 0x1074 DUP2 DUP6 PUSH2 0xFF6 JUMP JUMPDEST SWAP8 SWAP7 POP POP POP POP POP POP POP JUMP JUMPDEST PUSH4 0x4E487B71 PUSH1 0xE0 SHL PUSH1 0x0 MSTORE PUSH1 0x11 PUSH1 0x4 MSTORE PUSH1 0x24 PUSH1 0x0 REVERT JUMPDEST DUP1 DUP3 MUL DUP2 ISZERO DUP3 DUP3 DIV DUP5 EQ OR PUSH2 0xD3D JUMPI PUSH2 0xD3D PUSH2 0x107F JUMP JUMPDEST PUSH1 0x0 DUP3 PUSH2 0x10C9 JUMPI PUSH4 0x4E487B71 PUSH1 0xE0 SHL PUSH1 0x0 MSTORE PUSH1 0x12 PUSH1 0x4 MSTORE PUSH1 0x24 PUSH1 0x0 REVERT JUMPDEST POP DIV SWAP1 JUMP JUMPDEST DUP2 DUP2 SUB DUP2 DUP2 GT ISZERO PUSH2 0xD3D JUMPI PUSH2 0xD3D PUSH2 0x107F JUMP JUMPDEST PUSH4 0x4E487B71 PUSH1 0xE0 SHL PUSH1 0x0 MSTORE PUSH1 0x32 PUSH1 0x4 MSTORE PUSH1 0x24 PUSH1 0x0 REVERT JUMPDEST PUSH4 0x4E487B71 PUSH1 0xE0 SHL PUSH1 0x0 MSTORE PUSH1 0x31 PUSH1 0x4 MSTORE PUSH1 0x24 PUSH1 0x0 REVERT JUMPDEST PUSH4 0x4E487B71 PUSH1 0xE0 SHL PUSH1 0x0 MSTORE PUSH1 0x41 PUSH1 0x4 MSTORE PUSH1 0x24 PUSH1 0x0 REVERT JUMPDEST DUP1 DUP3 ADD DUP1 DUP3 GT ISZERO PUSH2 0xD3D JUMPI PUSH2 0xD3D PUSH2 0x107F JUMP INVALID LOG2 PUSH5 0x6970667358 0x22 SLT KECCAK256 0xC3 PUSH9 0xC3755268E9CB268F61 SWAP16 0xD7 0xE7 SWAP11 0xEE 0xE 0xBF DIFFICULTY PUSH12 0x422EDA25B3B07994FCABCE96 PUSH5 0x736F6C6343 STOP ADDMOD AND STOP CALLER "
				},
				"gasEstimates": {
					"creation": {
						"codeDepositCost": "892000",
						"executionCost": "119461",
						"totalCost": "1011461"
					},
					"external": {
						"allValidatorNodes(uint256)": "4669",
						"deleteValidatorNode(address)": "infinite",
						"deposit()": "infinite",
						"depositedBalances(address)": "2564",
						"edxAccount()": "2394",
						"fetchAllValidatorNodeDetails()": "infinite",
						"getValidatorNodeDetails(address)": "7062",
						"linkValidatorNode(address,address)": "infinite",
						"owner()": "2409",
						"pauseContract()": "infinite",
						"paused()": "2354",
						"renounceOwnership()": "infinite",
						"setEdxAccount(address)": "26846",
						"setWithdrawalFeePercentage(uint256)": "24581",
						"totalDepositedAmount(address)": "2586",
						"transferOwnership(address)": "28446",
						"unpauseContract()": "infinite",
						"validatorNodeToAccount(address)": "2591",
						"withdraw()": "infinite",
						"withdrawalFeePercentage()": "2318"
					},
					"internal": {
						"contains(address[] storage pointer,address)": "infinite"
					}
				},
				"methodIdentifiers": {
					"allValidatorNodes(uint256)": "bb0a43bc",
					"deleteValidatorNode(address)": "03a2c9e2",
					"deposit()": "d0e30db0",
					"depositedBalances(address)": "7d995311",
					"edxAccount()": "33deea05",
					"fetchAllValidatorNodeDetails()": "6ca6d88e",
					"getValidatorNodeDetails(address)": "3ed0eee4",
					"linkValidatorNode(address,address)": "22df93ba",
					"owner()": "8da5cb5b",
					"pauseContract()": "439766ce",
					"paused()": "5c975abb",
					"renounceOwnership()": "715018a6",
					"setEdxAccount(address)": "a7d77ce5",
					"setWithdrawalFeePercentage(uint256)": "5fb0ea90",
					"totalDepositedAmount(address)": "7da830b4",
					"transferOwnership(address)": "f2fde38b",
					"unpauseContract()": "b33712c5",
					"validatorNodeToAccount(address)": "b5e1302e",
					"withdraw()": "3ccfd60b",
					"withdrawalFeePercentage()": "78922c8f"
				}
			},
			"storageLayout": {
				"storage": [
					{
						"astId": 266,
						"contract": "contracts/Validator.sol:ValidatorDepositContract",
						"label": "_status",
						"offset": 0,
						"slot": "0",
						"type": "t_uint256"
					},
					{
						"astId": 8,
						"contract": "contracts/Validator.sol:ValidatorDepositContract",
						"label": "_owner",
						"offset": 0,
						"slot": "1",
						"type": "t_address"
					},
					{
						"astId": 165,
						"contract": "contracts/Validator.sol:ValidatorDepositContract",
						"label": "_paused",
						"offset": 20,
						"slot": "1",
						"type": "t_bool"
					},
					{
						"astId": 357,
						"contract": "contracts/Validator.sol:ValidatorDepositContract",
						"label": "validatorNodeToAccount",
						"offset": 0,
						"slot": "2",
						"type": "t_mapping(t_address,t_address)"
					},
					{
						"astId": 361,
						"contract": "contracts/Validator.sol:ValidatorDepositContract",
						"label": "depositedBalances",
						"offset": 0,
						"slot": "3",
						"type": "t_mapping(t_address,t_uint256)"
					},
					{
						"astId": 365,
						"contract": "contracts/Validator.sol:ValidatorDepositContract",
						"label": "totalDepositedAmount",
						"offset": 0,
						"slot": "4",
						"type": "t_mapping(t_address,t_uint256)"
					},
					{
						"astId": 368,
						"contract": "contracts/Validator.sol:ValidatorDepositContract",
						"label": "allValidatorNodes",
						"offset": 0,
						"slot": "5",
						"type": "t_array(t_address)dyn_storage"
					},
					{
						"astId": 371,
						"contract": "contracts/Validator.sol:ValidatorDepositContract",
						"label": "withdrawalFeePercentage",
						"offset": 0,
						"slot": "6",
						"type": "t_uint256"
					},
					{
						"astId": 377,
						"contract": "contracts/Validator.sol:ValidatorDepositContract",
						"label": "edxAccount",
						"offset": 0,
						"slot": "7",
						"type": "t_address"
					}
				],
				"types": {
					"t_address": {
						"encoding": "inplace",
						"label": "address",
						"numberOfBytes": "20"
					},
					"t_array(t_address)dyn_storage": {
						"base": "t_address",
						"encoding": "dynamic_array",
						"label": "address[]",
						"numberOfBytes": "32"
					},
					"t_bool": {
						"encoding": "inplace",
						"label": "bool",
						"numberOfBytes": "1"
					},
					"t_mapping(t_address,t_address)": {
						"encoding": "mapping",
						"key": "t_address",
						"label": "mapping(address => address)",
						"numberOfBytes": "32",
						"value": "t_address"
					},
					"t_mapping(t_address,t_uint256)": {
						"encoding": "mapping",
						"key": "t_address",
						"label": "mapping(address => uint256)",
						"numberOfBytes": "32",
						"value": "t_uint256"
					},
					"t_uint256": {
						"encoding": "inplace",
						"label": "uint256",
						"numberOfBytes": "32"
					}
				}
			},
			"userdoc": {
				"kind": "user",
				"methods": {},
				"version": 1
			}
		}
	}
}