{
	"data": {
		"bytecode": {
			"linkReferences": {},
			"object": "608060405234801561000f575f80fd5b506104648061001d5f395ff3fe608060405234801561000f575f80fd5b5060043610610029575f3560e01c80634a311f4d1461002d575b5f80fd5b61004760048036038101906100429190610251565b610049565b005b5f5b84849050811015610120578573ffffffffffffffffffffffffffffffffffffffff166323b872dd33878785818110610086576100856102e2565b5b905060200201602081019061009b9190610339565b670de0b6b3a76400008787878181106100b7576100b66102e2565b5b905060200201356100c8919061039a565b6040518463ffffffff1660e01b81526004016100e6939291906103f9565b5f604051808303815f87803b1580156100fd575f80fd5b505af115801561010f573d5f803e3d5ffd5b50505050808060010191505061004b565b505050505050565b5f80fd5b5f80fd5b5f73ffffffffffffffffffffffffffffffffffffffff82169050919050565b5f61015982610130565b9050919050565b5f61016a8261014f565b9050919050565b61017a81610160565b8114610184575f80fd5b50565b5f8135905061019581610171565b92915050565b5f80fd5b5f80fd5b5f80fd5b5f8083601f8401126101bc576101bb61019b565b5b8235905067ffffffffffffffff8111156101d9576101d861019f565b5b6020830191508360208202830111156101f5576101f46101a3565b5b9250929050565b5f8083601f8401126102115761021061019b565b5b8235905067ffffffffffffffff81111561022e5761022d61019f565b5b60208301915083602082028301111561024a576102496101a3565b5b9250929050565b5f805f805f6060868803121561026a57610269610128565b5b5f61027788828901610187565b955050602086013567ffffffffffffffff8111156102985761029761012c565b5b6102a4888289016101a7565b9450945050604086013567ffffffffffffffff8111156102c7576102c661012c565b5b6102d3888289016101fc565b92509250509295509295909350565b7f4e487b71000000000000000000000000000000000000000000000000000000005f52603260045260245ffd5b6103188161014f565b8114610322575f80fd5b50565b5f813590506103338161030f565b92915050565b5f6020828403121561034e5761034d610128565b5b5f61035b84828501610325565b91505092915050565b5f819050919050565b7f4e487b71000000000000000000000000000000000000000000000000000000005f52601160045260245ffd5b5f6103a482610364565b91506103af83610364565b92508282026103bd81610364565b915082820484148315176103d4576103d361036d565b5b5092915050565b6103e48161014f565b82525050565b6103f381610364565b82525050565b5f60608201905061040c5f8301866103db565b61041960208301856103db565b61042660408301846103ea565b94935050505056fea2646970667358221220eed92c737b2c0ce2468487fb325d6100f16e72c50d28bb5399f6406ffd683f9a64736f6c63430008170033",
			"opcodes": "PUSH1 0x80 PUSH1 0x40 MSTORE CALLVALUE DUP1 ISZERO PUSH2 0xF JUMPI PUSH0 DUP1 REVERT JUMPDEST POP PUSH2 0x464 DUP1 PUSH2 0x1D PUSH0 CODECOPY PUSH0 RETURN INVALID PUSH1 0x80 PUSH1 0x40 MSTORE CALLVALUE DUP1 ISZERO PUSH2 0xF JUMPI PUSH0 DUP1 REVERT JUMPDEST POP PUSH1 0x4 CALLDATASIZE LT PUSH2 0x29 JUMPI PUSH0 CALLDATALOAD PUSH1 0xE0 SHR DUP1 PUSH4 0x4A311F4D EQ PUSH2 0x2D JUMPI JUMPDEST PUSH0 DUP1 REVERT JUMPDEST PUSH2 0x47 PUSH1 0x4 DUP1 CALLDATASIZE SUB DUP2 ADD SWAP1 PUSH2 0x42 SWAP2 SWAP1 PUSH2 0x251 JUMP JUMPDEST PUSH2 0x49 JUMP JUMPDEST STOP JUMPDEST PUSH0 JUMPDEST DUP5 DUP5 SWAP1 POP DUP2 LT ISZERO PUSH2 0x120 JUMPI DUP6 PUSH20 0xFFFFFFFFFFFFFFFFFFFFFFFFFFFFFFFFFFFFFFFF AND PUSH4 0x23B872DD CALLER DUP8 DUP8 DUP6 DUP2 DUP2 LT PUSH2 0x86 JUMPI PUSH2 0x85 PUSH2 0x2E2 JUMP JUMPDEST JUMPDEST SWAP1 POP PUSH1 0x20 MUL ADD PUSH1 0x20 DUP2 ADD SWAP1 PUSH2 0x9B SWAP2 SWAP1 PUSH2 0x339 JUMP JUMPDEST PUSH8 0xDE0B6B3A7640000 DUP8 DUP8 DUP8 DUP2 DUP2 LT PUSH2 0xB7 JUMPI PUSH2 0xB6 PUSH2 0x2E2 JUMP JUMPDEST JUMPDEST SWAP1 POP PUSH1 0x20 MUL ADD CALLDATALOAD PUSH2 0xC8 SWAP2 SWAP1 PUSH2 0x39A JUMP JUMPDEST PUSH1 0x40 MLOAD DUP5 PUSH4 0xFFFFFFFF AND PUSH1 0xE0 SHL DUP2 MSTORE PUSH1 0x4 ADD PUSH2 0xE6 SWAP4 SWAP3 SWAP2 SWAP1 PUSH2 0x3F9 JUMP JUMPDEST PUSH0 PUSH1 0x40 MLOAD DUP1 DUP4 SUB DUP2 PUSH0 DUP8 DUP1 EXTCODESIZE ISZERO DUP1 ISZERO PUSH2 0xFD JUMPI PUSH0 DUP1 REVERT JUMPDEST POP GAS CALL ISZERO DUP1 ISZERO PUSH2 0x10F JUMPI RETURNDATASIZE PUSH0 DUP1 RETURNDATACOPY RETURNDATASIZE PUSH0 REVERT JUMPDEST POP POP POP POP DUP1 DUP1 PUSH1 0x1 ADD SWAP2 POP POP PUSH2 0x4B JUMP JUMPDEST POP POP POP POP POP POP JUMP JUMPDEST PUSH0 DUP1 REVERT JUMPDEST PUSH0 DUP1 REVERT JUMPDEST PUSH0 PUSH20 0xFFFFFFFFFFFFFFFFFFFFFFFFFFFFFFFFFFFFFFFF DUP3 AND SWAP1 POP SWAP2 SWAP1 POP JUMP JUMPDEST PUSH0 PUSH2 0x159 DUP3 PUSH2 0x130 JUMP JUMPDEST SWAP1 POP SWAP2 SWAP1 POP JUMP JUMPDEST PUSH0 PUSH2 0x16A DUP3 PUSH2 0x14F JUMP JUMPDEST SWAP1 POP SWAP2 SWAP1 POP JUMP JUMPDEST PUSH2 0x17A DUP2 PUSH2 0x160 JUMP JUMPDEST DUP2 EQ PUSH2 0x184 JUMPI PUSH0 DUP1 REVERT JUMPDEST POP JUMP JUMPDEST PUSH0 DUP2 CALLDATALOAD SWAP1 POP PUSH2 0x195 DUP2 PUSH2 0x171 JUMP JUMPDEST SWAP3 SWAP2 POP POP JUMP JUMPDEST PUSH0 DUP1 REVERT JUMPDEST PUSH0 DUP1 REVERT JUMPDEST PUSH0 DUP1 REVERT JUMPDEST PUSH0 DUP1 DUP4 PUSH1 0x1F DUP5 ADD SLT PUSH2 0x1BC JUMPI PUSH2 0x1BB PUSH2 0x19B JUMP JUMPDEST JUMPDEST DUP3 CALLDATALOAD SWAP1 POP PUSH8 0xFFFFFFFFFFFFFFFF DUP2 GT ISZERO PUSH2 0x1D9 JUMPI PUSH2 0x1D8 PUSH2 0x19F JUMP JUMPDEST JUMPDEST PUSH1 0x20 DUP4 ADD SWAP2 POP DUP4 PUSH1 0x20 DUP3 MUL DUP4 ADD GT ISZERO PUSH2 0x1F5 JUMPI PUSH2 0x1F4 PUSH2 0x1A3 JUMP JUMPDEST JUMPDEST SWAP3 POP SWAP3 SWAP1 POP JUMP JUMPDEST PUSH0 DUP1 DUP4 PUSH1 0x1F DUP5 ADD SLT PUSH2 0x211 JUMPI PUSH2 0x210 PUSH2 0x19B JUMP JUMPDEST JUMPDEST DUP3 CALLDATALOAD SWAP1 POP PUSH8 0xFFFFFFFFFFFFFFFF DUP2 GT ISZERO PUSH2 0x22E JUMPI PUSH2 0x22D PUSH2 0x19F JUMP JUMPDEST JUMPDEST PUSH1 0x20 DUP4 ADD SWAP2 POP DUP4 PUSH1 0x20 DUP3 MUL DUP4 ADD GT ISZERO PUSH2 0x24A JUMPI PUSH2 0x249 PUSH2 0x1A3 JUMP JUMPDEST JUMPDEST SWAP3 POP SWAP3 SWAP1 POP JUMP JUMPDEST PUSH0 DUP1 PUSH0 DUP1 PUSH0 PUSH1 0x60 DUP7 DUP9 SUB SLT ISZERO PUSH2 0x26A JUMPI PUSH2 0x269 PUSH2 0x128 JUMP JUMPDEST JUMPDEST PUSH0 PUSH2 0x277 DUP9 DUP3 DUP10 ADD PUSH2 0x187 JUMP JUMPDEST SWAP6 POP POP PUSH1 0x20 DUP7 ADD CALLDATALOAD PUSH8 0xFFFFFFFFFFFFFFFF DUP2 GT ISZERO PUSH2 0x298 JUMPI PUSH2 0x297 PUSH2 0x12C JUMP JUMPDEST JUMPDEST PUSH2 0x2A4 DUP9 DUP3 DUP10 ADD PUSH2 0x1A7 JUMP JUMPDEST SWAP5 POP SWAP5 POP POP PUSH1 0x40 DUP7 ADD CALLDATALOAD PUSH8 0xFFFFFFFFFFFFFFFF DUP2 GT ISZERO PUSH2 0x2C7 JUMPI PUSH2 0x2C6 PUSH2 0x12C JUMP JUMPDEST JUMPDEST PUSH2 0x2D3 DUP9 DUP3 DUP10 ADD PUSH2 0x1FC JUMP JUMPDEST SWAP3 POP SWAP3 POP POP SWAP3 SWAP6 POP SWAP3 SWAP6 SWAP1 SWAP4 POP JUMP JUMPDEST PUSH32 0x4E487B7100000000000000000000000000000000000000000000000000000000 PUSH0 MSTORE PUSH1 0x32 PUSH1 0x4 MSTORE PUSH1 0x24 PUSH0 REVERT JUMPDEST PUSH2 0x318 DUP2 PUSH2 0x14F JUMP JUMPDEST DUP2 EQ PUSH2 0x322 JUMPI PUSH0 DUP1 REVERT JUMPDEST POP JUMP JUMPDEST PUSH0 DUP2 CALLDATALOAD SWAP1 POP PUSH2 0x333 DUP2 PUSH2 0x30F JUMP JUMPDEST SWAP3 SWAP2 POP POP JUMP JUMPDEST PUSH0 PUSH1 0x20 DUP3 DUP5 SUB SLT ISZERO PUSH2 0x34E JUMPI PUSH2 0x34D PUSH2 0x128 JUMP JUMPDEST JUMPDEST PUSH0 PUSH2 0x35B DUP5 DUP3 DUP6 ADD PUSH2 0x325 JUMP JUMPDEST SWAP2 POP POP SWAP3 SWAP2 POP POP JUMP JUMPDEST PUSH0 DUP2 SWAP1 POP SWAP2 SWAP1 POP JUMP JUMPDEST PUSH32 0x4E487B7100000000000000000000000000000000000000000000000000000000 PUSH0 MSTORE PUSH1 0x11 PUSH1 0x4 MSTORE PUSH1 0x24 PUSH0 REVERT JUMPDEST PUSH0 PUSH2 0x3A4 DUP3 PUSH2 0x364 JUMP JUMPDEST SWAP2 POP PUSH2 0x3AF DUP4 PUSH2 0x364 JUMP JUMPDEST SWAP3 POP DUP3 DUP3 MUL PUSH2 0x3BD DUP2 PUSH2 0x364 JUMP JUMPDEST SWAP2 POP DUP3 DUP3 DIV DUP5 EQ DUP4 ISZERO OR PUSH2 0x3D4 JUMPI PUSH2 0x3D3 PUSH2 0x36D JUMP JUMPDEST JUMPDEST POP SWAP3 SWAP2 POP POP JUMP JUMPDEST PUSH2 0x3E4 DUP2 PUSH2 0x14F JUMP JUMPDEST DUP3 MSTORE POP POP JUMP JUMPDEST PUSH2 0x3F3 DUP2 PUSH2 0x364 JUMP JUMPDEST DUP3 MSTORE POP POP JUMP JUMPDEST PUSH0 PUSH1 0x60 DUP3 ADD SWAP1 POP PUSH2 0x40C PUSH0 DUP4 ADD DUP7 PUSH2 0x3DB JUMP JUMPDEST PUSH2 0x419 PUSH1 0x20 DUP4 ADD DUP6 PUSH2 0x3DB JUMP JUMPDEST PUSH2 0x426 PUSH1 0x40 DUP4 ADD DUP5 PUSH2 0x3EA JUMP JUMPDEST SWAP5 SWAP4 POP POP POP POP JUMP INVALID LOG2 PUSH5 0x6970667358 0x22 SLT KECCAK256 0xEE 0xD9 0x2C PUSH20 0x7B2C0CE2468487FB325D6100F16E72C50D28BB53 SWAP10 0xF6 BLOCKHASH PUSH16 0xFD683F9A64736F6C6343000817003300 "
		},
		"gasEstimates": {
			"creation": {
				"codeDepositCost": "224800",
				"executionCost": "267",
				"totalCost": "225067"
			},
			"external": {
				"bulksendToken(address,address[],uint256[])": "infinite"
			}
		},
		"methodIdentifiers": {
			"bulksendToken(address,address[],uint256[])": "4a311f4d"
		}
	},
	"abi": [
		{
			"inputs": [
				{
					"internalType": "contract IERC20",
					"name": "_token",
					"type": "address"
				},
				{
					"internalType": "address[]",
					"name": "_to",
					"type": "address[]"
				},
				{
					"internalType": "uint256[]",
					"name": "_values",
					"type": "uint256[]"
				}
			],
			"name": "bulksendToken",
			"outputs": [],
			"stateMutability": "nonpayable",
			"type": "function"
		}
	]
}