{
	"data": {
		"bytecode": {
			"linkReferences": {},
			"object": "608060405234801561001057600080fd5b50600180546001600160a01b03191633179055611e75806100326000396000f3fe6080604052600436106100c25760003560e01c8063894d46ac1161007f5780639e281a98116100595780639e281a9814610255578063cc69784a14610275578063d8bd5c2914610288578063f38ffb6c146102a857600080fd5b8063894d46ac146101dd5780638da5cb5b146101fd578063913986bb1461023557600080fd5b8063031c1301146100c75780631a83fd8f1461011257806332752b091461012757806335b9e937146101575780633c00a36c146101775780634889e19214610197575b600080fd5b3480156100d357600080fd5b506100ff6100e23660046114fa565b805160208183018101805160028252928201919093012091525481565b6040519081526020015b60405180910390f35b6101256101203660046115f4565b6102d5565b005b34801561013357600080fd5b50610147610142366004611640565b610574565b6040519015158152602001610109565b34801561016357600080fd5b506101256101723660046115f4565b6105e2565b34801561018357600080fd5b50610125610192366004611682565b610671565b3480156101a357600080fd5b506101b76101b2366004611640565b6106cc565b604080516001600160a01b03948516815293909216602084015290820152606001610109565b3480156101e957600080fd5b506101256101f83660046116b7565b610759565b34801561020957600080fd5b5060015461021d906001600160a01b031681565b6040516001600160a01b039091168152602001610109565b34801561024157600080fd5b506101256102503660046116b7565b6108c3565b34801561026157600080fd5b5061012561027036600461170b565b610adc565b610125610283366004611735565b610b7c565b34801561029457600080fd5b5060005461021d906001600160a01b031681565b3480156102b457600080fd5b506102c86102c33660046117c2565b610fc0565b604051610109919061182d565b82828080601f016020809104026020016040519081016040528093929190818152602001838380828437600092019190915250506040513392506003915061031e908490611891565b908152604051908190036020019020546001600160a01b03161461035d5760405162461bcd60e51b8152600401610354906118ad565b60405180910390fd5b600061039e85858080601f0160208091040260200160405190810160405280939291908181526020018383808284376000920191909152506110af92505050565b905060006103e386868080601f016020809104026020016040519081016040528093929190818152602001838380828437600092019190915250869250611146915050565b90506000846002836040516103f89190611891565b9081526020016040518091039020546104119190611908565b9050803410156104895760405162461bcd60e51b815260206004820152603e60248201527f496e73756666696369656e742066756e647320746f2072656e6577207468652060448201527f646f6d61696e20666f72207468652073706563696669656420796561727300006064820152608401610354565b610497856301e13380611908565b600388886040516104a992919061191f565b908152602001604051809103902060020160008282546104c9919061192f565b925050819055507ff44ec9072df846717b4110f1fc66219abeeba0e9599e259c4309f01079e7a8e9878760038a8a60405161050592919061191f565b9081526040519081900360200181206002015461052393929161196b565b60405180910390a18034111561056b57336108fc610541833461198f565b6040518115909202916000818181858888f19350505050158015610569573d6000803e3d6000fd5b505b50505050505050565b6000806001600160a01b03166003848460405161059292919061191f565b908152604051908190036020019020546001600160a01b031614806105d9575042600384846040516105c592919061191f565b908152602001604051809103902060020154105b90505b92915050565b6001546001600160a01b0316331461060c5760405162461bcd60e51b8152600401610354906119a2565b806002848460405161061f92919061191f565b9081526020016040518091039020819055507f7ecd49f8137bc8d353db356946f52453e29656073aef0362c08a514421db24f58383836040516106649392919061196b565b60405180910390a1505050565b6001546001600160a01b0316331461069b5760405162461bcd60e51b8152600401610354906119a2565b604051339082156108fc029083906000818181858888f193505050501580156106c8573d6000803e3d6000fd5b5050565b6000806000600385856040516106e392919061191f565b908152604051908190036020018120546001600160a01b03169060039061070d908890889061191f565b908152604051908190036020018120600101546001600160a01b03169060039061073a908990899061191f565b9081526020016040518091039020600201549250925092509250925092565b82828080601f01602080910402602001604051908101604052809392919081815260200183838082843760009201919091525050604051339250600391506107a2908490611891565b908152604051908190036020019020546001600160a01b0316146107d85760405162461bcd60e51b8152600401610354906118ad565b42600385856040516107eb92919061191f565b90815260200160405180910390206002015410156108415760405162461bcd60e51b81526020600482015260136024820152722237b6b0b4b7103430b99032bc3834b932b21760691b6044820152606401610354565b816003858560405161085492919061191f565b90815260405190819003602001812060010180546001600160a01b039384166001600160a01b0319909116179055908316907f6d25091b0cf2f910de133fa1124a83cc0bba17dcddb63e259346affd222ebe44906108b590879087906119f1565b60405180910390a250505050565b82828080601f016020809104026020016040519081016040528093929190818152602001838380828437600092019190915250506040513392506003915061090c908490611891565b908152604051908190036020019020546001600160a01b0316146109425760405162461bcd60e51b8152600401610354906118ad565b426003858560405161095592919061191f565b90815260200160405180910390206002015410156109ab5760405162461bcd60e51b81526020600482015260136024820152722237b6b0b4b7103430b99032bc3834b932b21760691b6044820152606401610354565b6000600385856040516109bf92919061191f565b908152604051908190036020018120546001600160a01b0316915083906003906109ec908890889061191f565b908152604080516020928190038301812080546001600160a01b0319166001600160a01b039590951694909417909355601f87018290048202830182019052858252610a54918391889088908190840183828082843760009201919091525061121092505050565b6001600160a01b038316600090815260046020908152604082208054600181018255908352912001610a87858783611aac565b50826001600160a01b0316816001600160a01b03167fd43ae7ba5d7f951ba2fb94d03dc0f12664835c289cea1d1295e86a1fbddfc82c8787604051610acd9291906119f1565b60405180910390a35050505050565b6001546001600160a01b03163314610b065760405162461bcd60e51b8152600401610354906119a2565b60405163a9059cbb60e01b8152336004820152602481018290526001600160a01b0383169063a9059cbb906044016020604051808303816000875af1158015610b53573d6000803e3d6000fd5b505050506040513d601f19601f82011682018060405250810190610b779190611b67565b505050565b60028282604051610b8e92919061191f565b908152602001604051809103902054600003610bdd5760405162461bcd60e51b815260206004820152600e60248201526d092dcecc2d8d2c840e6eaccccd2f60931b6044820152606401610354565b6000610c1e87878080601f01602080910402602001604051908101604052809392919081815260200183838082843760009201919091525061133592505050565b905060008151118015610c335750600f815111155b610c935760405162461bcd60e51b815260206004820152602b60248201527f4e616d652073686f756c64206265206265747765656e203120616e642031352060448201526a31b430b930b1ba32b9399760a91b6064820152608401610354565b6000818484604051602001610caa93929190611b90565b6040516020818303038152906040529050600042600383604051610cce9190611891565b90815260200160405180910390206002015410905060006001600160a01b0316600383604051610cfe9190611891565b908152604051908190036020019020546001600160a01b03161480610d205750805b610d7f5760405162461bcd60e51b815260206004820152602a60248201527f446f6d61696e20697320616c7265616479206f776e6564206f72206e6f742079604482015269195d08195e1c1a5c995960b21b6064820152608401610354565b8015610db757610db7600383604051610d989190611891565b908152604051908190036020019020546001600160a01b031683611210565b60008660028787604051610dcc92919061191f565b908152602001604051809103902054610de59190611908565b905080341015610e675760405162461bcd60e51b815260206004820152604160248201527f496e73756666696369656e742066756e647320746f207265676973746572207460448201527f686520646f6d61696e20666f72207468652073706563696669656420796561726064820152607360f81b608482015260a401610354565b6000610e7488603c611908565b610e7e904261192f565b90506040518060600160405280336001600160a01b031681526020018a6001600160a01b0316815260200182815250600385604051610ebd9190611891565b9081526040805160209281900383019020835181546001600160a01b03199081166001600160a01b0392831617835585850151600180850180549093169190931617905593820151600290910155336000908152600483529081208054938401815581522001610f2d8582611bb8565b50336001600160a01b03167fa5f4533ec077c1b1e4fa879988258637a45b7a6e6663bf8589e0d3dde3855017858b84604051610f6b93929190611c72565b60405180910390a281341115610fb357336108fc610f89843461198f565b6040518115909202916000818181858888f19350505050158015610fb1573d6000803e3d6000fd5b505b5050505050505050505050565b6001600160a01b0381166000908152600460209081526040808320805482518185028101850190935280835260609492939192909184015b828210156110a457838290600052602060002001805461101790611a0d565b80601f016020809104026020016040519081016040528092919081815260200182805461104390611a0d565b80156110905780601f1061106557610100808354040283529160200191611090565b820191906000526020600020905b81548152906001019060200180831161107357829003601f168201915b505050505081526020019060010190610ff8565b505050509050919050565b805160009082905b801561110b57816110c960018361198f565b815181106110d9576110d9611ca0565b01602001516001600160f81b031916601760f91b036110f9579392505050565b8061110381611cb6565b9150506110b7565b5060405162461bcd60e51b815260206004820152600f60248201526e139bc81cdd59999a5e08199bdd5b99608a1b6044820152606401610354565b60606000839050600083825161115c919061198f565b67ffffffffffffffff811115611174576111746114e4565b6040519080825280601f01601f19166020018201604052801561119e576020820181803683370190505b509050835b8251811015611207578281815181106111be576111be611ca0565b01602001516001600160f81b031916826111d8878461198f565b815181106111e8576111e8611ca0565b60200101906001600160f81b031916908160001a9053506001016111a3565b50949350505050565b6001600160a01b0382166000908152600460205260408120905b815481101561132f57826040516020016112449190611891565b6040516020818303038152906040528051906020012082828154811061126c5761126c611ca0565b906000526020600020016040516020016112869190611ccd565b604051602081830303815290604052805190602001200361132757815482906112b19060019061198f565b815481106112c1576112c1611ca0565b906000526020600020018282815481106112dd576112dd611ca0565b9060005260206000200190816112f39190611d43565b508180548061130457611304611e10565b600190038181906000526020600020016000611320919061148e565b905561132f565b60010161122a565b50505050565b606060008290506000815167ffffffffffffffff811115611358576113586114e4565b6040519080825280601f01601f191660200182016040528015611382576020820181803683370190505b50905060005b82518110156114865760418382815181106113a5576113a5611ca0565b016020015160f81c108015906113d55750605a8382815181106113ca576113ca611ca0565b016020015160f81c11155b15611437578281815181106113ec576113ec611ca0565b602001015160f81c60f81b60f81c60206114069190611e26565b60f81b82828151811061141b5761141b611ca0565b60200101906001600160f81b031916908160001a90535061147e565b82818151811061144957611449611ca0565b602001015160f81c60f81b82828151811061146657611466611ca0565b60200101906001600160f81b031916908160001a9053505b600101611388565b509392505050565b50805461149a90611a0d565b6000825580601f106114aa575050565b601f0160209004906000526020600020908101906114c891906114cb565b50565b5b808211156114e057600081556001016114cc565b5090565b634e487b7160e01b600052604160045260246000fd5b60006020828403121561150c57600080fd5b813567ffffffffffffffff8082111561152457600080fd5b818401915084601f83011261153857600080fd5b81358181111561154a5761154a6114e4565b604051601f8201601f19908116603f01168101908382118183101715611572576115726114e4565b8160405282815287602084870101111561158b57600080fd5b826020860160208301376000928101602001929092525095945050505050565b60008083601f8401126115bd57600080fd5b50813567ffffffffffffffff8111156115d557600080fd5b6020830191508360208285010111156115ed57600080fd5b9250929050565b60008060006040848603121561160957600080fd5b833567ffffffffffffffff81111561162057600080fd5b61162c868287016115ab565b909790965060209590950135949350505050565b6000806020838503121561165357600080fd5b823567ffffffffffffffff81111561166a57600080fd5b611676858286016115ab565b90969095509350505050565b60006020828403121561169457600080fd5b5035919050565b80356001600160a01b03811681146116b257600080fd5b919050565b6000806000604084860312156116cc57600080fd5b833567ffffffffffffffff8111156116e357600080fd5b6116ef868287016115ab565b909450925061170290506020850161169b565b90509250925092565b6000806040838503121561171e57600080fd5b6117278361169b565b946020939093013593505050565b6000806000806000806080878903121561174e57600080fd5b863567ffffffffffffffff8082111561176657600080fd5b6117728a838b016115ab565b909850965086915061178660208a0161169b565b95506040890135945060608901359150808211156117a357600080fd5b506117b089828a016115ab565b979a9699509497509295939492505050565b6000602082840312156117d457600080fd5b6105d98261169b565b60005b838110156117f85781810151838201526020016117e0565b50506000910152565b600081518084526118198160208601602086016117dd565b601f01601f19169290920160200192915050565b600060208083016020845280855180835260408601915060408160051b87010192506020870160005b8281101561188457603f19888603018452611872858351611801565b94509285019290850190600101611856565b5092979650505050505050565b600082516118a38184602087016117dd565b9190910192915050565b60208082526025908201527f596f7520617265206e6f7420746865206f776e6572206f66207468697320646f60408201526436b0b4b71760d91b606082015260800190565b634e487b7160e01b600052601160045260246000fd5b80820281158282048414176105dc576105dc6118f2565b8183823760009101908152919050565b808201808211156105dc576105dc6118f2565b81835281816020850137506000828201602090810191909152601f909101601f19169091010190565b60408152600061197f604083018587611942565b9050826020830152949350505050565b818103818111156105dc576105dc6118f2565b6020808252602f908201527f4f6e6c792074686520636f6e7472616374206f776e65722063616e2063616c6c60408201526e103a3434b990333ab731ba34b7b71760891b606082015260800190565b602081526000611a05602083018486611942565b949350505050565b600181811c90821680611a2157607f821691505b602082108103611a4157634e487b7160e01b600052602260045260246000fd5b50919050565b601f821115610b77576000816000526020600020601f850160051c81016020861015611a705750805b601f850160051c820191505b81811015611a8f57828155600101611a7c565b505050505050565b600019600383901b1c191660019190911b1790565b67ffffffffffffffff831115611ac457611ac46114e4565b611ad883611ad28354611a0d565b83611a47565b6000601f841160018114611b065760008515611af45750838201355b611afe8682611a97565b845550611b60565b600083815260209020601f19861690835b82811015611b375786850135825560209485019460019092019101611b17565b5086821015611b545760001960f88860031b161c19848701351681555b505060018560011b0183555b5050505050565b600060208284031215611b7957600080fd5b81518015158114611b8957600080fd5b9392505050565b60008451611ba28184602089016117dd565b8201838582376000930192835250909392505050565b815167ffffffffffffffff811115611bd257611bd26114e4565b611be681611be08454611a0d565b84611a47565b602080601f831160018114611c155760008415611c035750858301515b611c0d8582611a97565b865550611a8f565b600085815260208120601f198616915b82811015611c4457888601518255948401946001909101908401611c25565b5085821015611c625787850151600019600388901b60f8161c191681555b5050505050600190811b01905550565b606081526000611c856060830186611801565b6001600160a01b039490941660208301525060400152919050565b634e487b7160e01b600052603260045260246000fd5b600081611cc557611cc56118f2565b506000190190565b6000808354611cdb81611a0d565b60018281168015611cf35760018114611d0857611d37565b60ff1984168752821515830287019450611d37565b8760005260208060002060005b85811015611d2e5781548a820152908401908201611d15565b50505082870194505b50929695505050505050565b818103611d4e575050565b611d588254611a0d565b67ffffffffffffffff811115611d7057611d706114e4565b611d7e81611be08454611a0d565b6000601f821160018114611dac5760008315611d9a5750848201545b611da48482611a97565b855550611b60565b600085815260209020601f19841690600086815260209020845b83811015611de65782860154825560019586019590910190602001611dc6565b5085831015611c625793015460001960f8600387901b161c19169092555050600190811b01905550565b634e487b7160e01b600052603160045260246000fd5b60ff81811683821601908111156105dc576105dc6118f256fea26469706673582212200e789797eaaae54246499524e55da7ff9c866cbd33693e3e1b25fadadac91f4164736f6c63430008160033",
			"opcodes": "PUSH1 0x80 PUSH1 0x40 MSTORE CALLVALUE DUP1 ISZERO PUSH2 0x10 JUMPI PUSH1 0x0 DUP1 REVERT JUMPDEST POP PUSH1 0x1 DUP1 SLOAD PUSH1 0x1 PUSH1 0x1 PUSH1 0xA0 SHL SUB NOT AND CALLER OR SWAP1 SSTORE PUSH2 0x1E75 DUP1 PUSH2 0x32 PUSH1 0x0 CODECOPY PUSH1 0x0 RETURN INVALID PUSH1 0x80 PUSH1 0x40 MSTORE PUSH1 0x4 CALLDATASIZE LT PUSH2 0xC2 JUMPI PUSH1 0x0 CALLDATALOAD PUSH1 0xE0 SHR DUP1 PUSH4 0x894D46AC GT PUSH2 0x7F JUMPI DUP1 PUSH4 0x9E281A98 GT PUSH2 0x59 JUMPI DUP1 PUSH4 0x9E281A98 EQ PUSH2 0x255 JUMPI DUP1 PUSH4 0xCC69784A EQ PUSH2 0x275 JUMPI DUP1 PUSH4 0xD8BD5C29 EQ PUSH2 0x288 JUMPI DUP1 PUSH4 0xF38FFB6C EQ PUSH2 0x2A8 JUMPI PUSH1 0x0 DUP1 REVERT JUMPDEST DUP1 PUSH4 0x894D46AC EQ PUSH2 0x1DD JUMPI DUP1 PUSH4 0x8DA5CB5B EQ PUSH2 0x1FD JUMPI DUP1 PUSH4 0x913986BB EQ PUSH2 0x235 JUMPI PUSH1 0x0 DUP1 REVERT JUMPDEST DUP1 PUSH4 0x31C1301 EQ PUSH2 0xC7 JUMPI DUP1 PUSH4 0x1A83FD8F EQ PUSH2 0x112 JUMPI DUP1 PUSH4 0x32752B09 EQ PUSH2 0x127 JUMPI DUP1 PUSH4 0x35B9E937 EQ PUSH2 0x157 JUMPI DUP1 PUSH4 0x3C00A36C EQ PUSH2 0x177 JUMPI DUP1 PUSH4 0x4889E192 EQ PUSH2 0x197 JUMPI JUMPDEST PUSH1 0x0 DUP1 REVERT JUMPDEST CALLVALUE DUP1 ISZERO PUSH2 0xD3 JUMPI PUSH1 0x0 DUP1 REVERT JUMPDEST POP PUSH2 0xFF PUSH2 0xE2 CALLDATASIZE PUSH1 0x4 PUSH2 0x14FA JUMP JUMPDEST DUP1 MLOAD PUSH1 0x20 DUP2 DUP4 ADD DUP2 ADD DUP1 MLOAD PUSH1 0x2 DUP3 MSTORE SWAP3 DUP3 ADD SWAP2 SWAP1 SWAP4 ADD KECCAK256 SWAP2 MSTORE SLOAD DUP2 JUMP JUMPDEST PUSH1 0x40 MLOAD SWAP1 DUP2 MSTORE PUSH1 0x20 ADD JUMPDEST PUSH1 0x40 MLOAD DUP1 SWAP2 SUB SWAP1 RETURN JUMPDEST PUSH2 0x125 PUSH2 0x120 CALLDATASIZE PUSH1 0x4 PUSH2 0x15F4 JUMP JUMPDEST PUSH2 0x2D5 JUMP JUMPDEST STOP JUMPDEST CALLVALUE DUP1 ISZERO PUSH2 0x133 JUMPI PUSH1 0x0 DUP1 REVERT JUMPDEST POP PUSH2 0x147 PUSH2 0x142 CALLDATASIZE PUSH1 0x4 PUSH2 0x1640 JUMP JUMPDEST PUSH2 0x574 JUMP JUMPDEST PUSH1 0x40 MLOAD SWAP1 ISZERO ISZERO DUP2 MSTORE PUSH1 0x20 ADD PUSH2 0x109 JUMP JUMPDEST CALLVALUE DUP1 ISZERO PUSH2 0x163 JUMPI PUSH1 0x0 DUP1 REVERT JUMPDEST POP PUSH2 0x125 PUSH2 0x172 CALLDATASIZE PUSH1 0x4 PUSH2 0x15F4 JUMP JUMPDEST PUSH2 0x5E2 JUMP JUMPDEST CALLVALUE DUP1 ISZERO PUSH2 0x183 JUMPI PUSH1 0x0 DUP1 REVERT JUMPDEST POP PUSH2 0x125 PUSH2 0x192 CALLDATASIZE PUSH1 0x4 PUSH2 0x1682 JUMP JUMPDEST PUSH2 0x671 JUMP JUMPDEST CALLVALUE DUP1 ISZERO PUSH2 0x1A3 JUMPI PUSH1 0x0 DUP1 REVERT JUMPDEST POP PUSH2 0x1B7 PUSH2 0x1B2 CALLDATASIZE PUSH1 0x4 PUSH2 0x1640 JUMP JUMPDEST PUSH2 0x6CC JUMP JUMPDEST PUSH1 0x40 DUP1 MLOAD PUSH1 0x1 PUSH1 0x1 PUSH1 0xA0 SHL SUB SWAP5 DUP6 AND DUP2 MSTORE SWAP4 SWAP1 SWAP3 AND PUSH1 0x20 DUP5 ADD MSTORE SWAP1 DUP3 ADD MSTORE PUSH1 0x60 ADD PUSH2 0x109 JUMP JUMPDEST CALLVALUE DUP1 ISZERO PUSH2 0x1E9 JUMPI PUSH1 0x0 DUP1 REVERT JUMPDEST POP PUSH2 0x125 PUSH2 0x1F8 CALLDATASIZE PUSH1 0x4 PUSH2 0x16B7 JUMP JUMPDEST PUSH2 0x759 JUMP JUMPDEST CALLVALUE DUP1 ISZERO PUSH2 0x209 JUMPI PUSH1 0x0 DUP1 REVERT JUMPDEST POP PUSH1 0x1 SLOAD PUSH2 0x21D SWAP1 PUSH1 0x1 PUSH1 0x1 PUSH1 0xA0 SHL SUB AND DUP2 JUMP JUMPDEST PUSH1 0x40 MLOAD PUSH1 0x1 PUSH1 0x1 PUSH1 0xA0 SHL SUB SWAP1 SWAP2 AND DUP2 MSTORE PUSH1 0x20 ADD PUSH2 0x109 JUMP JUMPDEST CALLVALUE DUP1 ISZERO PUSH2 0x241 JUMPI PUSH1 0x0 DUP1 REVERT JUMPDEST POP PUSH2 0x125 PUSH2 0x250 CALLDATASIZE PUSH1 0x4 PUSH2 0x16B7 JUMP JUMPDEST PUSH2 0x8C3 JUMP JUMPDEST CALLVALUE DUP1 ISZERO PUSH2 0x261 JUMPI PUSH1 0x0 DUP1 REVERT JUMPDEST POP PUSH2 0x125 PUSH2 0x270 CALLDATASIZE PUSH1 0x4 PUSH2 0x170B JUMP JUMPDEST PUSH2 0xADC JUMP JUMPDEST PUSH2 0x125 PUSH2 0x283 CALLDATASIZE PUSH1 0x4 PUSH2 0x1735 JUMP JUMPDEST PUSH2 0xB7C JUMP JUMPDEST CALLVALUE DUP1 ISZERO PUSH2 0x294 JUMPI PUSH1 0x0 DUP1 REVERT JUMPDEST POP PUSH1 0x0 SLOAD PUSH2 0x21D SWAP1 PUSH1 0x1 PUSH1 0x1 PUSH1 0xA0 SHL SUB AND DUP2 JUMP JUMPDEST CALLVALUE DUP1 ISZERO PUSH2 0x2B4 JUMPI PUSH1 0x0 DUP1 REVERT JUMPDEST POP PUSH2 0x2C8 PUSH2 0x2C3 CALLDATASIZE PUSH1 0x4 PUSH2 0x17C2 JUMP JUMPDEST PUSH2 0xFC0 JUMP JUMPDEST PUSH1 0x40 MLOAD PUSH2 0x109 SWAP2 SWAP1 PUSH2 0x182D JUMP JUMPDEST DUP3 DUP3 DUP1 DUP1 PUSH1 0x1F ADD PUSH1 0x20 DUP1 SWAP2 DIV MUL PUSH1 0x20 ADD PUSH1 0x40 MLOAD SWAP1 DUP2 ADD PUSH1 0x40 MSTORE DUP1 SWAP4 SWAP3 SWAP2 SWAP1 DUP2 DUP2 MSTORE PUSH1 0x20 ADD DUP4 DUP4 DUP1 DUP3 DUP5 CALLDATACOPY PUSH1 0x0 SWAP3 ADD SWAP2 SWAP1 SWAP2 MSTORE POP POP PUSH1 0x40 MLOAD CALLER SWAP3 POP PUSH1 0x3 SWAP2 POP PUSH2 0x31E SWAP1 DUP5 SWAP1 PUSH2 0x1891 JUMP JUMPDEST SWAP1 DUP2 MSTORE PUSH1 0x40 MLOAD SWAP1 DUP2 SWAP1 SUB PUSH1 0x20 ADD SWAP1 KECCAK256 SLOAD PUSH1 0x1 PUSH1 0x1 PUSH1 0xA0 SHL SUB AND EQ PUSH2 0x35D JUMPI PUSH1 0x40 MLOAD PUSH3 0x461BCD PUSH1 0xE5 SHL DUP2 MSTORE PUSH1 0x4 ADD PUSH2 0x354 SWAP1 PUSH2 0x18AD JUMP JUMPDEST PUSH1 0x40 MLOAD DUP1 SWAP2 SUB SWAP1 REVERT JUMPDEST PUSH1 0x0 PUSH2 0x39E DUP6 DUP6 DUP1 DUP1 PUSH1 0x1F ADD PUSH1 0x20 DUP1 SWAP2 DIV MUL PUSH1 0x20 ADD PUSH1 0x40 MLOAD SWAP1 DUP2 ADD PUSH1 0x40 MSTORE DUP1 SWAP4 SWAP3 SWAP2 SWAP1 DUP2 DUP2 MSTORE PUSH1 0x20 ADD DUP4 DUP4 DUP1 DUP3 DUP5 CALLDATACOPY PUSH1 0x0 SWAP3 ADD SWAP2 SWAP1 SWAP2 MSTORE POP PUSH2 0x10AF SWAP3 POP POP POP JUMP JUMPDEST SWAP1 POP PUSH1 0x0 PUSH2 0x3E3 DUP7 DUP7 DUP1 DUP1 PUSH1 0x1F ADD PUSH1 0x20 DUP1 SWAP2 DIV MUL PUSH1 0x20 ADD PUSH1 0x40 MLOAD SWAP1 DUP2 ADD PUSH1 0x40 MSTORE DUP1 SWAP4 SWAP3 SWAP2 SWAP1 DUP2 DUP2 MSTORE PUSH1 0x20 ADD DUP4 DUP4 DUP1 DUP3 DUP5 CALLDATACOPY PUSH1 0x0 SWAP3 ADD SWAP2 SWAP1 SWAP2 MSTORE POP DUP7 SWAP3 POP PUSH2 0x1146 SWAP2 POP POP JUMP JUMPDEST SWAP1 POP PUSH1 0x0 DUP5 PUSH1 0x2 DUP4 PUSH1 0x40 MLOAD PUSH2 0x3F8 SWAP2 SWAP1 PUSH2 0x1891 JUMP JUMPDEST SWAP1 DUP2 MSTORE PUSH1 0x20 ADD PUSH1 0x40 MLOAD DUP1 SWAP2 SUB SWAP1 KECCAK256 SLOAD PUSH2 0x411 SWAP2 SWAP1 PUSH2 0x1908 JUMP JUMPDEST SWAP1 POP DUP1 CALLVALUE LT ISZERO PUSH2 0x489 JUMPI PUSH1 0x40 MLOAD PUSH3 0x461BCD PUSH1 0xE5 SHL DUP2 MSTORE PUSH1 0x20 PUSH1 0x4 DUP3 ADD MSTORE PUSH1 0x3E PUSH1 0x24 DUP3 ADD MSTORE PUSH32 0x496E73756666696369656E742066756E647320746F2072656E65772074686520 PUSH1 0x44 DUP3 ADD MSTORE PUSH32 0x646F6D61696E20666F7220746865207370656369666965642079656172730000 PUSH1 0x64 DUP3 ADD MSTORE PUSH1 0x84 ADD PUSH2 0x354 JUMP JUMPDEST PUSH2 0x497 DUP6 PUSH4 0x1E13380 PUSH2 0x1908 JUMP JUMPDEST PUSH1 0x3 DUP9 DUP9 PUSH1 0x40 MLOAD PUSH2 0x4A9 SWAP3 SWAP2 SWAP1 PUSH2 0x191F JUMP JUMPDEST SWAP1 DUP2 MSTORE PUSH1 0x20 ADD PUSH1 0x40 MLOAD DUP1 SWAP2 SUB SWAP1 KECCAK256 PUSH1 0x2 ADD PUSH1 0x0 DUP3 DUP3 SLOAD PUSH2 0x4C9 SWAP2 SWAP1 PUSH2 0x192F JUMP JUMPDEST SWAP3 POP POP DUP2 SWAP1 SSTORE POP PUSH32 0xF44EC9072DF846717B4110F1FC66219ABEEBA0E9599E259C4309F01079E7A8E9 DUP8 DUP8 PUSH1 0x3 DUP11 DUP11 PUSH1 0x40 MLOAD PUSH2 0x505 SWAP3 SWAP2 SWAP1 PUSH2 0x191F JUMP JUMPDEST SWAP1 DUP2 MSTORE PUSH1 0x40 MLOAD SWAP1 DUP2 SWAP1 SUB PUSH1 0x20 ADD DUP2 KECCAK256 PUSH1 0x2 ADD SLOAD PUSH2 0x523 SWAP4 SWAP3 SWAP2 PUSH2 0x196B JUMP JUMPDEST PUSH1 0x40 MLOAD DUP1 SWAP2 SUB SWAP1 LOG1 DUP1 CALLVALUE GT ISZERO PUSH2 0x56B JUMPI CALLER PUSH2 0x8FC PUSH2 0x541 DUP4 CALLVALUE PUSH2 0x198F JUMP JUMPDEST PUSH1 0x40 MLOAD DUP2 ISZERO SWAP1 SWAP3 MUL SWAP2 PUSH1 0x0 DUP2 DUP2 DUP2 DUP6 DUP9 DUP9 CALL SWAP4 POP POP POP POP ISZERO DUP1 ISZERO PUSH2 0x569 JUMPI RETURNDATASIZE PUSH1 0x0 DUP1 RETURNDATACOPY RETURNDATASIZE PUSH1 0x0 REVERT JUMPDEST POP JUMPDEST POP POP POP POP POP POP POP JUMP JUMPDEST PUSH1 0x0 DUP1 PUSH1 0x1 PUSH1 0x1 PUSH1 0xA0 SHL SUB AND PUSH1 0x3 DUP5 DUP5 PUSH1 0x40 MLOAD PUSH2 0x592 SWAP3 SWAP2 SWAP1 PUSH2 0x191F JUMP JUMPDEST SWAP1 DUP2 MSTORE PUSH1 0x40 MLOAD SWAP1 DUP2 SWAP1 SUB PUSH1 0x20 ADD SWAP1 KECCAK256 SLOAD PUSH1 0x1 PUSH1 0x1 PUSH1 0xA0 SHL SUB AND EQ DUP1 PUSH2 0x5D9 JUMPI POP TIMESTAMP PUSH1 0x3 DUP5 DUP5 PUSH1 0x40 MLOAD PUSH2 0x5C5 SWAP3 SWAP2 SWAP1 PUSH2 0x191F JUMP JUMPDEST SWAP1 DUP2 MSTORE PUSH1 0x20 ADD PUSH1 0x40 MLOAD DUP1 SWAP2 SUB SWAP1 KECCAK256 PUSH1 0x2 ADD SLOAD LT JUMPDEST SWAP1 POP JUMPDEST SWAP3 SWAP2 POP POP JUMP JUMPDEST PUSH1 0x1 SLOAD PUSH1 0x1 PUSH1 0x1 PUSH1 0xA0 SHL SUB AND CALLER EQ PUSH2 0x60C JUMPI PUSH1 0x40 MLOAD PUSH3 0x461BCD PUSH1 0xE5 SHL DUP2 MSTORE PUSH1 0x4 ADD PUSH2 0x354 SWAP1 PUSH2 0x19A2 JUMP JUMPDEST DUP1 PUSH1 0x2 DUP5 DUP5 PUSH1 0x40 MLOAD PUSH2 0x61F SWAP3 SWAP2 SWAP1 PUSH2 0x191F JUMP JUMPDEST SWAP1 DUP2 MSTORE PUSH1 0x20 ADD PUSH1 0x40 MLOAD DUP1 SWAP2 SUB SWAP1 KECCAK256 DUP2 SWAP1 SSTORE POP PUSH32 0x7ECD49F8137BC8D353DB356946F52453E29656073AEF0362C08A514421DB24F5 DUP4 DUP4 DUP4 PUSH1 0x40 MLOAD PUSH2 0x664 SWAP4 SWAP3 SWAP2 SWAP1 PUSH2 0x196B JUMP JUMPDEST PUSH1 0x40 MLOAD DUP1 SWAP2 SUB SWAP1 LOG1 POP POP POP JUMP JUMPDEST PUSH1 0x1 SLOAD PUSH1 0x1 PUSH1 0x1 PUSH1 0xA0 SHL SUB AND CALLER EQ PUSH2 0x69B JUMPI PUSH1 0x40 MLOAD PUSH3 0x461BCD PUSH1 0xE5 SHL DUP2 MSTORE PUSH1 0x4 ADD PUSH2 0x354 SWAP1 PUSH2 0x19A2 JUMP JUMPDEST PUSH1 0x40 MLOAD CALLER SWAP1 DUP3 ISZERO PUSH2 0x8FC MUL SWAP1 DUP4 SWAP1 PUSH1 0x0 DUP2 DUP2 DUP2 DUP6 DUP9 DUP9 CALL SWAP4 POP POP POP POP ISZERO DUP1 ISZERO PUSH2 0x6C8 JUMPI RETURNDATASIZE PUSH1 0x0 DUP1 RETURNDATACOPY RETURNDATASIZE PUSH1 0x0 REVERT JUMPDEST POP POP JUMP JUMPDEST PUSH1 0x0 DUP1 PUSH1 0x0 PUSH1 0x3 DUP6 DUP6 PUSH1 0x40 MLOAD PUSH2 0x6E3 SWAP3 SWAP2 SWAP1 PUSH2 0x191F JUMP JUMPDEST SWAP1 DUP2 MSTORE PUSH1 0x40 MLOAD SWAP1 DUP2 SWAP1 SUB PUSH1 0x20 ADD DUP2 KECCAK256 SLOAD PUSH1 0x1 PUSH1 0x1 PUSH1 0xA0 SHL SUB AND SWAP1 PUSH1 0x3 SWAP1 PUSH2 0x70D SWAP1 DUP9 SWAP1 DUP9 SWAP1 PUSH2 0x191F JUMP JUMPDEST SWAP1 DUP2 MSTORE PUSH1 0x40 MLOAD SWAP1 DUP2 SWAP1 SUB PUSH1 0x20 ADD DUP2 KECCAK256 PUSH1 0x1 ADD SLOAD PUSH1 0x1 PUSH1 0x1 PUSH1 0xA0 SHL SUB AND SWAP1 PUSH1 0x3 SWAP1 PUSH2 0x73A SWAP1 DUP10 SWAP1 DUP10 SWAP1 PUSH2 0x191F JUMP JUMPDEST SWAP1 DUP2 MSTORE PUSH1 0x20 ADD PUSH1 0x40 MLOAD DUP1 SWAP2 SUB SWAP1 KECCAK256 PUSH1 0x2 ADD SLOAD SWAP3 POP SWAP3 POP SWAP3 POP SWAP3 POP SWAP3 POP SWAP3 JUMP JUMPDEST DUP3 DUP3 DUP1 DUP1 PUSH1 0x1F ADD PUSH1 0x20 DUP1 SWAP2 DIV MUL PUSH1 0x20 ADD PUSH1 0x40 MLOAD SWAP1 DUP2 ADD PUSH1 0x40 MSTORE DUP1 SWAP4 SWAP3 SWAP2 SWAP1 DUP2 DUP2 MSTORE PUSH1 0x20 ADD DUP4 DUP4 DUP1 DUP3 DUP5 CALLDATACOPY PUSH1 0x0 SWAP3 ADD SWAP2 SWAP1 SWAP2 MSTORE POP POP PUSH1 0x40 MLOAD CALLER SWAP3 POP PUSH1 0x3 SWAP2 POP PUSH2 0x7A2 SWAP1 DUP5 SWAP1 PUSH2 0x1891 JUMP JUMPDEST SWAP1 DUP2 MSTORE PUSH1 0x40 MLOAD SWAP1 DUP2 SWAP1 SUB PUSH1 0x20 ADD SWAP1 KECCAK256 SLOAD PUSH1 0x1 PUSH1 0x1 PUSH1 0xA0 SHL SUB AND EQ PUSH2 0x7D8 JUMPI PUSH1 0x40 MLOAD PUSH3 0x461BCD PUSH1 0xE5 SHL DUP2 MSTORE PUSH1 0x4 ADD PUSH2 0x354 SWAP1 PUSH2 0x18AD JUMP JUMPDEST TIMESTAMP PUSH1 0x3 DUP6 DUP6 PUSH1 0x40 MLOAD PUSH2 0x7EB SWAP3 SWAP2 SWAP1 PUSH2 0x191F JUMP JUMPDEST SWAP1 DUP2 MSTORE PUSH1 0x20 ADD PUSH1 0x40 MLOAD DUP1 SWAP2 SUB SWAP1 KECCAK256 PUSH1 0x2 ADD SLOAD LT ISZERO PUSH2 0x841 JUMPI PUSH1 0x40 MLOAD PUSH3 0x461BCD PUSH1 0xE5 SHL DUP2 MSTORE PUSH1 0x20 PUSH1 0x4 DUP3 ADD MSTORE PUSH1 0x13 PUSH1 0x24 DUP3 ADD MSTORE PUSH19 0x2237B6B0B4B7103430B99032BC3834B932B217 PUSH1 0x69 SHL PUSH1 0x44 DUP3 ADD MSTORE PUSH1 0x64 ADD PUSH2 0x354 JUMP JUMPDEST DUP2 PUSH1 0x3 DUP6 DUP6 PUSH1 0x40 MLOAD PUSH2 0x854 SWAP3 SWAP2 SWAP1 PUSH2 0x191F JUMP JUMPDEST SWAP1 DUP2 MSTORE PUSH1 0x40 MLOAD SWAP1 DUP2 SWAP1 SUB PUSH1 0x20 ADD DUP2 KECCAK256 PUSH1 0x1 ADD DUP1 SLOAD PUSH1 0x1 PUSH1 0x1 PUSH1 0xA0 SHL SUB SWAP4 DUP5 AND PUSH1 0x1 PUSH1 0x1 PUSH1 0xA0 SHL SUB NOT SWAP1 SWAP2 AND OR SWAP1 SSTORE SWAP1 DUP4 AND SWAP1 PUSH32 0x6D25091B0CF2F910DE133FA1124A83CC0BBA17DCDDB63E259346AFFD222EBE44 SWAP1 PUSH2 0x8B5 SWAP1 DUP8 SWAP1 DUP8 SWAP1 PUSH2 0x19F1 JUMP JUMPDEST PUSH1 0x40 MLOAD DUP1 SWAP2 SUB SWAP1 LOG2 POP POP POP POP JUMP JUMPDEST DUP3 DUP3 DUP1 DUP1 PUSH1 0x1F ADD PUSH1 0x20 DUP1 SWAP2 DIV MUL PUSH1 0x20 ADD PUSH1 0x40 MLOAD SWAP1 DUP2 ADD PUSH1 0x40 MSTORE DUP1 SWAP4 SWAP3 SWAP2 SWAP1 DUP2 DUP2 MSTORE PUSH1 0x20 ADD DUP4 DUP4 DUP1 DUP3 DUP5 CALLDATACOPY PUSH1 0x0 SWAP3 ADD SWAP2 SWAP1 SWAP2 MSTORE POP POP PUSH1 0x40 MLOAD CALLER SWAP3 POP PUSH1 0x3 SWAP2 POP PUSH2 0x90C SWAP1 DUP5 SWAP1 PUSH2 0x1891 JUMP JUMPDEST SWAP1 DUP2 MSTORE PUSH1 0x40 MLOAD SWAP1 DUP2 SWAP1 SUB PUSH1 0x20 ADD SWAP1 KECCAK256 SLOAD PUSH1 0x1 PUSH1 0x1 PUSH1 0xA0 SHL SUB AND EQ PUSH2 0x942 JUMPI PUSH1 0x40 MLOAD PUSH3 0x461BCD PUSH1 0xE5 SHL DUP2 MSTORE PUSH1 0x4 ADD PUSH2 0x354 SWAP1 PUSH2 0x18AD JUMP JUMPDEST TIMESTAMP PUSH1 0x3 DUP6 DUP6 PUSH1 0x40 MLOAD PUSH2 0x955 SWAP3 SWAP2 SWAP1 PUSH2 0x191F JUMP JUMPDEST SWAP1 DUP2 MSTORE PUSH1 0x20 ADD PUSH1 0x40 MLOAD DUP1 SWAP2 SUB SWAP1 KECCAK256 PUSH1 0x2 ADD SLOAD LT ISZERO PUSH2 0x9AB JUMPI PUSH1 0x40 MLOAD PUSH3 0x461BCD PUSH1 0xE5 SHL DUP2 MSTORE PUSH1 0x20 PUSH1 0x4 DUP3 ADD MSTORE PUSH1 0x13 PUSH1 0x24 DUP3 ADD MSTORE PUSH19 0x2237B6B0B4B7103430B99032BC3834B932B217 PUSH1 0x69 SHL PUSH1 0x44 DUP3 ADD MSTORE PUSH1 0x64 ADD PUSH2 0x354 JUMP JUMPDEST PUSH1 0x0 PUSH1 0x3 DUP6 DUP6 PUSH1 0x40 MLOAD PUSH2 0x9BF SWAP3 SWAP2 SWAP1 PUSH2 0x191F JUMP JUMPDEST SWAP1 DUP2 MSTORE PUSH1 0x40 MLOAD SWAP1 DUP2 SWAP1 SUB PUSH1 0x20 ADD DUP2 KECCAK256 SLOAD PUSH1 0x1 PUSH1 0x1 PUSH1 0xA0 SHL SUB AND SWAP2 POP DUP4 SWAP1 PUSH1 0x3 SWAP1 PUSH2 0x9EC SWAP1 DUP9 SWAP1 DUP9 SWAP1 PUSH2 0x191F JUMP JUMPDEST SWAP1 DUP2 MSTORE PUSH1 0x40 DUP1 MLOAD PUSH1 0x20 SWAP3 DUP2 SWAP1 SUB DUP4 ADD DUP2 KECCAK256 DUP1 SLOAD PUSH1 0x1 PUSH1 0x1 PUSH1 0xA0 SHL SUB NOT AND PUSH1 0x1 PUSH1 0x1 PUSH1 0xA0 SHL SUB SWAP6 SWAP1 SWAP6 AND SWAP5 SWAP1 SWAP5 OR SWAP1 SWAP4 SSTORE PUSH1 0x1F DUP8 ADD DUP3 SWAP1 DIV DUP3 MUL DUP4 ADD DUP3 ADD SWAP1 MSTORE DUP6 DUP3 MSTORE PUSH2 0xA54 SWAP2 DUP4 SWAP2 DUP9 SWAP1 DUP9 SWAP1 DUP2 SWAP1 DUP5 ADD DUP4 DUP3 DUP1 DUP3 DUP5 CALLDATACOPY PUSH1 0x0 SWAP3 ADD SWAP2 SWAP1 SWAP2 MSTORE POP PUSH2 0x1210 SWAP3 POP POP POP JUMP JUMPDEST PUSH1 0x1 PUSH1 0x1 PUSH1 0xA0 SHL SUB DUP4 AND PUSH1 0x0 SWAP1 DUP2 MSTORE PUSH1 0x4 PUSH1 0x20 SWAP1 DUP2 MSTORE PUSH1 0x40 DUP3 KECCAK256 DUP1 SLOAD PUSH1 0x1 DUP2 ADD DUP3 SSTORE SWAP1 DUP4 MSTORE SWAP2 KECCAK256 ADD PUSH2 0xA87 DUP6 DUP8 DUP4 PUSH2 0x1AAC JUMP JUMPDEST POP DUP3 PUSH1 0x1 PUSH1 0x1 PUSH1 0xA0 SHL SUB AND DUP2 PUSH1 0x1 PUSH1 0x1 PUSH1 0xA0 SHL SUB AND PUSH32 0xD43AE7BA5D7F951BA2FB94D03DC0F12664835C289CEA1D1295E86A1FBDDFC82C DUP8 DUP8 PUSH1 0x40 MLOAD PUSH2 0xACD SWAP3 SWAP2 SWAP1 PUSH2 0x19F1 JUMP JUMPDEST PUSH1 0x40 MLOAD DUP1 SWAP2 SUB SWAP1 LOG3 POP POP POP POP POP JUMP JUMPDEST PUSH1 0x1 SLOAD PUSH1 0x1 PUSH1 0x1 PUSH1 0xA0 SHL SUB AND CALLER EQ PUSH2 0xB06 JUMPI PUSH1 0x40 MLOAD PUSH3 0x461BCD PUSH1 0xE5 SHL DUP2 MSTORE PUSH1 0x4 ADD PUSH2 0x354 SWAP1 PUSH2 0x19A2 JUMP JUMPDEST PUSH1 0x40 MLOAD PUSH4 0xA9059CBB PUSH1 0xE0 SHL DUP2 MSTORE CALLER PUSH1 0x4 DUP3 ADD MSTORE PUSH1 0x24 DUP2 ADD DUP3 SWAP1 MSTORE PUSH1 0x1 PUSH1 0x1 PUSH1 0xA0 SHL SUB DUP4 AND SWAP1 PUSH4 0xA9059CBB SWAP1 PUSH1 0x44 ADD PUSH1 0x20 PUSH1 0x40 MLOAD DUP1 DUP4 SUB DUP2 PUSH1 0x0 DUP8 GAS CALL ISZERO DUP1 ISZERO PUSH2 0xB53 JUMPI RETURNDATASIZE PUSH1 0x0 DUP1 RETURNDATACOPY RETURNDATASIZE PUSH1 0x0 REVERT JUMPDEST POP POP POP POP PUSH1 0x40 MLOAD RETURNDATASIZE PUSH1 0x1F NOT PUSH1 0x1F DUP3 ADD AND DUP3 ADD DUP1 PUSH1 0x40 MSTORE POP DUP2 ADD SWAP1 PUSH2 0xB77 SWAP2 SWAP1 PUSH2 0x1B67 JUMP JUMPDEST POP POP POP JUMP JUMPDEST PUSH1 0x2 DUP3 DUP3 PUSH1 0x40 MLOAD PUSH2 0xB8E SWAP3 SWAP2 SWAP1 PUSH2 0x191F JUMP JUMPDEST SWAP1 DUP2 MSTORE PUSH1 0x20 ADD PUSH1 0x40 MLOAD DUP1 SWAP2 SUB SWAP1 KECCAK256 SLOAD PUSH1 0x0 SUB PUSH2 0xBDD JUMPI PUSH1 0x40 MLOAD PUSH3 0x461BCD PUSH1 0xE5 SHL DUP2 MSTORE PUSH1 0x20 PUSH1 0x4 DUP3 ADD MSTORE PUSH1 0xE PUSH1 0x24 DUP3 ADD MSTORE PUSH14 0x92DCECC2D8D2C840E6EACCCCD2F PUSH1 0x93 SHL PUSH1 0x44 DUP3 ADD MSTORE PUSH1 0x64 ADD PUSH2 0x354 JUMP JUMPDEST PUSH1 0x0 PUSH2 0xC1E DUP8 DUP8 DUP1 DUP1 PUSH1 0x1F ADD PUSH1 0x20 DUP1 SWAP2 DIV MUL PUSH1 0x20 ADD PUSH1 0x40 MLOAD SWAP1 DUP2 ADD PUSH1 0x40 MSTORE DUP1 SWAP4 SWAP3 SWAP2 SWAP1 DUP2 DUP2 MSTORE PUSH1 0x20 ADD DUP4 DUP4 DUP1 DUP3 DUP5 CALLDATACOPY PUSH1 0x0 SWAP3 ADD SWAP2 SWAP1 SWAP2 MSTORE POP PUSH2 0x1335 SWAP3 POP POP POP JUMP JUMPDEST SWAP1 POP PUSH1 0x0 DUP2 MLOAD GT DUP1 ISZERO PUSH2 0xC33 JUMPI POP PUSH1 0xF DUP2 MLOAD GT ISZERO JUMPDEST PUSH2 0xC93 JUMPI PUSH1 0x40 MLOAD PUSH3 0x461BCD PUSH1 0xE5 SHL DUP2 MSTORE PUSH1 0x20 PUSH1 0x4 DUP3 ADD MSTORE PUSH1 0x2B PUSH1 0x24 DUP3 ADD MSTORE PUSH32 0x4E616D652073686F756C64206265206265747765656E203120616E6420313520 PUSH1 0x44 DUP3 ADD MSTORE PUSH11 0x31B430B930B1BA32B93997 PUSH1 0xA9 SHL PUSH1 0x64 DUP3 ADD MSTORE PUSH1 0x84 ADD PUSH2 0x354 JUMP JUMPDEST PUSH1 0x0 DUP2 DUP5 DUP5 PUSH1 0x40 MLOAD PUSH1 0x20 ADD PUSH2 0xCAA SWAP4 SWAP3 SWAP2 SWAP1 PUSH2 0x1B90 JUMP JUMPDEST PUSH1 0x40 MLOAD PUSH1 0x20 DUP2 DUP4 SUB SUB DUP2 MSTORE SWAP1 PUSH1 0x40 MSTORE SWAP1 POP PUSH1 0x0 TIMESTAMP PUSH1 0x3 DUP4 PUSH1 0x40 MLOAD PUSH2 0xCCE SWAP2 SWAP1 PUSH2 0x1891 JUMP JUMPDEST SWAP1 DUP2 MSTORE PUSH1 0x20 ADD PUSH1 0x40 MLOAD DUP1 SWAP2 SUB SWAP1 KECCAK256 PUSH1 0x2 ADD SLOAD LT SWAP1 POP PUSH1 0x0 PUSH1 0x1 PUSH1 0x1 PUSH1 0xA0 SHL SUB AND PUSH1 0x3 DUP4 PUSH1 0x40 MLOAD PUSH2 0xCFE SWAP2 SWAP1 PUSH2 0x1891 JUMP JUMPDEST SWAP1 DUP2 MSTORE PUSH1 0x40 MLOAD SWAP1 DUP2 SWAP1 SUB PUSH1 0x20 ADD SWAP1 KECCAK256 SLOAD PUSH1 0x1 PUSH1 0x1 PUSH1 0xA0 SHL SUB AND EQ DUP1 PUSH2 0xD20 JUMPI POP DUP1 JUMPDEST PUSH2 0xD7F JUMPI PUSH1 0x40 MLOAD PUSH3 0x461BCD PUSH1 0xE5 SHL DUP2 MSTORE PUSH1 0x20 PUSH1 0x4 DUP3 ADD MSTORE PUSH1 0x2A PUSH1 0x24 DUP3 ADD MSTORE PUSH32 0x446F6D61696E20697320616C7265616479206F776E6564206F72206E6F742079 PUSH1 0x44 DUP3 ADD MSTORE PUSH10 0x195D08195E1C1A5C9959 PUSH1 0xB2 SHL PUSH1 0x64 DUP3 ADD MSTORE PUSH1 0x84 ADD PUSH2 0x354 JUMP JUMPDEST DUP1 ISZERO PUSH2 0xDB7 JUMPI PUSH2 0xDB7 PUSH1 0x3 DUP4 PUSH1 0x40 MLOAD PUSH2 0xD98 SWAP2 SWAP1 PUSH2 0x1891 JUMP JUMPDEST SWAP1 DUP2 MSTORE PUSH1 0x40 MLOAD SWAP1 DUP2 SWAP1 SUB PUSH1 0x20 ADD SWAP1 KECCAK256 SLOAD PUSH1 0x1 PUSH1 0x1 PUSH1 0xA0 SHL SUB AND DUP4 PUSH2 0x1210 JUMP JUMPDEST PUSH1 0x0 DUP7 PUSH1 0x2 DUP8 DUP8 PUSH1 0x40 MLOAD PUSH2 0xDCC SWAP3 SWAP2 SWAP1 PUSH2 0x191F JUMP JUMPDEST SWAP1 DUP2 MSTORE PUSH1 0x20 ADD PUSH1 0x40 MLOAD DUP1 SWAP2 SUB SWAP1 KECCAK256 SLOAD PUSH2 0xDE5 SWAP2 SWAP1 PUSH2 0x1908 JUMP JUMPDEST SWAP1 POP DUP1 CALLVALUE LT ISZERO PUSH2 0xE67 JUMPI PUSH1 0x40 MLOAD PUSH3 0x461BCD PUSH1 0xE5 SHL DUP2 MSTORE PUSH1 0x20 PUSH1 0x4 DUP3 ADD MSTORE PUSH1 0x41 PUSH1 0x24 DUP3 ADD MSTORE PUSH32 0x496E73756666696369656E742066756E647320746F2072656769737465722074 PUSH1 0x44 DUP3 ADD MSTORE PUSH32 0x686520646F6D61696E20666F7220746865207370656369666965642079656172 PUSH1 0x64 DUP3 ADD MSTORE PUSH1 0x73 PUSH1 0xF8 SHL PUSH1 0x84 DUP3 ADD MSTORE PUSH1 0xA4 ADD PUSH2 0x354 JUMP JUMPDEST PUSH1 0x0 PUSH2 0xE74 DUP9 PUSH1 0x3C PUSH2 0x1908 JUMP JUMPDEST PUSH2 0xE7E SWAP1 TIMESTAMP PUSH2 0x192F JUMP JUMPDEST SWAP1 POP PUSH1 0x40 MLOAD DUP1 PUSH1 0x60 ADD PUSH1 0x40 MSTORE DUP1 CALLER PUSH1 0x1 PUSH1 0x1 PUSH1 0xA0 SHL SUB AND DUP2 MSTORE PUSH1 0x20 ADD DUP11 PUSH1 0x1 PUSH1 0x1 PUSH1 0xA0 SHL SUB AND DUP2 MSTORE PUSH1 0x20 ADD DUP3 DUP2 MSTORE POP PUSH1 0x3 DUP6 PUSH1 0x40 MLOAD PUSH2 0xEBD SWAP2 SWAP1 PUSH2 0x1891 JUMP JUMPDEST SWAP1 DUP2 MSTORE PUSH1 0x40 DUP1 MLOAD PUSH1 0x20 SWAP3 DUP2 SWAP1 SUB DUP4 ADD SWAP1 KECCAK256 DUP4 MLOAD DUP2 SLOAD PUSH1 0x1 PUSH1 0x1 PUSH1 0xA0 SHL SUB NOT SWAP1 DUP2 AND PUSH1 0x1 PUSH1 0x1 PUSH1 0xA0 SHL SUB SWAP3 DUP4 AND OR DUP4 SSTORE DUP6 DUP6 ADD MLOAD PUSH1 0x1 DUP1 DUP6 ADD DUP1 SLOAD SWAP1 SWAP4 AND SWAP2 SWAP1 SWAP4 AND OR SWAP1 SSTORE SWAP4 DUP3 ADD MLOAD PUSH1 0x2 SWAP1 SWAP2 ADD SSTORE CALLER PUSH1 0x0 SWAP1 DUP2 MSTORE PUSH1 0x4 DUP4 MSTORE SWAP1 DUP2 KECCAK256 DUP1 SLOAD SWAP4 DUP5 ADD DUP2 SSTORE DUP2 MSTORE KECCAK256 ADD PUSH2 0xF2D DUP6 DUP3 PUSH2 0x1BB8 JUMP JUMPDEST POP CALLER PUSH1 0x1 PUSH1 0x1 PUSH1 0xA0 SHL SUB AND PUSH32 0xA5F4533EC077C1B1E4FA879988258637A45B7A6E6663BF8589E0D3DDE3855017 DUP6 DUP12 DUP5 PUSH1 0x40 MLOAD PUSH2 0xF6B SWAP4 SWAP3 SWAP2 SWAP1 PUSH2 0x1C72 JUMP JUMPDEST PUSH1 0x40 MLOAD DUP1 SWAP2 SUB SWAP1 LOG2 DUP2 CALLVALUE GT ISZERO PUSH2 0xFB3 JUMPI CALLER PUSH2 0x8FC PUSH2 0xF89 DUP5 CALLVALUE PUSH2 0x198F JUMP JUMPDEST PUSH1 0x40 MLOAD DUP2 ISZERO SWAP1 SWAP3 MUL SWAP2 PUSH1 0x0 DUP2 DUP2 DUP2 DUP6 DUP9 DUP9 CALL SWAP4 POP POP POP POP ISZERO DUP1 ISZERO PUSH2 0xFB1 JUMPI RETURNDATASIZE PUSH1 0x0 DUP1 RETURNDATACOPY RETURNDATASIZE PUSH1 0x0 REVERT JUMPDEST POP JUMPDEST POP POP POP POP POP POP POP POP POP POP POP JUMP JUMPDEST PUSH1 0x1 PUSH1 0x1 PUSH1 0xA0 SHL SUB DUP2 AND PUSH1 0x0 SWAP1 DUP2 MSTORE PUSH1 0x4 PUSH1 0x20 SWAP1 DUP2 MSTORE PUSH1 0x40 DUP1 DUP4 KECCAK256 DUP1 SLOAD DUP3 MLOAD DUP2 DUP6 MUL DUP2 ADD DUP6 ADD SWAP1 SWAP4 MSTORE DUP1 DUP4 MSTORE PUSH1 0x60 SWAP5 SWAP3 SWAP4 SWAP2 SWAP3 SWAP1 SWAP2 DUP5 ADD JUMPDEST DUP3 DUP3 LT ISZERO PUSH2 0x10A4 JUMPI DUP4 DUP3 SWAP1 PUSH1 0x0 MSTORE PUSH1 0x20 PUSH1 0x0 KECCAK256 ADD DUP1 SLOAD PUSH2 0x1017 SWAP1 PUSH2 0x1A0D JUMP JUMPDEST DUP1 PUSH1 0x1F ADD PUSH1 0x20 DUP1 SWAP2 DIV MUL PUSH1 0x20 ADD PUSH1 0x40 MLOAD SWAP1 DUP2 ADD PUSH1 0x40 MSTORE DUP1 SWAP3 SWAP2 SWAP1 DUP2 DUP2 MSTORE PUSH1 0x20 ADD DUP3 DUP1 SLOAD PUSH2 0x1043 SWAP1 PUSH2 0x1A0D JUMP JUMPDEST DUP1 ISZERO PUSH2 0x1090 JUMPI DUP1 PUSH1 0x1F LT PUSH2 0x1065 JUMPI PUSH2 0x100 DUP1 DUP4 SLOAD DIV MUL DUP4 MSTORE SWAP2 PUSH1 0x20 ADD SWAP2 PUSH2 0x1090 JUMP JUMPDEST DUP3 ADD SWAP2 SWAP1 PUSH1 0x0 MSTORE PUSH1 0x20 PUSH1 0x0 KECCAK256 SWAP1 JUMPDEST DUP2 SLOAD DUP2 MSTORE SWAP1 PUSH1 0x1 ADD SWAP1 PUSH1 0x20 ADD DUP1 DUP4 GT PUSH2 0x1073 JUMPI DUP3 SWAP1 SUB PUSH1 0x1F AND DUP3 ADD SWAP2 JUMPDEST POP POP POP POP POP DUP2 MSTORE PUSH1 0x20 ADD SWAP1 PUSH1 0x1 ADD SWAP1 PUSH2 0xFF8 JUMP JUMPDEST POP POP POP POP SWAP1 POP SWAP2 SWAP1 POP JUMP JUMPDEST DUP1 MLOAD PUSH1 0x0 SWAP1 DUP3 SWAP1 JUMPDEST DUP1 ISZERO PUSH2 0x110B JUMPI DUP2 PUSH2 0x10C9 PUSH1 0x1 DUP4 PUSH2 0x198F JUMP JUMPDEST DUP2 MLOAD DUP2 LT PUSH2 0x10D9 JUMPI PUSH2 0x10D9 PUSH2 0x1CA0 JUMP JUMPDEST ADD PUSH1 0x20 ADD MLOAD PUSH1 0x1 PUSH1 0x1 PUSH1 0xF8 SHL SUB NOT AND PUSH1 0x17 PUSH1 0xF9 SHL SUB PUSH2 0x10F9 JUMPI SWAP4 SWAP3 POP POP POP JUMP JUMPDEST DUP1 PUSH2 0x1103 DUP2 PUSH2 0x1CB6 JUMP JUMPDEST SWAP2 POP POP PUSH2 0x10B7 JUMP JUMPDEST POP PUSH1 0x40 MLOAD PUSH3 0x461BCD PUSH1 0xE5 SHL DUP2 MSTORE PUSH1 0x20 PUSH1 0x4 DUP3 ADD MSTORE PUSH1 0xF PUSH1 0x24 DUP3 ADD MSTORE PUSH15 0x139BC81CDD59999A5E08199BDD5B99 PUSH1 0x8A SHL PUSH1 0x44 DUP3 ADD MSTORE PUSH1 0x64 ADD PUSH2 0x354 JUMP JUMPDEST PUSH1 0x60 PUSH1 0x0 DUP4 SWAP1 POP PUSH1 0x0 DUP4 DUP3 MLOAD PUSH2 0x115C SWAP2 SWAP1 PUSH2 0x198F JUMP JUMPDEST PUSH8 0xFFFFFFFFFFFFFFFF DUP2 GT ISZERO PUSH2 0x1174 JUMPI PUSH2 0x1174 PUSH2 0x14E4 JUMP JUMPDEST PUSH1 0x40 MLOAD SWAP1 DUP1 DUP3 MSTORE DUP1 PUSH1 0x1F ADD PUSH1 0x1F NOT AND PUSH1 0x20 ADD DUP3 ADD PUSH1 0x40 MSTORE DUP1 ISZERO PUSH2 0x119E JUMPI PUSH1 0x20 DUP3 ADD DUP2 DUP1 CALLDATASIZE DUP4 CALLDATACOPY ADD SWAP1 POP JUMPDEST POP SWAP1 POP DUP4 JUMPDEST DUP3 MLOAD DUP2 LT ISZERO PUSH2 0x1207 JUMPI DUP3 DUP2 DUP2 MLOAD DUP2 LT PUSH2 0x11BE JUMPI PUSH2 0x11BE PUSH2 0x1CA0 JUMP JUMPDEST ADD PUSH1 0x20 ADD MLOAD PUSH1 0x1 PUSH1 0x1 PUSH1 0xF8 SHL SUB NOT AND DUP3 PUSH2 0x11D8 DUP8 DUP5 PUSH2 0x198F JUMP JUMPDEST DUP2 MLOAD DUP2 LT PUSH2 0x11E8 JUMPI PUSH2 0x11E8 PUSH2 0x1CA0 JUMP JUMPDEST PUSH1 0x20 ADD ADD SWAP1 PUSH1 0x1 PUSH1 0x1 PUSH1 0xF8 SHL SUB NOT AND SWAP1 DUP2 PUSH1 0x0 BYTE SWAP1 MSTORE8 POP PUSH1 0x1 ADD PUSH2 0x11A3 JUMP JUMPDEST POP SWAP5 SWAP4 POP POP POP POP JUMP JUMPDEST PUSH1 0x1 PUSH1 0x1 PUSH1 0xA0 SHL SUB DUP3 AND PUSH1 0x0 SWAP1 DUP2 MSTORE PUSH1 0x4 PUSH1 0x20 MSTORE PUSH1 0x40 DUP2 KECCAK256 SWAP1 JUMPDEST DUP2 SLOAD DUP2 LT ISZERO PUSH2 0x132F JUMPI DUP3 PUSH1 0x40 MLOAD PUSH1 0x20 ADD PUSH2 0x1244 SWAP2 SWAP1 PUSH2 0x1891 JUMP JUMPDEST PUSH1 0x40 MLOAD PUSH1 0x20 DUP2 DUP4 SUB SUB DUP2 MSTORE SWAP1 PUSH1 0x40 MSTORE DUP1 MLOAD SWAP1 PUSH1 0x20 ADD KECCAK256 DUP3 DUP3 DUP2 SLOAD DUP2 LT PUSH2 0x126C JUMPI PUSH2 0x126C PUSH2 0x1CA0 JUMP JUMPDEST SWAP1 PUSH1 0x0 MSTORE PUSH1 0x20 PUSH1 0x0 KECCAK256 ADD PUSH1 0x40 MLOAD PUSH1 0x20 ADD PUSH2 0x1286 SWAP2 SWAP1 PUSH2 0x1CCD JUMP JUMPDEST PUSH1 0x40 MLOAD PUSH1 0x20 DUP2 DUP4 SUB SUB DUP2 MSTORE SWAP1 PUSH1 0x40 MSTORE DUP1 MLOAD SWAP1 PUSH1 0x20 ADD KECCAK256 SUB PUSH2 0x1327 JUMPI DUP2 SLOAD DUP3 SWAP1 PUSH2 0x12B1 SWAP1 PUSH1 0x1 SWAP1 PUSH2 0x198F JUMP JUMPDEST DUP2 SLOAD DUP2 LT PUSH2 0x12C1 JUMPI PUSH2 0x12C1 PUSH2 0x1CA0 JUMP JUMPDEST SWAP1 PUSH1 0x0 MSTORE PUSH1 0x20 PUSH1 0x0 KECCAK256 ADD DUP3 DUP3 DUP2 SLOAD DUP2 LT PUSH2 0x12DD JUMPI PUSH2 0x12DD PUSH2 0x1CA0 JUMP JUMPDEST SWAP1 PUSH1 0x0 MSTORE PUSH1 0x20 PUSH1 0x0 KECCAK256 ADD SWAP1 DUP2 PUSH2 0x12F3 SWAP2 SWAP1 PUSH2 0x1D43 JUMP JUMPDEST POP DUP2 DUP1 SLOAD DUP1 PUSH2 0x1304 JUMPI PUSH2 0x1304 PUSH2 0x1E10 JUMP JUMPDEST PUSH1 0x1 SWAP1 SUB DUP2 DUP2 SWAP1 PUSH1 0x0 MSTORE PUSH1 0x20 PUSH1 0x0 KECCAK256 ADD PUSH1 0x0 PUSH2 0x1320 SWAP2 SWAP1 PUSH2 0x148E JUMP JUMPDEST SWAP1 SSTORE PUSH2 0x132F JUMP JUMPDEST PUSH1 0x1 ADD PUSH2 0x122A JUMP JUMPDEST POP POP POP POP JUMP JUMPDEST PUSH1 0x60 PUSH1 0x0 DUP3 SWAP1 POP PUSH1 0x0 DUP2 MLOAD PUSH8 0xFFFFFFFFFFFFFFFF DUP2 GT ISZERO PUSH2 0x1358 JUMPI PUSH2 0x1358 PUSH2 0x14E4 JUMP JUMPDEST PUSH1 0x40 MLOAD SWAP1 DUP1 DUP3 MSTORE DUP1 PUSH1 0x1F ADD PUSH1 0x1F NOT AND PUSH1 0x20 ADD DUP3 ADD PUSH1 0x40 MSTORE DUP1 ISZERO PUSH2 0x1382 JUMPI PUSH1 0x20 DUP3 ADD DUP2 DUP1 CALLDATASIZE DUP4 CALLDATACOPY ADD SWAP1 POP JUMPDEST POP SWAP1 POP PUSH1 0x0 JUMPDEST DUP3 MLOAD DUP2 LT ISZERO PUSH2 0x1486 JUMPI PUSH1 0x41 DUP4 DUP3 DUP2 MLOAD DUP2 LT PUSH2 0x13A5 JUMPI PUSH2 0x13A5 PUSH2 0x1CA0 JUMP JUMPDEST ADD PUSH1 0x20 ADD MLOAD PUSH1 0xF8 SHR LT DUP1 ISZERO SWAP1 PUSH2 0x13D5 JUMPI POP PUSH1 0x5A DUP4 DUP3 DUP2 MLOAD DUP2 LT PUSH2 0x13CA JUMPI PUSH2 0x13CA PUSH2 0x1CA0 JUMP JUMPDEST ADD PUSH1 0x20 ADD MLOAD PUSH1 0xF8 SHR GT ISZERO JUMPDEST ISZERO PUSH2 0x1437 JUMPI DUP3 DUP2 DUP2 MLOAD DUP2 LT PUSH2 0x13EC JUMPI PUSH2 0x13EC PUSH2 0x1CA0 JUMP JUMPDEST PUSH1 0x20 ADD ADD MLOAD PUSH1 0xF8 SHR PUSH1 0xF8 SHL PUSH1 0xF8 SHR PUSH1 0x20 PUSH2 0x1406 SWAP2 SWAP1 PUSH2 0x1E26 JUMP JUMPDEST PUSH1 0xF8 SHL DUP3 DUP3 DUP2 MLOAD DUP2 LT PUSH2 0x141B JUMPI PUSH2 0x141B PUSH2 0x1CA0 JUMP JUMPDEST PUSH1 0x20 ADD ADD SWAP1 PUSH1 0x1 PUSH1 0x1 PUSH1 0xF8 SHL SUB NOT AND SWAP1 DUP2 PUSH1 0x0 BYTE SWAP1 MSTORE8 POP PUSH2 0x147E JUMP JUMPDEST DUP3 DUP2 DUP2 MLOAD DUP2 LT PUSH2 0x1449 JUMPI PUSH2 0x1449 PUSH2 0x1CA0 JUMP JUMPDEST PUSH1 0x20 ADD ADD MLOAD PUSH1 0xF8 SHR PUSH1 0xF8 SHL DUP3 DUP3 DUP2 MLOAD DUP2 LT PUSH2 0x1466 JUMPI PUSH2 0x1466 PUSH2 0x1CA0 JUMP JUMPDEST PUSH1 0x20 ADD ADD SWAP1 PUSH1 0x1 PUSH1 0x1 PUSH1 0xF8 SHL SUB NOT AND SWAP1 DUP2 PUSH1 0x0 BYTE SWAP1 MSTORE8 POP JUMPDEST PUSH1 0x1 ADD PUSH2 0x1388 JUMP JUMPDEST POP SWAP4 SWAP3 POP POP POP JUMP JUMPDEST POP DUP1 SLOAD PUSH2 0x149A SWAP1 PUSH2 0x1A0D JUMP JUMPDEST PUSH1 0x0 DUP3 SSTORE DUP1 PUSH1 0x1F LT PUSH2 0x14AA JUMPI POP POP JUMP JUMPDEST PUSH1 0x1F ADD PUSH1 0x20 SWAP1 DIV SWAP1 PUSH1 0x0 MSTORE PUSH1 0x20 PUSH1 0x0 KECCAK256 SWAP1 DUP2 ADD SWAP1 PUSH2 0x14C8 SWAP2 SWAP1 PUSH2 0x14CB JUMP JUMPDEST POP JUMP JUMPDEST JUMPDEST DUP1 DUP3 GT ISZERO PUSH2 0x14E0 JUMPI PUSH1 0x0 DUP2 SSTORE PUSH1 0x1 ADD PUSH2 0x14CC JUMP JUMPDEST POP SWAP1 JUMP JUMPDEST PUSH4 0x4E487B71 PUSH1 0xE0 SHL PUSH1 0x0 MSTORE PUSH1 0x41 PUSH1 0x4 MSTORE PUSH1 0x24 PUSH1 0x0 REVERT JUMPDEST PUSH1 0x0 PUSH1 0x20 DUP3 DUP5 SUB SLT ISZERO PUSH2 0x150C JUMPI PUSH1 0x0 DUP1 REVERT JUMPDEST DUP2 CALLDATALOAD PUSH8 0xFFFFFFFFFFFFFFFF DUP1 DUP3 GT ISZERO PUSH2 0x1524 JUMPI PUSH1 0x0 DUP1 REVERT JUMPDEST DUP2 DUP5 ADD SWAP2 POP DUP5 PUSH1 0x1F DUP4 ADD SLT PUSH2 0x1538 JUMPI PUSH1 0x0 DUP1 REVERT JUMPDEST DUP2 CALLDATALOAD DUP2 DUP2 GT ISZERO PUSH2 0x154A JUMPI PUSH2 0x154A PUSH2 0x14E4 JUMP JUMPDEST PUSH1 0x40 MLOAD PUSH1 0x1F DUP3 ADD PUSH1 0x1F NOT SWAP1 DUP2 AND PUSH1 0x3F ADD AND DUP2 ADD SWAP1 DUP4 DUP3 GT DUP2 DUP4 LT OR ISZERO PUSH2 0x1572 JUMPI PUSH2 0x1572 PUSH2 0x14E4 JUMP JUMPDEST DUP2 PUSH1 0x40 MSTORE DUP3 DUP2 MSTORE DUP8 PUSH1 0x20 DUP5 DUP8 ADD ADD GT ISZERO PUSH2 0x158B JUMPI PUSH1 0x0 DUP1 REVERT JUMPDEST DUP3 PUSH1 0x20 DUP7 ADD PUSH1 0x20 DUP4 ADD CALLDATACOPY PUSH1 0x0 SWAP3 DUP2 ADD PUSH1 0x20 ADD SWAP3 SWAP1 SWAP3 MSTORE POP SWAP6 SWAP5 POP POP POP POP POP JUMP JUMPDEST PUSH1 0x0 DUP1 DUP4 PUSH1 0x1F DUP5 ADD SLT PUSH2 0x15BD JUMPI PUSH1 0x0 DUP1 REVERT JUMPDEST POP DUP2 CALLDATALOAD PUSH8 0xFFFFFFFFFFFFFFFF DUP2 GT ISZERO PUSH2 0x15D5 JUMPI PUSH1 0x0 DUP1 REVERT JUMPDEST PUSH1 0x20 DUP4 ADD SWAP2 POP DUP4 PUSH1 0x20 DUP3 DUP6 ADD ADD GT ISZERO PUSH2 0x15ED JUMPI PUSH1 0x0 DUP1 REVERT JUMPDEST SWAP3 POP SWAP3 SWAP1 POP JUMP JUMPDEST PUSH1 0x0 DUP1 PUSH1 0x0 PUSH1 0x40 DUP5 DUP7 SUB SLT ISZERO PUSH2 0x1609 JUMPI PUSH1 0x0 DUP1 REVERT JUMPDEST DUP4 CALLDATALOAD PUSH8 0xFFFFFFFFFFFFFFFF DUP2 GT ISZERO PUSH2 0x1620 JUMPI PUSH1 0x0 DUP1 REVERT JUMPDEST PUSH2 0x162C DUP7 DUP3 DUP8 ADD PUSH2 0x15AB JUMP JUMPDEST SWAP1 SWAP8 SWAP1 SWAP7 POP PUSH1 0x20 SWAP6 SWAP1 SWAP6 ADD CALLDATALOAD SWAP5 SWAP4 POP POP POP POP JUMP JUMPDEST PUSH1 0x0 DUP1 PUSH1 0x20 DUP4 DUP6 SUB SLT ISZERO PUSH2 0x1653 JUMPI PUSH1 0x0 DUP1 REVERT JUMPDEST DUP3 CALLDATALOAD PUSH8 0xFFFFFFFFFFFFFFFF DUP2 GT ISZERO PUSH2 0x166A JUMPI PUSH1 0x0 DUP1 REVERT JUMPDEST PUSH2 0x1676 DUP6 DUP3 DUP7 ADD PUSH2 0x15AB JUMP JUMPDEST SWAP1 SWAP7 SWAP1 SWAP6 POP SWAP4 POP POP POP POP JUMP JUMPDEST PUSH1 0x0 PUSH1 0x20 DUP3 DUP5 SUB SLT ISZERO PUSH2 0x1694 JUMPI PUSH1 0x0 DUP1 REVERT JUMPDEST POP CALLDATALOAD SWAP2 SWAP1 POP JUMP JUMPDEST DUP1 CALLDATALOAD PUSH1 0x1 PUSH1 0x1 PUSH1 0xA0 SHL SUB DUP2 AND DUP2 EQ PUSH2 0x16B2 JUMPI PUSH1 0x0 DUP1 REVERT JUMPDEST SWAP2 SWAP1 POP JUMP JUMPDEST PUSH1 0x0 DUP1 PUSH1 0x0 PUSH1 0x40 DUP5 DUP7 SUB SLT ISZERO PUSH2 0x16CC JUMPI PUSH1 0x0 DUP1 REVERT JUMPDEST DUP4 CALLDATALOAD PUSH8 0xFFFFFFFFFFFFFFFF DUP2 GT ISZERO PUSH2 0x16E3 JUMPI PUSH1 0x0 DUP1 REVERT JUMPDEST PUSH2 0x16EF DUP7 DUP3 DUP8 ADD PUSH2 0x15AB JUMP JUMPDEST SWAP1 SWAP5 POP SWAP3 POP PUSH2 0x1702 SWAP1 POP PUSH1 0x20 DUP6 ADD PUSH2 0x169B JUMP JUMPDEST SWAP1 POP SWAP3 POP SWAP3 POP SWAP3 JUMP JUMPDEST PUSH1 0x0 DUP1 PUSH1 0x40 DUP4 DUP6 SUB SLT ISZERO PUSH2 0x171E JUMPI PUSH1 0x0 DUP1 REVERT JUMPDEST PUSH2 0x1727 DUP4 PUSH2 0x169B JUMP JUMPDEST SWAP5 PUSH1 0x20 SWAP4 SWAP1 SWAP4 ADD CALLDATALOAD SWAP4 POP POP POP JUMP JUMPDEST PUSH1 0x0 DUP1 PUSH1 0x0 DUP1 PUSH1 0x0 DUP1 PUSH1 0x80 DUP8 DUP10 SUB SLT ISZERO PUSH2 0x174E JUMPI PUSH1 0x0 DUP1 REVERT JUMPDEST DUP7 CALLDATALOAD PUSH8 0xFFFFFFFFFFFFFFFF DUP1 DUP3 GT ISZERO PUSH2 0x1766 JUMPI PUSH1 0x0 DUP1 REVERT JUMPDEST PUSH2 0x1772 DUP11 DUP4 DUP12 ADD PUSH2 0x15AB JUMP JUMPDEST SWAP1 SWAP9 POP SWAP7 POP DUP7 SWAP2 POP PUSH2 0x1786 PUSH1 0x20 DUP11 ADD PUSH2 0x169B JUMP JUMPDEST SWAP6 POP PUSH1 0x40 DUP10 ADD CALLDATALOAD SWAP5 POP PUSH1 0x60 DUP10 ADD CALLDATALOAD SWAP2 POP DUP1 DUP3 GT ISZERO PUSH2 0x17A3 JUMPI PUSH1 0x0 DUP1 REVERT JUMPDEST POP PUSH2 0x17B0 DUP10 DUP3 DUP11 ADD PUSH2 0x15AB JUMP JUMPDEST SWAP8 SWAP11 SWAP7 SWAP10 POP SWAP5 SWAP8 POP SWAP3 SWAP6 SWAP4 SWAP5 SWAP3 POP POP POP JUMP JUMPDEST PUSH1 0x0 PUSH1 0x20 DUP3 DUP5 SUB SLT ISZERO PUSH2 0x17D4 JUMPI PUSH1 0x0 DUP1 REVERT JUMPDEST PUSH2 0x5D9 DUP3 PUSH2 0x169B JUMP JUMPDEST PUSH1 0x0 JUMPDEST DUP4 DUP2 LT ISZERO PUSH2 0x17F8 JUMPI DUP2 DUP2 ADD MLOAD DUP4 DUP3 ADD MSTORE PUSH1 0x20 ADD PUSH2 0x17E0 JUMP JUMPDEST POP POP PUSH1 0x0 SWAP2 ADD MSTORE JUMP JUMPDEST PUSH1 0x0 DUP2 MLOAD DUP1 DUP5 MSTORE PUSH2 0x1819 DUP2 PUSH1 0x20 DUP7 ADD PUSH1 0x20 DUP7 ADD PUSH2 0x17DD JUMP JUMPDEST PUSH1 0x1F ADD PUSH1 0x1F NOT AND SWAP3 SWAP1 SWAP3 ADD PUSH1 0x20 ADD SWAP3 SWAP2 POP POP JUMP JUMPDEST PUSH1 0x0 PUSH1 0x20 DUP1 DUP4 ADD PUSH1 0x20 DUP5 MSTORE DUP1 DUP6 MLOAD DUP1 DUP4 MSTORE PUSH1 0x40 DUP7 ADD SWAP2 POP PUSH1 0x40 DUP2 PUSH1 0x5 SHL DUP8 ADD ADD SWAP3 POP PUSH1 0x20 DUP8 ADD PUSH1 0x0 JUMPDEST DUP3 DUP2 LT ISZERO PUSH2 0x1884 JUMPI PUSH1 0x3F NOT DUP9 DUP7 SUB ADD DUP5 MSTORE PUSH2 0x1872 DUP6 DUP4 MLOAD PUSH2 0x1801 JUMP JUMPDEST SWAP5 POP SWAP3 DUP6 ADD SWAP3 SWAP1 DUP6 ADD SWAP1 PUSH1 0x1 ADD PUSH2 0x1856 JUMP JUMPDEST POP SWAP3 SWAP8 SWAP7 POP POP POP POP POP POP POP JUMP JUMPDEST PUSH1 0x0 DUP3 MLOAD PUSH2 0x18A3 DUP2 DUP5 PUSH1 0x20 DUP8 ADD PUSH2 0x17DD JUMP JUMPDEST SWAP2 SWAP1 SWAP2 ADD SWAP3 SWAP2 POP POP JUMP JUMPDEST PUSH1 0x20 DUP1 DUP3 MSTORE PUSH1 0x25 SWAP1 DUP3 ADD MSTORE PUSH32 0x596F7520617265206E6F7420746865206F776E6572206F66207468697320646F PUSH1 0x40 DUP3 ADD MSTORE PUSH5 0x36B0B4B717 PUSH1 0xD9 SHL PUSH1 0x60 DUP3 ADD MSTORE PUSH1 0x80 ADD SWAP1 JUMP JUMPDEST PUSH4 0x4E487B71 PUSH1 0xE0 SHL PUSH1 0x0 MSTORE PUSH1 0x11 PUSH1 0x4 MSTORE PUSH1 0x24 PUSH1 0x0 REVERT JUMPDEST DUP1 DUP3 MUL DUP2 ISZERO DUP3 DUP3 DIV DUP5 EQ OR PUSH2 0x5DC JUMPI PUSH2 0x5DC PUSH2 0x18F2 JUMP JUMPDEST DUP2 DUP4 DUP3 CALLDATACOPY PUSH1 0x0 SWAP2 ADD SWAP1 DUP2 MSTORE SWAP2 SWAP1 POP JUMP JUMPDEST DUP1 DUP3 ADD DUP1 DUP3 GT ISZERO PUSH2 0x5DC JUMPI PUSH2 0x5DC PUSH2 0x18F2 JUMP JUMPDEST DUP2 DUP4 MSTORE DUP2 DUP2 PUSH1 0x20 DUP6 ADD CALLDATACOPY POP PUSH1 0x0 DUP3 DUP3 ADD PUSH1 0x20 SWAP1 DUP2 ADD SWAP2 SWAP1 SWAP2 MSTORE PUSH1 0x1F SWAP1 SWAP2 ADD PUSH1 0x1F NOT AND SWAP1 SWAP2 ADD ADD SWAP1 JUMP JUMPDEST PUSH1 0x40 DUP2 MSTORE PUSH1 0x0 PUSH2 0x197F PUSH1 0x40 DUP4 ADD DUP6 DUP8 PUSH2 0x1942 JUMP JUMPDEST SWAP1 POP DUP3 PUSH1 0x20 DUP4 ADD MSTORE SWAP5 SWAP4 POP POP POP POP JUMP JUMPDEST DUP2 DUP2 SUB DUP2 DUP2 GT ISZERO PUSH2 0x5DC JUMPI PUSH2 0x5DC PUSH2 0x18F2 JUMP JUMPDEST PUSH1 0x20 DUP1 DUP3 MSTORE PUSH1 0x2F SWAP1 DUP3 ADD MSTORE PUSH32 0x4F6E6C792074686520636F6E7472616374206F776E65722063616E2063616C6C PUSH1 0x40 DUP3 ADD MSTORE PUSH15 0x103A3434B990333AB731BA34B7B717 PUSH1 0x89 SHL PUSH1 0x60 DUP3 ADD MSTORE PUSH1 0x80 ADD SWAP1 JUMP JUMPDEST PUSH1 0x20 DUP2 MSTORE PUSH1 0x0 PUSH2 0x1A05 PUSH1 0x20 DUP4 ADD DUP5 DUP7 PUSH2 0x1942 JUMP JUMPDEST SWAP5 SWAP4 POP POP POP POP JUMP JUMPDEST PUSH1 0x1 DUP2 DUP2 SHR SWAP1 DUP3 AND DUP1 PUSH2 0x1A21 JUMPI PUSH1 0x7F DUP3 AND SWAP2 POP JUMPDEST PUSH1 0x20 DUP3 LT DUP2 SUB PUSH2 0x1A41 JUMPI PUSH4 0x4E487B71 PUSH1 0xE0 SHL PUSH1 0x0 MSTORE PUSH1 0x22 PUSH1 0x4 MSTORE PUSH1 0x24 PUSH1 0x0 REVERT JUMPDEST POP SWAP2 SWAP1 POP JUMP JUMPDEST PUSH1 0x1F DUP3 GT ISZERO PUSH2 0xB77 JUMPI PUSH1 0x0 DUP2 PUSH1 0x0 MSTORE PUSH1 0x20 PUSH1 0x0 KECCAK256 PUSH1 0x1F DUP6 ADD PUSH1 0x5 SHR DUP2 ADD PUSH1 0x20 DUP7 LT ISZERO PUSH2 0x1A70 JUMPI POP DUP1 JUMPDEST PUSH1 0x1F DUP6 ADD PUSH1 0x5 SHR DUP3 ADD SWAP2 POP JUMPDEST DUP2 DUP2 LT ISZERO PUSH2 0x1A8F JUMPI DUP3 DUP2 SSTORE PUSH1 0x1 ADD PUSH2 0x1A7C JUMP JUMPDEST POP POP POP POP POP POP JUMP JUMPDEST PUSH1 0x0 NOT PUSH1 0x3 DUP4 SWAP1 SHL SHR NOT AND PUSH1 0x1 SWAP2 SWAP1 SWAP2 SHL OR SWAP1 JUMP JUMPDEST PUSH8 0xFFFFFFFFFFFFFFFF DUP4 GT ISZERO PUSH2 0x1AC4 JUMPI PUSH2 0x1AC4 PUSH2 0x14E4 JUMP JUMPDEST PUSH2 0x1AD8 DUP4 PUSH2 0x1AD2 DUP4 SLOAD PUSH2 0x1A0D JUMP JUMPDEST DUP4 PUSH2 0x1A47 JUMP JUMPDEST PUSH1 0x0 PUSH1 0x1F DUP5 GT PUSH1 0x1 DUP2 EQ PUSH2 0x1B06 JUMPI PUSH1 0x0 DUP6 ISZERO PUSH2 0x1AF4 JUMPI POP DUP4 DUP3 ADD CALLDATALOAD JUMPDEST PUSH2 0x1AFE DUP7 DUP3 PUSH2 0x1A97 JUMP JUMPDEST DUP5 SSTORE POP PUSH2 0x1B60 JUMP JUMPDEST PUSH1 0x0 DUP4 DUP2 MSTORE PUSH1 0x20 SWAP1 KECCAK256 PUSH1 0x1F NOT DUP7 AND SWAP1 DUP4 JUMPDEST DUP3 DUP2 LT ISZERO PUSH2 0x1B37 JUMPI DUP7 DUP6 ADD CALLDATALOAD DUP3 SSTORE PUSH1 0x20 SWAP5 DUP6 ADD SWAP5 PUSH1 0x1 SWAP1 SWAP3 ADD SWAP2 ADD PUSH2 0x1B17 JUMP JUMPDEST POP DUP7 DUP3 LT ISZERO PUSH2 0x1B54 JUMPI PUSH1 0x0 NOT PUSH1 0xF8 DUP9 PUSH1 0x3 SHL AND SHR NOT DUP5 DUP8 ADD CALLDATALOAD AND DUP2 SSTORE JUMPDEST POP POP PUSH1 0x1 DUP6 PUSH1 0x1 SHL ADD DUP4 SSTORE JUMPDEST POP POP POP POP POP JUMP JUMPDEST PUSH1 0x0 PUSH1 0x20 DUP3 DUP5 SUB SLT ISZERO PUSH2 0x1B79 JUMPI PUSH1 0x0 DUP1 REVERT JUMPDEST DUP2 MLOAD DUP1 ISZERO ISZERO DUP2 EQ PUSH2 0x1B89 JUMPI PUSH1 0x0 DUP1 REVERT JUMPDEST SWAP4 SWAP3 POP POP POP JUMP JUMPDEST PUSH1 0x0 DUP5 MLOAD PUSH2 0x1BA2 DUP2 DUP5 PUSH1 0x20 DUP10 ADD PUSH2 0x17DD JUMP JUMPDEST DUP3 ADD DUP4 DUP6 DUP3 CALLDATACOPY PUSH1 0x0 SWAP4 ADD SWAP3 DUP4 MSTORE POP SWAP1 SWAP4 SWAP3 POP POP POP JUMP JUMPDEST DUP2 MLOAD PUSH8 0xFFFFFFFFFFFFFFFF DUP2 GT ISZERO PUSH2 0x1BD2 JUMPI PUSH2 0x1BD2 PUSH2 0x14E4 JUMP JUMPDEST PUSH2 0x1BE6 DUP2 PUSH2 0x1BE0 DUP5 SLOAD PUSH2 0x1A0D JUMP JUMPDEST DUP5 PUSH2 0x1A47 JUMP JUMPDEST PUSH1 0x20 DUP1 PUSH1 0x1F DUP4 GT PUSH1 0x1 DUP2 EQ PUSH2 0x1C15 JUMPI PUSH1 0x0 DUP5 ISZERO PUSH2 0x1C03 JUMPI POP DUP6 DUP4 ADD MLOAD JUMPDEST PUSH2 0x1C0D DUP6 DUP3 PUSH2 0x1A97 JUMP JUMPDEST DUP7 SSTORE POP PUSH2 0x1A8F JUMP JUMPDEST PUSH1 0x0 DUP6 DUP2 MSTORE PUSH1 0x20 DUP2 KECCAK256 PUSH1 0x1F NOT DUP7 AND SWAP2 JUMPDEST DUP3 DUP2 LT ISZERO PUSH2 0x1C44 JUMPI DUP9 DUP7 ADD MLOAD DUP3 SSTORE SWAP5 DUP5 ADD SWAP5 PUSH1 0x1 SWAP1 SWAP2 ADD SWAP1 DUP5 ADD PUSH2 0x1C25 JUMP JUMPDEST POP DUP6 DUP3 LT ISZERO PUSH2 0x1C62 JUMPI DUP8 DUP6 ADD MLOAD PUSH1 0x0 NOT PUSH1 0x3 DUP9 SWAP1 SHL PUSH1 0xF8 AND SHR NOT AND DUP2 SSTORE JUMPDEST POP POP POP POP POP PUSH1 0x1 SWAP1 DUP2 SHL ADD SWAP1 SSTORE POP JUMP JUMPDEST PUSH1 0x60 DUP2 MSTORE PUSH1 0x0 PUSH2 0x1C85 PUSH1 0x60 DUP4 ADD DUP7 PUSH2 0x1801 JUMP JUMPDEST PUSH1 0x1 PUSH1 0x1 PUSH1 0xA0 SHL SUB SWAP5 SWAP1 SWAP5 AND PUSH1 0x20 DUP4 ADD MSTORE POP PUSH1 0x40 ADD MSTORE SWAP2 SWAP1 POP JUMP JUMPDEST PUSH4 0x4E487B71 PUSH1 0xE0 SHL PUSH1 0x0 MSTORE PUSH1 0x32 PUSH1 0x4 MSTORE PUSH1 0x24 PUSH1 0x0 REVERT JUMPDEST PUSH1 0x0 DUP2 PUSH2 0x1CC5 JUMPI PUSH2 0x1CC5 PUSH2 0x18F2 JUMP JUMPDEST POP PUSH1 0x0 NOT ADD SWAP1 JUMP JUMPDEST PUSH1 0x0 DUP1 DUP4 SLOAD PUSH2 0x1CDB DUP2 PUSH2 0x1A0D JUMP JUMPDEST PUSH1 0x1 DUP3 DUP2 AND DUP1 ISZERO PUSH2 0x1CF3 JUMPI PUSH1 0x1 DUP2 EQ PUSH2 0x1D08 JUMPI PUSH2 0x1D37 JUMP JUMPDEST PUSH1 0xFF NOT DUP5 AND DUP8 MSTORE DUP3 ISZERO ISZERO DUP4 MUL DUP8 ADD SWAP5 POP PUSH2 0x1D37 JUMP JUMPDEST DUP8 PUSH1 0x0 MSTORE PUSH1 0x20 DUP1 PUSH1 0x0 KECCAK256 PUSH1 0x0 JUMPDEST DUP6 DUP2 LT ISZERO PUSH2 0x1D2E JUMPI DUP2 SLOAD DUP11 DUP3 ADD MSTORE SWAP1 DUP5 ADD SWAP1 DUP3 ADD PUSH2 0x1D15 JUMP JUMPDEST POP POP POP DUP3 DUP8 ADD SWAP5 POP JUMPDEST POP SWAP3 SWAP7 SWAP6 POP POP POP POP POP POP JUMP JUMPDEST DUP2 DUP2 SUB PUSH2 0x1D4E JUMPI POP POP JUMP JUMPDEST PUSH2 0x1D58 DUP3 SLOAD PUSH2 0x1A0D JUMP JUMPDEST PUSH8 0xFFFFFFFFFFFFFFFF DUP2 GT ISZERO PUSH2 0x1D70 JUMPI PUSH2 0x1D70 PUSH2 0x14E4 JUMP JUMPDEST PUSH2 0x1D7E DUP2 PUSH2 0x1BE0 DUP5 SLOAD PUSH2 0x1A0D JUMP JUMPDEST PUSH1 0x0 PUSH1 0x1F DUP3 GT PUSH1 0x1 DUP2 EQ PUSH2 0x1DAC JUMPI PUSH1 0x0 DUP4 ISZERO PUSH2 0x1D9A JUMPI POP DUP5 DUP3 ADD SLOAD JUMPDEST PUSH2 0x1DA4 DUP5 DUP3 PUSH2 0x1A97 JUMP JUMPDEST DUP6 SSTORE POP PUSH2 0x1B60 JUMP JUMPDEST PUSH1 0x0 DUP6 DUP2 MSTORE PUSH1 0x20 SWAP1 KECCAK256 PUSH1 0x1F NOT DUP5 AND SWAP1 PUSH1 0x0 DUP7 DUP2 MSTORE PUSH1 0x20 SWAP1 KECCAK256 DUP5 JUMPDEST DUP4 DUP2 LT ISZERO PUSH2 0x1DE6 JUMPI DUP3 DUP7 ADD SLOAD DUP3 SSTORE PUSH1 0x1 SWAP6 DUP7 ADD SWAP6 SWAP1 SWAP2 ADD SWAP1 PUSH1 0x20 ADD PUSH2 0x1DC6 JUMP JUMPDEST POP DUP6 DUP4 LT ISZERO PUSH2 0x1C62 JUMPI SWAP4 ADD SLOAD PUSH1 0x0 NOT PUSH1 0xF8 PUSH1 0x3 DUP8 SWAP1 SHL AND SHR NOT AND SWAP1 SWAP3 SSTORE POP POP PUSH1 0x1 SWAP1 DUP2 SHL ADD SWAP1 SSTORE POP JUMP JUMPDEST PUSH4 0x4E487B71 PUSH1 0xE0 SHL PUSH1 0x0 MSTORE PUSH1 0x31 PUSH1 0x4 MSTORE PUSH1 0x24 PUSH1 0x0 REVERT JUMPDEST PUSH1 0xFF DUP2 DUP2 AND DUP4 DUP3 AND ADD SWAP1 DUP2 GT ISZERO PUSH2 0x5DC JUMPI PUSH2 0x5DC PUSH2 0x18F2 JUMP INVALID LOG2 PUSH5 0x6970667358 0x22 SLT KECCAK256 0xE PUSH25 0x9797EAAAE54246499524E55DA7FF9C866CBD33693E3E1B25FA 0xDA 0xDA 0xC9 0x1F COINBASE PUSH5 0x736F6C6343 STOP ADDMOD AND STOP CALLER "
		},
		"gasEstimates": {
			"creation": {
				"codeDepositCost": "1559400",
				"executionCost": "25866",
				"totalCost": "1585266"
			},
			"external": {
				"changeResolver(string,address)": "infinite",
				"currentImplementation()": "2403",
				"getDomainInfo(string)": "infinite",
				"getDomainsByOwner(address)": "infinite",
				"isDomainAvailable(string)": "infinite",
				"owner()": "2382",
				"registerDomain(string,address,uint256,string)": "infinite",
				"renewDomain(string,uint256)": "infinite",
				"setSuffixPrice(string,uint256)": "infinite",
				"suffixPrices(string)": "infinite",
				"transferDomainOwnership(string,address)": "infinite",
				"withdrawCurrency(uint256)": "infinite",
				"withdrawToken(address,uint256)": "infinite"
			},
			"internal": {
				"_extractSuffix(string memory,uint256)": "infinite",
				"_getSuffixPosition(string memory)": "infinite",
				"_removeDomainFromOwner(address,string memory)": "infinite",
				"toLowerCase(string memory)": "infinite"
			}
		},
		"methodIdentifiers": {
			"changeResolver(string,address)": "894d46ac",
			"currentImplementation()": "d8bd5c29",
			"getDomainInfo(string)": "4889e192",
			"getDomainsByOwner(address)": "f38ffb6c",
			"isDomainAvailable(string)": "32752b09",
			"owner()": "8da5cb5b",
			"registerDomain(string,address,uint256,string)": "cc69784a",
			"renewDomain(string,uint256)": "1a83fd8f",
			"setSuffixPrice(string,uint256)": "35b9e937",
			"suffixPrices(string)": "031c1301",
			"transferDomainOwnership(string,address)": "913986bb",
			"withdrawCurrency(uint256)": "3c00a36c",
			"withdrawToken(address,uint256)": "9e281a98"
		}
	},
	"abi": [
		{
			"inputs": [],
			"stateMutability": "nonpayable",
			"type": "constructor"
		},
		{
			"anonymous": false,
			"inputs": [
				{
					"indexed": false,
					"internalType": "string",
					"name": "name",
					"type": "string"
				},
				{
					"indexed": true,
					"internalType": "address",
					"name": "previousOwner",
					"type": "address"
				},
				{
					"indexed": true,
					"internalType": "address",
					"name": "newOwner",
					"type": "address"
				}
			],
			"name": "DomainOwnershipTransferred",
			"type": "event"
		},
		{
			"anonymous": false,
			"inputs": [
				{
					"indexed": false,
					"internalType": "string",
					"name": "name",
					"type": "string"
				},
				{
					"indexed": true,
					"internalType": "address",
					"name": "owner",
					"type": "address"
				},
				{
					"indexed": false,
					"internalType": "address",
					"name": "resolver",
					"type": "address"
				},
				{
					"indexed": false,
					"internalType": "uint256",
					"name": "expiration",
					"type": "uint256"
				}
			],
			"name": "DomainRegistered",
			"type": "event"
		},
		{
			"anonymous": false,
			"inputs": [
				{
					"indexed": false,
					"internalType": "string",
					"name": "name",
					"type": "string"
				},
				{
					"indexed": false,
					"internalType": "uint256",
					"name": "newExpiration",
					"type": "uint256"
				}
			],
			"name": "DomainRenewed",
			"type": "event"
		},
		{
			"anonymous": false,
			"inputs": [
				{
					"indexed": false,
					"internalType": "string",
					"name": "name",
					"type": "string"
				},
				{
					"indexed": true,
					"internalType": "address",
					"name": "resolver",
					"type": "address"
				}
			],
			"name": "ResolverChanged",
			"type": "event"
		},
		{
			"anonymous": false,
			"inputs": [
				{
					"indexed": false,
					"internalType": "string",
					"name": "suffix",
					"type": "string"
				},
				{
					"indexed": false,
					"internalType": "uint256",
					"name": "newCost",
					"type": "uint256"
				}
			],
			"name": "SuffixPriceChanged",
			"type": "event"
		},
		{
			"inputs": [
				{
					"internalType": "string",
					"name": "domainName",
					"type": "string"
				},
				{
					"internalType": "address",
					"name": "newResolver",
					"type": "address"
				}
			],
			"name": "changeResolver",
			"outputs": [],
			"stateMutability": "nonpayable",
			"type": "function"
		},
		{
			"inputs": [],
			"name": "currentImplementation",
			"outputs": [
				{
					"internalType": "address",
					"name": "",
					"type": "address"
				}
			],
			"stateMutability": "view",
			"type": "function"
		},
		{
			"inputs": [
				{
					"internalType": "string",
					"name": "domainName",
					"type": "string"
				}
			],
			"name": "getDomainInfo",
			"outputs": [
				{
					"internalType": "address",
					"name": "domainOwner",
					"type": "address"
				},
				{
					"internalType": "address",
					"name": "resolver",
					"type": "address"
				},
				{
					"internalType": "uint256",
					"name": "expiration",
					"type": "uint256"
				}
			],
			"stateMutability": "view",
			"type": "function"
		},
		{
			"inputs": [
				{
					"internalType": "address",
					"name": "domainOwner",
					"type": "address"
				}
			],
			"name": "getDomainsByOwner",
			"outputs": [
				{
					"internalType": "string[]",
					"name": "",
					"type": "string[]"
				}
			],
			"stateMutability": "view",
			"type": "function"
		},
		{
			"inputs": [
				{
					"internalType": "string",
					"name": "domainName",
					"type": "string"
				}
			],
			"name": "isDomainAvailable",
			"outputs": [
				{
					"internalType": "bool",
					"name": "",
					"type": "bool"
				}
			],
			"stateMutability": "view",
			"type": "function"
		},
		{
			"inputs": [],
			"name": "owner",
			"outputs": [
				{
					"internalType": "address",
					"name": "",
					"type": "address"
				}
			],
			"stateMutability": "view",
			"type": "function"
		},
		{
			"inputs": [
				{
					"internalType": "string",
					"name": "name",
					"type": "string"
				},
				{
					"internalType": "address",
					"name": "initialResolver",
					"type": "address"
				},
				{
					"internalType": "uint256",
					"name": "registrationYears",
					"type": "uint256"
				},
				{
					"internalType": "string",
					"name": "chosenSuffix",
					"type": "string"
				}
			],
			"name": "registerDomain",
			"outputs": [],
			"stateMutability": "payable",
			"type": "function"
		},
		{
			"inputs": [
				{
					"internalType": "string",
					"name": "domainName",
					"type": "string"
				},
				{
					"internalType": "uint256",
					"name": "registrationYears",
					"type": "uint256"
				}
			],
			"name": "renewDomain",
			"outputs": [],
			"stateMutability": "payable",
			"type": "function"
		},
		{
			"inputs": [
				{
					"internalType": "string",
					"name": "suffix",
					"type": "string"
				},
				{
					"internalType": "uint256",
					"name": "newCost",
					"type": "uint256"
				}
			],
			"name": "setSuffixPrice",
			"outputs": [],
			"stateMutability": "nonpayable",
			"type": "function"
		},
		{
			"inputs": [
				{
					"internalType": "string",
					"name": "",
					"type": "string"
				}
			],
			"name": "suffixPrices",
			"outputs": [
				{
					"internalType": "uint256",
					"name": "",
					"type": "uint256"
				}
			],
			"stateMutability": "view",
			"type": "function"
		},
		{
			"inputs": [
				{
					"internalType": "string",
					"name": "domainName",
					"type": "string"
				},
				{
					"internalType": "address",
					"name": "newOwner",
					"type": "address"
				}
			],
			"name": "transferDomainOwnership",
			"outputs": [],
			"stateMutability": "nonpayable",
			"type": "function"
		},
		{
			"inputs": [
				{
					"internalType": "uint256",
					"name": "amt",
					"type": "uint256"
				}
			],
			"name": "withdrawCurrency",
			"outputs": [],
			"stateMutability": "nonpayable",
			"type": "function"
		},
		{
			"inputs": [
				{
					"internalType": "address",
					"name": "token",
					"type": "address"
				},
				{
					"internalType": "uint256",
					"name": "amt",
					"type": "uint256"
				}
			],
			"name": "withdrawToken",
			"outputs": [],
			"stateMutability": "nonpayable",
			"type": "function"
		}
	]
}