{
	"data": {
		"bytecode": {
			"linkReferences": {},
			"object": "608060405234801561000f575f80fd5b505f80546001600160a01b0319163317905561119c8061002e5f395ff3fe608060405234801561000f575f80fd5b506004361061009b575f3560e01c8063943e821611610063578063943e821614610157578063acbab3a91461016a578063bc903cb81461017f578063ca6d56dc146101a6578063cceb68f5146101b9575f80fd5b8063013cf08b1461009f57806308ae4b0c146100cf5780632ab09d14146101015780636b5e1766146101185780638da5cb5b1461012d575b5f80fd5b6100b26100ad366004610b9c565b6101ce565b6040516100c6989796959493929190610bf6565b60405180910390f35b6100f16100dd366004610c5c565b60036020525f908152604090205460ff1681565b60405190151581526020016100c6565b61010a60015481565b6040519081526020016100c6565b61012b610126366004610d26565b610325565b005b5f5461013f906001600160a01b031681565b6040516001600160a01b0390911681526020016100c6565b61012b610165366004610d95565b610482565b6101726106e6565b6040516100c69190610dc6565b61019261018d366004610b9c565b610819565b6040516100c6989796959493929190610e8a565b61012b6101b4366004610c5c565b610a0d565b6101c1610b20565b6040516100c69190610ee3565b600260208190525f918252604090912080546001820154928201805491936001600160a01b0316929161020090610f26565b80601f016020809104026020016040519081016040528092919081815260200182805461022c90610f26565b80156102775780601f1061024e57610100808354040283529160200191610277565b820191905f5260205f20905b81548152906001019060200180831161025a57829003601f168201915b50505050509080600301805461028c90610f26565b80601f01602080910402602001604051908101604052809291908181526020018280546102b890610f26565b80156103035780601f106102da57610100808354040283529160200191610303565b820191905f5260205f20905b8154815290600101906020018083116102e657829003601f168201915b5050505050908060040154908060050154908060080154908060090154905088565b5f546001600160a01b0316331461037c5760405162461bcd60e51b81526020600482015260166024820152752737ba103a34329031b7b73a3930b1ba1037bbb732b960511b60448201526064015b60405180910390fd5b8082106103c25760405162461bcd60e51b8152602060048201526014602482015273496e76616c696420766f74696e672074696d657360601b6044820152606401610373565b600180545f81815260026020819052604090912091825591810180546001600160a01b031916331790559081016103f98682610fa4565b50600381016104088582610fa4565b5060048101839055600581018290555f6008820181905560098201556001546040517ffaa337366f7965edea73e5dda4e27a18008218bee177df73f82fc597a1f4dd089161045f9133908990899089908990611064565b60405180910390a160018054905f610476836110c9565b91905055505050505050565b335f9081526003602052604090205460ff166104d35760405162461bcd60e51b815260206004820152601060248201526f2737ba1030902220a79036b2b6b132b960811b6044820152606401610373565b81600154811061051b5760405162461bcd60e51b8152602060048201526013602482015272125b9d985b1a59081c1c9bdc1bdcd85b081251606a1b6044820152606401610373565b5f83815260026020526040902060048101544210801590610540575080600501544211155b61058c5760405162461bcd60e51b815260206004820152601f60248201527f566f74696e67206f7574736964652074686520616c6c6f7765642074696d65006044820152606401610373565b335f90815260068201602052604090205460ff16156105ed5760405162461bcd60e51b815260206004820152601960248201527f416464726573732068617320616c726561647920766f746564000000000000006044820152606401610373565b335f90815260068201602090815260408083208054600160ff1991821681179092556007860190935292208054869391921690836002811115610632576106326110e1565b0217905550600183600281111561064b5761064b6110e1565b0361066f576001816008015f82825461066491906110f5565b909155506106a29050565b6002836002811115610683576106836110e1565b036106a2576001816009015f82825461069c91906110f5565b90915550505b7f2635c84c3a8027a303ca6d6e90b1c4a9604754040372414d244aadfa6471751884338560016040516106d8949392919061110e565b60405180910390a150505050565b60605f60015467ffffffffffffffff81111561070457610704610c89565b60405190808252806020026020018201604052801561077757816020015b6107646040518061010001604052805f815260200160608152602001606081526020015f81526020015f81526020015f81526020015f81526020015f81525090565b8152602001906001900390816107225790505b5090505f5b600154811015610813575f805f805f805f8061079789610819565b97509750975097509750975097509750604051806101000160405280898152602001888152602001878152602001868152602001858152602001848152602001838152602001828152508a8a815181106107f3576107f3611152565b60200260200101819052505050505050505050808060010191505061077c565b50919050565b5f6060805f805f805f88600154811061086a5760405162461bcd60e51b8152602060048201526013602482015272125b9d985b1a59081c1c9bdc1bdcd85b081251606a1b6044820152606401610373565b5f8a81526002602052604081206008810154600982015460058301549293919290919042101561089b57505f6108c0565b8183116108b7578183146108b05760036108ba565b60026108ba565b60015b60ff1690505b835f0154846002018560030185858589600401548a600501548680546108e590610f26565b80601f016020809104026020016040519081016040528092919081815260200182805461091190610f26565b801561095c5780601f106109335761010080835404028352916020019161095c565b820191905f5260205f20905b81548152906001019060200180831161093f57829003601f168201915b5050505050965085805461096f90610f26565b80601f016020809104026020016040519081016040528092919081815260200182805461099b90610f26565b80156109e65780601f106109bd576101008083540402835291602001916109e6565b820191905f5260205f20905b8154815290600101906020018083116109c957829003601f168201915b505050505095509c509c509c509c509c509c509c509c505050505050919395975091939597565b5f546001600160a01b03163314610a5f5760405162461bcd60e51b81526020600482015260166024820152752737ba103a34329031b7b73a3930b1ba1037bbb732b960511b6044820152606401610373565b6001600160a01b0381165f9081526003602052604090205460ff1615610ac75760405162461bcd60e51b815260206004820152601b60248201527f4164647265737320697320616c72656164792061206d656d62657200000000006044820152606401610373565b6001600160a01b0381165f81815260036020908152604091829020805460ff1916600117905590519182527fb251eb052afc73ffd02ffe85ad79990a8b3fed60d76dbc2fa2fdd7123dffd914910160405180910390a150565b60605f60015467ffffffffffffffff811115610b3e57610b3e610c89565b604051908082528060200260200182016040528015610b67578160200160208202803683370190505b5090505f5b6001548110156108135780828281518110610b8957610b89611152565b6020908102919091010152600101610b6c565b5f60208284031215610bac575f80fd5b5035919050565b5f81518084525f5b81811015610bd757602081850181015186830182015201610bbb565b505f602082860101526020601f19601f83011685010191505092915050565b8881526001600160a01b0388166020820152610100604082018190525f90610c208382018a610bb3565b90508281036060840152610c348189610bb3565b9150508560808301528460a08301528360c08301528260e08301529998505050505050505050565b5f60208284031215610c6c575f80fd5b81356001600160a01b0381168114610c82575f80fd5b9392505050565b634e487b7160e01b5f52604160045260245ffd5b5f82601f830112610cac575f80fd5b813567ffffffffffffffff80821115610cc757610cc7610c89565b604051601f8301601f19908116603f01168101908282118183101715610cef57610cef610c89565b81604052838152866020858801011115610d07575f80fd5b836020870160208301375f602085830101528094505050505092915050565b5f805f8060808587031215610d39575f80fd5b843567ffffffffffffffff80821115610d50575f80fd5b610d5c88838901610c9d565b95506020870135915080821115610d71575f80fd5b50610d7e87828801610c9d565b949794965050505060408301359260600135919050565b5f8060408385031215610da6575f80fd5b82359150602083013560038110610dbb575f80fd5b809150509250929050565b5f60208083018184528085518083526040925060408601915060408160051b8701018488015f5b83811015610e7c57603f1989840301855281516101008151855288820151818a870152610e1c82870182610bb3565b9150508782015185820389870152610e348282610bb3565b606084810151908801526080808501519088015260a0808501519088015260c0808501519088015260e093840151939096019290925250509386019390860190600101610ded565b509098975050505050505050565b5f6101008a8352806020840152610ea38184018b610bb3565b90508281036040840152610eb7818a610bb3565b60608401989098525050608081019490945260a084019290925260c083015260e0909101529392505050565b602080825282518282018190525f9190848201906040850190845b81811015610f1a57835183529284019291840191600101610efe565b50909695505050505050565b600181811c90821680610f3a57607f821691505b60208210810361081357634e487b7160e01b5f52602260045260245ffd5b601f821115610f9f57805f5260205f20601f840160051c81016020851015610f7d5750805b601f840160051c820191505b81811015610f9c575f8155600101610f89565b50505b505050565b815167ffffffffffffffff811115610fbe57610fbe610c89565b610fd281610fcc8454610f26565b84610f58565b602080601f831160018114611005575f8415610fee5750858301515b5f19600386901b1c1916600185901b17855561105c565b5f85815260208120601f198616915b8281101561103357888601518255948401946001909101908401611014565b508582101561105057878501515f19600388901b60f8161c191681555b505060018460011b0185555b505050505050565b8681526001600160a01b038616602082015260c0604082018190525f9061108d90830187610bb3565b828103606084015261109f8187610bb3565b6080840195909552505060a00152949350505050565b634e487b7160e01b5f52601160045260245ffd5b5f600182016110da576110da6110b5565b5060010190565b634e487b7160e01b5f52602160045260245ffd5b80820180821115611108576111086110b5565b92915050565b8481526001600160a01b0384166020820152608081016003841061114057634e487b7160e01b5f52602160045260245ffd5b60408201939093526060015292915050565b634e487b7160e01b5f52603260045260245ffdfea26469706673582212204b23a77be517e9b6eb4f4d60013f5ff94cd756a9b64db36cf4ef156b397774e164736f6c63430008180033",
			"opcodes": "PUSH1 0x80 PUSH1 0x40 MSTORE CALLVALUE DUP1 ISZERO PUSH2 0xF JUMPI PUSH0 DUP1 REVERT JUMPDEST POP PUSH0 DUP1 SLOAD PUSH1 0x1 PUSH1 0x1 PUSH1 0xA0 SHL SUB NOT AND CALLER OR SWAP1 SSTORE PUSH2 0x119C DUP1 PUSH2 0x2E PUSH0 CODECOPY PUSH0 RETURN INVALID PUSH1 0x80 PUSH1 0x40 MSTORE CALLVALUE DUP1 ISZERO PUSH2 0xF JUMPI PUSH0 DUP1 REVERT JUMPDEST POP PUSH1 0x4 CALLDATASIZE LT PUSH2 0x9B JUMPI PUSH0 CALLDATALOAD PUSH1 0xE0 SHR DUP1 PUSH4 0x943E8216 GT PUSH2 0x63 JUMPI DUP1 PUSH4 0x943E8216 EQ PUSH2 0x157 JUMPI DUP1 PUSH4 0xACBAB3A9 EQ PUSH2 0x16A JUMPI DUP1 PUSH4 0xBC903CB8 EQ PUSH2 0x17F JUMPI DUP1 PUSH4 0xCA6D56DC EQ PUSH2 0x1A6 JUMPI DUP1 PUSH4 0xCCEB68F5 EQ PUSH2 0x1B9 JUMPI PUSH0 DUP1 REVERT JUMPDEST DUP1 PUSH4 0x13CF08B EQ PUSH2 0x9F JUMPI DUP1 PUSH4 0x8AE4B0C EQ PUSH2 0xCF JUMPI DUP1 PUSH4 0x2AB09D14 EQ PUSH2 0x101 JUMPI DUP1 PUSH4 0x6B5E1766 EQ PUSH2 0x118 JUMPI DUP1 PUSH4 0x8DA5CB5B EQ PUSH2 0x12D JUMPI JUMPDEST PUSH0 DUP1 REVERT JUMPDEST PUSH2 0xB2 PUSH2 0xAD CALLDATASIZE PUSH1 0x4 PUSH2 0xB9C JUMP JUMPDEST PUSH2 0x1CE JUMP JUMPDEST PUSH1 0x40 MLOAD PUSH2 0xC6 SWAP9 SWAP8 SWAP7 SWAP6 SWAP5 SWAP4 SWAP3 SWAP2 SWAP1 PUSH2 0xBF6 JUMP JUMPDEST PUSH1 0x40 MLOAD DUP1 SWAP2 SUB SWAP1 RETURN JUMPDEST PUSH2 0xF1 PUSH2 0xDD CALLDATASIZE PUSH1 0x4 PUSH2 0xC5C JUMP JUMPDEST PUSH1 0x3 PUSH1 0x20 MSTORE PUSH0 SWAP1 DUP2 MSTORE PUSH1 0x40 SWAP1 KECCAK256 SLOAD PUSH1 0xFF AND DUP2 JUMP JUMPDEST PUSH1 0x40 MLOAD SWAP1 ISZERO ISZERO DUP2 MSTORE PUSH1 0x20 ADD PUSH2 0xC6 JUMP JUMPDEST PUSH2 0x10A PUSH1 0x1 SLOAD DUP2 JUMP JUMPDEST PUSH1 0x40 MLOAD SWAP1 DUP2 MSTORE PUSH1 0x20 ADD PUSH2 0xC6 JUMP JUMPDEST PUSH2 0x12B PUSH2 0x126 CALLDATASIZE PUSH1 0x4 PUSH2 0xD26 JUMP JUMPDEST PUSH2 0x325 JUMP JUMPDEST STOP JUMPDEST PUSH0 SLOAD PUSH2 0x13F SWAP1 PUSH1 0x1 PUSH1 0x1 PUSH1 0xA0 SHL SUB AND DUP2 JUMP JUMPDEST PUSH1 0x40 MLOAD PUSH1 0x1 PUSH1 0x1 PUSH1 0xA0 SHL SUB SWAP1 SWAP2 AND DUP2 MSTORE PUSH1 0x20 ADD PUSH2 0xC6 JUMP JUMPDEST PUSH2 0x12B PUSH2 0x165 CALLDATASIZE PUSH1 0x4 PUSH2 0xD95 JUMP JUMPDEST PUSH2 0x482 JUMP JUMPDEST PUSH2 0x172 PUSH2 0x6E6 JUMP JUMPDEST PUSH1 0x40 MLOAD PUSH2 0xC6 SWAP2 SWAP1 PUSH2 0xDC6 JUMP JUMPDEST PUSH2 0x192 PUSH2 0x18D CALLDATASIZE PUSH1 0x4 PUSH2 0xB9C JUMP JUMPDEST PUSH2 0x819 JUMP JUMPDEST PUSH1 0x40 MLOAD PUSH2 0xC6 SWAP9 SWAP8 SWAP7 SWAP6 SWAP5 SWAP4 SWAP3 SWAP2 SWAP1 PUSH2 0xE8A JUMP JUMPDEST PUSH2 0x12B PUSH2 0x1B4 CALLDATASIZE PUSH1 0x4 PUSH2 0xC5C JUMP JUMPDEST PUSH2 0xA0D JUMP JUMPDEST PUSH2 0x1C1 PUSH2 0xB20 JUMP JUMPDEST PUSH1 0x40 MLOAD PUSH2 0xC6 SWAP2 SWAP1 PUSH2 0xEE3 JUMP JUMPDEST PUSH1 0x2 PUSH1 0x20 DUP2 SWAP1 MSTORE PUSH0 SWAP2 DUP3 MSTORE PUSH1 0x40 SWAP1 SWAP2 KECCAK256 DUP1 SLOAD PUSH1 0x1 DUP3 ADD SLOAD SWAP3 DUP3 ADD DUP1 SLOAD SWAP2 SWAP4 PUSH1 0x1 PUSH1 0x1 PUSH1 0xA0 SHL SUB AND SWAP3 SWAP2 PUSH2 0x200 SWAP1 PUSH2 0xF26 JUMP JUMPDEST DUP1 PUSH1 0x1F ADD PUSH1 0x20 DUP1 SWAP2 DIV MUL PUSH1 0x20 ADD PUSH1 0x40 MLOAD SWAP1 DUP2 ADD PUSH1 0x40 MSTORE DUP1 SWAP3 SWAP2 SWAP1 DUP2 DUP2 MSTORE PUSH1 0x20 ADD DUP3 DUP1 SLOAD PUSH2 0x22C SWAP1 PUSH2 0xF26 JUMP JUMPDEST DUP1 ISZERO PUSH2 0x277 JUMPI DUP1 PUSH1 0x1F LT PUSH2 0x24E JUMPI PUSH2 0x100 DUP1 DUP4 SLOAD DIV MUL DUP4 MSTORE SWAP2 PUSH1 0x20 ADD SWAP2 PUSH2 0x277 JUMP JUMPDEST DUP3 ADD SWAP2 SWAP1 PUSH0 MSTORE PUSH1 0x20 PUSH0 KECCAK256 SWAP1 JUMPDEST DUP2 SLOAD DUP2 MSTORE SWAP1 PUSH1 0x1 ADD SWAP1 PUSH1 0x20 ADD DUP1 DUP4 GT PUSH2 0x25A JUMPI DUP3 SWAP1 SUB PUSH1 0x1F AND DUP3 ADD SWAP2 JUMPDEST POP POP POP POP POP SWAP1 DUP1 PUSH1 0x3 ADD DUP1 SLOAD PUSH2 0x28C SWAP1 PUSH2 0xF26 JUMP JUMPDEST DUP1 PUSH1 0x1F ADD PUSH1 0x20 DUP1 SWAP2 DIV MUL PUSH1 0x20 ADD PUSH1 0x40 MLOAD SWAP1 DUP2 ADD PUSH1 0x40 MSTORE DUP1 SWAP3 SWAP2 SWAP1 DUP2 DUP2 MSTORE PUSH1 0x20 ADD DUP3 DUP1 SLOAD PUSH2 0x2B8 SWAP1 PUSH2 0xF26 JUMP JUMPDEST DUP1 ISZERO PUSH2 0x303 JUMPI DUP1 PUSH1 0x1F LT PUSH2 0x2DA JUMPI PUSH2 0x100 DUP1 DUP4 SLOAD DIV MUL DUP4 MSTORE SWAP2 PUSH1 0x20 ADD SWAP2 PUSH2 0x303 JUMP JUMPDEST DUP3 ADD SWAP2 SWAP1 PUSH0 MSTORE PUSH1 0x20 PUSH0 KECCAK256 SWAP1 JUMPDEST DUP2 SLOAD DUP2 MSTORE SWAP1 PUSH1 0x1 ADD SWAP1 PUSH1 0x20 ADD DUP1 DUP4 GT PUSH2 0x2E6 JUMPI DUP3 SWAP1 SUB PUSH1 0x1F AND DUP3 ADD SWAP2 JUMPDEST POP POP POP POP POP SWAP1 DUP1 PUSH1 0x4 ADD SLOAD SWAP1 DUP1 PUSH1 0x5 ADD SLOAD SWAP1 DUP1 PUSH1 0x8 ADD SLOAD SWAP1 DUP1 PUSH1 0x9 ADD SLOAD SWAP1 POP DUP9 JUMP JUMPDEST PUSH0 SLOAD PUSH1 0x1 PUSH1 0x1 PUSH1 0xA0 SHL SUB AND CALLER EQ PUSH2 0x37C JUMPI PUSH1 0x40 MLOAD PUSH3 0x461BCD PUSH1 0xE5 SHL DUP2 MSTORE PUSH1 0x20 PUSH1 0x4 DUP3 ADD MSTORE PUSH1 0x16 PUSH1 0x24 DUP3 ADD MSTORE PUSH22 0x2737BA103A34329031B7B73A3930B1BA1037BBB732B9 PUSH1 0x51 SHL PUSH1 0x44 DUP3 ADD MSTORE PUSH1 0x64 ADD JUMPDEST PUSH1 0x40 MLOAD DUP1 SWAP2 SUB SWAP1 REVERT JUMPDEST DUP1 DUP3 LT PUSH2 0x3C2 JUMPI PUSH1 0x40 MLOAD PUSH3 0x461BCD PUSH1 0xE5 SHL DUP2 MSTORE PUSH1 0x20 PUSH1 0x4 DUP3 ADD MSTORE PUSH1 0x14 PUSH1 0x24 DUP3 ADD MSTORE PUSH20 0x496E76616C696420766F74696E672074696D6573 PUSH1 0x60 SHL PUSH1 0x44 DUP3 ADD MSTORE PUSH1 0x64 ADD PUSH2 0x373 JUMP JUMPDEST PUSH1 0x1 DUP1 SLOAD PUSH0 DUP2 DUP2 MSTORE PUSH1 0x2 PUSH1 0x20 DUP2 SWAP1 MSTORE PUSH1 0x40 SWAP1 SWAP2 KECCAK256 SWAP2 DUP3 SSTORE SWAP2 DUP2 ADD DUP1 SLOAD PUSH1 0x1 PUSH1 0x1 PUSH1 0xA0 SHL SUB NOT AND CALLER OR SWAP1 SSTORE SWAP1 DUP2 ADD PUSH2 0x3F9 DUP7 DUP3 PUSH2 0xFA4 JUMP JUMPDEST POP PUSH1 0x3 DUP2 ADD PUSH2 0x408 DUP6 DUP3 PUSH2 0xFA4 JUMP JUMPDEST POP PUSH1 0x4 DUP2 ADD DUP4 SWAP1 SSTORE PUSH1 0x5 DUP2 ADD DUP3 SWAP1 SSTORE PUSH0 PUSH1 0x8 DUP3 ADD DUP2 SWAP1 SSTORE PUSH1 0x9 DUP3 ADD SSTORE PUSH1 0x1 SLOAD PUSH1 0x40 MLOAD PUSH32 0xFAA337366F7965EDEA73E5DDA4E27A18008218BEE177DF73F82FC597A1F4DD08 SWAP2 PUSH2 0x45F SWAP2 CALLER SWAP1 DUP10 SWAP1 DUP10 SWAP1 DUP10 SWAP1 DUP10 SWAP1 PUSH2 0x1064 JUMP JUMPDEST PUSH1 0x40 MLOAD DUP1 SWAP2 SUB SWAP1 LOG1 PUSH1 0x1 DUP1 SLOAD SWAP1 PUSH0 PUSH2 0x476 DUP4 PUSH2 0x10C9 JUMP JUMPDEST SWAP2 SWAP1 POP SSTORE POP POP POP POP POP POP JUMP JUMPDEST CALLER PUSH0 SWAP1 DUP2 MSTORE PUSH1 0x3 PUSH1 0x20 MSTORE PUSH1 0x40 SWAP1 KECCAK256 SLOAD PUSH1 0xFF AND PUSH2 0x4D3 JUMPI PUSH1 0x40 MLOAD PUSH3 0x461BCD PUSH1 0xE5 SHL DUP2 MSTORE PUSH1 0x20 PUSH1 0x4 DUP3 ADD MSTORE PUSH1 0x10 PUSH1 0x24 DUP3 ADD MSTORE PUSH16 0x2737BA1030902220A79036B2B6B132B9 PUSH1 0x81 SHL PUSH1 0x44 DUP3 ADD MSTORE PUSH1 0x64 ADD PUSH2 0x373 JUMP JUMPDEST DUP2 PUSH1 0x1 SLOAD DUP2 LT PUSH2 0x51B JUMPI PUSH1 0x40 MLOAD PUSH3 0x461BCD PUSH1 0xE5 SHL DUP2 MSTORE PUSH1 0x20 PUSH1 0x4 DUP3 ADD MSTORE PUSH1 0x13 PUSH1 0x24 DUP3 ADD MSTORE PUSH19 0x125B9D985B1A59081C1C9BDC1BDCD85B081251 PUSH1 0x6A SHL PUSH1 0x44 DUP3 ADD MSTORE PUSH1 0x64 ADD PUSH2 0x373 JUMP JUMPDEST PUSH0 DUP4 DUP2 MSTORE PUSH1 0x2 PUSH1 0x20 MSTORE PUSH1 0x40 SWAP1 KECCAK256 PUSH1 0x4 DUP2 ADD SLOAD TIMESTAMP LT DUP1 ISZERO SWAP1 PUSH2 0x540 JUMPI POP DUP1 PUSH1 0x5 ADD SLOAD TIMESTAMP GT ISZERO JUMPDEST PUSH2 0x58C JUMPI PUSH1 0x40 MLOAD PUSH3 0x461BCD PUSH1 0xE5 SHL DUP2 MSTORE PUSH1 0x20 PUSH1 0x4 DUP3 ADD MSTORE PUSH1 0x1F PUSH1 0x24 DUP3 ADD MSTORE PUSH32 0x566F74696E67206F7574736964652074686520616C6C6F7765642074696D6500 PUSH1 0x44 DUP3 ADD MSTORE PUSH1 0x64 ADD PUSH2 0x373 JUMP JUMPDEST CALLER PUSH0 SWAP1 DUP2 MSTORE PUSH1 0x6 DUP3 ADD PUSH1 0x20 MSTORE PUSH1 0x40 SWAP1 KECCAK256 SLOAD PUSH1 0xFF AND ISZERO PUSH2 0x5ED JUMPI PUSH1 0x40 MLOAD PUSH3 0x461BCD PUSH1 0xE5 SHL DUP2 MSTORE PUSH1 0x20 PUSH1 0x4 DUP3 ADD MSTORE PUSH1 0x19 PUSH1 0x24 DUP3 ADD MSTORE PUSH32 0x416464726573732068617320616C726561647920766F74656400000000000000 PUSH1 0x44 DUP3 ADD MSTORE PUSH1 0x64 ADD PUSH2 0x373 JUMP JUMPDEST CALLER PUSH0 SWAP1 DUP2 MSTORE PUSH1 0x6 DUP3 ADD PUSH1 0x20 SWAP1 DUP2 MSTORE PUSH1 0x40 DUP1 DUP4 KECCAK256 DUP1 SLOAD PUSH1 0x1 PUSH1 0xFF NOT SWAP2 DUP3 AND DUP2 OR SWAP1 SWAP3 SSTORE PUSH1 0x7 DUP7 ADD SWAP1 SWAP4 MSTORE SWAP3 KECCAK256 DUP1 SLOAD DUP7 SWAP4 SWAP2 SWAP3 AND SWAP1 DUP4 PUSH1 0x2 DUP2 GT ISZERO PUSH2 0x632 JUMPI PUSH2 0x632 PUSH2 0x10E1 JUMP JUMPDEST MUL OR SWAP1 SSTORE POP PUSH1 0x1 DUP4 PUSH1 0x2 DUP2 GT ISZERO PUSH2 0x64B JUMPI PUSH2 0x64B PUSH2 0x10E1 JUMP JUMPDEST SUB PUSH2 0x66F JUMPI PUSH1 0x1 DUP2 PUSH1 0x8 ADD PUSH0 DUP3 DUP3 SLOAD PUSH2 0x664 SWAP2 SWAP1 PUSH2 0x10F5 JUMP JUMPDEST SWAP1 SWAP2 SSTORE POP PUSH2 0x6A2 SWAP1 POP JUMP JUMPDEST PUSH1 0x2 DUP4 PUSH1 0x2 DUP2 GT ISZERO PUSH2 0x683 JUMPI PUSH2 0x683 PUSH2 0x10E1 JUMP JUMPDEST SUB PUSH2 0x6A2 JUMPI PUSH1 0x1 DUP2 PUSH1 0x9 ADD PUSH0 DUP3 DUP3 SLOAD PUSH2 0x69C SWAP2 SWAP1 PUSH2 0x10F5 JUMP JUMPDEST SWAP1 SWAP2 SSTORE POP POP JUMPDEST PUSH32 0x2635C84C3A8027A303CA6D6E90B1C4A9604754040372414D244AADFA64717518 DUP5 CALLER DUP6 PUSH1 0x1 PUSH1 0x40 MLOAD PUSH2 0x6D8 SWAP5 SWAP4 SWAP3 SWAP2 SWAP1 PUSH2 0x110E JUMP JUMPDEST PUSH1 0x40 MLOAD DUP1 SWAP2 SUB SWAP1 LOG1 POP POP POP POP JUMP JUMPDEST PUSH1 0x60 PUSH0 PUSH1 0x1 SLOAD PUSH8 0xFFFFFFFFFFFFFFFF DUP2 GT ISZERO PUSH2 0x704 JUMPI PUSH2 0x704 PUSH2 0xC89 JUMP JUMPDEST PUSH1 0x40 MLOAD SWAP1 DUP1 DUP3 MSTORE DUP1 PUSH1 0x20 MUL PUSH1 0x20 ADD DUP3 ADD PUSH1 0x40 MSTORE DUP1 ISZERO PUSH2 0x777 JUMPI DUP2 PUSH1 0x20 ADD JUMPDEST PUSH2 0x764 PUSH1 0x40 MLOAD DUP1 PUSH2 0x100 ADD PUSH1 0x40 MSTORE DUP1 PUSH0 DUP2 MSTORE PUSH1 0x20 ADD PUSH1 0x60 DUP2 MSTORE PUSH1 0x20 ADD PUSH1 0x60 DUP2 MSTORE PUSH1 0x20 ADD PUSH0 DUP2 MSTORE PUSH1 0x20 ADD PUSH0 DUP2 MSTORE PUSH1 0x20 ADD PUSH0 DUP2 MSTORE PUSH1 0x20 ADD PUSH0 DUP2 MSTORE PUSH1 0x20 ADD PUSH0 DUP2 MSTORE POP SWAP1 JUMP JUMPDEST DUP2 MSTORE PUSH1 0x20 ADD SWAP1 PUSH1 0x1 SWAP1 SUB SWAP1 DUP2 PUSH2 0x722 JUMPI SWAP1 POP JUMPDEST POP SWAP1 POP PUSH0 JUMPDEST PUSH1 0x1 SLOAD DUP2 LT ISZERO PUSH2 0x813 JUMPI PUSH0 DUP1 PUSH0 DUP1 PUSH0 DUP1 PUSH0 DUP1 PUSH2 0x797 DUP10 PUSH2 0x819 JUMP JUMPDEST SWAP8 POP SWAP8 POP SWAP8 POP SWAP8 POP SWAP8 POP SWAP8 POP SWAP8 POP SWAP8 POP PUSH1 0x40 MLOAD DUP1 PUSH2 0x100 ADD PUSH1 0x40 MSTORE DUP1 DUP10 DUP2 MSTORE PUSH1 0x20 ADD DUP9 DUP2 MSTORE PUSH1 0x20 ADD DUP8 DUP2 MSTORE PUSH1 0x20 ADD DUP7 DUP2 MSTORE PUSH1 0x20 ADD DUP6 DUP2 MSTORE PUSH1 0x20 ADD DUP5 DUP2 MSTORE PUSH1 0x20 ADD DUP4 DUP2 MSTORE PUSH1 0x20 ADD DUP3 DUP2 MSTORE POP DUP11 DUP11 DUP2 MLOAD DUP2 LT PUSH2 0x7F3 JUMPI PUSH2 0x7F3 PUSH2 0x1152 JUMP JUMPDEST PUSH1 0x20 MUL PUSH1 0x20 ADD ADD DUP2 SWAP1 MSTORE POP POP POP POP POP POP POP POP POP DUP1 DUP1 PUSH1 0x1 ADD SWAP2 POP POP PUSH2 0x77C JUMP JUMPDEST POP SWAP2 SWAP1 POP JUMP JUMPDEST PUSH0 PUSH1 0x60 DUP1 PUSH0 DUP1 PUSH0 DUP1 PUSH0 DUP9 PUSH1 0x1 SLOAD DUP2 LT PUSH2 0x86A JUMPI PUSH1 0x40 MLOAD PUSH3 0x461BCD PUSH1 0xE5 SHL DUP2 MSTORE PUSH1 0x20 PUSH1 0x4 DUP3 ADD MSTORE PUSH1 0x13 PUSH1 0x24 DUP3 ADD MSTORE PUSH19 0x125B9D985B1A59081C1C9BDC1BDCD85B081251 PUSH1 0x6A SHL PUSH1 0x44 DUP3 ADD MSTORE PUSH1 0x64 ADD PUSH2 0x373 JUMP JUMPDEST PUSH0 DUP11 DUP2 MSTORE PUSH1 0x2 PUSH1 0x20 MSTORE PUSH1 0x40 DUP2 KECCAK256 PUSH1 0x8 DUP2 ADD SLOAD PUSH1 0x9 DUP3 ADD SLOAD PUSH1 0x5 DUP4 ADD SLOAD SWAP3 SWAP4 SWAP2 SWAP3 SWAP1 SWAP2 SWAP1 TIMESTAMP LT ISZERO PUSH2 0x89B JUMPI POP PUSH0 PUSH2 0x8C0 JUMP JUMPDEST DUP2 DUP4 GT PUSH2 0x8B7 JUMPI DUP2 DUP4 EQ PUSH2 0x8B0 JUMPI PUSH1 0x3 PUSH2 0x8BA JUMP JUMPDEST PUSH1 0x2 PUSH2 0x8BA JUMP JUMPDEST PUSH1 0x1 JUMPDEST PUSH1 0xFF AND SWAP1 POP JUMPDEST DUP4 PUSH0 ADD SLOAD DUP5 PUSH1 0x2 ADD DUP6 PUSH1 0x3 ADD DUP6 DUP6 DUP6 DUP10 PUSH1 0x4 ADD SLOAD DUP11 PUSH1 0x5 ADD SLOAD DUP7 DUP1 SLOAD PUSH2 0x8E5 SWAP1 PUSH2 0xF26 JUMP JUMPDEST DUP1 PUSH1 0x1F ADD PUSH1 0x20 DUP1 SWAP2 DIV MUL PUSH1 0x20 ADD PUSH1 0x40 MLOAD SWAP1 DUP2 ADD PUSH1 0x40 MSTORE DUP1 SWAP3 SWAP2 SWAP1 DUP2 DUP2 MSTORE PUSH1 0x20 ADD DUP3 DUP1 SLOAD PUSH2 0x911 SWAP1 PUSH2 0xF26 JUMP JUMPDEST DUP1 ISZERO PUSH2 0x95C JUMPI DUP1 PUSH1 0x1F LT PUSH2 0x933 JUMPI PUSH2 0x100 DUP1 DUP4 SLOAD DIV MUL DUP4 MSTORE SWAP2 PUSH1 0x20 ADD SWAP2 PUSH2 0x95C JUMP JUMPDEST DUP3 ADD SWAP2 SWAP1 PUSH0 MSTORE PUSH1 0x20 PUSH0 KECCAK256 SWAP1 JUMPDEST DUP2 SLOAD DUP2 MSTORE SWAP1 PUSH1 0x1 ADD SWAP1 PUSH1 0x20 ADD DUP1 DUP4 GT PUSH2 0x93F JUMPI DUP3 SWAP1 SUB PUSH1 0x1F AND DUP3 ADD SWAP2 JUMPDEST POP POP POP POP POP SWAP7 POP DUP6 DUP1 SLOAD PUSH2 0x96F SWAP1 PUSH2 0xF26 JUMP JUMPDEST DUP1 PUSH1 0x1F ADD PUSH1 0x20 DUP1 SWAP2 DIV MUL PUSH1 0x20 ADD PUSH1 0x40 MLOAD SWAP1 DUP2 ADD PUSH1 0x40 MSTORE DUP1 SWAP3 SWAP2 SWAP1 DUP2 DUP2 MSTORE PUSH1 0x20 ADD DUP3 DUP1 SLOAD PUSH2 0x99B SWAP1 PUSH2 0xF26 JUMP JUMPDEST DUP1 ISZERO PUSH2 0x9E6 JUMPI DUP1 PUSH1 0x1F LT PUSH2 0x9BD JUMPI PUSH2 0x100 DUP1 DUP4 SLOAD DIV MUL DUP4 MSTORE SWAP2 PUSH1 0x20 ADD SWAP2 PUSH2 0x9E6 JUMP JUMPDEST DUP3 ADD SWAP2 SWAP1 PUSH0 MSTORE PUSH1 0x20 PUSH0 KECCAK256 SWAP1 JUMPDEST DUP2 SLOAD DUP2 MSTORE SWAP1 PUSH1 0x1 ADD SWAP1 PUSH1 0x20 ADD DUP1 DUP4 GT PUSH2 0x9C9 JUMPI DUP3 SWAP1 SUB PUSH1 0x1F AND DUP3 ADD SWAP2 JUMPDEST POP POP POP POP POP SWAP6 POP SWAP13 POP SWAP13 POP SWAP13 POP SWAP13 POP SWAP13 POP SWAP13 POP SWAP13 POP SWAP13 POP POP POP POP POP POP SWAP2 SWAP4 SWAP6 SWAP8 POP SWAP2 SWAP4 SWAP6 SWAP8 JUMP JUMPDEST PUSH0 SLOAD PUSH1 0x1 PUSH1 0x1 PUSH1 0xA0 SHL SUB AND CALLER EQ PUSH2 0xA5F JUMPI PUSH1 0x40 MLOAD PUSH3 0x461BCD PUSH1 0xE5 SHL DUP2 MSTORE PUSH1 0x20 PUSH1 0x4 DUP3 ADD MSTORE PUSH1 0x16 PUSH1 0x24 DUP3 ADD MSTORE PUSH22 0x2737BA103A34329031B7B73A3930B1BA1037BBB732B9 PUSH1 0x51 SHL PUSH1 0x44 DUP3 ADD MSTORE PUSH1 0x64 ADD PUSH2 0x373 JUMP JUMPDEST PUSH1 0x1 PUSH1 0x1 PUSH1 0xA0 SHL SUB DUP2 AND PUSH0 SWAP1 DUP2 MSTORE PUSH1 0x3 PUSH1 0x20 MSTORE PUSH1 0x40 SWAP1 KECCAK256 SLOAD PUSH1 0xFF AND ISZERO PUSH2 0xAC7 JUMPI PUSH1 0x40 MLOAD PUSH3 0x461BCD PUSH1 0xE5 SHL DUP2 MSTORE PUSH1 0x20 PUSH1 0x4 DUP3 ADD MSTORE PUSH1 0x1B PUSH1 0x24 DUP3 ADD MSTORE PUSH32 0x4164647265737320697320616C72656164792061206D656D6265720000000000 PUSH1 0x44 DUP3 ADD MSTORE PUSH1 0x64 ADD PUSH2 0x373 JUMP JUMPDEST PUSH1 0x1 PUSH1 0x1 PUSH1 0xA0 SHL SUB DUP2 AND PUSH0 DUP2 DUP2 MSTORE PUSH1 0x3 PUSH1 0x20 SWAP1 DUP2 MSTORE PUSH1 0x40 SWAP2 DUP3 SWAP1 KECCAK256 DUP1 SLOAD PUSH1 0xFF NOT AND PUSH1 0x1 OR SWAP1 SSTORE SWAP1 MLOAD SWAP2 DUP3 MSTORE PUSH32 0xB251EB052AFC73FFD02FFE85AD79990A8B3FED60D76DBC2FA2FDD7123DFFD914 SWAP2 ADD PUSH1 0x40 MLOAD DUP1 SWAP2 SUB SWAP1 LOG1 POP JUMP JUMPDEST PUSH1 0x60 PUSH0 PUSH1 0x1 SLOAD PUSH8 0xFFFFFFFFFFFFFFFF DUP2 GT ISZERO PUSH2 0xB3E JUMPI PUSH2 0xB3E PUSH2 0xC89 JUMP JUMPDEST PUSH1 0x40 MLOAD SWAP1 DUP1 DUP3 MSTORE DUP1 PUSH1 0x20 MUL PUSH1 0x20 ADD DUP3 ADD PUSH1 0x40 MSTORE DUP1 ISZERO PUSH2 0xB67 JUMPI DUP2 PUSH1 0x20 ADD PUSH1 0x20 DUP3 MUL DUP1 CALLDATASIZE DUP4 CALLDATACOPY ADD SWAP1 POP JUMPDEST POP SWAP1 POP PUSH0 JUMPDEST PUSH1 0x1 SLOAD DUP2 LT ISZERO PUSH2 0x813 JUMPI DUP1 DUP3 DUP3 DUP2 MLOAD DUP2 LT PUSH2 0xB89 JUMPI PUSH2 0xB89 PUSH2 0x1152 JUMP JUMPDEST PUSH1 0x20 SWAP1 DUP2 MUL SWAP2 SWAP1 SWAP2 ADD ADD MSTORE PUSH1 0x1 ADD PUSH2 0xB6C JUMP JUMPDEST PUSH0 PUSH1 0x20 DUP3 DUP5 SUB SLT ISZERO PUSH2 0xBAC JUMPI PUSH0 DUP1 REVERT JUMPDEST POP CALLDATALOAD SWAP2 SWAP1 POP JUMP JUMPDEST PUSH0 DUP2 MLOAD DUP1 DUP5 MSTORE PUSH0 JUMPDEST DUP2 DUP2 LT ISZERO PUSH2 0xBD7 JUMPI PUSH1 0x20 DUP2 DUP6 ADD DUP2 ADD MLOAD DUP7 DUP4 ADD DUP3 ADD MSTORE ADD PUSH2 0xBBB JUMP JUMPDEST POP PUSH0 PUSH1 0x20 DUP3 DUP7 ADD ADD MSTORE PUSH1 0x20 PUSH1 0x1F NOT PUSH1 0x1F DUP4 ADD AND DUP6 ADD ADD SWAP2 POP POP SWAP3 SWAP2 POP POP JUMP JUMPDEST DUP9 DUP2 MSTORE PUSH1 0x1 PUSH1 0x1 PUSH1 0xA0 SHL SUB DUP9 AND PUSH1 0x20 DUP3 ADD MSTORE PUSH2 0x100 PUSH1 0x40 DUP3 ADD DUP2 SWAP1 MSTORE PUSH0 SWAP1 PUSH2 0xC20 DUP4 DUP3 ADD DUP11 PUSH2 0xBB3 JUMP JUMPDEST SWAP1 POP DUP3 DUP2 SUB PUSH1 0x60 DUP5 ADD MSTORE PUSH2 0xC34 DUP2 DUP10 PUSH2 0xBB3 JUMP JUMPDEST SWAP2 POP POP DUP6 PUSH1 0x80 DUP4 ADD MSTORE DUP5 PUSH1 0xA0 DUP4 ADD MSTORE DUP4 PUSH1 0xC0 DUP4 ADD MSTORE DUP3 PUSH1 0xE0 DUP4 ADD MSTORE SWAP10 SWAP9 POP POP POP POP POP POP POP POP POP JUMP JUMPDEST PUSH0 PUSH1 0x20 DUP3 DUP5 SUB SLT ISZERO PUSH2 0xC6C JUMPI PUSH0 DUP1 REVERT JUMPDEST DUP2 CALLDATALOAD PUSH1 0x1 PUSH1 0x1 PUSH1 0xA0 SHL SUB DUP2 AND DUP2 EQ PUSH2 0xC82 JUMPI PUSH0 DUP1 REVERT JUMPDEST SWAP4 SWAP3 POP POP POP JUMP JUMPDEST PUSH4 0x4E487B71 PUSH1 0xE0 SHL PUSH0 MSTORE PUSH1 0x41 PUSH1 0x4 MSTORE PUSH1 0x24 PUSH0 REVERT JUMPDEST PUSH0 DUP3 PUSH1 0x1F DUP4 ADD SLT PUSH2 0xCAC JUMPI PUSH0 DUP1 REVERT JUMPDEST DUP2 CALLDATALOAD PUSH8 0xFFFFFFFFFFFFFFFF DUP1 DUP3 GT ISZERO PUSH2 0xCC7 JUMPI PUSH2 0xCC7 PUSH2 0xC89 JUMP JUMPDEST PUSH1 0x40 MLOAD PUSH1 0x1F DUP4 ADD PUSH1 0x1F NOT SWAP1 DUP2 AND PUSH1 0x3F ADD AND DUP2 ADD SWAP1 DUP3 DUP3 GT DUP2 DUP4 LT OR ISZERO PUSH2 0xCEF JUMPI PUSH2 0xCEF PUSH2 0xC89 JUMP JUMPDEST DUP2 PUSH1 0x40 MSTORE DUP4 DUP2 MSTORE DUP7 PUSH1 0x20 DUP6 DUP9 ADD ADD GT ISZERO PUSH2 0xD07 JUMPI PUSH0 DUP1 REVERT JUMPDEST DUP4 PUSH1 0x20 DUP8 ADD PUSH1 0x20 DUP4 ADD CALLDATACOPY PUSH0 PUSH1 0x20 DUP6 DUP4 ADD ADD MSTORE DUP1 SWAP5 POP POP POP POP POP SWAP3 SWAP2 POP POP JUMP JUMPDEST PUSH0 DUP1 PUSH0 DUP1 PUSH1 0x80 DUP6 DUP8 SUB SLT ISZERO PUSH2 0xD39 JUMPI PUSH0 DUP1 REVERT JUMPDEST DUP5 CALLDATALOAD PUSH8 0xFFFFFFFFFFFFFFFF DUP1 DUP3 GT ISZERO PUSH2 0xD50 JUMPI PUSH0 DUP1 REVERT JUMPDEST PUSH2 0xD5C DUP9 DUP4 DUP10 ADD PUSH2 0xC9D JUMP JUMPDEST SWAP6 POP PUSH1 0x20 DUP8 ADD CALLDATALOAD SWAP2 POP DUP1 DUP3 GT ISZERO PUSH2 0xD71 JUMPI PUSH0 DUP1 REVERT JUMPDEST POP PUSH2 0xD7E DUP8 DUP3 DUP9 ADD PUSH2 0xC9D JUMP JUMPDEST SWAP5 SWAP8 SWAP5 SWAP7 POP POP POP POP PUSH1 0x40 DUP4 ADD CALLDATALOAD SWAP3 PUSH1 0x60 ADD CALLDATALOAD SWAP2 SWAP1 POP JUMP JUMPDEST PUSH0 DUP1 PUSH1 0x40 DUP4 DUP6 SUB SLT ISZERO PUSH2 0xDA6 JUMPI PUSH0 DUP1 REVERT JUMPDEST DUP3 CALLDATALOAD SWAP2 POP PUSH1 0x20 DUP4 ADD CALLDATALOAD PUSH1 0x3 DUP2 LT PUSH2 0xDBB JUMPI PUSH0 DUP1 REVERT JUMPDEST DUP1 SWAP2 POP POP SWAP3 POP SWAP3 SWAP1 POP JUMP JUMPDEST PUSH0 PUSH1 0x20 DUP1 DUP4 ADD DUP2 DUP5 MSTORE DUP1 DUP6 MLOAD DUP1 DUP4 MSTORE PUSH1 0x40 SWAP3 POP PUSH1 0x40 DUP7 ADD SWAP2 POP PUSH1 0x40 DUP2 PUSH1 0x5 SHL DUP8 ADD ADD DUP5 DUP9 ADD PUSH0 JUMPDEST DUP4 DUP2 LT ISZERO PUSH2 0xE7C JUMPI PUSH1 0x3F NOT DUP10 DUP5 SUB ADD DUP6 MSTORE DUP2 MLOAD PUSH2 0x100 DUP2 MLOAD DUP6 MSTORE DUP9 DUP3 ADD MLOAD DUP2 DUP11 DUP8 ADD MSTORE PUSH2 0xE1C DUP3 DUP8 ADD DUP3 PUSH2 0xBB3 JUMP JUMPDEST SWAP2 POP POP DUP8 DUP3 ADD MLOAD DUP6 DUP3 SUB DUP10 DUP8 ADD MSTORE PUSH2 0xE34 DUP3 DUP3 PUSH2 0xBB3 JUMP JUMPDEST PUSH1 0x60 DUP5 DUP2 ADD MLOAD SWAP1 DUP9 ADD MSTORE PUSH1 0x80 DUP1 DUP6 ADD MLOAD SWAP1 DUP9 ADD MSTORE PUSH1 0xA0 DUP1 DUP6 ADD MLOAD SWAP1 DUP9 ADD MSTORE PUSH1 0xC0 DUP1 DUP6 ADD MLOAD SWAP1 DUP9 ADD MSTORE PUSH1 0xE0 SWAP4 DUP5 ADD MLOAD SWAP4 SWAP1 SWAP7 ADD SWAP3 SWAP1 SWAP3 MSTORE POP POP SWAP4 DUP7 ADD SWAP4 SWAP1 DUP7 ADD SWAP1 PUSH1 0x1 ADD PUSH2 0xDED JUMP JUMPDEST POP SWAP1 SWAP9 SWAP8 POP POP POP POP POP POP POP POP JUMP JUMPDEST PUSH0 PUSH2 0x100 DUP11 DUP4 MSTORE DUP1 PUSH1 0x20 DUP5 ADD MSTORE PUSH2 0xEA3 DUP2 DUP5 ADD DUP12 PUSH2 0xBB3 JUMP JUMPDEST SWAP1 POP DUP3 DUP2 SUB PUSH1 0x40 DUP5 ADD MSTORE PUSH2 0xEB7 DUP2 DUP11 PUSH2 0xBB3 JUMP JUMPDEST PUSH1 0x60 DUP5 ADD SWAP9 SWAP1 SWAP9 MSTORE POP POP PUSH1 0x80 DUP2 ADD SWAP5 SWAP1 SWAP5 MSTORE PUSH1 0xA0 DUP5 ADD SWAP3 SWAP1 SWAP3 MSTORE PUSH1 0xC0 DUP4 ADD MSTORE PUSH1 0xE0 SWAP1 SWAP2 ADD MSTORE SWAP4 SWAP3 POP POP POP JUMP JUMPDEST PUSH1 0x20 DUP1 DUP3 MSTORE DUP3 MLOAD DUP3 DUP3 ADD DUP2 SWAP1 MSTORE PUSH0 SWAP2 SWAP1 DUP5 DUP3 ADD SWAP1 PUSH1 0x40 DUP6 ADD SWAP1 DUP5 JUMPDEST DUP2 DUP2 LT ISZERO PUSH2 0xF1A JUMPI DUP4 MLOAD DUP4 MSTORE SWAP3 DUP5 ADD SWAP3 SWAP2 DUP5 ADD SWAP2 PUSH1 0x1 ADD PUSH2 0xEFE JUMP JUMPDEST POP SWAP1 SWAP7 SWAP6 POP POP POP POP POP POP JUMP JUMPDEST PUSH1 0x1 DUP2 DUP2 SHR SWAP1 DUP3 AND DUP1 PUSH2 0xF3A JUMPI PUSH1 0x7F DUP3 AND SWAP2 POP JUMPDEST PUSH1 0x20 DUP3 LT DUP2 SUB PUSH2 0x813 JUMPI PUSH4 0x4E487B71 PUSH1 0xE0 SHL PUSH0 MSTORE PUSH1 0x22 PUSH1 0x4 MSTORE PUSH1 0x24 PUSH0 REVERT JUMPDEST PUSH1 0x1F DUP3 GT ISZERO PUSH2 0xF9F JUMPI DUP1 PUSH0 MSTORE PUSH1 0x20 PUSH0 KECCAK256 PUSH1 0x1F DUP5 ADD PUSH1 0x5 SHR DUP2 ADD PUSH1 0x20 DUP6 LT ISZERO PUSH2 0xF7D JUMPI POP DUP1 JUMPDEST PUSH1 0x1F DUP5 ADD PUSH1 0x5 SHR DUP3 ADD SWAP2 POP JUMPDEST DUP2 DUP2 LT ISZERO PUSH2 0xF9C JUMPI PUSH0 DUP2 SSTORE PUSH1 0x1 ADD PUSH2 0xF89 JUMP JUMPDEST POP POP JUMPDEST POP POP POP JUMP JUMPDEST DUP2 MLOAD PUSH8 0xFFFFFFFFFFFFFFFF DUP2 GT ISZERO PUSH2 0xFBE JUMPI PUSH2 0xFBE PUSH2 0xC89 JUMP JUMPDEST PUSH2 0xFD2 DUP2 PUSH2 0xFCC DUP5 SLOAD PUSH2 0xF26 JUMP JUMPDEST DUP5 PUSH2 0xF58 JUMP JUMPDEST PUSH1 0x20 DUP1 PUSH1 0x1F DUP4 GT PUSH1 0x1 DUP2 EQ PUSH2 0x1005 JUMPI PUSH0 DUP5 ISZERO PUSH2 0xFEE JUMPI POP DUP6 DUP4 ADD MLOAD JUMPDEST PUSH0 NOT PUSH1 0x3 DUP7 SWAP1 SHL SHR NOT AND PUSH1 0x1 DUP6 SWAP1 SHL OR DUP6 SSTORE PUSH2 0x105C JUMP JUMPDEST PUSH0 DUP6 DUP2 MSTORE PUSH1 0x20 DUP2 KECCAK256 PUSH1 0x1F NOT DUP7 AND SWAP2 JUMPDEST DUP3 DUP2 LT ISZERO PUSH2 0x1033 JUMPI DUP9 DUP7 ADD MLOAD DUP3 SSTORE SWAP5 DUP5 ADD SWAP5 PUSH1 0x1 SWAP1 SWAP2 ADD SWAP1 DUP5 ADD PUSH2 0x1014 JUMP JUMPDEST POP DUP6 DUP3 LT ISZERO PUSH2 0x1050 JUMPI DUP8 DUP6 ADD MLOAD PUSH0 NOT PUSH1 0x3 DUP9 SWAP1 SHL PUSH1 0xF8 AND SHR NOT AND DUP2 SSTORE JUMPDEST POP POP PUSH1 0x1 DUP5 PUSH1 0x1 SHL ADD DUP6 SSTORE JUMPDEST POP POP POP POP POP POP JUMP JUMPDEST DUP7 DUP2 MSTORE PUSH1 0x1 PUSH1 0x1 PUSH1 0xA0 SHL SUB DUP7 AND PUSH1 0x20 DUP3 ADD MSTORE PUSH1 0xC0 PUSH1 0x40 DUP3 ADD DUP2 SWAP1 MSTORE PUSH0 SWAP1 PUSH2 0x108D SWAP1 DUP4 ADD DUP8 PUSH2 0xBB3 JUMP JUMPDEST DUP3 DUP2 SUB PUSH1 0x60 DUP5 ADD MSTORE PUSH2 0x109F DUP2 DUP8 PUSH2 0xBB3 JUMP JUMPDEST PUSH1 0x80 DUP5 ADD SWAP6 SWAP1 SWAP6 MSTORE POP POP PUSH1 0xA0 ADD MSTORE SWAP5 SWAP4 POP POP POP POP JUMP JUMPDEST PUSH4 0x4E487B71 PUSH1 0xE0 SHL PUSH0 MSTORE PUSH1 0x11 PUSH1 0x4 MSTORE PUSH1 0x24 PUSH0 REVERT JUMPDEST PUSH0 PUSH1 0x1 DUP3 ADD PUSH2 0x10DA JUMPI PUSH2 0x10DA PUSH2 0x10B5 JUMP JUMPDEST POP PUSH1 0x1 ADD SWAP1 JUMP JUMPDEST PUSH4 0x4E487B71 PUSH1 0xE0 SHL PUSH0 MSTORE PUSH1 0x21 PUSH1 0x4 MSTORE PUSH1 0x24 PUSH0 REVERT JUMPDEST DUP1 DUP3 ADD DUP1 DUP3 GT ISZERO PUSH2 0x1108 JUMPI PUSH2 0x1108 PUSH2 0x10B5 JUMP JUMPDEST SWAP3 SWAP2 POP POP JUMP JUMPDEST DUP5 DUP2 MSTORE PUSH1 0x1 PUSH1 0x1 PUSH1 0xA0 SHL SUB DUP5 AND PUSH1 0x20 DUP3 ADD MSTORE PUSH1 0x80 DUP2 ADD PUSH1 0x3 DUP5 LT PUSH2 0x1140 JUMPI PUSH4 0x4E487B71 PUSH1 0xE0 SHL PUSH0 MSTORE PUSH1 0x21 PUSH1 0x4 MSTORE PUSH1 0x24 PUSH0 REVERT JUMPDEST PUSH1 0x40 DUP3 ADD SWAP4 SWAP1 SWAP4 MSTORE PUSH1 0x60 ADD MSTORE SWAP3 SWAP2 POP POP JUMP JUMPDEST PUSH4 0x4E487B71 PUSH1 0xE0 SHL PUSH0 MSTORE PUSH1 0x32 PUSH1 0x4 MSTORE PUSH1 0x24 PUSH0 REVERT INVALID LOG2 PUSH5 0x6970667358 0x22 SLT KECCAK256 0x4B 0x23 0xA7 PUSH28 0xE517E9B6EB4F4D60013F5FF94CD756A9B64DB36CF4EF156B397774E1 PUSH5 0x736F6C6343 STOP ADDMOD XOR STOP CALLER "
		},
		"gasEstimates": {
			"creation": {
				"codeDepositCost": "901600",
				"executionCost": "25167",
				"totalCost": "926767"
			},
			"external": {
				"addMember(address)": "30060",
				"createProposal(string,string,uint256,uint256)": "infinite",
				"getAllProposals()": "infinite",
				"getAllProposalsInfo()": "infinite",
				"getProposalInfo(uint256)": "infinite",
				"members(address)": "2516",
				"nextProposalId()": "2339",
				"owner()": "2424",
				"proposals(uint256)": "infinite",
				"vote(uint256,uint8)": "86166"
			}
		},
		"methodIdentifiers": {
			"addMember(address)": "ca6d56dc",
			"createProposal(string,string,uint256,uint256)": "6b5e1766",
			"getAllProposals()": "cceb68f5",
			"getAllProposalsInfo()": "acbab3a9",
			"getProposalInfo(uint256)": "bc903cb8",
			"members(address)": "08ae4b0c",
			"nextProposalId()": "2ab09d14",
			"owner()": "8da5cb5b",
			"proposals(uint256)": "013cf08b",
			"vote(uint256,uint8)": "943e8216"
		}
	},
	"abi": [
		{
			"inputs": [],
			"stateMutability": "nonpayable",
			"type": "constructor"
		},
		{
			"anonymous": false,
			"inputs": [
				{
					"indexed": false,
					"internalType": "address",
					"name": "member",
					"type": "address"
				}
			],
			"name": "MemberAdded",
			"type": "event"
		},
		{
			"anonymous": false,
			"inputs": [
				{
					"indexed": false,
					"internalType": "uint256",
					"name": "proposalId",
					"type": "uint256"
				},
				{
					"indexed": false,
					"internalType": "address",
					"name": "proposer",
					"type": "address"
				},
				{
					"indexed": false,
					"internalType": "string",
					"name": "title",
					"type": "string"
				},
				{
					"indexed": false,
					"internalType": "string",
					"name": "ipfsLink",
					"type": "string"
				},
				{
					"indexed": false,
					"internalType": "uint256",
					"name": "startTime",
					"type": "uint256"
				},
				{
					"indexed": false,
					"internalType": "uint256",
					"name": "endTime",
					"type": "uint256"
				}
			],
			"name": "ProposalCreated",
			"type": "event"
		},
		{
			"anonymous": false,
			"inputs": [
				{
					"indexed": false,
					"internalType": "uint256",
					"name": "proposalId",
					"type": "uint256"
				},
				{
					"indexed": false,
					"internalType": "address",
					"name": "voter",
					"type": "address"
				},
				{
					"indexed": false,
					"internalType": "enum ProposalDAO.VoteChoice",
					"name": "voteChoice",
					"type": "uint8"
				},
				{
					"indexed": false,
					"internalType": "uint256",
					"name": "votes",
					"type": "uint256"
				}
			],
			"name": "Voted",
			"type": "event"
		},
		{
			"inputs": [
				{
					"internalType": "address",
					"name": "_member",
					"type": "address"
				}
			],
			"name": "addMember",
			"outputs": [],
			"stateMutability": "nonpayable",
			"type": "function"
		},
		{
			"inputs": [
				{
					"internalType": "string",
					"name": "_title",
					"type": "string"
				},
				{
					"internalType": "string",
					"name": "_ipfsLink",
					"type": "string"
				},
				{
					"internalType": "uint256",
					"name": "_votingStartTime",
					"type": "uint256"
				},
				{
					"internalType": "uint256",
					"name": "_votingEndTime",
					"type": "uint256"
				}
			],
			"name": "createProposal",
			"outputs": [],
			"stateMutability": "nonpayable",
			"type": "function"
		},
		{
			"inputs": [],
			"name": "getAllProposals",
			"outputs": [
				{
					"internalType": "uint256[]",
					"name": "",
					"type": "uint256[]"
				}
			],
			"stateMutability": "view",
			"type": "function"
		},
		{
			"inputs": [],
			"name": "getAllProposalsInfo",
			"outputs": [
				{
					"components": [
						{
							"internalType": "uint256",
							"name": "proposalId",
							"type": "uint256"
						},
						{
							"internalType": "string",
							"name": "title",
							"type": "string"
						},
						{
							"internalType": "string",
							"name": "ipfsLink",
							"type": "string"
						},
						{
							"internalType": "uint256",
							"name": "yesVotes",
							"type": "uint256"
						},
						{
							"internalType": "uint256",
							"name": "noVotes",
							"type": "uint256"
						},
						{
							"internalType": "uint256",
							"name": "endResults",
							"type": "uint256"
						},
						{
							"internalType": "uint256",
							"name": "votingStartTime",
							"type": "uint256"
						},
						{
							"internalType": "uint256",
							"name": "votingEndTime",
							"type": "uint256"
						}
					],
					"internalType": "struct ProposalDAO.ProposalInfo[]",
					"name": "",
					"type": "tuple[]"
				}
			],
			"stateMutability": "view",
			"type": "function"
		},
		{
			"inputs": [
				{
					"internalType": "uint256",
					"name": "_proposalId",
					"type": "uint256"
				}
			],
			"name": "getProposalInfo",
			"outputs": [
				{
					"internalType": "uint256",
					"name": "",
					"type": "uint256"
				},
				{
					"internalType": "string",
					"name": "",
					"type": "string"
				},
				{
					"internalType": "string",
					"name": "",
					"type": "string"
				},
				{
					"internalType": "uint256",
					"name": "",
					"type": "uint256"
				},
				{
					"internalType": "uint256",
					"name": "",
					"type": "uint256"
				},
				{
					"internalType": "uint256",
					"name": "",
					"type": "uint256"
				},
				{
					"internalType": "uint256",
					"name": "",
					"type": "uint256"
				},
				{
					"internalType": "uint256",
					"name": "",
					"type": "uint256"
				}
			],
			"stateMutability": "view",
			"type": "function"
		},
		{
			"inputs": [
				{
					"internalType": "address",
					"name": "",
					"type": "address"
				}
			],
			"name": "members",
			"outputs": [
				{
					"internalType": "bool",
					"name": "",
					"type": "bool"
				}
			],
			"stateMutability": "view",
			"type": "function"
		},
		{
			"inputs": [],
			"name": "nextProposalId",
			"outputs": [
				{
					"internalType": "uint256",
					"name": "",
					"type": "uint256"
				}
			],
			"stateMutability": "view",
			"type": "function"
		},
		{
			"inputs": [],
			"name": "owner",
			"outputs": [
				{
					"internalType": "address",
					"name": "",
					"type": "address"
				}
			],
			"stateMutability": "view",
			"type": "function"
		},
		{
			"inputs": [
				{
					"internalType": "uint256",
					"name": "",
					"type": "uint256"
				}
			],
			"name": "proposals",
			"outputs": [
				{
					"internalType": "uint256",
					"name": "id",
					"type": "uint256"
				},
				{
					"internalType": "address",
					"name": "proposer",
					"type": "address"
				},
				{
					"internalType": "string",
					"name": "title",
					"type": "string"
				},
				{
					"internalType": "string",
					"name": "ipfsLink",
					"type": "string"
				},
				{
					"internalType": "uint256",
					"name": "votingStartTime",
					"type": "uint256"
				},
				{
					"internalType": "uint256",
					"name": "votingEndTime",
					"type": "uint256"
				},
				{
					"internalType": "uint256",
					"name": "yesVotes",
					"type": "uint256"
				},
				{
					"internalType": "uint256",
					"name": "noVotes",
					"type": "uint256"
				}
			],
			"stateMutability": "view",
			"type": "function"
		},
		{
			"inputs": [
				{
					"internalType": "uint256",
					"name": "_proposalId",
					"type": "uint256"
				},
				{
					"internalType": "enum ProposalDAO.VoteChoice",
					"name": "_voteChoice",
					"type": "uint8"
				}
			],
			"name": "vote",
			"outputs": [],
			"stateMutability": "nonpayable",
			"type": "function"
		}
	]
}